:020000040800F2
:10000000700F002001010008090100080B01000821
:100010000D0100080F010008110100080000000098
:1000200000000000000000000000000013010008B4
:100030001501000800000000170100081901000860
:100040001B0100081B0100081B0100081B01000820
:100050001B0100081B0100081B0100081B01000810
:10006000012200081B0100081B0100081B010008F9
:100070001B0100081B0100081B0100081B010008F0
:100080001B0100081B0100081B0100081B010008E0
:100090001B0100081B0100081B0100081B010008D0
:1000A0001B0100081B0100081B0100081B010008C0
:1000B0001B0100081B010008994900081B010008EA
:1000C0001B0100081B0100081B0100081B010008A0
:1000D0001B010008C15100081B0100081B0100089A
:1000E0001B0100081B0100081B010008DFF80CD0F1
:1000F00000F002FC004800471D620008700F00205D
:100100000648804706480047FEE7FEE7FEE7FEE7B1
:10011000FEE7FEE7FEE7FEE7FEE7FEE7D54800085C
:10012000ED0000080649074A0868504343F23902C7
:10013000104408604008704701490860704700009B
:10014000D00200206D4EC64140EA01039B0703D058
:1001500009E008C9121F08C0042AFAD203E011F806
:10016000013B00F8013B521EF9D27047F0B480EA1F
:100170000102D40F4200B2EB410F02D20246084600
:1001800011464A0042D0C30DDDB2C1F3C752AD1AC9
:10019000202D35DAC1F3160141F4000204B15242B8
:1001A000C5F1200602FA06F12A411044B3EBD05FF4
:1001B00023D0C4B1012DA0EBC35009DCF0BC4FF03B
:1001C000004202EAC352DBB200F5000000F0C8B9F9
:1001D000400000F1807000EBC350A0F1807040EA55
:1001E000D170490009E0490841EAC071A0EBC35051
:1001F00000F50000400800EBC350F0BC00F0A7B9C8
:100200006142012202EB4101001BF6E7F0BC70479E
:1002100081F00041AAE780F00040A7E780EA0102F0
:1002200010B502F00043400022D04A001FD0010E5A
:1002300001EB1261C0F35600C2F3560240F4000015
:1002400042F40002A0FB022000047F39140400D015
:10025000401C50EA124001D44000491EC2B20C06B4
:1002600004EBD010401C4008802A02D003E000209C
:1002700010BD20F00100002900DA0020184310BD55
:1002800030B480EA010202F0004530F0004221F073
:10029000004013D090B1C30DD40DC2F31601C0F3CA
:1002A0001600E41A41F4000140F400027D3491424A
:1002B00001D3641C00E04900002C02DA30BC0020AD
:1002C00070474FF400000023914201D3891A034381
:1002D00040084FEA4101F7D151B1914202D14FF0AC
:1002E000004105E002D24FF0010101E06FF0010191
:1002F00003EBC450284430BC00F029B92DE9FE4F6F
:1003000081EA030404F0004421F0004100944FF01E
:10031000000B23F0004350EA01045ED052EA0304CC
:100320005BD0C3F30A54C1F30A552C44A4F2F3344E
:100330000194A0FB0254C1F3130141F48011C3F3F3
:10034000130343F4801301FB024400FB034E840AB1
:10035000970A44EA815447EA8357A4FB0768029549
:100360008D0A05FB07854FEA932C04FB0C542705E7
:10037000029D4FEA065847EA1637B5EB08056EEBC3
:10038000070C870E920E47EA811742EA8312A7FBF9
:100390000201B6EB0B0164EB00042B0D43EA0C33B6
:1003A0005E1844EB1C50DA465146E7FB0201C5F3E8
:1003B00013044FEA0B3343EA14534FEA0432019C0F
:1003C00043EA0603A4F10C040294009CCDE900B4B6
:1003D00000F02DF903B0BDE8F08F00200146F9E7E9
:1003E000C10F80EAE0700844CA079623002100F09C
:1003F000B7B896230022114600F0B2B80EB5C10F6F
:1004000080EAE0700844CA07002140F233438DE8D7
:100410000E000A460B4600F00AF903B000BD00F0DA
:10042000004220F00040C10DC0F3160040F400006F
:100430007F2901DA00207047962903DCC1F196017B
:10044000C84001E096398840002AF4D04042704705
:1004500020F00040C10DC0F3160040F400007F29D9
:1004600001DA00207047962903DCC1F19601C840EB
:10047000704796398840704700F0004230F00040E5
:100480000AD0C10D01F56071C0F3160042EA0151B6
:10049000C208400711437047002001467047000022
:1004A00030B5041E71F1000404DB4FF000444042FB
:1004B00064EB0101141E73F1000405DB1C464FF0D0
:1004C0000043524263EB04038B4208BF824230BDBB
:1004D00001F0004330B421F0004150EA010206D09F
:1004E0000A0DA2F56072C1F31301002A02DC30BCD0
:1004F00000207047440F44EAC104C100E01830BC3A
:1005000000EBC25000F023B8002801DBC0F100402E
:10051000002901DBC1F1004181427047002801DB65
:10052000C0F10040002901DBC1F100418842704761
:10053000202A04DB203A00FA02F1002070479140A3
:10054000C2F1200320FA03F31943904070470029B9
:10055000A8BF7047401C490008BF20F00100704749
:1005600010B4B0FA80FC00FA0CF050EA010404BFA9
:1005700010BC704749B1CCF1200421FA04F411FAFF
:100580000CF118BF012121430843A3EB0C01CB1D43
:100590004FEA00614FEA102042BF002010BC7047B4
:1005A00000EBC35010440029A4BF10BC7047401C8E
:1005B000490008BF20F0010010BC7047420005D080
:1005C000C0F3C7525242914201DC0020704700EB59
:1005D000C150704710B541000CD0C0F3C7519629E7
:1005E00008DC7E2909DC06DB410204D000F0004073
:1005F00040F07E5010BD002010BDC1F19604C4F142
:10060000200100FA01F1E040FFF7A1FFA04010BD7A
:1006100010B5141E73F1000408DA401C41F100010A
:1006200092185B411A4301D120F0010010BD2DE961
:10063000F04D92469B4611B1B1FA81F202E0B0FA58
:1006400080F220329046FFF773FF04460F4640EADF
:100650000A0041EA0B0153465A46084313D011469B
:1006600053EA010019D0C8F14002504600F056F993
:1006700005460E46504659464246FFF759FF084385
:1006800005D0012004E020463946BDE8F08D002069
:10069000054346EAE0762C4337430A986305E40AAB
:1006A000A0EB08000022FD0A44EA47540A3002D5B4
:1006B00000200146E9E7010510196941DDE9084517
:1006C00000196941BDE8F04DA2E72DE9FE4F8046D3
:1006D00081EA0300C00F0C46009021F0004123F096
:1006E0000045B8EB0200A94105D24046214690469C
:1006F0001C460B46024623F00040104347D0270D0E
:10070000C7F30A00C3F30A510290401A019040282F
:100710006BDAC3F3130040F4801B0098924620B1BB
:100720000023D2EB030A63EB0B0B01985946C0F18F
:1007300040025046FFF7FCFE06460D46504659461D
:10074000019A00F0FBF810EB08006141002487EAF1
:10075000115284EAE7731A4340D0009A62B3019AB7
:10076000012A4FEA075215DC001B61EB02014FF032
:10077000004202EA0752CDE90042001C41F5801117
:1007800032462B46FFF753FF03B0BDE8F08F4046DB
:100790002146F9E7001B61EB0201001C41F58013C3
:1007A00000185B412018A2F5001747EB030140EA4F
:1007B000D570B6196D4111E06D084FEA360645EA6D
:1007C000C0754FEA0752001B61EB0201001C41F5A6
:1007D000801149084FEA30000019514132462B463A
:1007E00003B0BDE8F04FFFF713BF009801224000AF
:1007F0000023D0EB020263EBE073009821464FEA3E
:10080000E074B8EB000061EB0401E9E783F000431A
:100810005BE781F0004158E72DE9F04D81EA0304E0
:1008200004F0004B21F0004514464FF0000A23F07D
:10083000004150EA050220D054EA01021DD0C5F360
:100840000A570246C5F31303C1F31300C1F30A5656
:1008500040F4801543F48013A7EB0608101BD6461E
:1008600008F2FD3873EB050002D308F1010801E03E
:1008700092185B41B8F1000F03DA00200146BDE891
:10088000F08D00204FF48011064684460EE0171BC1
:1008900073EB050705D3121B63EB050306434CEA14
:1008A000010C49084FEA300092185B4150EA0107F9
:1008B000EDD152EA030012D082EA040083EA050176
:1008C000084305D0101BAB4106D20122002306E0ED
:1008D00000224FF0004302E06FF0010253101AEBC8
:1008E00006004CEB085110EB0A0041EB0B01BDE890
:1008F000F04DFFF78DBE0000064C074D06E0E068A6
:1009000040F0010394E8070098471034AC42F6D356
:10091000FFF7F0FBF864000818650008202A04DBE4
:10092000203A21FA02F00021704721FA02F3D04068
:10093000C2F120029140084319467047202A06DB85
:10094000CB17203A41FA02F043EAE07306E041FA9D
:1009500002F3D040C2F1200291400843194670478B
:10096000F0B4002802DCF0BC00207047C0F3C7518F
:10097000C0F3160040F40000CA0701D14000491E30
:100980003F2202EB6105002211464FF4000626FAD1
:1009900001F31344D418844201D8001B1A464000C6
:1009A000491C1729F3DD5100814202D24FF0FF317B
:1009B00000E0002102EBC550F0BCFFF7C8BD70B5E8
:1009C00021F0004303430CD0C1F30A550024D5EBBA
:1009D000040564EB0403D617AD1AB34102DB002013
:1009E000014670BD201841EB025170BD70B58C18E6
:1009F00010F8015B15F0070301D110F8013B2A1133
:100A000006D110F8012B03E010F8016B01F8016B1F
:100A10005B1EF9D12B0705D40023521E0DD401F81B
:100A2000013BFAE710F8013BCB1A921C03E013F8E4
:100A3000015B01F8015B521EF9D5A142D8D3002019
:100A400070BD21B1826842F00102826003E08268D9
:100A500022F001028260704730B502460020002378
:100A600050680F4C20400D790C6844EA052420435F
:100A7000506090680B4C2040D1E902542C434D79D2
:100A800044EA450420439060D06A20F470000C7C56
:100A9000641EE4B2234340EA0350D06230BD00003C
:100AA000FFFEF0FFFDF7F1FFF0B504460D46002014
:100AB0000021092D11DDE068A5F10A0606EB4607C5
:100AC000072606FA07F18843A5F10A0606EB460653
:100AD00003FA06F10843E0600CE0206905EB4507E6
:100AE000072606FA07F1884305EB450603FA06F1E7
:100AF00008432061072A0FDA606B561E06EB860753
:100B00001F2606FA07F18843561E06EB860605FAED
:100B100006F10843606322E00D2A0FDA206BD61F2E
:100B200006EB86071F2606FA07F18843D61F06EB59
:100B3000860605FA06F10843206310E0E06AA2F198
:100B40000D0606EB86071F2606FA07F18843A2F179
:100B50000D0606EB860605FA06F10843E062F0BDD5
:100B60002DE9F04F87B0C0480078401CBE4908709E
:100B7000BE480078401CBD490870BD480078401C44
:100B8000BB490870BB480078401CBA490870BA4895
:100B90000078401CB8490870B3480078372805DB56
:100BA0000020B14908700120B4494870AF4800786E
:100BB000052805DB0020AD4908700120AF49887089
:100BC000AB480078142805DB0020A94908700120F3
:100BD000AA49C870A7480078232805DB0020A5494A
:100BE00008700120A5490871A34800783C2805DB5E
:100BF0000020A14908700120A04948719F48407811
:100C000078B100209D4948709D48007800219D4B97
:100C1000CDE900109A6859681868002300F092FE28
:100C20001FE19648807800286DD000209349887095
:100C300095498868FFF7F3FB0FFA80FB5846FFF7EA
:100C4000CFFB82469149FFF7E9FA8146FFF7E7FBC0
:100C500004B28D494868FFF7E2FB0FFA80FB584663
:100C6000FFF7BEFB82468949FFF7D8FA8146FFF7B6
:100C7000D6FB05B284490868FFF7D1FB0FFA80FB69
:100C80005846FFF7ADFB82468049FFF7C7FA814619
:100C9000FFF7C5FB06B27E498868FFF7C0FB07B2C5
:100CA0007B494868FFF7BBFB0FFA80F87849086872
:100CB000FFF7B5FB00B2069000200290039004906D
:100CC00033463A464146CDE900540590069800F077
:100CD0007BFD6D4988686D49FFF7A0FA04466D48B1
:100CE000006B6C49C96A6B4A926A6A4BDB68CDE952
:100CF0000032CDE902106848036BC26A816A20465F
:100D000001F09CF8ADE05D48C07818B100205B4967
:100D1000C870A6E05948007918B1002057490871F9
:100D20009FE05648407988B10020544948715B499A
:100D300088685B49FFF772FA0546FFF789FB84B2C2
:100D40004FF4E471204600F0F5FC8AE04B488079CE
:100D5000D0B10020494988714F48816842680068D5
:100D6000504B9B68CDE90230CDE904214D484068E5
:100D70004C490968CDE900104B4883684268016816
:100D8000012000F0D1FB6CE03C48C079E0B10020CC
:100D90003A49C8713F4880683E4949683D4A1268EF
:100DA000424B9B68CDE90232CDE904103F484068D0
:100DB0003E490968CDE900103D48836842680168F2
:100DC000022000F0B1FB4CE02C48007AB8B10020C2
:100DD0002A490872002137488068CDE90201049150
:100DE00034480591406833490968CDE9001032481C
:100DF000836842680168032000F096FB31E01F48D9
:100E0000407A70B300201D4948722C482C498A074B
:100E10002C4BCDE90232CDE904102B482B49024678
:100E2000CDE90010012000F07FFB0020284ACDE929
:100E30000202049005902748274900230246CDE985
:100E40000010022000F070FB00200290039004903C
:100E5000059000900346024601460190032000F0F1
:100E600063FB07B0BDE8F08F9102002092020020E2
:100E7000930200209402002095020020020B002023
:100E80008D0200206C08002078080020A34C6542E9
:100E9000900800205C090020100A0020E8010020D2
:100EA0000000C842D4090020980900202009002031
:100EB000E4080020880A00204C0A00207B142E3F02
:100EC000CDCC4C3D5C8FC23E295C0F3D6666263F13
:100ED0000000A0400AD7233C9A9919402DE9F05F01
:100EE00004460D460026B14607E014F809003044D8
:100EF000C6B209F1010000F0FF09681E4845F4DCA4
:100F0000601910F8010CB04201D0BDE8F09F2078C4
:100F1000AA2802D16078AF2800D0F6E7A07801288F
:100F20003ED1207901280AD1FE48007840F0020025
:100F3000FC4908700020FC4908804880888020799E
:100F400002280AD1F748007840F00100F5490870FE
:100F50000020F649088048808880207903280AD13B
:100F6000F048007840F00200EE490870084600782A
:100F700040F001000870207904280FD1EC48007877
:100F800080F00100EA4908700846007818B1012095
:100F9000E849087002E00020E649087002F06EFBA4
:100FA000A078022812D12079012803D1E249887162
:100FB000C87108722079A02802D10120DE4908708A
:100FC0002079A12802D10120DB494872A07810289D
:100FD0007ED12179090209B2627941EA0200FFF764
:100FE0000DFA8246D54AD64BFFF788F90746FFF738
:100FF0006FFAD4490860A179090209B2E27941EA9D
:101000000200FFF7FBF98246CC4ACD4BFFF776F999
:101010000746FFF75DFACB494860217A090209B219
:10102000627A41EA0200FFF7E9F98246C34AC44BFB
:10103000FFF764F90746FFF74BFAC2498860A17AC7
:10104000090209B2E27A41EA0200FFF7D7F98246C3
:10105000BA4ABB4BFFF752F90746FFF739FABA49CC
:101060000860217B090209B2627B41EA0200FFF7B6
:10107000C5F98246B14AB24BFFF740F90746FFF780
:1010800027FAB1494860A17B090209B2E27B41EA33
:101090000200FFF7B3F98246A84AA94BFFF72EF9E1
:1010A0000746FFF715FAA8498860217C090209B2B2
:1010B000627C41EA0200FFF7A1F982469F4AA04BF9
:1010C000FFF71CF90746FFF703FAA049086000E0A4
:1010D00029E0A17C090209B2E27C41EA0200FFF7A3
:1010E0008DF98246954A964BFFF708F90746FFF7B8
:1010F000EFF996494860217D090209B2627D41EA13
:101100000200FFF77BF907468C4A8D4BFFF7F6F894
:101110008246FFF7DDF98D498860A078314600F0FE
:10112000D7F902F0ABFAA07811287DD12179090214
:1011300009B2627941EA0200FFF760F907467F4A87
:101140007F4BFFF7DBF88246FFF7C2F98049086062
:10115000A179090209B2E27941EA0200FFF74EF9EA
:101160008246764A764BFFF7C9F80746FFF7B0F993
:1011700077494860217A090209B2627A41EA02009D
:10118000FFF73CF982466D4A6D4BFFF7B7F807460B
:10119000FFF79EF96E498860A17A090209B2E27AE6
:1011A00041EA0200FFF72AF90746644A644BFFF759
:1011B000A5F88246FFF78CF966490860217B090291
:1011C00009B2627B41EA0200FFF718F907465B4A61
:1011D0005B4BFFF793F88246FFF77AF95D49486069
:1011E000A17B090209B2E27B41EA0200FFF706F99E
:1011F0008246524A524BFFF781F80746FFF768F9DB
:1012000054498860217C090209B2627C41EA0200EB
:10121000FFF7F4F88246494A494BFFF76FF8074653
:10122000FFF756F94C4900E02AE00860A17C09026A
:1012300009B2E27C41EA0200FFF7E0F807463F4AC4
:101240003F4BFFF75BF88246FFF742F9424948609F
:10125000217D090209B2627D41EA0200FFF7CEF862
:101260000746364A364BFFF749F88246FFF730F912
:1012700039498860A078314600F02AF902F0FEF979
:10128000A07812286ED12179090209B2627941EA67
:101290000200FFF7B3F80746284A294BFFF72EF85C
:1012A0008246FFF715F92D490860A179090209B2B4
:1012B000E27941EA0200FFF7A1F807461F4A204BF6
:1012C000FFF71CF88246FFF703F924494860217AAA
:1012D000090209B2627A41EA0200FFF78FF8074675
:1012E000164A174BFFF70AF88246FFF7F1F81B4939
:1012F0008860A17A090209B2E27A41EA0200FFF7A6
:101300007DF807460D4A0E4BFEF7F8FF8246FFF7C1
:10131000DFF813490860217B090209B2627B41EAC8
:10132000020020E024020020120200200C02002013
:10133000900200208D020020020B0020FCA9F1D2B7
:101340004D62503F98090020D4090020100A002067
:10135000E4080020200900205C0900204C0A00203D
:10136000880A002023E0FFF749F807461B4A1C4B78
:10137000FEF7C4FF8246FFF7ABF81A494860A17B2D
:10138000090209B2E27B41EA0200FFF737F807469B
:10139000124A134BFEF7B2FF8246FFF799F8114944
:1013A0008860A078314600F093F802F067F9A078E1
:1013B000132803D1A078314600F08AF8A0781428C9
:1013C00003D1A078314600F083F8A078152803D126
:1013D000A078314600F07CF800BF96E5FCA9F1D278
:1013E0004D62503F880A002010B50446344800780A
:1013F00038B9AA2C05D10120314908703148047050
:101400005DE02F480078012807D1AF2C05D10220DC
:101410002B4908702B48447051E029480078022875
:1014200007D1F12C05DA032025490870254884707E
:1014300045E02348007803280CD1322C0ADA042036
:101440001F4908701F48C4701F48047000201F49BE
:10145000087034E01A480078042819D11A48007836
:10146000002815DD18480078401E174908701748F5
:10147000007816490978491C144A1170001D114959
:101480000C5411480078D0B905200D49087016E0B9
:101490000B48007805280FD10020094908700B4837
:1014A0000078001D07490C5408480078401DC1B25F
:1014B0000448FFF713FD02E000200149087010BD49
:1014C000980200203E0B0020960200209702002088
:1014D0002DE9F04105460E460027AA200D49087067
:1014E0004870EF2088700220C87008460571467168
:1014F000002405E00748005D3844C7B2601CC4B250
:10150000062CF7DB03488771072100F005F8BDE8DA
:10151000F08100000C0B002070B504460D462946F2
:10152000204604F05FFF70BD2DE9FC5F06460F46C4
:1015300090469946DDF830B00024A246AA22214602
:10154000641C7A4842542146641C425406F10F0040
:10155000C2B22146641C7548425400222146641CD4
:10156000425473493846FEF759FE0090FEF757FF84
:1015700000B201909DF805202146641C6B4842543E
:101580009DF804202146641C425469494046FEF7F8
:1015900045FE0090FEF743FF00B201909DF8052044
:1015A0002146641C614842549DF804202046611C79
:1015B000CCB25E490A545E494846FEF72FFE0090C1
:1015C000FEF72DFF00B201909DF805202046611C1A
:1015D000CCB256490A549DF804202046611CCCB276
:1015E00052490A5452495846FEF718FE0090FEF739
:1015F00016FF00B201909DF805202046611CCCB278
:101600004A490A549DF804202046611CCCB247493F
:101610000A5447490D98FEF701FE0090FEF7FFFEC1
:1016200000B201909DF805202046611CCCB23F49D4
:101630000A549DF804202046611CCCB23B490A5450
:101640003B490E98FEF7EAFD0090FEF7E8FE00B277
:1016500001909DF805202046611CCCB233490A5404
:101660009DF804202046611CCCB230490A54304910
:101670000F98FEF7D3FD0090FEF7D1FE00B2019067
:101680009DF805202046611CCCB228490A549DF8DB
:1016900004202046611CCCB224490A5424491098E5
:1016A000FEF7BCFD0090FEF7BAFE00B201909DF877
:1016B00005202046611CCCB21C490A549DF8042028
:1016C0002046611CCCB219490A5419491198FEF7F9
:1016D000A5FD0090FEF7A3FE00B201909DF8052045
:1016E0002046611CCCB211490A549DF804202046C2
:1016F000611CCCB20D490A54201FC870002506E0B9
:101700000A48405D504400F0FF0A681CC5B2A5427B
:10171000F6DB2046611CCCB2044901F800A021464A
:101720000248FFF7F9FEBDE8FC9F00000C0B00200B
:1017300000007A442DE9F84306460F460024A046EF
:10174000AA222146641C1F4842542146641C42546C
:1017500005222146641C425400222146641C425446
:1017600000969DF801202146641C42549DF80020FB
:101770002146641C425400979DF801202146641CB8
:1017800042549DF800202046611CCCB20D490A54F9
:10179000201FC870002506E00A48405D404400F064
:1017A000FF08681CC5B2A542F6DB2046611CCCB21E
:1017B000044901F8008021460248FFF7ADFEBDE86C
:1017C000F88300000C0B00202DE9F84F06460F4669
:1017D00090469946DDF828B00024A246AA22214668
:1017E000641C574842542146641C4254022221463C
:1017F000641C425400222146641C425400969DF809
:1018000001202146641C42549DF800202146641C9E
:10181000425400979DF801202146641C42549DF8D3
:1018200000202046611CCCB245490A54CDF8008006
:101830009DF801202046611CCCB241490A549DF814
:1018400000202046611CCCB23D490A54CDF80090DE
:101850009DF801202046611CCCB239490A549DF8FC
:1018600000202046611CCCB235490A54CDF800B0A6
:101870009DF801202046611CCCB231490A549DF8E4
:1018800000202046611CCCB22D490A540B980090D0
:101890009DF801202046611CCCB229490A549DF8CC
:1018A00000202046611CCCB225490A540C980090B7
:1018B0009DF801202046611CCCB221490A549DF8B4
:1018C00000202046611CCCB21D490A540D9800909E
:1018D0009DF801202046611CCCB219490A549DF89C
:1018E00000202046611CCCB215490A540E98009085
:1018F0009DF801202046611CCCB211490A549DF884
:1019000000202046611CCCB20D490A54201FC8702B
:10191000002506E00A48405D504400F0FF0A681CBC
:10192000C5B2A542F6DB2046611CCCB2044901F8E1
:1019300000A021460248FFF7EFFDBDE8F88F000048
:101940000C0B00202DE9FE4F82460E4617469846A6
:10195000DDF830B00024A146CDF80480AA2221464B
:10196000641C484842542146641C425401222146CA
:10197000641C425400222146641C42544249504691
:10198000FEF74CFC0090FEF74AFD00B202909DF875
:1019900009202146641C3B4842549DF808202146FA
:1019A000641C425438493046FEF738FC0090FEF77C
:1019B00036FD00B202909DF809202146641C314892
:1019C00042549DF808202146601CC4B22D48425460
:1019D0002D493846FEF722FC0090FEF720FD00B2AC
:1019E00002909DF809202046611CCCB225490A547A
:1019F0009DF808202146601CC4B2224842549DF83C
:101A000007202046611CCCB21E490A549DF80620CE
:101A10002046611CCCB21B490A549DF80520204683
:101A2000611CCCB217490A549DF804202146601C61
:101A3000C4B2144842542046611CCCB2114901F88A
:101A400000B02146621CD4B20E4A0D985054201F9B
:101A50001146C870002506E00A48405D484400F081
:101A6000FF09681CC5B2A542F6DB2046611CCCB25A
:101A7000044901F8009021460248FFF74DFDBDE8FA
:101A8000FE8F00000C0B00200000C84200B5094882
:101A9000007868B10848007828B10020064908702D
:101AA00002F068F904E001200349087002F055F9DA
:101AB00000BD0000FC010020E101002000B587B05E
:101AC00001214FF4017002F0B9F84FF4004002F028
:101AD00099F80220ADF8180000208DF81B0006A927
:101AE000104800F045FD00200190049001208DF881
:101AF000140000208DF808004FF4602003900020AF
:101B00008DF8090001A90848FEF7A6FF0121064843
:101B1000FEF797FF0723012211460348FEF7C4FF93
:101B200007B000BD000801400024014010B5044684
:101B300028480078C007B0EBC47F0FD004F0010044
:101B400038B101202449087002F0F2F802F005F9DA
:101B500004E000202049087002F0FFF81D480078DA
:101B600000F0020004F0020188420FD004F00100EE
:101B700038B101201849087002F0DAF802F0EDF8E7
:101B800004E000201449087002F0E7F804F00400B3
:101B900028B11248007840F00100104908700D4843
:101BA000007800F0080004F0080188420FD004F02B
:101BB000080030B10948007840F04000074908703B
:101BC00005E00648007820F040000449087001480C
:101BD000047010BDA40200208D0200202402002009
:101BE0002DE9F04F87B005460E4614469946286801
:101BF000049068680590A8680690B4F90010A1F2F6
:101C0000DC50FEF7EDFB07467C49FEF739FB0190FF
:101C1000B4F90210A1F2DC50FEF7E2FB0746774967
:101C2000FEF72EFB0290B4F9061040F2DC52501A77
:101C3000FEF7D6FB07467249FEF722FB0390714878
:101C4000007810B9002003900CE00398FEF714FC14
:101C500021F00041074600226B4BFEF721FC01D228
:101C60000020039069480078C0F3801018B104A9DF
:101C700001A803F091FC6648049A019901F04EFC1A
:101C80006448059A029901F049FC63497068FEF7BF
:101C9000C5FA07465E483A46416B604801F03EFC93
:101CA0005D493068FEF7BAFA80F0004759483A4675
:101CB000416B5B4801F032FC5749B068FEF7AEFA61
:101CC0000746584A11680398FEF7A8FA80463A4634
:101CD0004146554801F022FCB4F90400B42863DD04
:101CE000B9F1000F60D0B4F90400FEF779FB824629
:101CF0004A48416B5046FEF78BFA80464848416B94
:101D00004046FEF785FA07464748416B3846FEF7DE
:101D10002DFA46490860B4F90400FEF761FB8246DB
:101D20003E48416B5046FEF721FA80463C48416BE5
:101D30004046FEF76DFA07463B48416B3846FEF7D2
:101D400067FA3B490860B4F90400FEF749FB824694
:101D50003248416B5046FEF709FA80463048416BE5
:101D60004046FEF703FA07462F48416B3846FEF718
:101D7000FDF930490860B4F90400FEF731FB8246F2
:101D80002648416B5046FEF743FA80462448416B93
:101D90004046FEF7EBF907462348416B3846FEF70D
:101DA00037FA2549086008E00020204908602049EA
:101DB000086020490860204908601F480068FEF755
:101DC0002EFB07B21B480068FEF729FB0FFA80F8CC
:101DD00017480068FEF723FB0FFA80FA13480068E3
:101DE000FEF71DFB0FFA80FB3B4642465146584624
:101DF00001F0F6FA07B0BDE8F08F00000000A04146
:101E0000000020428C02002000001040240200202C
:101E1000E408002020090020A34C65429809002016
:101E2000D40900205C090020100A00207C02002058
:101E30008002002084020020880200202DE9F84F53
:101E400006460F4690469946DDF828B00024A24683
:101E5000AA222146641C874842542146641C4254ED
:101E6000F1222146641C425400222146641C425443
:101E700000969DF803202146641C42549DF80220E0
:101E80002146641C42549DF801202146641C4254A2
:101E90009DF800202046611CCCB276490A54009778
:101EA0009DF803202046611CCCB272490A549DF86B
:101EB00002202146601CC4B26E4842549DF80120A5
:101EC0002046611CCCB26B490A549DF80020204684
:101ED000611CCCB267490A54CDF800809DF80320FC
:101EE0002046611CCCB263490A549DF8022020466A
:101EF000611CCCB25F490A549DF801202046611C48
:101F0000CCB25C490A549DF800202046611CCCB23A
:101F100058490A54CDF800909DF803202046611CD2
:101F2000CCB254490A549DF802202046611CCCB220
:101F300050490A549DF801202046611CCCB24D49FD
:101F40000A549DF800202046611CCCB249490A542D
:101F5000CDF800B09DF803202046611CCCB2454965
:101F60000A549DF802202046611CCCB241490A5413
:101F70009DF801202046611CCCB23E490A549DF8D0
:101F800000202046611CCCB23A490A540B980090BC
:101F90009DF803202046611CCCB236490A549DF8B6
:101FA00002202046611CCCB232490A549DF801201F
:101FB0002046611CCCB22F490A549DF800202046CF
:101FC000611CCCB22B490A540C9800909DF8032058
:101FD0002046611CCCB227490A549DF802202046B5
:101FE000611CCCB223490A549DF801202046611C93
:101FF000CCB220490A549DF800202046611CCCB286
:102000001C490A540D9800909DF803202046611C3D
:10201000CCB218490A549DF802202046611CCCB26B
:1020200014490A549DF801202046611CCCB2114984
:102030000A549DF800202046611CCCB20D490A5478
:10204000201FC870002506E00A48405D504400F09B
:10205000FF0A681CC5B2A542F6DB2046611CCCB263
:10206000044901F800A021460248FFF755FABDE8EF
:10207000F88F00000C0B002000201C4908804880CD
:102080008880C880088148814FF4E16088810820F9
:10209000C881322008824FF4E1604882082088829B
:1020A0003220C882002008834883888340F2A2300F
:1020B000C883052008844FF45770488440F2A2304A
:1020C00088840520C8844FF4577008854FF4FA605F
:1020D0004885322088854FF47A70C88500200886AC
:1020E00048868886C886088748877047C40A0020C3
:1020F00070B5FFF7C1FF3E242046E11704EB917154
:102100008910A4EB8101091D09B1012100E0002122
:1021100094FBF1F1CDB22A460249034802F0F6F9E8
:1021200070BD0000C40A002000F8010810B56FF06F
:10213000040002F0BBFB0A4800680A49B0FBF1F05A
:10214000094908700846007800EB4001C1EBC01057
:102150004FF6FF7101EAC0000449088010BD00007D
:10216000BC02002000127A00E2010020E4010020FD
:10217000014600224FF0E0231A610E4A12884A43BA
:102180005A6100229A611A46126942F001021A61EC
:1021900000BF4FF0E022106900F001021AB100F414
:1021A0008032002AF5D000224FF0E0231A619A61B4
:1021B00070470000E4010020014600224FF0E023B8
:1021C0001A610E4A12784A435A6100229A611A46ED
:1021D000126942F001021A6100BF4FF0E02210695B
:1021E00000F001021AB100F48032002AF5D000227A
:1021F0004FF0E0231A619A6170470000E20100206D
:1022000010B5042000F042F8002834D01A480068C5
:1022100040F4807018490860072002F039F804463D
:1022200004F0200050B10F2002F090F82021272068
:1022300002F070F8FF21E12002F06CF804F0400099
:1022400040B10E4801F088FF01F01EFE402127201A
:1022500002F060F804F0100050B10F2002F076F8A0
:102260001021272002F056F8FF21E12002F052F859
:10227000042000F005F810BD14080140FC02002005
:102280000149086070470000140401400146002025
:102290000022074B1B6803EA0102054B14331B683D
:1022A0000B4013B10AB1012000E00020704700008C
:1022B00000040140002123498279002A3AD00A46CD
:1022C000126803689A430B461A600A1D1268036875
:1022D0009A430B1D1A60027911440A6803681A4375
:1022E0000A60184A0832126803689A43154B08338B
:1022F0001A601A1D126803689A43124B0C331A6055
:102300004279102A0ED11A1F126803681A430D4B26
:1023100008331A601A1D126803681A43094B0C33FC
:102320001A600DE00749427911440A6803681A43AC
:102330000A6005E0027911440A6803689A430A605A
:1023400070470000000401400EB50121092001F092
:1023500075FC0221012000F0EBF80420ADF8080024
:1023600048208DF80B0003208DF80A0002A90948C7
:1023700000F0FEF80420009000208DF804000C20EE
:102380008DF8050001208DF806006846FFF792FFE2
:102390000EBD0000000C014030B5044604254FF48A
:1023A000302000F085F80546042D17D10C4800694F
:1023B00040F002000A49086108464461006940F0A3
:1023C000400008614FF4302000F072F805460448E0
:1023D000006941F6FD71084001490861284630BD99
:1023E0000020024004200B49C96801F0010109B135
:1023F00001200EE00749C96801F0040109B102207B
:1024000007E00449C96801F0100109B1032000E0A8
:1024100004207047002002400348006940F080001B
:1024200001490861704700000020024078B5064667
:102430000C46042500200090E80200F039F805461B
:10244000042D24D11348006940F0010011490861AE
:102450003480E80200F02CF80546042D10D1B01CA1
:102460000090200C00990880E80200F021F8054651
:102470000848006941F6FE7108400649086106E017
:102480000448006941F6FE71084002490861284687
:1024900078BD00000020024002480349486003481C
:1024A000486070472301674500200240AB89EFCDAB
:1024B00000B502460423FFF795FF034603E0FFF74C
:1024C00091FF0346521E012B01D1002AF7D102B918
:1024D0000523184600BD2DE9F04105460C46164679
:1024E00055F824701BE000E0761EB44205DA55F87A
:1024F00026003946FEF712F8F6D955F8260045F8B9
:10250000240000E0641CB44205DA55F82400394682
:10251000FDF7FAFFF6D955F8240045F82600B44235
:10252000E1DB45F824702046FDF75AFFBDE8F08155
:1025300030B500228B071C0F0F2303FA04F20B4B5C
:102540008C1053F824309343084C8D1044F82530F8
:1025500023468C1053F824308C07240F00FA04F41F
:102560002343024C8D1044F8253030BD0800014053
:102570002DE9F0410246002500260020002300241A
:10258000002791F803C00CF00F0591F803C00CF080
:10259000100CBCF1000F03D091F802C04CEA050505
:1025A00091F800C0BCF1000F31D0146800202BE07E
:1025B0004FF0010C0CFA00F3B1F800C00CEA03066E
:1025C0009E4220D183004FF00F0C0CFA03F7BC435E
:1025D00005FA03FC4CEA040491F803C0BCF1280F8F
:1025E00006D14FF0010C0CFA00FCC2F814C00AE04E
:1025F00091F803C0BCF1480F05D14FF0010C0CFA63
:1026000000FCC2F810C0401C0828D1D31460B1F8F7
:1026100000C0BCF1FF0F34DD546800202EE000F153
:10262000080C4FF0010808FA0CF3B1F800C00CEAEE
:1026300003069E4221D183004FF00F0C0CFA03F7E2
:10264000BC4305FA03FC4CEA040491F803C0BCF156
:10265000280F05D100F1080C08FA0CF8C2F8148014
:1026600091F803C0BCF1480F07D100F1080C4FF0FE
:10267000010808FA0CF8C2F81080401C0828CED3D4
:102680005460BDE8F081416170470161704700000E
:1026900010B540200A49086001F052FC802008492A
:1026A00008600120FFF788FD40200549091F0860E8
:1026B0000220FFF781FD40200149086010BD0000A5
:1026C000140C014008B50121082001F0B7FAC02020
:1026D000ADF8000010208DF8030003208DF80200F3
:1026E00069460448FFF744FFC0210248FFF7CDFFC9
:1026F00008BD0000000C014010B540200A490860E8
:1027000001F01EFC80200849091F08600120FFF726
:1027100053FD40200449091F08600120FFF74CFDCC
:1027200040200149086010BD140C014070B50546F9
:10273000002401F0F3FB002618E040201049086057
:102740000120FFF739FD40200D49091F0860600690
:10275000040E0B480C380068C0F3C01008B1601CB0
:10276000C4B20120FFF728FD701CC6B2082EE4DBBE
:1027700015B1FFF78DFF01E0FFF7BEFF204670BDEA
:10278000140C014070B504460D46164600F086F85C
:10279000204600F055F800F0B3F818B100F098F8B2
:1027A000012070BD284600F04BF800F0A9F800F0B9
:1027B00075F8611CC8B200F043F800F0A1F80020E1
:1027C000FFF7B4FF307000F083F80020E9E72DE94F
:1027D000F04706460F4615469846002400F05EF87E
:1027E000304600F02DF800F08BF820B100F070F8C2
:1027F0000120BDE8F087384600F022F800F080F8AC
:1028000000F04CF8711CC8B200F01AF800F078F82B
:1028100000240FE0681EA04204D00120FFF786FFCD
:10282000814603E00020FFF781FF814608F804900D
:10283000601CC4B2AC42EDDB00F04AF80020D8E7DF
:1028400070B5044601F07CFB402013490860002568
:102850001EE004F0800020B180200F49091F0860AD
:1028600002E080200C4908606006040E0120FFF79A
:10287000A3FC40200849091F08600120FFF79CFCC9
:102880004020054908600120FFF796FC681CC5B28E
:10289000082DDEDB70BD0000140C014010B501F006
:1028A0004FFB802009490860402008600420FFF7A2
:1028B00083FC80200549091D08600420FFF77CFC8B
:1028C00040200249091D086010BD0000100C0140A5
:1028D00010B501F035FB40200849086080200860F1
:1028E0000420FFF769FC40200449091F086080208C
:1028F00008600420FFF760FC10BD0000140C0140CC
:1029000010B5002401F00AFB802010490860012066
:10291000FFF752FC40200D4908600120FFF74CFCF6
:1029200007E0601CC4B2FA2C03DDFFF7D1FF0120E1
:1029300010BD064808380068C0F3C0100028F0D168
:1029400040200249091D08600020F1E7100C0140F9
:1029500070B506460C461546FFF7A0FF3046FFF758
:102960006FFFFFF7CDFF18B1FFF7B2FF012070BD79
:102970002046FFF765FFFFF7C3FF2846FFF760FF1C
:10298000FFF7BEFF18B1FFF7A3FF0120EFE7FFF746
:102990009FFF0020EBE7000007B5ACB02422FE4902
:1029A00021A8FDF7D1FB2D98006820902D98406854
:1029B0001F902D9880681E902C9800681D902C9870
:1029C00040681C902C9880681B90F448016800684F
:1029D000FDF724FC1390F2480168F0480068FDF709
:1029E0001DFC1290EF480168EC480068FDF716FCEA
:1029F0001190ED480168E9480068FDF70FFC109060
:102A0000E74801680068FDF709FC0F90E548016898
:102A1000E3480068FDF702FC0E90E3480168E048D7
:102A20000068FDF7FBFB0D90DE4801680068FDF7CC
:102A3000F5FB0C90DC480168DA480068FDF7EEFB16
:102A40000B90D94801680068FDF7E8FB0A90DDE9C2
:102A50001F10FDF7E3FB08901E99FDF7DFFB002137
:102A60000990FDF751FD01D12FB000BD1E99084618
:102A7000FDF7D4FB08901F990846FDF7CFFB0690A1
:102A800020990846FDF7CAFB05900699FDF76EFBF5
:102A900007900899FDF76AFB099003F099FB1490E1
:102AA00014992098FDF7BAFB209014991F98FDF710
:102AB000B5FB1F9014991E98FDF7B0FB1E9011995D
:102AC0000D98FDF7A5FB4FF080410990FDF7A6FB9F
:102AD0001A900B991298FDF749FB4FF0804109902D
:102AE000FDF79CFB19900F991398FDF791FB089047
:102AF0000C99FDF78DFB09900A99FDF737FB1890AB
:102B000019991E98FDF78AFB099018991F98FDF7EF
:102B100085FB08900999FDF77BFB17901899209881
:102B2000FDF77CFB09901A991E98FDF777FB08903A
:102B30000999FDF76DFB16901A991F98FDF76EFB2A
:102B4000099019992098FDF769FB08900999FDF7FC
:102B50005FFB159000211798FDF760FB09909348E3
:102B600001680998FDF702FB90490860002116985A
:102B7000FDF754FB09908E4801680998FDF7F6FAB5
:102B80008B49086000211598FDF748FB099089489A
:102B900001680998FDF7EAFA86490860002017994C
:102BA000FDF73CFB08901D99FDF7E0FA09907F487E
:102BB00001680998FDF7DAFA1D9000201699FDF7D3
:102BC0002DFB08901C99FDF7D1FA0990784801680F
:102BD0000998FDF7CBFA1C9000201599FDF71EFB14
:102BE00008901B99FDF7C2FA09907248016809988C
:102BF000FDF7BCFA1B906C481B990068FDF70EFBB3
:102C0000079068481C990068FDF708FB0590644828
:102C1000006880F0004003901D99FDF7FFFA0490D2
:102C20000599FDF7F5FA06900799FDF7F1FA624963
:102C30000890FDF7F3FA0990584801680998FDF7E4
:102C400095FA5649086058481C990068FDF7E6FA5D
:102C5000079054481B990068FDF7E0FA05904F482B
:102C60001D990068FDF7DAFA04900599FDF77EFAE0
:102C700006900799FDF7CCFA4F490890FDF7CEFA78
:102C80000990474801680998FDF770FA44490860BF
:102C900045481D990068FDF7C1FA079040481B9907
:102CA0000068FDF7BBFA05903C481C990068FDF7E9
:102CB000B5FA04900599FDF7ABFA06900799FDF770
:102CC00055FA3D490890FDF7A9FA09903548016881
:102CD0000998FDF74BFA3349086032481D9900689E
:102CE000FDF79CFA07902E481C990068FDF796FAAC
:102CF00005902A481B990068FDF790FA0490059901
:102D0000FDF734FA06900799FDF782FA2A490890F0
:102D1000FDF784FA0990244801680998FDF726FA1E
:102D200021490860084601680068FDF777FA0890B5
:102D30001C4801680068FDF771FA069018480168A0
:102D40000068FDF76BFA0490144801680068FDF70D
:102D500065FA03900499FDF709FA05900699FDF7C5
:102D600005FA07900899FDF701FA099003F030FA87
:102D700014900A4814990068FDF750FA0749086052
:102D8000074814990068FDF749FA054908600548A5
:102D90001499006812E00000146400085402002036
:102DA000580200205C020020600200206402002023
:102DB000680200206C0200200AD7A33BFDF72EFA20
:102DC0006B4908606B4814990068FDF727FA694958
:102DD00008604FF07E500C99FDF71AFA09900A9995
:102DE000FDF716FA219010990E98FDF7BFF94FF0F4
:102DF00080410990FDF712FA229011990D98FDF784
:102E000007FA4FF080410990FDF708FA23901099D6
:102E10000E98FDF7FDF94FF080410990FDF7FEF99E
:102E200024904FF07E500F99FDF7F2F909900A991E
:102E3000FDF7EEF9259012990B98FDF797F94FF0F1
:102E400080410990FDF7EAF9269011990D98FDF758
:102E50008DF94FF080410990FDF7E0F92790129924
:102E60000B98FDF7D5F94FF080410990FDF7D6F9A1
:102E700028904FF07E500F99FDF7CAF909900C99F0
:102E8000FDF7C6F929904FF07E500C99FDF7C0F977
:102E900000900A99FDF7BCF90190FDF7EDFACDE934
:102EA000040110990E98FDF761F94FF080410090F0
:102EB000FDF7B4F90190FDF7DFFACDE90201DDE994
:102EC000042302F0C7FE4FF0C0422B4BCDE90601B0
:102ED000FDF714FACDE90801FDF7FAFA2E9988609A
:102EE0000D991198FDF794F94FF080410790FDF787
:102EF00095F9089002F00CFD20490990FDF78EF934
:102F00002E9908604FF07E500F99FDF781F90690D9
:102F10000C99FDF77DF908904FF080401299FDF76C
:102F20007DF906904FF080400B99FDF777F90590F9
:102F30000699FDF71BF90790089902F04BFF0F491E
:102F40000990FDF76BF92E99486000202A900AE05D
:102F500021A92A9851F82010094A42F820102A98ED
:102F6000401CC0B22A902A980928F1DB00BF7BE5FB
:102F70005C0200206002002066A64C4033336542AC
:102F8000C008002008B50121082000F057FE4FF4CA
:102F90004070ADF8000010208DF8030003208DF87C
:102FA000020069460648FFF7E3FA4FF480710448CF
:102FB000FFF76BFB4FF400710148FFF764FB08BD9E
:102FC000000C014010B50A48007840B100200849C3
:102FD00008704FF480710748FFF757FB06E00120A7
:102FE0000349087001020348FFF74DFB10BD0000C4
:102FF000DD010020000C014000B589B001210D2049
:1030000000F01CFE0121022000F008FEC020ADF8F7
:10301000200018208DF8230003208DF8220008A935
:103020003848FFF7A5FA0320ADF8200018208DF8E6
:10303000230003208DF8220008A93348FFF798FAEF
:1030400040F2E730ADF818006420ADF8140000201D
:10305000ADF81600ADF81A0005A92C4801F0CAFE1B
:103060006020ADF804000020ADF80A00ADF80C00B7
:103070000120ADF8060001A9244801F05FFD0821F8
:10308000224801F0A7FD6020ADF804000020ADF853
:103090000A00ADF80C000120ADF8060001A91B489C
:1030A00001F0A2FD0821194801F0F0FD6020ADF803
:1030B00004000020ADF80A00ADF80C000120ADF8C6
:1030C000060001A9114801F0EFFD08210F4801F0A9
:1030D0003BFE6020ADF804000020ADF80A00ADF81A
:1030E0000C000120ADF8060001A9084801F036FEE9
:1030F0000821064801F070FE0121044801F0D7FCC8
:1031000009B000BD00080140000C0140000400406F
:1031100010B504E004A002F07FFA00F093FE00F086
:1031200056F90028F6D010BD0D4D505536303530CB
:10313000206E6F20636F6E6E6563742E2E2E0D0AE7
:103140000000000010B5FFF7E3FF80216B2000F0C6
:1031500029F96420FFF70CF801216B2000F022F917
:103160000021382000F01EF918211B2000F01AF968
:1031700008211C2000F016F904211A2000F012F991
:103180000021192000F00EF90221372000F00AF981
:1031900010BD00000FB52B480088A0B90020ADF885
:1031A0000000ADF80200ADF8040027490860274987
:1031B0000860274908600120224908800023002078
:1031C000108050809080BDF900001F4909680844B4
:1031D0001D490860BDF902001C49096808441B49E3
:1031E0000860BDF90400C01A194909680844184963
:1031F000086014480088C8281DD113480068114988
:10320000098890FBF1F000B21080104800680D4969
:10321000098890FBF1F000B250800D480068094920
:10322000098890FBF1F000B29080002005490880E9
:10323000012004B000BD03480088401C01490880FB
:103240000020F6E734020020280200202C02002093
:10325000300200200CB5394840783849097840EAF6
:10326000012037490988401A00B23649088033489E
:10327000C0783249897840EA012031494988401AAA
:1032800000B2304948802D4840792C49097940EAFC
:1032900001202B498988401A00B22A498880274892
:1032A000407A2649097A40EA012027490988401ACC
:1032B00000B2264908802148C07A2049897A40EA2C
:1032C000012021494988401A00B2204948801B4802
:1032D000407B1A49097B40EA01201B498988401A32
:1032E00000B21A4988801A48006878B9084601680F
:1032F00000918088ADF804000023134ADDE9000145
:10330000FFF748FF10B1012011490860114800681B
:1033100098B90F48006880B10A4801680091808818
:10332000ADF8040042F20403054ADDE90001FFF7AD
:1033300031FF10B10120074908600CBD5C0300207B
:1033400012020020180200200C0200201E020020A1
:10335000380200203C02002010B5034A0E213B2019
:1033600000F011F810BD00005C03002070B50446A9
:103370000D462A462146D020FFF704FA08B1012065
:1033800070BD0020FCE770B504460D461646334676
:103390002A462146D020FFF71AFA08B1012070BD55
:1033A0000020FCE770B504460D462A462146D02091
:1033B000FFF7CEFA08B1012070BD0020FCE708B588
:1033C00069467520FFF7D2FF9DF8000008BD10B5D3
:1033D000FFF7F5FF682801D1012010BD0020FCE7B0
:1033E00030B5B0F57A7F01DD4FF47A70B1F57A7FB0
:1033F00001DD4FF47A71B2F57A7F01DD4FF47A7214
:10340000B3F57A7F01DD4FF47A73002800DA0020EB
:10341000002900DA0021002A00DA0022002B00DA5D
:103420000023044D28802D1D29802D1D2A802D1D4F
:103430002B8030BD3404004070B5002100230F22E2
:10344000C47804B3154C246804F4E064C4F5E06463
:10345000210AC1F10403CA40447804FA03F18478D4
:103460001440214309010E4C0678A155047804F05C
:103470001F050124AC4005786D11AD0005F1E02574
:10348000C5F8004109E0047804F01F050124AC40B0
:10349000044D0678761145F8264070BD0CED00E02D
:1034A00000E400E080E100E002490143024A1160CB
:1034B000704700000000FA050CED00E008B54FF47D
:1034C000A060FFF7F1FF1E208DF8000001208DF8AD
:1034D00001008DF802008DF803006846FFF7ACFF8D
:1034E00025208DF8000002208DF8010001208DF8C4
:1034F00002008DF803006846FFF79EFF08208DF854
:10350000000002208DF801008DF8020001208DF8E6
:1035100003006846FFF790FF08BD00002DE9F04169
:1035200004460E46154629463046FCF771FEE0601B
:10353000A169E068FCF76CFE6061E1682068FCF757
:103540006DFEA06294F83800FCF753FF8046616876
:10355000FCF764FE07462169FCF760FEE0626169E2
:10356000A068FCF75BFE2063D4E90A01FCF7FEFDCE
:103570000746216BFCF7FAFD60631E4800780128BE
:1035800031D11D48B0F90400B4282CDB2846216A4B
:10359000FCF7C4FF07D3206A80F00047294638466D
:1035A000FCF7BCFF03D2002084F838001DE00120A6
:1035B00084F83800D4E90310FCF7D8FD2061616A73
:1035C0002069FCF7ABFF01D2606A2061606A80F07D
:1035D000004738462169FCF7A1FF06D2606A80F0F7
:1035E0000040206101E000202061E068A061BDE8AA
:1035F000F08100008D0200209C02002070B53E2466
:103600002046E11704EB91718910A4EB8101091D9B
:1036100009B1012100E0002194FBF1F1CDB22A466D
:103620000E490F4800F05EFF01F036FC0B48408A5F
:103630004FF6FF7188420DD108488089884209D130
:103640000648008B884205D1FEF752FD05A001F027
:10365000E3FF01E0FEF74CFD70BD0000C40A00204E
:1036600000F80108466C617368205265616420456A
:1036700072726F722121210D0A00000070B500F0F6
:103680001BF83E242046E11704EB91718910A4EB4E
:103690008101091D09B1012100E0002194FBF1F134
:1036A000CDB22A460249034800F030FF70BD000049
:1036B000C40A002000F8010810B583480088834937
:1036C00008808148408848807F488088888080487A
:1036D0000088C8807E48408808817D48808848816D
:1036E0007C4908687C49FCF799FD0446FCF7B0FE6C
:1036F00076498881774948687749FCF78FFD044609
:10370000FCF7A6FE7149C881724988687249FCF7C6
:1037100085FD0446FCF79CFE6C4908826F490868E9
:103720006D49FCF77BFD0446FCF792FE6749488231
:103730006A4948686849FCF771FD0446FCF788FE51
:1037400062498882654988686349FCF767FD0446D9
:10375000FCF77EFE5D49C882614908685E49FCF756
:103760005DFD0446FCF774FE584908835C494868CF
:103770005949FCF753FD0446FCF76AFE5349488358
:10378000574988685449FCF749FD0446FCF760FE38
:103790004E498883534908684F49FCF73FFD04466A
:1037A000FCF756FE4949C8834E4948684A49FCF728
:1037B00035FD0446FCF74CFE4449088449498868B5
:1037C0004549FCF72BFD0446FCF742FE3F4948847F
:1037D000454908684049FCF721FD0446FCF738FEDE
:1037E0003A498884404948683B49FCF717FD04463C
:1037F000FCF72EFE3549C8843B4988683649FCF7FA
:103800000DFD0446FCF724FE304908853749086859
:103810003149FCF703FD0446FCF71AFE2B494885A5
:10382000324948682C49FCF7F9FC0446FCF710FEC5
:10383000264988852D4988682749FCF7EFFC04460E
:10384000FCF706FE2149C885294908682249FCF78A
:10385000E5FC0446FCF7FCFD1C4908862449486841
:103860001D49FCF7DBFC0446FCF7F2FD17494886CE
:103870001F4988681849FCF7D1FC0446FCF7E8FDAD
:10388000124988861B4908681349FCF7C7FC04469F
:10389000FCF7DEFD0D49C886164948680E49FCF75D
:1038A000BDFC0446FCF7D4FD084908871149886827
:1038B0000949FCF7B3FC0446FCF7CAFD03494887F5
:1038C0000D480078888710BD12020020C40A00202D
:1038D0000C020020E408002000007A4420090020A7
:1038E0005C09002098090020D4090020100A00205B
:1038F0004C0A0020880A0020FF01002000201E49F9
:1039000081F838001D4808621D48486200201D49A2
:1039100081F838001C4808621C48486200201C4995
:1039200081F8380015480862154848620020194996
:1039300081F838001448086214484862002016498B
:1039400081F838000D4808620D484862002013498C
:1039500081F838000C4808620C4848620020104981
:1039600081F83800086248620E4981F838000E4834
:103970000862064848627047980900200000164314
:1039800000009644E408002000000C420000484378
:10399000D409002020090020100A00205C09002022
:1039A0004C0A0020880A00200000C84270B5FFF7CA
:1039B000D3FCFFF74FFC14227849794800F0E8FE69
:1039C000764908687749FCF729FC04467649FCF7F4
:1039D00025FC76490860714948687249FCF71EFC6D
:1039E00004467149FCF71AFC704948606B498868C5
:1039F0006C49FCF713FC04466B49FCF70FFC6B4960
:103A000088606B49B1F90000FCF7EAFC044669499B
:103A1000FCF704FC684908606549B1F90200FCF74D
:103A2000DFFC04466349FCF7F9FB634948606049E1
:103A3000B1F90400FCF7D4FC04465E49FCF7EEFB48
:103A40005D4988605D48007800287DD05749086846
:103A50004FF07C51FCF7E2FB0446504908684FF0F8
:103A60007C51FCF7DBFB05462146FCF77FFB4B490D
:103A700008604E4948684FF07C51FCF7CFFB044684
:103A8000464948684FF07C51FCF7C8FB0546214683
:103A9000FCF76CFB41494860444988684FF07C5111
:103AA000FCF7BCFB04463D4988684FF07C51FCF7AD
:103AB000B5FB05462146FCF759FB3849886040496B
:103AC00008684FF07C51FCF7A9FB04463A490868A6
:103AD0004FF07C51FCF7A2FB05462146FCF746FB64
:103AE00035490860364948684FF07C51FCF796FB31
:103AF0000446314948684FF07C51FCF78FFB05467E
:103B00002146FCF733FB2C4948602D4988684FF06B
:103B10007C51FCF783FB0446274988684FF07C51B1
:103B2000FCF77CFB05462146FCF720FB2249886018
:103B30001A4800681D4908601848406848601748DE
:103B4000806888601C4800E008E000681C49086044
:103B50001948406848601848806888600F480068C5
:103B6000184908600D48406848600C4880688860C3
:103B700008680021FCF7C8FC0ED0124948680021F3
:103B8000FCF7C2FC08D00F4988680021FCF7BCFC98
:103B900002D001200C49087070BD00009008002080
:103BA0001802002040DAFF380AE81C41A80800206B
:103BB0001E02002045798B3A780800207002002010
:103BC00084080020B4080020500200202DE9F041B4
:103BD00007460D461646B54212DA324629463846A1
:103BE000FEF779FC8046FCF71AFC0446621E294663
:103BF0003846FFF7EBFF3246611C3846FFF7E6FF19
:103C0000BDE8F08101460020034A506820F440409E
:103C100008435060704700000010024029B1064A76
:103C2000D2690243044BDA6104E0034AD269824359
:103C3000014BDA61704700000010024029B1064ACA
:103C400092690243044B9A6104E0034A92698243F9
:103C5000014B9A61704700000010024030B500210E
:103C60000022002400232D4D6D6805F00C0121B1C8
:103C7000042905D0082923D105E0294D056022E05B
:103C8000274D05601FE0254D6D6805F47012234D2A
:103C90006D6805F48034022505EB92421CB9214D74
:103CA000554305600BE01D4D6D6805F400351DB1F1
:103CB0001C4D5543056002E0194D5543056002E077
:103CC000174D056000BF00BF144D6D6805F0F00191
:103CD0000909154D6B5C0568DD4045600F4D6D6849
:103CE00005F4E061090A104D6B5C4568DD408560B4
:103CF0000A4D6D6805F46051C90A0B4D6B5C45684F
:103D0000DD40C560054D6D6805F44041890B074DE8
:103D10006B5CC568B5FBF3F5056130BD0010024072
:103D200000127A0000093D00A6020020B602002021
:103D300010B500240EE0022C05DA00221146FF2007
:103D400001F01CFC04E00022FF21104601F016FCEB
:103D5000601CC4B2042CEEDB10BD10B5002406E0DC
:103D600000221146104601F009FC601CC4B2042C6C
:103D7000F6DB10BD10B5002406E00022FF2110463E
:103D800001F0FCFB601CC4B2042CF6DB10BD00008B
:103D9000F0B5002500260027264801780078401C51
:103DA000244A1070102907DB0020114608702248B1
:103DB0000078401C20490870002431E01F4800783A
:103DC000042802DD00201D4908701D481A490978A1
:103DD00000EB81101949097850F82100C0F307451C
:103DE00017481549097800EB81101449097830F813
:103DF0002100C0F3072612480F49097800EB811013
:103E00000E49097810F821703A462946304601F0EB
:103E1000B5FB0A480078401C08490870601CC4B211
:103E2000042CCBDB04480078072802D1002002498B
:103E30000870F0BDE0010020DF010020DE0100205D
:103E40001C00002010B5002406E000221146FF20CF
:103E500001F094FB601CC4B2042CF6DB10BD00B56D
:103E60000346002200BF0BE003FA02F000F001005D
:103E700010B101F047FB01E001F00CFB501CC2B295
:103E8000082AF1DB00BD000010B501201F490870B1
:103E90001F48C07AA52800D010BD1D48007800F04A
:103EA000010020B31A4880781949C97840EA0120F6
:103EB00000B21849C880164800791549497940EA86
:103EC000012000B213498880114880791049C979CE
:103ED00040EA012000B20F4908800D48007A0C49E1
:103EE000497A40EA012000B20A49488008E00848BF
:103EF000007800F0080018B105494878FDF716FE73
:103F00000348807A0449087000BFC5E78C0200208E
:103F1000FC0200209C0200209A02002008B501212A
:103F20000820FFF78BFE8020ADF8000004208DF8FC
:103F3000030069460148FEF71BFB08BD000C014069
:103F400008B501210820FFF779FE8020ADF80000B8
:103F500010208DF8030003208DF802006946024806
:103F6000FEF706FB08BD0000000C014010B504E0A0
:103F700004A001F051FBFFF7FDFE00F0A5F90028B9
:103F8000F6D010BD0D20534932345231206E6F20CF
:103F9000636F6E6E6563742E2E2E0D0A0000000096
:103FA00010B51E48006840F480701C490860032169
:103FB000232000F0AFF905221949302000F042F922
:103FC000052217492A2000F03DF91A21242000F08B
:103FD000A1F90121222000F09DF90121212000F00A
:103FE00099F92021312000F095F905220D492A2068
:103FF00000F028F91E21252000F08CF92721262029
:1040000000F088F90F2000F0A1F90448001F0068B3
:1040100040F480700149091F086010BD1408014078
:10402000000200200502002010B513480078322855
:1040300010DD4FF0E0218869FCF77EF8FCF772F89C
:10404000322190FBF1F201FB12000B490870FFF7DF
:1040500015FB0FE00948007907490978884209D023
:10406000054800780549087103480078044908713B
:10407000FFF796FF10BD0000FF01002000020020A6
:104080000502002008B501210C20FFF7D7FD4FF4F1
:104090008050ADF8000010208DF8030003208DF84B
:1040A000020069461748FEF763FA4FF4805115483D
:1040B000FEF7E9FA4FF48070ADF8000010208DF89B
:1040C000030003208DF8020069460F48FEF750FAFE
:1040D0004FF480710C48FEF7D6FA00F097F9FFF71D
:1040E00045FF08481030006840F480500549103101
:1040F000086005481430006840F4807002491431AB
:10410000086008BD000C0140000801402DE9F041A5
:1041100007460C4615460F48006840F480500D498C
:104120000860384600F04AF98046002605E0FF2086
:1041300000F044F92070641C761CAE42F7DB0548A1
:10414000001F006840F480500249091F0860404683
:10415000BDE8F081140C014010B504460B4800681E
:1041600040F4807009490860202221466120FFF751
:10417000CDFFFF21E22000F0CDF80448001F0068C9
:1041800040F480700149091F086010BD1408014007
:1041900010B50F480078C8B10E48007850B10E48ED
:1041A00000780E490978884204D101F063F9FFF7DD
:1041B000E1FD07E00748007820B10948007808B918
:1041C000FFF7B6FD044800780449087010BD0000F0
:1041D0008C0200208D0200209A020020A5020020FF
:1041E000FC01002010B504461448006840F48070BB
:1041F0001249086005221249302000F023F80522F8
:104200000F492A2000F01EF820222146A02000F0AD
:1042100019F80E21202000F07DF87E21272000F0E3
:1042200079F80648001F006840F480700349091FB0
:1042300008600A20FDF7C0FF10BD0000140801400F
:10424000000200202DE9F04107460C4615460F48B4
:10425000006840F480500D490860384600F0AEF820
:104260008046002604E0207800F0A8F8641C761C44
:10427000AE42F8DB0548001F006840F48050034957
:10428000091F08604046BDE8F0810000140C0140A1
:1042900070B504460B48006840F480500949086036
:1042A000204600F08BF8FF2000F088F8054605480E
:1042B000001F006840F480500249091F086028462A
:1042C00070BD0000140C01401CB510A103C9CDE95C
:1042D0000001052269463020FFF7B4FF0522694638
:1042E0001020FFF713FF002406E01DF80400A528A6
:1042F00000D003E0601CC4B2052CF6DB00BF052C27
:1043000001D000201CBD0120FCE70000A5A5A5A54B
:10431000A500000070B505460C460B48006840F447
:10432000805009490860284600F048F806462046B3
:1043300000F044F80448001F006840F4805002492F
:10434000091F0860304670BD140C014010B50446CA
:104350000E2C16D11848006840F480701649086089
:104360000E212020FFF7D6FF7E212720FFF7D2FF66
:104370001148001F006840F480700F49091F086051
:1043800018E00D48006840F480700B4908600F2168
:104390002020FFF7BFFF7E212720FFF7BBFF064845
:1043A000001F006840F480700349091F0860C8209E
:1043B000FDF702FF10BD00001408014010B50446CF
:1043C00000BF02210A4800F061F80028F9D0214618
:1043D000074800F067F800BF0121054800F056F8D3
:1043E0000028F9D0024800F05AF8C0B210BD000011
:1043F0000038004021B1028842F04002028004E00F
:1044000002884FF6BF731A400280704700B587B02C
:1044100001210820FFF712FC01218803FFF7FEFBB2
:104420004FF46040ADF8040018208DF80700032019
:104430008DF8060001A91348FEF79AF84FF4827030
:10444000ADF80A004FF40070ADF812000020ADF88E
:104450001000ADF80E00ADF80C001020ADF81400FF
:104460000020ADF80800ADF816000720ADF81800E0
:1044700002A9054800F018F801210348FFF7BAFF28
:1044800007B000BD000C014000380040024600208B
:1044900013890B400BB1012000E00020704701465A
:1044A000888970478181704710B50022028802F424
:1044B00041520B884C8823438C882343CC88234368
:1044C0000C8923434C8923438C892343CC89234380
:1044D0001A430280838B4FF2FF74234083830B8A3D
:1044E000038210BD30B503460C461546002206E097
:1044F000184600F007F844F822001B1D521CAA427F
:10450000F6D330BD01460868704700002DE9F0473A
:1045100004460E4617464FF004080025A946B4F19C
:10452000006F02D31948844201D3BDE8F087FDF73C
:10453000B3FF254604EB87091448854211D20DE0EC
:104540002846FFF7DFFF401C38B11148FDF724FF74
:104550008046B8F1040F01D002E02D1D4D45EFD388
:1045600000BFB8F1040F0CD108E020463168FDF718
:104570005DFF042800D003E0241D361D4C45F4D314
:1045800000BFFDF749FF00BFCFE7000000000208B1
:1045900000F8010838B53C48007830B13B48007855
:1045A00040F010003949087005E03848007820F0E4
:1045B000100036490870FF203549087033480078EC
:1045C00048703448B0F9040000909DF801008870EC
:1045D0009DF80000C870304988683049FBF71EFE1E
:1045E0000446FBF71CFF00B200909DF8010028492B
:1045F00008719DF800004871274948682749FBF772
:104600000DFE0446FBF70BFF00B200909DF8010081
:104610001F4988719DF80000C8711F4908681F492B
:10462000FBF7FCFD0446FBF7FAFE00B200909DF894
:104630000100174908729DF8000048721849C869BE
:104640001649FBF7EBFD0446FBF7E9FE00B20090CC
:104650009DF801000E4988729DF80000C87211494A
:1046600088680E49FBF7DAFD0446FBF7D8FE00B276
:1046700000909DF80100064908739DF800004873FA
:104680000846FFF7AFFD38BD8D0200202402002050
:10469000DC0200209C0200206C0800200000C842C0
:1046A0001C030020E801002010B500F001F810BD47
:1046B0000CB50020019000903348006840F4803031
:1046C0003149086000BF3048006800F400300090B5
:1046D0000198401C0190009818B90198B0F5A06F9E
:1046E000F1D12948006800F4003010B10120009099
:1046F00001E0002000900098012843D12348006881
:1047000040F01000214908600846006820F00300CE
:1047100008600846006840F0020008601A484068D7
:10472000194948600846406848600846406840F4B7
:10473000806048600846406820F47C104860084665
:10474000406840F4E81048600846006840F0807017
:10475000086000BF0C48006800F000700028F9D025
:104760000948406820F0030007494860084640684F
:1047700040F00200486000BF0348406800F00C00B1
:104780000828F9D10CBD00000010024000200240B2
:104790002DE9F05F06460F4614464FF00008C1466B
:1047A000C246B6F90000FBF71BFE3B493B4A1278B4
:1047B00041F82200B6F90200FBF712FE3849374AE9
:1047C000127841F82200B6F90400FBF709FE3549DA
:1047D000324A127841F8220030480078401C2F49B4
:1047E000087008460078A04204DA2F48007808B123
:1047F000BDE8F09F00202C490870621E0021264869
:10480000FFF7E4F9621E00212548FFF7DFF9621E79
:1048100000212448FFF7DAF9012516E01E4850F878
:1048200025104046FBF7A2FC80461D4850F8251095
:104830004846FBF79BFC81461A4850F82510504625
:10484000FBF794FC8246681CC5B2601EA842E5DCFA
:1048500012480078A04202DB002010490870A01E18
:10486000FBF7BEFD834659464046FBF709FD38601D
:10487000A01EFBF7B5FD834659464846FBF700FDF1
:104880007860A01EFBF7ACFD834659465046FBF707
:10489000F7FCB86000BFABE70C0400204402002026
:1048A0005C040020AC04002045020020042808D14C
:1048B0004FF0E021096941F004014FF0E02211615D
:1048C00007E04FF0E021096921F004014FF0E022F8
:1048D0001161704710B51348006840F0010011499C
:1048E000086008464068104908400E49486008467C
:1048F00000680E4908400B4908600846006820F42B
:10490000802008600846406820F4FE0048604FF4AC
:104910001F008860FFF7C8FE4FF000600449086080
:1049200010BD0000001002400000FFF8FFFFF6FE7F
:1049300008ED00E010B5FEF7C1FDFEF723FBFDF723
:10494000F5FB4FF4E12000F049FDFDF7BBFE00F060
:10495000D5F8FDF7F9FCFFF795FBFEF7F3FBFEF743
:104960004BFBFDF7ABF8FEF749FEFEF7C7FFFFF77D
:10497000F4F904A000F050FE4FF47A70FDF7F8FB54
:1049800010BD000053797374656D20496E69742001
:1049900046696E6973680A0010B50121344800F059
:1049A00092F800285FD033480088401C31490880C5
:1049B00031480088401C3049088030480088401C3D
:1049C0002E4908802E480088401C2D4908802D481B
:1049D0000088401C2B4908802B480088401C2A492D
:1049E00008802A480088401C2849088021480088FF
:1049F000022805DB00201F49088001202449087097
:104A00001D480088052805DB00201B49088001207F
:104A100020490870194800880A2805DB002017493A
:104A2000088001201C49087015480088642805DBAF
:104A30000020134908800120184908701148008897
:104A4000C82805DB00200F490880012014490870A0
:104A50000D480088B0F5C87F05DB00200A490880B2
:104A60000120104908700121014800F01DF810BD17
:104A70000008004006000020080000200A00002076
:104A80000C0000200E00002010000020120000206A
:104A9000050000200200002001000020000000208E
:104AA0000300002004000020CA430282704721B1A5
:104AB000028842F00102028004E002884FF6FE7391
:104AC0001A400280704730B50246002000230024BF
:104AD000158A05EA0103958905EA010413B10CB1B1
:104AE000012000E0002030BD1AB183890B4383818F
:104AF00002E083898B438381704700000EB501215A
:104B00000420FFF78BF84720ADF804006320ADF8D0
:104B100000000020ADF80600ADF802006946064826
:104B200000F068F9012211460348FFF7DDFF01217B
:104B30000148FFF7BCFF0EBD0008004070B500241F
:104B400000220023058C4FF6FE7635400584028C4A
:104B50008388048B4FF68F752C40B51E2C400D8832
:104B60002C43751E2A400D892A434D882A43144D33
:104B7000A8420BD0134DA84208D0134DA84205D02F
:104B8000124DA84202D0124DA84213D14FF6F7752C
:104B90002A404D892A434FF6FB752A408D882A43C7
:104BA0004FF6FF652B404FF6FF552B408D892B4369
:104BB000CD892B4383800483CD888586028470BD94
:104BC000002C0140003401400040014000440140FD
:104BD000004801400A460021018B4FF6F773194047
:104BE000114301837047000070B5002400220023A8
:104BF000058C4FF6EF7635400584028C8388048B54
:104C000048F6FF752C404FF6FF452C400D884FF6B7
:104C1000FF7606EA05252C434FF6DF752A400D89FD
:104C200006EA05152A434D8806EA05152A43154D5F
:104C3000A84202D0144DA8421DD14FF67F752A40DC
:104C40004D894FF6FF7606EA05152A434FF6BF75E4
:104C50002A408D8806EA05152A434FF6FF352B407A
:104C60004FF2FF752B408D8906EA85052B43CD89D0
:104C700006EA85052B4383800483CD88058702845B
:104C800070BD0000002C0140003401400A460021A4
:104C9000018B4FF2FF7319404FF6FF7303EA0223B3
:104CA000194301837047000070B5002400220023DF
:104CB000058C4FF6FF6635400584028C8388848B13
:104CC0004FF68F752C404FF6FC752C400D882C4309
:104CD0004FF6FF552A400D894FF6FF7606EA052567
:104CE0002A434D8806EA05252A43154DA84202D0DD
:104CF000144DA8421DD14FF2FF752A404D894FF641
:104D0000FF7606EA05252A434FF6FF352A408D88AF
:104D100006EA05252A434EF6FF752B404DF6FF7532
:104D20002B408D8906EA05152B43CD8906EA05152A
:104D30002B4383808483CD888587028470BD0000E7
:104D4000002C0140003401400A460021818B4FF6BF
:104D5000F7731940114381837047000070B500223A
:104D600000230024058C4EF6FF7635400584038C25
:104D70008488828B48F6FF752A404FF6FF452A400B
:104D80000D884FF6FF7606EA05252A434DF6FF7596
:104D90002B400D8906EA05352B434D8806EA05357B
:104DA0002B430B4DA84202D00A4DA84208D14BF626
:104DB000FF752C408D894FF6FF7606EA85152C434A
:104DC00084808283CD88A0F84050038470BD0000A9
:104DD000002C0140003401400A460021818B4FF233
:104DE000FF7319404FF6FF7303EA022319438183CF
:104DF00070470000002202881D4B98420ED01D4BC8
:104E000098420BD0B0F1804F08D01B4B984205D090
:104E10001A4B984202D01A4B984204D14FF68F7326
:104E20001A404B881A43174B984207D0164B9842AA
:104E300004D04FF6FF431A40CB881A4302808B8878
:104E400083850B8803850A4B98420BD0094B984207
:104E500008D00E4B984205D00D4B984202D00D4B16
:104E6000984201D10B7A03860123838270470000A8
:104E7000002C0140003401400004004000080040C4
:104E8000000C0040001000400014004000400140B1
:104E9000004401400048014010B58848008800B235
:104EA000874908808548408800B2488083488088C8
:104EB00000B288808148C08800B2824908807F485B
:104EC000008900B248807D48408900B288807B49D3
:104ED0008889FBF78EFA04467B49FBF7D1F97B49B9
:104EE00008607649C889FBF784FA04467649FBF7DF
:104EF000C7F9764948607149088AFBF77AFA04468F
:104F00007149FBF7BDF9714988606C49488AFBF724
:104F100070FA04466C49FBF7B3F96D4908606749BC
:104F2000888AFBF766FA04466749FBF7A9F96849DE
:104F300048606249C88AFBF75CFA04466249FBF79D
:104F40009FF9634988605D49088BFBF752FA044674
:104F50005D49FBF795F95F4908605849488BFBF7B5
:104F600048FA04465849FBF78BF95A4948605349B7
:104F7000888BFBF73EFA04465349FBF781F9554904
:104F800088604E49C88BFBF734FA04464E49FBF75C
:104F900077F9514908604949088CFBF72AFA044619
:104FA0004949FBF76DF94C4948604449488CFBF787
:104FB00020FA04464449FBF763F9474988603F49B2
:104FC000888CFBF716FA04463F49FBF759F9434929
:104FD00008603A49C88CFBF70CFA04463A49FBF7DB
:104FE0004FF93E4948603549088DFBF702FA0446FF
:104FF0003549FBF745F9394988603049488DFBF759
:10500000F8F904463049FBF73BF9354908602B496C
:10501000888DFBF7EEF904462B49FBF731F930494F
:1050200048602649C88DFBF7E4F904462649FBF79A
:1050300027F92B4988602149088EFBF7DAF90446E5
:105040002149FBF71DF9274908601C49488EFBF7E9
:10505000D0F904461C49FBF713F922494860174967
:10506000888EFBF7C6F904461749FBF709F91D4975
:1050700088601249C88EFBF7BCF904461249FBF759
:10508000FFF8194908600D49088FFBF7B2F904468B
:105090000D49FBF7F5F8144948600849488FFBF7BC
:1050A000A8F904460849FBF7EBF80F498860034864
:1050B00090F83C000D49087010BD0000C40A0020A3
:1050C000120200200C02002000007A44E4080020B4
:1050D000200900205C09002098090020D409002044
:1050E000100A00204C0A0020880A0020FF0100203E
:1050F00010B52648007820B1002024490870FBF73D
:105100002FFD23480078E0B10120224908600020EB
:105110001F49087020480088401C00B21E490880C2
:10512000FEF744FC1D4A1E491E48FDF735FC1E488B
:1051300003781E4A1B491948FCF752FD0020154907
:1051400008601B48007870B1002019490870FDF70D
:1051500039FF1548007820B91648007808B1FEF7E5
:1051600017FEFCF793FC1448007830B10020124978
:105170000870FFF70DF8FFF70DFA1048007820B11E
:1051800000200E490870FEF74FFF10BD05000020FB
:105190000100002018000020140000206C080020EE
:1051A00090080020780800208D0200209C0200203A
:1051B00000000020DC01002003000020040000208B
:1051C00070B500BF40F225510F4800F047F838B1E4
:1051D0000D48001D0088C4B22046FCF705F90CE01C
:1051E00040F22441084800F039F830B10648008800
:1051F000C5B20548001D0088C5B240F225510248DD
:1052000000F004F870BD00000038014010B5002225
:10521000002340F66A14A14200D100BF0A12012403
:105220009440A3B2DC43048010BD21B1828942F4D2
:105230000052828104E082894DF6FF731A40828118
:10524000704702460020B1F5007F00D100BF1388EF
:105250000B400BB1012000E00020704770B5024602
:10526000002400230025002040F66A16B14200D138
:1052700000BFC1F3421501F01F03012606FA03F334
:10528000012D02D19689334006E0022D02D1168A03
:10529000334001E0968A33400C12012606FA04F4EA
:1052A0001688344013B10CB1012000E0002070BD1D
:1052B000F0B50346002400260025002040F66A17BA
:1052C000B94200D100BF1846C1F3421401F01F06D5
:1052D000012707FA06F5012C01D10C3004E0022C5D
:1052E00001D1103000E014301AB107682F43076075
:1052F00002E00768AF430760F0BD00002DE9F0470A
:1053000086B005460E460024A24600BFA1460027EF
:10531000B08900B100BF2F462C8A4CF6FF700440C4
:10532000F08804432C82AC894EF6F3100440B08818
:1053300031890843718908430443AC81AC8A4FF634
:10534000FF400440B0890443AC8201A8FEF786FC0C
:105350001F48874202D1DDF810A001E0DDF80CA063
:10536000A88900F4004040B10AEBCA0000EB0A1023
:1053700031684900B0FBF1F807E00AEBCA0000EB26
:105380000A1031688900B0FBF1F86420B8FBF0F036
:1053900004012009642101FB1089A88900F4004060
:1053A00040B1322000EBC900B0FBF1F000F0070083
:1053B000044308E0322000EB09106421B0FBF1F057
:1053C00000F00F0004432C8106B0BDE8F087000018
:1053D00000380140C1F308028280704710B586B0E2
:1053E0000446012144F20400FEF728FC4FF400704B
:1053F000ADF8140018208DF8170003208DF8160062
:1054000005A91A48FDF7B4F84FF48060ADF8140010
:1054100004208DF8170003208DF8160005A9134805
:10542000FDF7A6F80C20ADF80E000020ADF80C003A
:105430000194ADF80A00ADF80800ADF8100001A91C
:105440000B48FFF75BFF012240F225510848FFF7A8
:105450002FFF012240F224410548FFF729FF0121D7
:105460000348FFF7E2FE06B010BD0000000801404F
:10547000003801400648808800B205498880084607
:10548000B0F90400962801DC96208880704700005F
:105490009C0200201A48006840F400701849086017
:1054A00000BF00BF00BF00BF00BF00BF1448001D09
:1054B000006840F400701249091D086000BF00BF79
:1054C00000BF00BF00BF00BF00BF00BF00BF00BFE4
:1054D00000BF00BF00BF00BF00BF00BF00BF00BFD4
:1054E00000BF00BF00BF00BF00BF00BF00BF00BFC4
:1054F00000BF00BF00BF00BF00BF00BF704700007B
:10550000100C01401C48006840F400701A49086003
:1055100000BF00BF00BF00BF00BF00BF00BF00BF93
:1055200000BF00BF00BF00BF00BF00BF00BF00BF83
:1055300000BF00BF00BF00BF00BF00BF00BF00BF73
:1055400000BF00BF00BF00BF00BF00BF00BF00BF63
:105550000948001D006840F400700749091D0860F3
:1055600000BF00BF00BF00BF00BF00BF00BF00BF43
:1055700000BF00BF70470000100C014070B5064628
:105580000C4615463046FEF76AFC2046FEF767FCDF
:105590002846FEF764FC70BD2DE9FE4F044689469F
:1055A000D9F80800FAF768FF21F0004107464FF0EC
:1055B0000052184BFAF7A2FE0546FAF789FF824619
:1055C000504600F035FD0290504600F031FE01904B
:1055D000D4F800B060680090DDE90001FAF71EFE23
:1055E000054658460299FAF719FE06462946FAF783
:1055F000BDFD206058460199FAF710FE0546029954
:105600000098FAF70BFE06462946FAF701FE60609D
:10561000BDE8FE8F47DF913F014A024900F066B9BD
:10562000AD610008D4020020490050EAC12018BF33
:1056300004204A0D18BF40F0010040F2FF72B2EBA7
:10564000515F08BF40F00200012808BF05207047E5
:105650004100080218BF04200A0E18BF40F00100E4
:105660004FF07F4232EA010108BF40F002000128FA
:1056700008BF052070472DE9F0414F1E00EBC70120
:105680000446D1E9000115461E4637F006020DD04A
:105690002A463346FAF732FE7F1E04EBC703D3E9EE
:1056A0000023FBF712F837F00602F1D1022F25D0C4
:1056B000042F13D0062F18BFBDE8F0812A463346C9
:1056C000FAF71CFED4E90A23FAF7FFFF2A4633460D
:1056D000FAF714FED4E90823FAF7F7FF2A4633460F
:1056E000FAF70CFED4E90623FAF7EFFF2A46334611
:1056F000FAF704FED4E90423FAF7E7FF2A46334613
:10570000FAF7FCFDD4E90223FAF7DFFF2A46334615
:10571000FAF7F4FDD4E90023BDE8F041FAF7D5BF6C
:105720000122FBF74CB9FAF7D0BF0000024A002073
:105730001107FBF744B9000001FDFFFF0121FAF753
:105740003DBFFAF713BD00210846FAF799BD6FF087
:105750005E010807FAF732BF2DE9F04D0D461446F9
:105760004FF07F41B1EB440F9EBF4FF0FF312960F6
:10577000BDE8F08D4FF0004040EA0421C4F3C7506B
:10578000783810F01F024A4B4FEA601CC2F1200625
:105790007B44C4F3C750A0F178004FEA601003EBDC
:1057A000800053F82C3008BFD0E901C612D0D0F8E1
:1057B00004C093402CFA06F73B4387680CFA02FCBE
:1057C00027FA06F8C06807FA02F2F0404CEA080C23
:1057D00042EA0006A3FB0132ACFB01C0A6FB01615B
:1057E00001EB0C068E4234BF4FF0010C4FF0000C61
:1057F000C1186144BCF1000F02D0814202D903E01C
:10580000814201D2012000E00020104400F120027A
:105810004FEA92188006CA0C40EA42304F03C5F89E
:105820000080FAF7DDFD82463846FAF7E2FD6FF0B8
:105830001201FAF7C3FE07463046FAF7DAFD6FF0B9
:105840002501FAF7BBFE834639465046FAF78EFC2F
:105850005946FAF78BFC00F500666FF30B065146CC
:105860003046FAF7D5FC3946FAF7D2FC5946FAF732
:10587000D2FC1049FAF7D2FC07460F493046FAF736
:10588000CDFC3946FAF772FC07460C493046FAF768
:10589000C5FC3946FAF76AFC14F0004F08BFBDE8B2
:1058A000F08DC8F1805180F000402960BDE8F08D96
:1058B000440D0000DB0FC92F22AAFD290000C92FCB
:1058C00002E008C8121F08C1002AFAD170477047C9
:1058D000002001E001C1121F002AFBD17047000027
:1058E0000149086070470000D80200202DE9F0410E
:1058F00016460F460446002503E03946B047641CAF
:105900006D1C20780028F8D12846BDE8F081000001
:105910002DE9F04104464FF00E4000EB4400B0F199
:10592000506F204655D84FF0FC41B1EB440F1CD2CC
:1059300024F000404FF07E51FAF76DFC4FF0FF313C
:10594000FAF73CFE054600F037FD14F0004F1DBF8E
:105950002F4F304E80F000402F4F08BF2F4E4FF09A
:105960004041FAF75BFC044605E000273E4601464D
:10597000FAF754FC05462A492846FAF74FFC29490C
:10598000FAF7F4FB2946FAF749FC2749FAF7EEFB48
:105990002946FAF743FC2549FAF7E8FB2946FAF7C6
:1059A0003DFC2349FAF7E2FB804629462046FAF7F8
:1059B00035FC4146FAF732FC054631462046FAF7F7
:1059C000D5FB2946FAF7D2FB3946BDE8F041FAF794
:1059D000CDBB4FF0E441B1EB440F08D9FFF738FEDF
:1059E000042808BFFFF7B3FE2046BDE8F0814FF062
:1059F0007F41B1EB440F03D2BDE8F041FFF79EBEFB
:105A00000120FFF76DFFBDE8F041FFF79CBE0000ED
:105A10000000C9BF22AAFDB90000C93F22AAFD3972
:105A200024FE1C3DC78AD83C1E67383D1B93993D18
:105A3000AFAA2A3E2DE9F84F04460D4621F000405A
:105A400000917349814211DC7249884201DC06D120
:105A50002CB120462946BDE8F84FFFF761BE6E48DD
:105A6000002DCCBF6D496E49BDE8F88F6D4981426C
:105A700011DD6D498142D8BF4FF0FF366DDD204604
:105A80002946FFF7D1FD042808BFFFF74FFE204647
:105A90002946BDE8F88F6549654F25F000458142EC
:105AA00033DD6449814219DD002632464FF08043E0
:105AB00020462946FAF709FE80468A4601222046FA
:105AC0002946FAF77CFF00223B46FAF79FFE424642
:105AD0005346FAF7A1FE04460D463EE00126002299
