:020000040800F2
:10000000E00F002001010008090100080B010008B1
:100010000D0100080F010008110100080000000098
:1000200000000000000000000000000013010008B4
:100030001501000800000000170100081901000860
:100040001B0100081B0100081B0100081B01000820
:100050001B0100081B0100081B0100081B01000810
:10006000D52100081B0100081B0100081B01000826
:100070001B0100081B0100081B0100081B010008F0
:100080001B0100081B0100081B0100081B010008E0
:100090001B0100081B0100081B0100081B010008D0
:1000A0001B0100081B0100081B0100081B010008C0
:1000B0001B0100081B010008A14C00081B010008DF
:1000C0001B0100081B0100081B0100081B010008A0
:1000D0001B010008B95400081B0100081B0100089F
:1000E0001B0100081B0100081B010008DFF80CD0F1
:1000F00000F014FC0048004789600008E00F002071
:100100000648804706480047FEE7FEE7FEE7FEE7B1
:10011000FEE7FEE7FEE7FEE7FEE7FEE7D94B000855
:10012000ED0000080649074A0868504343F23902C7
:10013000104408604008704701490860704700009B
:10014000F00200206D4EC64140EA01039B0703D038
:1001500009E008C9121F08C0042AFAD203E011F806
:10016000013B00F8013B521EF9D27047F0B480EA1F
:100170000102D40F4200B2EB410F02D20246084600
:1001800011464A0042D0C30DDDB2C1F3C752AD1AC9
:10019000202D35DAC1F3160141F4000204B15242B8
:1001A000C5F1200602FA06F12A411044B3EBD05FF4
:1001B00023D0C4B1012DA0EBC35009DCF0BC4FF03B
:1001C000004202EAC352DBB200F5000000F0F0BAD0
:1001D000400000F1807000EBC350A0F1807040EA55
:1001E000D170490009E0490841EAC071A0EBC35051
:1001F00000F50000400800EBC350F0BC00F0CFBA9F
:100200006142012202EB4101001BF6E7F0BC70479E
:1002100081F00041AAE780F00040A7E780EA0102F0
:1002200010B502F00043400022D04A001FD0010E5A
:1002300001EB1261C0F35600C2F3560240F4000015
:1002400042F40002A0FB022000047F39140400D015
:10025000401C50EA124001D44000491EC2B20C06B4
:1002600004EBD010401C4008802A02D003E000209C
:1002700010BD20F00100002900DA0020184310BD55
:1002800030B480EA010202F0004530F0004221F073
:10029000004013D090B1C30DD40DC2F31601C0F3CA
:1002A0001600E41A41F4000140F400027D3491424A
:1002B00001D3641C00E04900002C02DA30BC0020AD
:1002C00070474FF400000023914201D3891A034381
:1002D00040084FEA4101F7D151B1914202D14FF0AC
:1002E000004105E002D24FF0010101E06FF0010191
:1002F00003EBC450284430BC00F051BA2DE9FE4F46
:10030000804681EA0300C00F0C46009021F00041B6
:1003100023F00045B8EB0200A94105D24046214632
:1003200090461C460B46024623F00040104347D03F
:10033000270DC7F30A00C3F30A510290401A019037
:1003400040286BDAC3F3130040F4801B00989246F8
:1003500020B10023D2EB030A63EB0B0B0198594643
:10036000C0F14002504600F0F9F906460D465046ED
:100370005946019A00F001FA10EB0800614100248F
:1003800087EA115284EAE7731A4340D0009A62B3B5
:10039000019A012A4FEA075215DC001B61EB0201AA
:1003A0004FF0004202EA0752CDE90042001C41F53D
:1003B000801132462B4600F062FA03B0BDE8F08FA0
:1003C00040462146F9E7001B61EB0201001C41F5A4
:1003D000801300185B412018A2F5001747EB0301BA
:1003E00040EAD570B6196D4111E06D084FEA360646
:1003F00045EAC0754FEA0752001B61EB0201001C81
:1004000041F5801149084FEA300000195141324648
:100410002B4603B0BDE8F04F00F022BA009801224D
:1004200040000023D0EB020263EBE073009821460A
:100430004FEAE074B8EB000061EB0401E9E783F0F8
:1004400000435BE781F0004158E72DE9FE4F81EA68
:10045000030404F0004421F0004100944FF0000B2D
:1004600023F0004350EA01045ED052EA03045BD05B
:10047000C3F30A54C1F30A552C44A4F2F334019493
:10048000A0FB0254C1F3130141F48011C3F3130321
:1004900043F4801301FB024400FB034E840A970AD5
:1004A00044EA815447EA8357A4FB076802958D0A02
:1004B00005FB07854FEA932C04FB0C542705029D8E
:1004C0004FEA065847EA1637B5EB08056EEB070CFE
:1004D000870E920E47EA811742EA8312A7FB0201B8
:1004E000B6EB0B0164EB00042B0D43EA0C335E18F2
:1004F00044EB1C50DA465146E7FB0201C5F31304F6
:100500004FEA0B3343EA14534FEA0432019C43EAA7
:100510000603A4F10C040294009CCDE900B400F0A1
:10052000AEF903B0BDE8F08F00200146F9E72DE9F0
:10053000F04D81EA030404F0004B21F0004514461D
:100540004FF0000A23F0004150EA050220D054EA9F
:1005500001021DD0C5F30A570246C5F31303C1F3C8
:100560001300C1F30A5640F4801543F48013A7EB3F
:100570000608101BD64608F2FD3873EB050002D3BF
:1005800008F1010801E092185B41B8F1000F03DAAD
:1005900000200146BDE8F08D00204FF48011064692
:1005A00084460EE0171B73EB050705D3121B63EBA4
:1005B000050306434CEA010C49084FEA3000921843
:1005C0005B4150EA0107EDD152EA030012D082EA02
:1005D000040083EA0501084305D0101BAB4106D295
:1005E0000122002306E000224FF0004302E06FF0FA
:1005F000010253101AEB06004CEB085110EB0A00F5
:1006000041EB0B01BDE8F04D00F02AB9C10F80EAC3
:10061000E0700844CA079623002100F0C9B8962369
:100620000022114600F0C4B80EB5C10F80EAE07098
:100630000844CA07002140F233438DE80E000A4601
:100640000B4600F01CF903B000BD00F0004220F0A2
:100650000040C10DC0F3160040F400007F2901DA0C
:1006600000207047962903DCC1F19601C84001E0E3
:1006700096398840002AF4D04042704720F000406C
:10068000C10DC0F3160040F400007F2901DA0020FC
:100690007047962903DCC1F19601C840704796392E
:1006A0008840704700F0004230F000400AD0C10D91
:1006B00001F56071C0F3160042EA0151C20840071B
:1006C00011437047002001467047000030B5041EFA
:1006D00071F1000404DB4FF00044404264EB01017F
:1006E000141E73F1000405DB1C464FF00043524218
:1006F00063EB04038B4208BF824230BD01F000432C
:1007000030B421F0004150EA010206D00A0DA2F5F2
:100710006072C1F31301002A02DC30BC0020704774
:10072000440F44EAC104C100E01830BC00EBC250E1
:1007300000F035B8002801DBC0F10040002901DBE2
:10074000C1F1004181427047002801DBC0F1004047
:10075000002901DBC1F1004188427047202A04DBF7
:10076000203A00FA02F1002070479140C2F12003C4
:1007700020FA03F3194390407047202A06DBCB1779
:10078000203A41FA02F043EAE07306E041FA02F34C
:10079000D040C2F120029140084319467047002919
:1007A000A8BF7047401C490008BF20F001007047F7
:1007B00010B4B0FA80FC00FA0CF050EA010404BF57
:1007C00010BC704749B1CCF1200421FA04F411FAAD
:1007D0000CF118BF012121430843A3EB0C01CB1DF1
:1007E0004FEA00614FEA102042BF002010BC704762
:1007F00000EBC35010440029A4BF10BC7047401C3C
:10080000490008BF20F0010010BC7047420005D02D
:10081000C0F3C7525242914201DC0020704700EB06
:10082000C150704710B541000CD0C0F3C751962994
:1008300008DC7E2909DC06DB410204D000F0004020
:1008400040F07E5010BD002010BDC1F19604C4F1EF
:10085000200100FA01F1E040FFF7A1FFA04010BD28
:1008600010B5141E73F1000408DA401C41F10001B8
:1008700092185B411A4301D120F0010010BD2DE90F
:10088000F04D92469B4611B1B1FA81F202E0B0FA06
:1008900080F220329046FFF761FF04460F4640EA9F
:1008A0000A0041EA0B0153465A46084313D0114649
:1008B00053EA010019D0C8F14002504600F040F858
:1008C00005460E46504659464246FFF747FF084345
:1008D00005D0012004E020463946BDE8F08D002017
:1008E000054346EAE0762C4337430A986305E40A59
:1008F000A0EB08000022FD0A44EA47540A3002D562
:1009000000200146E9E7010510196941DDE90845C4
:1009100000196941BDE8F04DA2E70000064C074D03
:1009200006E0E06840F0010394E8070098471034BF
:10093000AC42F6D3FFF7DEFBC4620008E4620008B5
:10094000202A04DB203A21FA02F00021704721FA24
:1009500002F3D040C2F1200291400843194670478B
:10096000F0B4002802DCF0BC00207047C0F3C7518F
:10097000C0F3160040F40000CA0701D14000491E30
:100980003F2202EB6105002211464FF4000626FAD1
:1009900001F31344D418844201D8001B1A464000C6
:1009A000491C1729F3DD5100814202D24FF0FF317B
:1009B00000E0002102EBC550F0BCFFF7F0BE70B5BF
:1009C0008C1810F8015B15F0070301D110F8013BFA
:1009D0002A1106D110F8012B03E010F8016B01F881
:1009E000016B5B1EF9D12B0705D40023521E0DD4D9
:1009F00001F8013BFAE710F8013BCB1A921C03E027
:100A000013F8015B01F8015B521EF9D5A142D8D35E
:100A1000002070BD21B1826842F00102826003E0D3
:100A2000826822F0010282607047000030B5024601
:100A30000020002350680F4C20400D790C6844EAD8
:100A400005242043506090680B4C2040D1E90254AB
:100A50002C434D7944EA450420439060D06A20F449
:100A600070000C7C641EE4B2234340EA0350D06261
:100A700030BD0000FFFEF0FFFDF7F1FFF0B50446CA
:100A80000D4600200021092D11DDE068A5F10A06C0
:100A900006EB4607072606FA07F18843A5F10A0682
:100AA00006EB460603FA06F10843E0600CE0206915
:100AB00005EB4507072606FA07F1884305EB4506CF
:100AC00003FA06F108432061072A0FDA606B561E0D
:100AD00006EB86071F2606FA07F18843561E06EB2B
:100AE000860605FA06F10843606322E00D2A0FDA54
:100AF000206BD61F06EB86071F2606FA07F18843F0
:100B0000D61F06EB860605FA06F10843206310E0BF
:100B1000E06AA2F10D0606EB86071F2606FA07F12A
:100B20008843A2F10D0606EB860605FA06F1084396
:100B3000E062F0BD2DE9F04F87B0C0480078401C5E
:100B4000BE490870BE480078401CBD490870BD48C9
:100B50000078401CBB490870BB480078401CBA496B
:100B60000870BA480078401CB8490870B34800784B
:100B7000372805DB0020B14908700120B4494870CE
:100B8000AF480078052805DB0020AD49087001203A
:100B9000AF498870AB480078142805DB0020A949CC
:100BA00008700120AA49C870A7480078232805DBEF
:100BB0000020A54908700120A5490871A3480078C4
:100BC0003C2805DB0020A14908700120A04948719C
:100BD0009F48407878B100209D4948709D48007832
:100BE00000219D4BCDE900109A68596818680023D0
:100BF00000F092FE1FE19648807800286DD000201A
:100C00009349887095498868FFF71FFD0FFA80FBAC
:100C10005846FFF7FBFC82469149FFF7FFFA8146F1
:100C2000FFF713FD04B28D494868FFF70EFD0FFA78
:100C300080FB5846FFF7EAFC82468949FFF7EEFA47
:100C40008146FFF702FD05B284490868FFF7FDFC05
:100C50000FFA80FB5846FFF7D9FC82468049FFF720
:100C6000DDFA8146FFF7F1FC06B27E498868FFF79E
:100C7000ECFC07B27B494868FFF7E7FC0FFA80F805
:100C800078490868FFF7E1FC00B206900020029066
:100C90000390049033463A464146CDE9005405900E
:100CA000069800F07BFD6D4988686D49FFF7B6FA3C
:100CB00004466D48006B6C49C96A6B4A926A6A4B7C
:100CC000DB68CDE90032CDE902106848036BC26AE7
:100CD000816A204601F09CF8ADE05D48C07818B10B
:100CE00000205B49C870A6E05948007918B100207F
:100CF000574908719FE05648407988B1002054490F
:100D000048715B4988685B49FFF788FA0546FFF739
:100D1000B5FC84B24FF4E471204600F0F5FC8AE0A3
:100D20004B488079D0B10020494988714F4881688B
:100D300042680068504B9B68CDE90230CDE9042140
:100D40004D4840684C490968CDE900104B4883681C
:100D500042680168012000F0D1FB6CE03C48C0799A
:100D6000E0B100203A49C8713F4880683E4949686F
:100D70003D4A1268424B9B68CDE90232CDE904102E
:100D80003F4840683E490968CDE900103D48836806
:100D900042680168022000F0B1FB4CE02C48007A68
:100DA000B8B100202A490872002137488068CDE98F
:100DB0000201049134480591406833490968CDE93E
:100DC00000103248836842680168032000F096FBF7
:100DD00031E01F48407A70B300201D4948722C480A
:100DE0002C498A072C4BCDE90232CDE904102B485F
:100DF0002B490246CDE90010012000F07FFB0020C6
:100E0000284ACDE90202049005902748274900238B
:100E10000246CDE90010022000F070FB0020029095
:100E2000039004900590009003460246014601900D
:100E3000032000F063FB07B0BDE8F08FB102002093
:100E4000B2020020B3020020B4020020B50200204C
:100E5000720B0020AD0200208C08002098080020B2
:100E6000A34C6542B0080020CC090020800A002075
:100E7000E40100200000C842440A0020080A0020C3
:100E80009009002054090020F80A0020BC0A002024
:100E90007B142E3FCDCC4C3D5C8FC23E295C0F3D78
:100EA0006666263F0000A0400AD7233C9A99194065
:100EB0002DE9F05F04460D460026B14607E014F820
:100EC00009003044C6B209F1010000F0FF09681EB4
:100ED0004845F4DC601910F8010CB04201D0BDE8BF
:100EE000F09F2078AA2802D16078AF2800D0F6E7DA
:100EF000A07801283ED1207901280AD1FE48007847
:100F000040F00200FC4908700020FC49088048803D
:100F10008880207902280AD1F748007840F0010043
:100F2000F54908700020F6490880488088802079BB
:100F300003280AD1F048007840F00200EE4908701A
:100F40000846007840F001000870207904280FD18D
:100F5000EC48007880F00100EA4908700846007803
:100F600018B10120E849087002E00020E649087045
:100F700002F010FDA078022812D12079012803D1B7
:100F8000E2498871C87108722079A02802D1012035
:100F9000DE4908702079A12802D10120DB4948727E
:100FA000A07810287ED12179090209B2627941EA3C
:100FB0000200FFF739FB8246D54AD64BFFF745FAC8
:100FC0000746FFF79BFBD4490860A179090209B2E3
:100FD000E27941EA0200FFF727FB8246CC4ACD4B7B
:100FE000FFF733FA0746FFF789FBCB494860217AC0
:100FF000090209B2627A41EA0200FFF715FB824654
:10100000C34AC44BFFF721FA0746FFF777FBC249F3
:101010008860A17A090209B2E27A41EA0200FFF788
:1010200003FB8246BA4ABB4BFFF70FFA0746FFF7AE
:1010300065FBBA490860217B090209B2627B41EA7B
:101040000200FFF7F1FA8246B14AB24BFFF7FDF911
:101050000746FFF753FBB1494860A17B090209B27B
:10106000E27B41EA0200FFF7DFFA8246A84AA94B79
:10107000FFF7EBF90746FFF741FBA8498860217CA1
:10108000090209B2627C41EA0200FFF7CDFA82460A
:101090009F4AA04BFFF7D9F90746FFF72FFBA0495E
:1010A000086000E029E0A17C090209B2E27C41EA83
:1010B0000200FFF7B9FA8246954A964BFFF7C5F949
:1010C0000746FFF71BFB96494860217D090209B2DC
:1010D000627D41EA0200FFF7A7FA07468C4A8D4B72
:1010E000FFF7B3F98246FFF709FB8D498860A078C6
:1010F000314600F0D7F902F04DFCA07811287DD1DF
:101100002179090209B2627941EA0200FFF78CFAFB
:1011100007467F4A7F4BFFF798F98246FFF7EEFAC2
:1011200080490860A179090209B2E27941EA020026
:10113000FFF77AFA8246764A764BFFF786F907463A
:10114000FFF7DCFA77494860217A090209B2627A2E
:1011500041EA0200FFF768FA82466D4A6D4BFFF7DD
:1011600074F90746FFF7CAFA6E498860A17A090246
:1011700009B2E27A41EA0200FFF756FA0746644AEA
:10118000644BFFF762F98246FFF7B8FA66490860D8
:10119000217B090209B2627B41EA0200FFF744FAAF
:1011A00007465B4A5B4BFFF750F98246FFF7A6FA0A
:1011B0005D494860A17B090209B2E27B41EA020075
:1011C000FFF732FA8246524A524BFFF73EF9074682
:1011D000FFF794FA54498860217C090209B2627CC5
:1011E00041EA0200FFF720FA8246494A494BFFF7DD
:1011F0002CF90746FFF782FA4C4900E02AE0086024
:10120000A17C090209B2E27C41EA0200FFF70CFA74
:1012100007463F4A3F4BFFF718F98246FFF76EFA41
:1012200042494860217D090209B2627D41EA02001B
:10123000FFF7FAF90746364A364BFFF706F98246BA
:10124000FFF75CFA39498860A078314600F02AF946
:1012500002F0A0FBA07812286ED12179090209B210
:10126000627941EA0200FFF7DFF90746284A294B75
:10127000FFF7EBF88246FFF741FA2D490860A179A4
:10128000090209B2E27941EA0200FFF7CDF9074607
:101290001F4A204BFFF7D9F88246FFF72FFA24495F
:1012A0004860217A090209B2627A41EA0200FFF736
:1012B000BBF90746164A174BFFF7C7F88246FFF7F8
:1012C0001DFA1B498860A17A090209B2E27A41EA53
:1012D0000200FFF7A9F907460D4A0E4BFFF7B5F8D4
:1012E0008246FFF70BFA13490860217B090209B215
:1012F000627B41EA020020E0200200200E02002072
:1013000008020020B0020020AD020020720B002075
:10131000FCA9F1D24D62503F080A0020440A002087
:10132000800A00205409002090090020CC090020E8
:10133000BC0A0020F80A002023E0FFF775F90746F1
:101340001B4A1C4BFFF781F88246FFF7D7F91A4971
:101350004860A17B090209B2E27B41EA0200FFF783
:1013600063F90746124A134BFFF76FF88246FFF7FF
:10137000C5F911498860A078314600F093F802F071
:1013800009FBA078132803D1A078314600F08AF831
:10139000A078142803D1A078314600F083F8A07813
:1013A000152803D1A078314600F07CF800BF96E5FF
:1013B000FCA9F1D24D62503FF80A002010B5044656
:1013C0003448007838B9AA2C05D101203149087079
:1013D000314804705DE02F480078012807D1AF2C18
:1013E00005D102202B4908702B48447051E0294850
:1013F0000078022807D1F12C05DA0320254908706E
:101400002548847045E02348007803280CD1322C0D
:101410000ADA04201F4908701F48C4701F4804706E
:1014200000201F49087034E01A480078042819D1B8
:101430001A480078002815DD18480078401E174922
:1014400008701748007816490978491C144A117029
:10145000001D11490C5411480078D0B905200D49E0
:10146000087016E00B48007805280FD100200949C4
:1014700008700B480078001D07490C540848007894
:10148000401DC1B20448FFF713FD02E000200149EE
:10149000087010BDB8020020AE0B0020B60200207C
:1014A000B70200202DE9F04105460E460027AA208C
:1014B0000D4908704870EF2088700220C8700846F7
:1014C00005714671002405E00748005D3844C7B245
:1014D000601CC4B2062CF7DB03488771072100F0BB
:1014E00005F8BDE8F08100007C0B002070B50446D3
:1014F0000D462946204604F0ABFE70BD2DE9FC5F89
:1015000006460F4690469946DDF830B00024A246C4
:10151000AA222146641C7A4842542146641C425443
:1015200006F10F00C2B22146641C754842540022E5
:101530002146641C425473493846FEF76FFE009002
:10154000FFF783F800B201909DF805202146641C46
:101550006B4842549DF804202146641C425469495A
:101560004046FEF75BFE0090FFF76FF800B2019077
:101570009DF805202146641C614842549DF80420D2
:101580002046611CCCB25E490A545E494846FEF7CB
:1015900045FE0090FFF759F800B201909DF8052034
:1015A0002046611CCCB256490A549DF804202046BE
:1015B000611CCCB252490A5452495846FEF72EFEDD
:1015C0000090FFF742F800B201909DF805202046F8
:1015D000611CCCB24A490A549DF804202046611C83
:1015E000CCB247490A5447490D98FEF717FE0090C0
:1015F000FFF72BF800B201909DF805202046611CF2
:10160000CCB23F490A549DF804202046611CCCB25C
:101610003B490A543B490E98FEF700FE0090FFF745
:1016200014F800B201909DF805202046611CCCB250
:1016300033490A549DF804202046611CCCB230493D
:101640000A5430490F98FEF7E9FD0090FEF7FDFFC0
:1016500000B201909DF805202046611CCCB22849BB
:101660000A549DF804202046611CCCB224490A5437
:1016700024491098FEF7D2FD0090FEF7E6FF00B275
:1016800001909DF805202046611CCCB21C490A54EB
:101690009DF804202046611CCCB219490A5419490E
:1016A0001198FEF7BBFD0090FEF7CFFF00B201904E
:1016B0009DF805202046611CCCB211490A549DF8C2
:1016C00004202046611CCCB20D490A54201FC8706A
:1016D000002506E00A48405D504400F0FF0A681CFF
:1016E000C5B2A542F6DB2046611CCCB2044901F824
:1016F00000A021460248FFF7F9FEBDE8FC9F00006C
:101700007C0B002000007A442DE9F84306460F4682
:101710000024A046AA222146641C1F4842542146A8
:10172000641C425405222146641C42540022214676
:10173000641C425400969DF801202146641C4254CA
:101740009DF800202146641C425400979DF801201A
:101750002146641C42549DF800202046611CCCB2F6
:101760000D490A54201FC870002506E00A48405D54
:10177000404400F0FF08681CC5B2A542F6DB2046D5
:10178000611CCCB2044901F8008021460248FFF7F1
:10179000ADFEBDE8F88300007C0B00202DE9F84F7A
:1017A00006460F4690469946DDF828B00024A2462A
:1017B000AA222146641C574842542146641C4254C4
:1017C00002222146641C425400222146641C4254D9
:1017D00000969DF801202146641C42549DF800208B
:1017E0002146641C425400979DF801202146641C48
:1017F00042549DF800202046611CCCB245490A5451
:10180000CDF800809DF801202046611CCCB24149F2
:101810000A549DF800202046611CCCB23D490A5470
:10182000CDF800909DF801202046611CCCB23949CA
:101830000A549DF800202046611CCCB235490A5458
:10184000CDF800B09DF801202046611CCCB2314992
:101850000A549DF800202046611CCCB22D490A5440
:101860000B9800909DF801202046611CCCB22949BC
:101870000A549DF800202046611CCCB225490A5428
:101880000C9800909DF801202046611CCCB22149A3
:101890000A549DF800202046611CCCB21D490A5410
:1018A0000D9800909DF801202046611CCCB219498A
:1018B0000A549DF800202046611CCCB215490A54F8
:1018C0000E9800909DF801202046611CCCB2114971
:1018D0000A549DF800202046611CCCB20D490A54E0
:1018E000201FC870002506E00A48405D504400F003
:1018F000FF0A681CC5B2A542F6DB2046611CCCB2CB
:10190000044901F800A021460248FFF7EFFDBDE8B9
:10191000F88F00007C0B00202DE9FE4F82460E461A
:1019200017469846DDF830B00024A146CDF8048073
:10193000AA222146641C484842542146641C425451
:1019400001222146641C425400222146641C425458
:1019500042495046FEF762FC0090FEF776FE00B268
:1019600002909DF809202146641C3B4842549DF892
:1019700008202146641C425438493046FEF74EFC8C
:101980000090FEF762FE00B202909DF80920214609
:10199000641C314842549DF808202146601CC4B2A2
:1019A0002D4842542D493846FEF738FC0090FEF78A
:1019B0004CFE00B202909DF809202046611CCCB27A
:1019C00025490A549DF808202146601CC4B22248CB
:1019D00042549DF807202046611CCCB21E490A548F
:1019E0009DF806202046611CCCB21B490A549DF884
:1019F00005202046611CCCB217490A549DF80420EA
:101A00002146601CC4B2144842542046611CCCB22A
:101A1000114901F800B02146621CD4B20E4A0D985B
:101A20005054201F1146C870002506E00A48405D4A
:101A3000484400F0FF09681CC5B2A542F6DB204609
:101A4000611CCCB2044901F8009021460248FFF71E
:101A50004DFDBDE8FE8F00007C0B00200000C84259
:101A600000B50948007868B10848007828B100201E
:101A70000649087002F000FB04E0012003490870E9
:101A800002F0EDFA00BD0000F8010020DD010020A9
:101A900000B587B001214FF4017002F051FA4FF404
:101AA000004002F031FA0220ADF8180000208DF855
:101AB0001B0006A9104800F045FD0020019004908D
:101AC00001208DF8140000208DF808004FF46020EC
:101AD000039000208DF8090001A90848FEF7A6FF31
:101AE00001210648FEF796FF07230122114603480D
:101AF000FEF7C4FF07B000BD00080140002401400C
:101B000010B5044628480078C007B0EBC47F0FD05A
:101B100004F0010038B101202449087002F08AFA6B
:101B200002F09DFA04E000202049087002F097FAC4
:101B30001D48007800F0020004F0020188420FD036
:101B400004F0010038B101201849087002F072FA5F
:101B500002F085FA04E000201449087002F07FFAD0
:101B600004F0040028B11248007840F00100104948
:101B700008700D48007800F0080004F00801884261
:101B80000FD004F0080030B10948007840F0400060
:101B90000749087005E00648007820F04000044935
:101BA00008700148047010BDC4020020AD0200207E
:101BB000200200202DE9F04F87B005460E4614465E
:101BC00099462868049068680590A8680690B4F95A
:101BD0000010A1F2DC50FEF719FD07467C49FEF724
:101BE0004FFB0190B4F90210A1F2DC50FEF70EFD9C
:101BF00007467749FEF744FB0290B4F9061040F21D
:101C0000DC52501AFEF702FD07467249FEF738FB18
:101C100003907148007810B9002003900CE00398FD
:101C2000FEF740FD21F00041074600226B4BFEF716
:101C30004DFD01D20020039069480078C0F3801068
:101C400018B104A901A803F023FE6648049A01997B
:101C500001F0F0FD6448059A029901F0EBFD63493B
:101C60007068FEF7DBFA07465E483A46416B60480B
:101C700001F0E0FD5D493068FEF7D0FA80F00047E2
:101C800059483A46416B5B4801F0D4FD5749B0686A
:101C9000FEF7C4FA0746584A11680398FEF7BEFAE1
:101CA00080463A464146554801F0C4FDB4F9040067
:101CB000B42863DDB9F1000F60D0B4F90400FEF779
:101CC000A5FC82464A48416B5046FEF7A1FA804681
:101CD0004848416B4046FEF79BFA07464748416B30
:101CE0003846FEF743FA46490860B4F90400FEF7A7
:101CF0008DFC82463E48416B5046FEF737FA8046DF
:101D00003C48416B4046FEF783FA07463B48416B2F
:101D10003846FEF77DFA3B490860B4F90400FEF747
:101D200075FC82463248416B5046FEF71FFA8046EA
:101D30003048416B4046FEF719FA07462F48416B81
:101D40003846FEF713FA30490860B4F90400FEF78C
:101D50005DFC82462648416B5046FEF759FA8046A4
:101D60002448416B4046FEF701FA07462348416B81
:101D70003846FEF74DFA2549086008E00020204962
:101D800008602049086020490860204908601F4811
:101D90000068FEF75AFC07B21B480068FEF755FCC6
:101DA0000FFA80F817480068FEF74FFC0FFA80FA28
:101DB00013480068FEF749FC0FFA80FB3B46424699
:101DC0005146584601F098FC07B0BDE8F08F00007E
:101DD0000000A04100002042AC02002000001040A2
:101DE000200200205409002090090020A34C6542E5
:101DF000080A0020440A0020CC090020800A0020A4
:101E00009C020020A0020020A4020020A8020020C2
:101E10002DE9F84F06460F4690469946DDF828B062
:101E20000024A246AA222146641C87484254214627
:101E3000641C4254F1222146641C42540022214673
:101E4000641C425400969DF803202146641C4254B1
:101E50009DF802202146641C42549DF80120214631
:101E6000641C42549DF800202046611CCCB2764987
:101E70000A5400979DF803202046611CCCB2724999
:101E80000A549DF802202146601CC4B26E48425498
:101E90009DF801202046611CCCB26B490A549DF884
:101EA00000202046611CCCB267490A54CDF800805E
:101EB0009DF803202046611CCCB263490A549DF86A
:101EC00002202046611CCCB25F490A549DF80120D3
:101ED0002046611CCCB25C490A549DF80020204683
:101EE000611CCCB258490A54CDF800909DF80320EB
:101EF0002046611CCCB254490A549DF80220204669
:101F0000611CCCB250490A549DF801202046611C46
:101F1000CCB24D490A549DF800202046611CCCB239
:101F200049490A54CDF800B09DF803202046611CB1
:101F3000CCB245490A549DF802202046611CCCB21F
:101F400041490A549DF801202046611CCCB23E490B
:101F50000A549DF800202046611CCCB23A490A542C
:101F60000B9800909DF803202046611CCCB23649A6
:101F70000A549DF802202046611CCCB232490A5412
:101F80009DF801202046611CCCB22F490A549DF8CF
:101F900000202046611CCCB22B490A540C980090BA
:101FA0009DF803202046611CCCB227490A549DF8B5
:101FB00002202046611CCCB223490A549DF801201E
:101FC0002046611CCCB220490A549DF800202046CE
:101FD000611CCCB21C490A540D9800909DF8032056
:101FE0002046611CCCB218490A549DF802202046B4
:101FF000611CCCB214490A549DF801202046611C92
:10200000CCB211490A549DF800202046611CCCB284
:102010000D490A54201FC870002506E00A48405D9B
:10202000504400F0FF0A681CC5B2A542F6DB20460A
:10203000611CCCB2044901F800A021460248FFF718
:1020400055FABDE8F88F00007C0B002000201C49E9
:10205000088048808880C880088148814FF4E1600A
:1020600088810820C881322008824FF4E1604882CC
:10207000082088823220C882002008834883888311
:1020800040F2A230C883052008844FF4577048847A
:1020900040F2A23088840520C8844FF45770088528
:1020A0004FF4FA604885322088854FF47A70C885ED
:1020B0000020088648868886C88608874887704733
:1020C000340B002070B5FFF7C1FF3E242046E11716
:1020D00004EB91718910A4EB8101091D09B1012163
:1020E00000E0002194FBF1F1CDB22A4602490348F9
:1020F00002F08EFB70BD0000340B002000F80108D8
:1021000010B56FF0040002F053FD0A4800680A4958
:10211000B0FBF1F0094908700846007800EB400177
:10212000C1EBC0104FF6FF7101EAC00004490880FE
:1021300010BD0000DC02002000127A00DE01002049
:10214000E0010020014600224FF0E0231A610E4A10
:1021500012884A435A6100229A611A46126942F073
:1021600001021A6100BF4FF0E022106900F0010285
:102170001AB100F48032002AF5D000224FF0E0239B
:102180001A619A6170470000E001002001460022B8
:102190004FF0E0231A610E4A12784A435A61002236
:1021A0009A611A46126942F001021A6100BF4FF0AB
:1021B000E022106900F001021AB100F48032002A16
:1021C000F5D000224FF0E0231A619A6170470000B9
:1021D000DE01002010B5042000F042F8002834D0C1
:1021E0001A48006840F4807018490860072002F01F
:1021F000D1F9044604F0200050B10F2002F028FA73
:102200002021272002F008FAFF21E12002F004FA41
:1022100004F0400040B10E4802F020F901F0B6FF92
:102220004021272002F0F8F904F0100050B10F20EF
:1022300002F00EFA1021272002F0EEF9FF21E12032
:1022400002F0EAF9042000F005F810BD140801407E
:102250001C0300200149086070470000140401407D
:10226000014600200022074B1B6803EA0102054BD0
:1022700014331B680B4013B10AB1012000E00020A9
:102280007047000000040140002123498279002AA0
:102290003AD00A46126803689A430B461A600A1D30
:1022A000126803689A430B1D1A60027911440A6888
:1022B00003681A430A60184A0832126803689A438E
:1022C000154B08331A601A1D126803689A43124BA3
:1022D0000C331A604279102A0ED11A1F1268036853
:1022E0001A430D4B08331A601A1D126803681A430B
:1022F000094B0C331A600DE00749427911440A6812
:1023000003681A430A6005E0027911440A68036809
:102310009A430A6070470000000401400EB5012195
:10232000092001F00DFE0221012000F0EBF804204D
:10233000ADF8080048208DF80B0003208DF80A0046
:1023400002A9094800F0FEF80420009000208DF852
:1023500004000C208DF8050001208DF80600684669
:10236000FFF792FF0EBD0000000C014030B504469F
:1023700004254FF4302000F085F80546042D17D1D0
:102380000C48006940F002000A49086108464461AF
:10239000006940F0400008614FF4302000F072F80E
:1023A00005460448006941F6FD710840014908618D
:1023B000284630BD0020024004200B49C96801F0C6
:1023C000010109B101200EE00749C96801F00401CB
:1023D00009B1022007E00449C96801F0100109B100
:1023E000032000E0042070470020024003480069F9
:1023F00040F0800001490861704700000020024061
:1024000078B506460C46042500200090E80200F04E
:1024100039F80546042D24D11348006940F0010025
:10242000114908613480E80200F02CF80546042DBB
:1024300010D1B01C0090200C00990880E80200F038
:1024400021F805460848006941F6FE710840064932
:10245000086106E00448006941F6FE71084002493F
:102460000861284678BD0000002002400248034968
:1024700048600348486070472301674500200240D8
:10248000AB89EFCD00B502460423FFF795FF034665
:1024900003E0FFF791FF0346521E012B01D1002AF2
:1024A000F7D102B90523184600BD2DE9F0410546D4
:1024B0000C46164655F824701BE000E0761EB44228
:1024C00005DA55F826003946FEF73EF9F6D955F8F3
:1024D000260045F8240000E0641CB44205DA55F8F3
:1024E00024003946FEF726F9F6D955F8240045F8B8
:1024F0002600B442E1DB45F824702046FEF786F85A
:10250000BDE8F08130B500228B071C0F0F2303FAC2
:1025100004F20B4B8C1053F824309343084C8D106D
:1025200044F8253023468C1053F824308C07240FB0
:1025300000FA04F42343024C8D1044F8253030BDDA
:10254000080001402DE9F041024600250026002048
:1025500000230024002791F803C00CF00F0591F828
:1025600003C00CF0100CBCF1000F03D091F802C0B6
:102570004CEA050591F800C0BCF1000F31D0146899
:1025800000202BE04FF0010C0CFA00F3B1F800C072
:102590000CEA03069E4220D183004FF00F0C0CFA88
:1025A00003F7BC4305FA03FC4CEA040491F803C0AA
:1025B000BCF1280F06D14FF0010C0CFA00FCC2F858
:1025C00014C00AE091F803C0BCF1480F05D14FF0E8
:1025D000010C0CFA00FCC2F810C0401C0828D1D332
:1025E0001460B1F800C0BCF1FF0F34DD5468002066
:1025F0002EE000F1080C4FF0010808FA0CF3B1F8D6
:1026000000C00CEA03069E4221D183004FF00F0C5C
:102610000CFA03F7BC4305FA03FC4CEA040491F8F6
:1026200003C0BCF1280F05D100F1080C08FA0CF822
:10263000C2F8148091F803C0BCF1480F07D100F133
:10264000080C4FF0010808FA0CF8C2F81080401C82
:102650000828CED35460BDE8F08141617047016124
:102660007047000010B540200A49086001F0EAFDFB
:102670008020084908600120FFF788FD40200549B7
:10268000091F08600220FFF781FD40200149086012
:1026900010BD0000140C014008B50121082001F014
:1026A0004FFCC020ADF8000010208DF8030003207F
:1026B0008DF8020069460448FFF744FFC021024834
:1026C000FFF7CDFF08BD0000000C014010B5402011
:1026D0000A49086001F0B6FD80200849091F08601A
:1026E0000120FFF753FD40200449091F0860012025
:1026F000FFF74CFD40200149086010BD140C01405B
:1027000070B50546002401F08BFD002618E040203E
:10271000104908600120FFF739FD40200D49091FCD
:1027200008606006040E0B480C380068C0F3C01047
:1027300008B1601CC4B20120FFF728FD701CC6B2AE
:10274000082EE4DB15B1FFF78DFF01E0FFF7BEFFB8
:10275000204670BD140C014070B504460D46164667
:1027600000F086F8204600F055F800F0B3F818B1F4
:1027700000F098F8012070BD284600F04BF800F0FA
:10278000A9F800F075F8611CC8B200F043F800F039
:10279000A1F80020FFF7B4FF307000F083F80020AC
:1027A000E9E72DE9F04706460F461546984600240E
:1027B00000F05EF8304600F02DF800F08BF820B104
:1027C00000F070F80120BDE8F087384600F022F8EC
:1027D00000F080F800F04CF8711CC8B200F01AF854
:1027E00000F078F800240FE0681EA04204D0012019
:1027F000FFF786FF814603E00020FFF781FF814657
:1028000008F80490601CC4B2AC42EDDB00F04AF85A
:102810000020D8E770B5044601F014FD40201349AC
:10282000086000251EE004F0800020B180200F49E0
:10283000091F086002E080200C4908606006040E51
:102840000120FFF7A3FC40200849091F0860012070
:10285000FFF79CFC4020054908600120FFF796FC2B
:10286000681CC5B2082DDEDB70BD0000140C0140F1
:1028700010B501F0E7FC802009490860402008609D
:102880000420FFF783FC80200549091D086004200F
:10289000FFF77CFC40200249091D086010BD0000C4
:1028A000100C014010B501F0CDFC40200849086033
:1028B000802008600420FFF769FC40200449091FBC
:1028C0000860802008600420FFF760FC10BD000055
:1028D000140C014010B5002401F0A2FC8020104926
:1028E00008600120FFF752FC40200D4908600120DC
:1028F000FFF74CFC07E0601CC4B2FA2C03DDFFF7C5
:10290000D1FF012010BD064808380068C0F3C01090
:102910000028F0D140200249091D08600020F1E79D
:10292000100C014070B506460C461546FFF7A0FF97
:102930003046FFF76FFFFFF7CDFF18B1FFF7B2FF8B
:10294000012070BD2046FFF765FFFFF7C3FF284653
:10295000FFF760FFFFF7BEFF18B1FFF7A3FF0120ED
:10296000EFE7FFF79FFF0020EBE7000007B5A8B0F7
:102970002422FE491EA8FDF7E7FB299800681D9058
:10298000299840681C90299880681B9028980068B6
:102990001A90289840681990289880681890F448F0
:1029A00001680068FDF73AFC1090F2480168F048B1
:1029B0000068FDF733FC0F90EF480168EC480068B1
:1029C000FDF72CFC0E90ED480168E9480068FDF722
:1029D00025FC0D90E74801680068FDF71FFC0C908E
:1029E000E5480168E3480068FDF718FC0B90E348F0
:1029F0000168E0480068FDF711FC0A90DE480168B4
:102A00000068FDF70BFC0990DC480168DA480068B3
:102A1000FDF704FC0890D94801680068FDF7FEFB4B
:102A20000790DDE91C10FDF7F9FB05901B99FDF7F8
:102A3000F5FB00210690FDF77DFE01D12BB000BD16
:102A40001B990846FDF7EAFB05901C990846FDF71F
:102A5000E5FB03901D990846FDF7E0FB0290039902
:102A6000FDF784FB04900599FDF780FB069003F0C9
:102A7000E5FA119011991D98FDF7D0FB1D90119961
:102A80001C98FDF7CBFB1C9011991B98FDF7C6FB1A
:102A90001B900E990A98FDF7BBFB4FF08041069002
:102AA000FDF7BCFB179008990F98FDF75FFB4FF0FF
:102AB00080410690FDF7B2FB16900C991098FDF737
:102AC000A7FB05900999FDF7A3FB06900799FDF771
:102AD0004DFB159016991B98FDF7A0FB06901599D4
:102AE0001C98FDF79BFB05900699FDF791FB149050
:102AF00015991D98FDF792FB069017991B98FDF705
:102B00008DFB05900699FDF783FB139017991C9890
:102B1000FDF784FB069016991D98FDF77FFB059045
:102B20000699FDF775FB129095491498FDF776FB11
:102B30000690944801680698FDF718FB91490860D3
:102B40008F491398FDF76AFB06908F480168069835
:102B5000FDF70CFB8C49086089491298FDF75EFB74
:102B600006908A4801680698FDF700FB87490860CF
:102B70004FF07F501499FDF751FB05901A99FDF71E
:102B8000F5FA06907F4801680698FDF7EFFA1A906B
:102B90004FF07F501399FDF741FB05901999FDF710
:102BA000E5FA0690784801680698FDF7DFFA199073
:102BB0004FF07F501299FDF731FB05901899FDF702
:102BC000D5FA0690714801680698FDF7CFFA18907B
:102BD0006A4818990068FDF721FB04906648199926
:102BE0000068FDF71BFB02906248006880F000401F
:102BF00000901A99FDF712FB01900299FDF708FB6E
:102C000003900499FDF704FB5D490590FDF706FB71
:102C10000690574801680698FDF7A8FA54490860DD
:102C2000564819990068FDF7F9FA04905248189926
:102C30000068FDF7F3FA02904D481A990068FDF715
:102C4000EDFA01900299FDF791FA03900499FDF7CE
:102C5000DFFA4B490590FDF7E1FA06904548016817
:102C60000698FDF783FA4349086044481A990068BA
:102C7000FDF7D4FA04903F4818990068FDF7CEFAA2
:102C800002903B4819990068FDF7C8FA0190029933
:102C9000FDF7BEFA03900499FDF768FA38490590EC
:102CA000FDF7BCFA0690344801680698FDF75EFA15
:102CB0003149086030481A990068FDF7AFFA04906E
:102CC0002C4819990068FDF7A9FA0290284818992C
:102CD0000068FDF7A3FA01900299FDF747FA039007
:102CE0000499FDF795FA26490590FDF797FA0690A5
:102CF000224801680698FDF739FA2049086008461D
:102D000001680068FDF78AFA05901B4801680068B1
:102D1000FDF784FA0390174801680068FDF77EFA12
:102D20000190134801680068FDF778FA0090019956
:102D3000FDF71CFA02900399FDF718FA0490059923
:102D4000FDF714FA069003F079F9119008481199EB
:102D50000068FDF763FA06490860064811990068A3
:102D6000FDF75CFA03490860034811E0806200083F
:102D70005002002054020020580200205C02002073
:102D80000AD7A33B600200206402002068020020F2
:102D900011990068FDF742FA944908609448119926
:102DA0000068FDF73BFA924908600C991098FDF70E
:102DB000DDF905900999FDF72BFA06900799FDF7C3
:102DC00027FA1E900D990B98FDF7D0F94FF080412E
:102DD0000690FDF723FA1F900E990A98FDF718FA4E
:102DE0004FF080410690FDF719FA20900D990B984D
:102DF000FDF70EFA4FF080410690FDF70FFA219093
:102E00000C991098FDF704FA05900999FDF7AEF9B1
:102E100006900799FDF7FCF922900F990898FDF7A5
:102E2000A5F94FF080410690FDF7F8F923900E992F
:102E30000A98FDF79BF94FF080410690FDF7EEF9F7
:102E400024900F990898FDF7E3F94FF08041069020
:102E5000FDF7E4F925900C991098FDF7D9F9059044
:102E60000999FDF7D5F906900799FDF77FF92690A6
:102E7000289880685F490490FDF7D0F95E49059075
:102E8000FDF7CCF906902A988068014605900698CF
:102E9000FDF76CF92A9988600E990A98FDF7B8F940
:102EA0004FF080410490FDF7B9F9059002F036FE2D
:102EB00052490690FDF7B2F92A9908600C991098CA
:102EC000FDF7A6F902900999FDF7A2F90390079979
:102ED000FDF74CF905904FF080400F99FDF79EF9F2
:102EE00003904FF080400899FDF798F902900399FC
:102EF000FDF73CF90490059902F0A2FE3F490690C7
:102F0000FDF78CF92A99486000F048F93C480168BF
:102F10002A9801603B4801682A9841603A48B0F914
:102F20000400962815DD3848B0F90400C82810DCE4
:102F30002A9840680190FDF7B5FB0022334BCDE99C
:102F40000201FDF7DBF9CDE90401FDF7D7FB2A9972
:102F500048602D48B0F90400C82816DD2A48B0F9A9
:102F60000400B0F5C87F10DC2A9840680190FDF796
:102F700099FB0022264BCDE90201FDF7BFF9CDE90F
:102F80000401FDF7BBFB2A9948601F48B0F9040013
:102F9000B0F5C87F16DB1C48B0F90400B0F5167F09
:102FA00010DA2A9840680190FDF77CFB0022194B4B
:102FB000CDE90201FDF7A2F9CDE90401FDF79EFB81
:102FC0002A994860002027900AE01EA9279851F806
:102FD0002010114A42F820102798401CC0B22790B8
:102FE00027980928F1DB00BF28E5000058020020DF
:102FF0005C020020A34C65420AD7233C3333654270
:10300000900200208C020020BC0200200000224020
:103010000000344000004440E00800200E4A0A60EE
:103020000E4A4A600E4A8A600022CA600A618A61BA
:103030000023CB610B624B62074A0260074A426081
:103040004FF0824282600022C26002618261C361ED
:1030500003624362704700006F12833AA69B443BB1
:103060008FC2F53C2DE9F04F87B004460E46174657
:103070001D4638462169FDF7CBF860612846616935
:10308000FDF7CCF88246E168FDF770F8E06028466D
:10309000616AFDF7C3F80090E169FDF7B9F80190A6
:1030A000216AFDF7B5F883462168FDF75FF82946E8
:1030B0000290FDF7B3F88246A169FDF757F8A061C9
:1030C0002846616AFDF7AAF88246E169FDF7A3F890
:1030D000E0612846616AFDF7A1F88246216AFDF7A2
:1030E0009AF8206229466068FDF798F88246616A7E
:1030F000FDF73CF86062A168A069FDF737F806901B
:10310000A0690699FDF7BCF80490206A0699FDF7BE
:10311000B7F805903046E168FDF77AF80390DDE9ED
:103120000310FDF77BF88246E168FDF71FF8E060C9
:1031300003990598FDF772F882462169FDF716F8A4
:103140002061D4F81880D4F81C9041460498FDF70B
:1031500065F88246A169FDF75EF8A06149460498CA
:10316000FDF75CF88246E169FDF755F8E0614146FC
:103170000598FDF753F88246216AFDF74CF8206266
:1031800049460598FDF74AF88246616AFDF743F81B
:103190006062E06807B0BDE8F08F00002DE9F04103
:1031A0001C4A1D491D4800F037F91C48B0F90000C1
:1031B000FDF73AFA06460022194BFDF7B8F9044626
:1031C000FDF79CFA174908601348B0F90000FDF7B5
:1031D0002BFA06460022124BFDF7A9F90446FDF72B
:1031E0008DFA114908601148114B41680E48026878
:1031F0001048FFF737FF104908600C480C4B016876
:10320000084802680D48FFF72DFF0D490860BDE82A
:10321000F08100007A02002078020020760200206F
:10322000006060407C020020800200208C080020AA
:103230000AD7233C040900208C0200202C0900201E
:103240009002002000B502490248FFF7E7FE00BDEA
:103250002C0900200409002008B50121082000F0F5
:103260006FFE4FF44070ADF8000010208DF80300A1
:1032700003208DF8020069460648FFF763F94FF412
:1032800080710448FFF7EBF94FF400710148FFF734
:10329000E4F908BD000C014010B50A48007840B1BF
:1032A0000020084908704FF480710748FFF7D7F9EC
:1032B00006E001200349087001020348FFF7CDF939
:1032C00010BD0000D9010020000C014000B589B0FC
:1032D00001210D2000F034FE0121022000F020FE2B
:1032E000C020ADF8200018208DF8230003208DF8B1
:1032F000220008A93848FFF725F90320ADF820007F
:1033000018208DF8230003208DF8220008A93348E7
:10331000FFF718F940F2E730ADF818006420ADF877
:1033200014000020ADF81600ADF81A0005A92C48CD
:1033300001F0E4FE6020ADF804000020ADF80A00C2
:10334000ADF80C000120ADF8060001A9244801F0F9
:1033500079FD0821224801F0C1FD6020ADF804008C
:103360000020ADF80A00ADF80C000120ADF8060011
:1033700001A91B4801F0BCFD0821194801F00AFE13
:103380006020ADF804000020ADF80A00ADF80C0094
:103390000120ADF8060001A9114801F009FE08213D
:1033A0000F4801F055FE6020ADF804000020ADF894
:1033B0000A00ADF80C000120ADF8060001A908488C
:1033C00001F050FE0821064801F08AFE0121044860
:1033D00001F0F1FC09B000BD00080140000C014003
:1033E0000004004010B504E004A002F091FA00F0DF
:1033F000ABFE00F078F90028F6D010BD0D4D505509
:1034000036303530206E6F20636F6E6E6563742EBC
:103410002E2E0D0A000000007CB506460C4615460F
:103420006A460621432000F03AF99DF801009DF814
:10343000001040EA012000B230809DF803009DF8A2
:10344000021040EA012000B220809DF805009DF89E
:10345000041040EA012000B228807CBD10B5FFF7BF
:10346000C1FF80216B2000F029F96420FEF76AFE7D
:1034700001216B2000F022F90021382000F01EF914
:1034800018211B2000F01AF908211C2000F016F961
:1034900004211A2000F012F90021192000F00EF981
:1034A0000221372000F00AF910BD00000FB52B48AB
:1034B0000088A0B90020ADF80000ADF80200ADF81A
:1034C000040027490860274908602749086001204F
:1034D0002249088000230020108050809080BDF990
:1034E00000001F49096808441D490860BDF9020031
:1034F0001C49096808441B490860BDF90400C01A4A
:103500001949096808441849086014480088C828FF
:103510001DD1134800681149098890FBF1F000B2F1
:103520001080104800680D49098890FBF1F000B246
:1035300050800D4800680949098890FBF1F000B2FD
:103540009080002005490880012004B000BD034898
:103550000088401C014908800020F6E73002002066
:1035600024020020280200202C0200200CB539483B
:1035700040783849097840EA012037490988401ADB
:1035800000B2364908803348C0783249897840EA29
:10359000012031494988401A00B2304948802D48FD
:1035A00040792C49097940EA01202B498988401A41
:1035B00000B22A4988802748407A2649097A40EA99
:1035C000012027490988401A00B22649088021486D
:1035D000C07A2049897A40EA012021494988401A65
:1035E00000B2204948801B48407B1A49097B40EAC9
:1035F00001201B498988401A00B21A4988801A485C
:10360000006878B90846016800918088ADF8040028
:103610000023134ADDE90001FFF748FF10B1012044
:10362000114908601148006898B90F48006880B1D6
:103630000A48016800918088ADF8040042F2040352
:10364000054ADDE90001FFF731FF10B1012007490C
:1036500008600CBD7C0300200E0200201402002034
:10366000080200201A020020340200203802002044
:1036700010B5034A0E213B2000F011F810BD0000E8
:103680007C03002070B504460D462A462146D02012
:10369000FFF762F808B1012070BD0020FCE770B5AB
:1036A00004460D46164633462A462146D020FFF7EB
:1036B00078F808B1012070BD0020FCE770B5044621
:1036C0000D462A462146D020FFF72CF908B10120EB
:1036D00070BD0020FCE708B569467520FFF7D2FFF2
:1036E0009DF8000008BD10B5FFF7F5FF682801D16F
:1036F000012010BD0020FCE730B5B0F57A7F01DD78
:103700004FF47A70B1F57A7F01DD4FF47A71B2F53A
:103710007A7F01DD4FF47A72B3F57A7F01DD4FF4E1
:103720007A73002800DA0020002900DA0021002A3C
:1037300000DA0022002B00DA0023044D28802D1D22
:1037400029802D1D2A802D1D2B8030BD3404004082
:1037500070B5002100230F22C47804B3154C2468EF
:1037600004F4E064C4F5E064210AC1F10403CA4032
:10377000447804FA03F184781440214309010E4C83
:103780000678A155047804F01F050124AC400578A3
:103790006D11AD0005F1E025C5F8004109E00478A0
:1037A00004F01F050124AC40044D0678761145F85D
:1037B000264070BD0CED00E000E400E080E100E098
:1037C00002490143024A1160704700000000FA05F7
:1037D0000CED00E008B54FF4A060FFF7F1FF1E20EC
:1037E0008DF8000001208DF801008DF802008DF8A1
:1037F00003006846FFF7ACFF25208DF8000002208B
:103800008DF8010001208DF802008DF80300684654
:10381000FFF79EFF08208DF8000002208DF80100C0
:103820008DF8020001208DF803006846FFF790FF35
:1038300008BD00002DE9F04104460E461546294614
:103840003046FCF7E5FCE060A169E068FCF7E0FCCD
:103850006061E1682068FCF7E1FCA06294F8380040
:10386000FCF7DDFE80466168FCF7D8FC074621695D
:10387000FCF7D4FCE0626169A068FCF7CFFC206330
:10388000D4E90A01FCF772FC0746216BFCF76EFCD9
:1038900060631E480078012831D11D48B0F904004A
:1038A000B4282CDB2846216AFCF74EFF07D3206A98
:1038B00080F0004729463846FCF746FF03D2002037
:1038C00084F838001DE0012084F83800D4E90310A2
:1038D000FCF74CFC2061616A2069FCF735FF01D2DE
:1038E000606A2061606A80F0004738462169FCF711
:1038F0002BFF06D2606A80F00040206101E00020CA
:103900002061E068A061BDE8F0810000AD02002008
:10391000BC02002070B53E242046E11704EB9171F3
:103920008910A4EB8101091D09B1012100E00021EA
:1039300094FBF1F1CDB22A460E490F4800F054FF36
:1039400001F02EFC0B48408A4FF6FF7188420DD1E2
:1039500008488089884209D10648008B884205D1F1
:10396000FEF7B0FB05A001F0D3FF01E0FEF7AAFBD4
:1039700070BD0000340B002000F80108466C617334
:10398000682052656164204572726F722121210D99
:103990000A00000070B500F01BF83E242046E11735
:1039A00004EB91718910A4EB8101091D09B101217A
:1039B00000E0002194FBF1F1CDB22A460249034810
:1039C00000F026FF70BD0000340B002000F8010855
:1039D00010B5834800888349088081484088488022
:1039E0007F488088888080480088C8807E484088DA
:1039F00008817D48808848817C4908687C49FCF7BB
:103A00000DFC0446FCF73AFE764988817749486800
:103A10007749FCF703FC0446FCF730FE7149C88186
:103A2000724988687249FCF7F9FB0446FCF726FEE8
:103A30006C4908826F4908686D49FCF7EFFB044642
:103A4000FCF71CFE674948826A4948686849FCF7E8
:103A5000E5FB0446FCF712FE6249888265498868E6
:103A60006349FCF7DBFB0446FCF708FE5D49C882AE
:103A7000614908685E49FCF7D1FB0446FCF7FEFD8E
:103A8000584908835C4948685949FCF7C7FB044614
:103A9000FCF7F4FD53494883574988685449FCF7BB
:103AA000BDFB0446FCF7EAFD4E498883534908688C
:103AB0004F49FCF7B3FB0446FCF7E0FD4949C883D6
:103AC0004E4948684A49FCF7A9FB0446FCF7D6FD75
:103AD00044490884494988684549FCF79FFB0446E6
:103AE000FCF7CCFD3F494884454908684049FCF74C
:103AF00095FB0446FCF7C2FD3A4988844049486872
:103B00003B49FCF78BFB0446FCF7B8FD3549C884FC
:103B10003B4988683649FCF781FB0446FCF7AEFD5B
:103B200030490885374908683149FCF777FB044676
:103B3000FCF7A4FD2B494885324948682C49FCF71D
:103B40006DFB0446FCF79AFD264988852D49886857
:103B50002749FCF763FB0446FCF790FD2149C88523
:103B6000294908682249FCF759FB0446FCF786FD01
:103B70001C490886244948681D49FCF74FFB044648
:103B8000FCF77CFD174948861F4988681849FCF7EF
:103B900045FB0446FCF772FD124988861B490868FC
:103BA0001349FCF73BFB0446FCF768FD0D49C8864A
:103BB000164948680E49FCF731FB0446FCF75EFDE8
:103BC00008490887114988680949FCF727FB04461A
:103BD000FCF754FD034948870D480078888710BDDD
:103BE0000E020020340B002008020020540900209F
:103BF00000007A4490090020CC090020080A002027
:103C0000440A0020800A0020BC0A0020F80A002094
:103C1000FB01002000201E4981F838001D48086281
:103C20001D48486200201D4981F838001C48086280
:103C30001C48486200201C4981F838001548086279
:103C4000154848620020194981F838001448086274
:103C5000144848620020164981F838000D4808626F
:103C60000D4848620020134981F838000C4808626A
:103C70000C4848620020104981F838000862486208
:103C80000E4981F838000E480862064848627047BD
:103C9000080A002000001643000096445409002042
:103CA00000000C4200004843440A00209009002014
:103CB000800A0020CC090020BC0A0020F80A00205D
:103CC0000000C84270B5FFF7D3FCFFF74FFC0C2291
:103CD0007149724800F0DEFE6F4908687049FCF7D0
:103CE0009DFA04466F49FCF799FA6F4908606A49E2
:103CF00048686B49FCF792FA04466A49FCF78EFA69
:103D000069494860644988686549FCF787FA044650
:103D10006449FCF783FA644988606449B1F900009A
:103D2000FCF774FC04466249FCF778FA61490860C4
:103D30005E49B1F90200FCF769FC04465C49FCF7F6
:103D40006DFA5C4948605949B1F90400FCF75EFC22
:103D500004465749FCF762FA56498860564800788D
:103D6000002879D0504908685449FCF757FA0446AE
:103D7000494908685249FCF751FA05462146FCF7C3
:103D8000F5F945490860484948684C49FCF746FA46
:103D90000446414948684A49FCF740FA054621462D
:103DA000FCF7E4F93C4948603F4988684349FCF71F
:103DB00035FA0446384988684149FCF72FFA054628
:103DC0002146FCF7D3F9344988603E4908683B49ED
:103DD000FCF724FA0446374908683949FCF71EFA0B
:103DE00005462146FCF7C2F9324908603549486862
:103DF0003249FCF713FA04462E4948683049FCF76B
:103E00000DFA05462146FCF7B1F92A4948602D49CB
:103E100088682A49FCF702FA044626498868284936
:103E2000FCF7FCF905462146FCF7A0F9214988601A
:103E3000194800681C4908601748406848601648DF
:103E4000806888601B4800681E49086019484068FF
:103E500048601848806888600F4800681A49086000
:103E60000D48406848600C488068886008680021F8
:103E7000FCF760FC0ED0144948680021FCF75AFC9E
:103E800008D0114988680021FCF754FC02D00120B9
:103E90000E49087070BD0000B00800201402002018
:103EA00040DAFF380AE81C41C80800201A02002046
:103EB00045798B3A980800206C0200206666663FC0
:103EC000CDCCCC3DA4080020D40800204C0200201A
:103ED0002DE9F04107460D461646B54212DA324644
:103EE00029463846FEF7E1FA8046FCF7AEFB044669
:103EF000621E29463846FFF7EBFF3246611C384602
:103F0000FFF7E6FFBDE8F08101460020034A506854
:103F100020F4404008435060704700000010024009
:103F200029B1064AD2690243044BDA6104E0034A2C
:103F3000D2698243014BDA617047000000100240F1
:103F400029B1064A92690243044B9A6104E0034A8C
:103F500092698243014B9A61704700000010024051
:103F600030B500210022002400232D4D6D6805F09E
:103F70000C0121B1042905D0082923D105E0294DE0
:103F8000056022E0274D05601FE0254D6D6805F4B2
:103F90007012234D6D6805F48034022505EB9242C2
:103FA0001CB9214D554305600BE01D4D6D6805F4AE
:103FB00000351DB11C4D5543056002E0194D5543B8
:103FC000056002E0174D056000BF00BF144D6D682D
:103FD00005F0F0010909154D6B5C0568DD40456091
:103FE0000F4D6D6805F4E061090A104D6B5C456882
:103FF000DD4085600A4D6D6805F46051C90A0B4DBE
:104000006B5C4568DD40C560054D6D6805F4404159
:10401000890B074D6B5CC568B5FBF3F5056130BDD9
:104020000010024000127A0000093D00C602002084
:10403000D602002010B500240EE0022C05DA002282
:104040001146FF2001F016FC04E00022FF2110467B
:1040500001F010FC601CC4B2042CEEDB10BD10B5E6
:10406000002406E000221146104601F003FC601C0B
:10407000C4B2042CF6DB10BD10B5002406E000220B
:10408000FF21104601F0F6FB601CC4B2042CF6DBE5
:1040900010BD0000F0B50025002600272648017855
:1040A0000078401C244A1070102907DB00201146BC
:1040B000087022480078401C20490870002431E034
:1040C0001F480078042802DD00201D4908701D48A3
:1040D0001A49097800EB81101949097850F8210034
:1040E000C0F3074517481549097800EB81101449BA
:1040F000097830F82100C0F3072612480F490978E3
:1041000000EB81100E49097810F821703A462946D3
:10411000304601F0AFFB0A480078401C084908709F
:10412000601CC4B2042CCBDB04480078072802D101
:10413000002002490870F0BDDC010020DB010020F6
:10414000DA0100201800002010B5002406E000224B
:104150001146FF2001F08EFB601CC4B2042CF6DB7C
:1041600010BD00B50346002200BF0BE003FA02F0C9
:1041700000F0010010B101F041FB01E001F006FB8D
:10418000501CC2B2082AF1DB00BD000010B50120AE
:104190001F4908701F48C07AA52800D010BD1D48CF
:1041A000007800F0010020B31A4880781949C978D6
:1041B00040EA012000B21849C88016480079154924
:1041C000497940EA012000B213498880114880797A
:1041D0001049C97940EA012000B20F4908800D4812
:1041E000007A0C49497A40EA012000B20A49488025
:1041F00008E00848007800F0080018B10549487840
:10420000FDF77EFC0348807A0449087000BFC5E7CB
:10421000AC0200201C030020BC020020BA020020D7
:1042200008B501210820FFF78BFE8020ADF80000C3
:1042300004208DF8030069460148FEF783F908BDA4
:10424000000C014008B501210820FFF779FE80200D
:10425000ADF8000010208DF8030003208DF8020057
:1042600069460248FEF76EF908BD0000000C0140E7
:1042700010B504E004A001F04BFBFFF7FDFE00F0D9
:10428000A5F90028F6D010BD0D2053493234523123
:10429000206E6F20636F6E6E6563742E2E2E0D0A76
:1042A0000000000010B51E48006840F480701C49F2
:1042B00008600321232000F0AFF9052219493020BE
:1042C00000F042F9052217492A2000F03DF91A2191
:1042D000242000F0A1F90121222000F09DF9012104
:1042E000212000F099F92021312000F095F90522D4
:1042F0000D492A2000F028F91E21252000F08CF914
:104300002721262000F088F90F2000F0A1F90448A9
:10431000001F006840F480700149091F086010BD4B
:1043200014080140FC0100200102002010B51348D0
:104330000078322810DD4FF0E0218869FBF7FCFEA1
:10434000FBF7F0FE322190FBF1F201FB12000B496A
:104350000870FFF71FFB0FE009480079074909784B
:10436000884209D00548007805490871034800785B
:1043700004490871FFF796FF10BD0000FB01002003
:10438000FC0100200102002008B501210C20FFF7EC
:10439000D7FD4FF48050ADF8000010208DF80300D9
:1043A00003208DF8020069461748FEF7CBF84FF45A
:1043B00080511548FEF751F94FF48070ADF80000B8
:1043C00010208DF8030003208DF8020069460F4885
:1043D000FEF7B8F84FF480710C48FEF73EF900F094
:1043E00097F9FFF745FF08481030006840F4805007
:1043F00005491031086005481430006840F48070A9
:1044000002491431086008BD000C01400008014059
:104410002DE9F04107460C4615460F48006840F468
:1044200080500D490860384600F04AF98046002661
:1044300005E0FF2000F044F92070641C761CAE42B9
:10444000F7DB0548001F006840F480500249091F4F
:1044500008604046BDE8F081140C014010B50446E8
:104460000B48006840F4807009490860202221460A
:104470006120FFF7CDFFFF21E22000F0CDF80448D6
:10448000001F006840F480700149091F086010BDDA
:104490001408014010B50F480078C8B10E480078E4
:1044A00050B10E4800780E490978884204D101F0D5
:1044B0005DF9FFF7E1FD07E00748007820B1094802
:1044C000007808B9FFF7B6FD044800780449087081
:1044D00010BD0000AC020020AD020020BA02002096
:1044E000C5020020F801002010B5044614480068F9
:1044F00040F480701249086005221249302000F013
:1045000023F805220F492A2000F01EF82022214618
:10451000A02000F019F80E21202000F07DF87E2167
:10452000272000F079F80648001F006840F48070EA
:104530000349091F08600A20FDF728FE10BD00008E
:1045400014080140FC0100202DE9F04107460C460B
:1045500015460F48006840F480500D490860384601
:1045600000F0AEF88046002604E0207800F0A8F8BD
:10457000641C761CAE42F8DB0548001F006840F45E
:1045800080500349091F08604046BDE8F0810000E3
:10459000140C014070B504460B48006840F480508C
:1045A00009490860204600F08BF8FF2000F088F8E9
:1045B00005460548001F006840F480500249091F65
:1045C0000860284670BD0000140C01401CB510A105
:1045D00003C9CDE90001052269463020FFF7B4FF89
:1045E000052269461020FFF713FF002406E01DF89E
:1045F0000400A52800D003E0601CC4B2052CF6DB43
:1046000000BF052C01D000201CBD0120FCE70000EC
:10461000A5A5A5A5A500000070B505460C460B484C
:10462000006840F4805009490860284600F048F8C6
:104630000646204600F044F80448001F006840F495
:1046400080500249091F0860304670BD140C0140BB
:1046500010B504460E2C16D11848006840F480703E
:10466000164908600E212020FFF7D6FF7E21272063
:10467000FFF7D2FF1148001F006840F480700F4917
:10468000091F086018E00D48006840F480700B496D
:1046900008600F212020FFF7BFFF7E212720FFF7B2
:1046A000BBFF0648001F006840F480700349091FE3
:1046B0000860C820FDF76AFD10BD00001408014025
:1046C00010B5044600BF02210A4800F061F8002836
:1046D000F9D02146074800F067F800BF01210548DE
:1046E00000F056F80028F9D0024800F05AF8C0B29D
:1046F00010BD00000038004021B1028842F04002A5
:10470000028004E002884FF6BF731A4002807047AF
:1047100000B587B001210820FFF712FC01218803B2
:10472000FFF7FEFB4FF46040ADF8040018208DF851
:10473000070003208DF8060001A91348FDF702FFCA
:104740004FF48270ADF80A004FF40070ADF812001B
:104750000020ADF81000ADF80E00ADF80C001020F0
:10476000ADF814000020ADF80800ADF816000720E1
:10477000ADF8180002A9054800F018F80121034817
:10478000FFF7BAFF07B000BD000C01400038004041
:104790000246002013890B400BB1012000E00020ED
:1047A00070470146888970478181704710B50022A3
:1047B000028802F441520B884C8823438C8823439F
:1047C000CC8823430C8923434C8923438C8923437E
:1047D000CC8923431A430280838B4FF2FF7423401A
:1047E00083830B8A038210BD30B503460C46154601
:1047F000002206E0184600F007F844F822001B1DCE
:10480000521CAA42F6D330BD01460868704700002A
:104810002DE9F04704460E4617464FF004080025E0
:10482000A946B4F1006F02D31948844201D3BDE810
:10483000F087FDF71BFE254604EB870914488542E7
:1048400011D20DE02846FFF7DFFF401C38B11148B8
:10485000FDF78CFD8046B8F1040F01D002E02D1D5C
:104860004D45EFD300BFB8F1040F0CD108E020464E
:104870003168FDF7C5FD042800D003E0241D361D76
:104880004C45F4D300BFFDF7B1FD00BFCFE70000FA
:104890000000020800F8010838B53C48007830B143
:1048A0003B48007840F010003949087005E038486E
:1048B000007820F0100036490870FF203549087054
:1048C0003348007848703448B0F9040000909DF8EF
:1048D000010088709DF80000C87030498868304930
:1048E000FBF79CFC0446FBF7B0FE00B200909DF87D
:1048F0000100284908719DF800004871274948685F
:104900002749FBF78BFC0446FBF79FFE00B20090A3
:104910009DF801001F4988719DF80000C8711F496A
:1049200008681F49FBF77AFC0446FBF78EFE00B2CD
:1049300000909DF80100174908729DF80000487228
:104940001849C8691649FBF769FC0446FBF77DFE68
:1049500000B200909DF801000E4988729DF8000099
:10496000C872114988680E49FBF758FC0446FBF7EA
:104970006CFE00B200909DF80100064908739DF896
:10498000000048730846FFF7AFFD38BDAD020020B8
:1049900020020020FC020020BC0200208C08002025
:1049A0000000C8423C030020E401002010B500F0E4
:1049B00001F810BD0CB5002001900090334800684C
:1049C00040F480303149086000BF3048006800F48E
:1049D000003000900198401C0190009818B901988F
:1049E000B0F5A06FF1D12948006800F4003010B193
:1049F0000120009001E0002000900098012843D1A0
:104A00002348006840F0100021490860084600680B
:104A100020F0030008600846006840F002000860CB
:104A20001A48406819494860084640684860084686
:104A3000406840F4806048600846406820F47C107C
:104A400048600846406840F4E8104860084600683E
:104A500040F08070086000BF0C48006800F00070F3
:104A60000028F9D00948406820F003000749486051
:104A70000846406840F00200486000BF03484068B4
:104A800000F00C000828F9D10CBD00000010024015
:104A9000002002402DE9F05F06460F4614464FF015
:104AA0000008C146C246B6F90000FBF7AFFD3B491E
:104AB0003B4A127841F82200B6F90200FBF7A6FD46
:104AC0003849374A127841F82200B6F90400FBF75A
:104AD0009DFD3549324A127841F82200304800786D
:104AE000401C2F49087008460078A04204DA2F487D
:104AF000007808B1BDE8F09F00202C490870621EC4
:104B000000212648FFF7E4F9621E00212548FFF73F
:104B1000DFF9621E00212448FFF7DAF9012516E0CB
:104B20001E4850F825104046FBF720FB80461D48E4
:104B300050F825104846FBF719FB81461A4850F8F3
:104B400025105046FBF712FB8246681CC5B2601E5A
:104B5000A842E5DC12480078A04202DB00201049A0
:104B60000870A01EFBF752FD834659464046FBF7EE
:104B700087FB3860A01EFBF749FD8346594648462F
:104B8000FBF77EFB7860A01EFBF740FD834659468D
:104B90005046FBF775FBB86000BFABE72C04002064
:104BA000400200207C040020CC04002041020020B0
:104BB000042808D14FF0E021096941F004014FF0C9
:104BC000E022116107E04FF0E021096921F00401C2
:104BD0004FF0E0221161704710B51348006840F0B3
:104BE00001001149086008464068104908400E4914
:104BF0004860084600680E4908400B4908600846AE
:104C0000006820F4802008600846406820F4FE0018
:104C100048604FF41F008860FFF7C8FE4FF0006047
:104C20000449086010BD0000001002400000FFF8B9
:104C3000FFFFF6FE08ED00E010B5FEF7CBFDFEF736
:104C40000BFBFDF75DFA4FF4E12000F043FDFDF7AB
:104C500023FD00F0D7F8FDF761FBFFF795FBFEF7AA
:104C6000FDFBFEF733FBFCF713FFFEF753FEFEF7E9
:104C7000D1FFFEF7E7FAFFF7F2F904A000F048FED3
:104C800041F28830FDF75EFA10BD0000537973746D
:104C9000656D20496E69742046696E6973680A0003
:104CA00010B50121344800F092F800285FD0334855
:104CB0000088401C3149088031480088401C304938
:104CC000088030480088401C2E4908802E48008803
:104CD000401C2D4908802D480088401C2B49088025
:104CE0002B480088401C2A4908802A480088401C1C
:104CF0002849088021480088022805DB00201F4938
:104D000008800120244908701D480088052805DB1B
:104D100000201B490880012020490870194800889C
:104D20000A2805DB00201749088001201C4908706B
:104D300015480088642805DB0020134908800120FD
:104D40001849087011480088C82805DB00200F4961
:104D500008800120144908700D480088B0F5C87F0C
:104D600005DB00200A490880012010490870012154
:104D7000014800F01DF810BD0008004006000020AA
:104D8000080000200A0000200C0000200E00002077
:104D9000100000201200002005000020020000206A
:104DA000010000200000002003000020040000207B
:104DB000CA430282704721B1028842F00102028098
:104DC00004E002884FF6FE731A400280704730B547
:104DD0000246002000230024158A05EA0103958974
:104DE00005EA010413B10CB1012000E0002030BD40
:104DF0001AB183890B43838102E083898B438381CA
:104E0000704700000EB501210420FFF789F8472004
:104E1000ADF804006320ADF800000020ADF80600F6
:104E2000ADF802006946064800F068F90122114613
:104E30000348FFF7DDFF01210148FFF7BCFF0EBD6E
:104E40000008004070B5002400220023058C4FF6B6
:104E5000FE7635400584028C8388048B4FF68F756F
:104E60002C40B51E2C400D882C43751E2A400D8900
:104E70002A434D882A43144DA8420BD0134DA84213
:104E800008D0134DA84205D0124DA84202D0124DB1
:104E9000A84213D14FF6F7752A404D892A434FF6A1
:104EA000FB752A408D882A434FF6FF652B404FF64D
:104EB000FF552B408D892B43CD892B438380048361
:104EC000CD888586028470BD002C014000340140ED
:104ED0000040014000440140004801400A460021D2
:104EE000018B4FF6F773194011430183704700009F
:104EF00070B5002400220023058C4FF6EF76354074
:104F00000584028C8388048B48F6FF752C404FF68D
:104F1000FF452C400D884FF6FF7606EA05252C4309
:104F20004FF6DF752A400D8906EA05152A434D889C
:104F300006EA05152A43154DA84202D0144DA84291
:104F40001DD14FF67F752A404D894FF6FF7606EA50
:104F500005152A434FF6BF752A408D8806EA0515C8
:104F60002A434FF6FF352B404FF2FF752B408D89BA
:104F700006EA85052B43CD8906EA85052B43838008
:104F80000483CD880587028470BD0000002C014099
:104F9000003401400A460021018B4FF2FF73194093
:104FA0004FF6FF7303EA02231943018370470000A1
:104FB00070B5002400220023058C4FF6FF663540B3
:104FC0000584028C8388848B4FF68F752C404FF6B6
:104FD000FC752C400D882C434FF6FF552A400D8957
:104FE0004FF6FF7606EA05252A434D8806EA052591
:104FF0002A43154DA84202D0144DA8421DD14FF2AC
:10500000FF752A404D894FF6FF7606EA05252A43AB
:105010004FF6FF352A408D8806EA05252A434EF6CD
:10502000FF752B404DF6FF752B408D8906EA05155F
:105030002B43CD8906EA05152B4383808483CD88D5
:105040008587028470BD0000002C014000340140BF
:105050000A460021818B4FF6F77319401143818373
:105060007047000070B5002200230024058C4EF626
:10507000FF7635400584038C8488828B48F6FF7563
:105080002A404FF6FF452A400D884FF6FF7606EA84
:1050900005252A434DF6FF752B400D8906EA053597
:1050A0002B434D8806EA05352B430B4DA84202D011
:1050B0000A4DA84208D14BF6FF752C408D894FF65A
:1050C000FF7606EA85152C4384808283CD88A0F87C
:1050D0004050038470BD0000002C014000340140AA
:1050E0000A460021818B4FF2FF7319404FF6FF7380
:1050F00003EA0223194381837047000000220288DB
:105100001D4B98420ED01D4B98420BD0B0F1804FF2
:1051100008D01B4B984205D01A4B984202D01A4B2C
:10512000984204D14FF68F731A404B881A43174B9D
:10513000984207D0164B984204D04FF6FF431A40CE
:10514000CB881A4302808B8883850B8803850A4BA2
:1051500098420BD0094B984208D00E4B984205D08C
:105160000D4B984202D00D4B984201D10B7A038629
:105170000123838270470000002C0140003401406D
:105180000004004000080040000C004000100040F7
:10519000001400400040014000440140004801402C
:1051A00010B58848008800B2874908808548408843
:1051B00000B248808348808800B288808148C088D7
:1051C00000B2824908807F48008900B248807D484B
:1051D000408900B288807B498889FBF720FA044621
:1051E0007B49FBF74DF87B4908607649C889FBF796
:1051F00016FA04467649FBF743F876494860714948
:10520000088AFBF70CFA04467149FBF739F8714933
:1052100088606C49488AFBF702FA04466C49FBF740
:105220002FF86D4908606749888AFBF7F8F904464A
:105230006749FBF725F8684948606249C88AFBF767
:10524000EEF904466249FBF71BF8634988605D4943
:10525000088BFBF7E4F904465D49FBF711F85F4959
:1052600008605849488BFBF7DAF904465849FBF7C0
:1052700007F85A4948605349888BFBF7D0F9044630
:105280005349FAF7FDFF554988604E49C88BFBF733
:10529000C6F904464E49FAF7F3FF514908604949F7
:1052A000088CFBF7BCF904464949FAF7E9FF4C4979
:1052B00048604449488CFBF7B2F904464449FAF780
:1052C000DFFF474988603F49888CFBF7A8F904460F
:1052D0003F49FAF7D5FF434908603A49C88CFBF7C4
:1052E0009EF904463A49FAF7CBFF3E4948603549F2
:1052F000088DFBF794F904463549FAF7C1FF39499F
:1053000088603049488DFBF78AF904463049FAF73E
:10531000B7FF354908602B49888DFBF780F90446B3
:105320002B49FAF7ADFF304948602649C88DFBF795
:1053300076F904462649FAF7A3FF2B4988602149EC
:10534000088EFBF76CF904462149FAF799FF2749C3
:1053500008601C49488EFBF762F904461C49FAF7BD
:105360008FFF224948601749888EFBF758F9044699
:105370001749FAF785FF1D4988601249C88EFBF767
:105380004EF904461249FAF77BFF194908600D49A6
:10539000088FFBF744F904460D49FAF771FF1449E9
:1053A00048600849488FFBF73AF904460849FAF77C
:1053B00067FF0F498860034890F83C000D4908706A
:1053C00010BD0000340B00200E0200200802002057
:1053D00000007A445409002090090020CC090020E4
:1053E000080A0020440A0020800A0020BC0A00208D
:1053F000F80A0020FB01002010B52348007820B1F6
:10540000002021490870FBF795FB20480078B0B1D7
:1054100000201E4908701E480088401C00B21C492C
:105420000880FEF74FFC1B4A1B491C48FDF79EFAFB
:105430001B4803781B4A19491648FCF7BBFB1A485E
:10544000007870B1002018490870FDF725FF144856
:10545000007820B91548007808B1FEF71BFEFCF76C
:10546000FFFA1348007830B1002011490870FFF7A7
:1054700011F8FFF711FA0F48007820B100200D490C
:105480000870FEF753FF10BD05000020010000204A
:10549000140000208C080020B0080020980800208C
:1054A000AD020020BC02002000000020D801002036
:1054B000030000200400002070B500BF40F2255119
:1054C0000F4800F047F838B10D48001D0088C4B2FD
:1054D0002046FBF773FF0CE040F22441084800F03F
:1054E00039F830B106480088C5B20548001D00886B
:1054F000C5B240F22551024800F004F870BD00002A
:105500000038014010B50022002340F66A14A14281
:1055100000D100BF0A1201249440A3B2DC430480EE
:1055200010BD21B1828942F40052828104E0828957
:105530004DF6FF731A408281704702460020B1F594
:10554000007F00D100BF13880B400BB1012000E0A9
:105550000020704770B5024600240023002500207B
:1055600040F66A16B14200D100BFC1F3421501F006
:105570001F03012606FA03F3012D02D19689334059
:1055800006E0022D02D1168A334001E0968A3340AC
:105590000C12012606FA04F41688344013B10CB13B
:1055A000012000E0002070BDF0B503460024002675
:1055B0000025002040F66A17B94200D100BF184606
:1055C000C1F3421401F01F06012707FA06F5012C6A
:1055D00001D10C3004E0022C01D1103000E0143075
:1055E0001AB107682F43076002E00768AF430760FE
:1055F000F0BD00002DE9F04786B005460E460024B8
:10560000A24600BFA1460027B08900B100BF2F46C7
:105610002C8A4CF6FF700440F08804432C82AC893D
:105620004EF6F3100440B08831890843718908436D
:105630000443AC81AC8A4FF6FF400440B089044378
:10564000AC8201A8FEF78CFC1F48874202D1DDF82E
:1056500010A001E0DDF80CA0A88900F4004040B1E2
:105660000AEBCA0000EB0A1031684900B0FBF1F800
:1056700007E00AEBCA0000EB0A1031688900B0FBB2
:10568000F1F86420B8FBF0F004012009642101FB6B
:105690001089A88900F4004040B1322000EBC90015
:1056A000B0FBF1F000F00700044308E0322000EB0B
:1056B00009106421B0FBF1F000F00F0004432C81CD
:1056C00006B0BDE8F087000000380140C1F30802D1
:1056D0008280704710B586B00446012144F2040070
:1056E000FEF72EFC4FF40070ADF8140018208DF872
:1056F000170003208DF8160005A91A48FCF722FFB1
:105700004FF48060ADF8140004208DF817000320DA
:105710008DF8160005A91348FCF714FF0C20ADF80E
:105720000E000020ADF80C000194ADF80A00ADF8B1
:105730000800ADF8100001A90B48FFF75BFF01223C
:1057400040F225510848FFF72FFF012240F2244183
:105750000548FFF729FF01210348FFF7E2FE06B0E5
:1057600010BD000000080140003801400648808854
:1057700000B2054988800846B0F90400962801DC8B
:105780009620888070470000BC0200201A480068FC
:1057900040F400701849086000BF00BF00BF00BFA0
:1057A00000BF00BF1448001D006840F4007012499B
:1057B000091D086000BF00BF00BF00BF00BF00BFE1
:1057C00000BF00BF00BF00BF00BF00BF00BF00BFE1
:1057D00000BF00BF00BF00BF00BF00BF00BF00BFD1
:1057E00000BF00BF00BF00BF00BF00BF00BF00BFC1
:1057F00000BF00BF70470000100C01401C4800684B
:1058000040F400701A49086000BF00BF00BF00BF2D
:1058100000BF00BF00BF00BF00BF00BF00BF00BF90
:1058200000BF00BF00BF00BF00BF00BF00BF00BF80
:1058300000BF00BF00BF00BF00BF00BF00BF00BF70
:1058400000BF00BF00BF00BF0948001D006840F452
:1058500000700749091D086000BF00BF00BF00BFFE
:1058600000BF00BF00BF00BF00BF00BF7047000007
:10587000100C014070B506460C4615463046FEF742
:1058800070FC2046FEF76DFC2846FEF76AFC70BDF2
:105890002DE9FE4F04468946D9F80800FAF702FFC1
:1058A00021F0004107464FF00052184BFAF7CDFDAA
:1058B0000546FAF723FF8246504600F0EFFA0290C1
:1058C000504600F0EBFB0190D4F800B06068009007
:1058D000DDE90001FAF7A2FC054658460299FAF7FD
:1058E0009DFC06462946FAF741FC2060584601997E
:1058F000FAF794FC054602990098FAF78FFC0646E1
:105900002946FAF785FC6060BDE8FE8F47DF913FCE
:10591000014A024900F0F0B819600008F4020020C2
:105920004100080218BF04200A0E18BF40F0010011
:105930004FF07F4232EA010108BF40F00200012827
:1059400008BF052070470121FAF760BFFAF70EBCC7
:1059500000210846FAF794BC6FF05E010807FAF7D9
:1059600055BF00002DE9F04D0D4614464FF07F4124
:10597000B1EB440F9EBF4FF0FF312960BDE8F08DC1
:105980004FF0004040EA0421C4F3C750783810F0CB
:105990001F024A4B4FEA601CC2F120067B44C4F34D
:1059A000C750A0F178004FEA601003EB800053F875
:1059B0002C3008BFD0E901C612D0D0F804C0934003
:1059C0002CFA06F73B4387680CFA02FC27FA06F824
:1059D000C06807FA02F2F0404CEA080C42EA0006FE
:1059E000A3FB0132ACFB01C0A6FB016101EB0C067D
:1059F0008E4234BF4FF0010C4FF0000CC1186144CF
:105A0000BCF1000F02D0814202D903E0814201D2F1
:105A1000012000E00020104400F120024FEA92181B
:105A20008006CA0C40EA42304F03C5F80080FAF7FE
:105A3000EDFD82463846FAF7F2FD6FF01201FAF7F3
:105A4000E5FE07463046FAF7EAFD6FF02501FAF762
:105A5000DDFE834639465046FAF788FB5946FAF789
:105A600085FB00F500666FF30B0651463046FAF7EA
:105A7000CFFB3946FAF7CCFB5946FAF7CCFB104975
:105A8000FAF7CCFB07460F493046FAF7C7FB394611
:105A9000FAF76CFB07460C493046FAF7BFFB39466C
:105AA000FAF764FB14F0004F08BFBDE8F08DC8F1B1
:105AB000805180F000402960BDE8F08D04090000AD
:105AC000DB0FC92F22AAFD290000C92F02E008C858
:105AD000121F08C1002AFAD170477047002001E068
