:020000040800F2
:10000000B00A002001010008090100080B010008E6
:100010000D0100080F010008110100080000000098
:1000200000000000000000000000000013010008B4
:100030001501000800000000170100081901000860
:100040001B0100081B0100081B0100081B01000820
:100050001B0100081B0100081B0100081B01000810
:10006000811F00081B0100081B0100081B0100087C
:100070001B0100081B0100081B0100081B010008F0
:100080001B0100081B0100081B0100081B010008E0
:100090001B0100081B0100081B0100081B010008D0
:1000A0001B0100081B0100081B0100081B010008C0
:1000B0001B0100081B010008094500081B0100087E
:1000C0001B0100081B0100081B0100081B010008A0
:1000D0001B010008214D00081B0100081B0100083E
:1000E0001B0100081B0100081B010008DFF80CD0F1
:1000F00000F0ECFA00480047F1580008B00A002070
:100100000648804706480047FEE7FEE7FEE7FEE7B1
:10011000FEE7FEE7FEE7FEE7FEE7FEE741440008F4
:10012000ED0000080649074A0868504343F23902C7
:10013000104408604008704701490860704700009B
:10014000BC0200206D4EC64140EA01039B0703D06C
:1001500009E008C9121F08C0042AFAD203E011F806
:10016000013B00F8013B521EF9D27047F0B480EA1F
:100170000102D40F4200B2EB410F02D20246084600
:1001800011464A0042D0C30DDDB2C1F3C752AD1AC9
:10019000202D35DAC1F3160141F4000204B15242B8
:1001A000C5F1200602FA06F12A411044B3EBD05FF4
:1001B00023D0C4B1012DA0EBC35009DCF0BC4FF03B
:1001C000004202EAC352DBB200F5000000F0C8B9F9
:1001D000400000F1807000EBC350A0F1807040EA55
:1001E000D170490009E0490841EAC071A0EBC35051
:1001F00000F50000400800EBC350F0BC00F0A7B9C8
:100200006142012202EB4101001BF6E7F0BC70479E
:1002100081F00041AAE780F00040A7E780EA0102F0
:1002200010B502F00043400022D04A001FD0010E5A
:1002300001EB1261C0F35600C2F3560240F4000015
:1002400042F40002A0FB022000047F39140400D015
:10025000401C50EA124001D44000491EC2B20C06B4
:1002600004EBD010401C4008802A02D003E000209C
:1002700010BD20F00100002900DA0020184310BD55
:1002800030B480EA010202F0004530F0004221F073
:10029000004013D090B1C30DD40DC2F31601C0F3CA
:1002A0001600E41A41F4000140F400027D3491424A
:1002B00001D3641C00E04900002C02DA30BC0020AD
:1002C00070474FF400000023914201D3891A034381
:1002D00040084FEA4101F7D151B1914202D14FF0AC
:1002E000004105E002D24FF0010101E06FF0010191
:1002F00003EBC450284430BC00F029B92DE9FE4F6F
:1003000081EA030404F0004421F0004100944FF01E
:10031000000B23F0004350EA01045ED052EA0304CC
:100320005BD0C3F30A54C1F30A552C44A4F2F3344E
:100330000194A0FB0254C1F3130141F48011C3F3F3
:10034000130343F4801301FB024400FB034E840AB1
:10035000970A44EA815447EA8357A4FB0768029549
:100360008D0A05FB07854FEA932C04FB0C542705E7
:10037000029D4FEA065847EA1637B5EB08056EEBC3
:10038000070C870E920E47EA811742EA8312A7FBF9
:100390000201B6EB0B0164EB00042B0D43EA0C33B6
:1003A0005E1844EB1C50DA465146E7FB0201C5F3E8
:1003B00013044FEA0B3343EA14534FEA0432019C0F
:1003C00043EA0603A4F10C040294009CCDE900B4B6
:1003D00000F02DF903B0BDE8F08F00200146F9E7E9
:1003E000C10F80EAE0700844CA079623002100F09C
:1003F000B7B896230022114600F0B2B80EB5C10F6F
:1004000080EAE0700844CA07002140F233438DE8D7
:100410000E000A460B4600F00AF903B000BD00F0DA
:10042000004220F00040C10DC0F3160040F400006F
:100430007F2901DA00207047962903DCC1F196017B
:10044000C84001E096398840002AF4D04042704705
:1004500020F00040C10DC0F3160040F400007F29D9
:1004600001DA00207047962903DCC1F19601C840EB
:10047000704796398840704700F0004230F00040E5
:100480000AD0C10D01F56071C0F3160042EA0151B6
:10049000C208400711437047002001467047000022
:1004A00030B5041E71F1000404DB4FF000444042FB
:1004B00064EB0101141E73F1000405DB1C464FF0D0
:1004C0000043524263EB04038B4208BF824230BDBB
:1004D00001F0004330B421F0004150EA010206D09F
:1004E0000A0DA2F56072C1F31301002A02DC30BCD0
:1004F00000207047440F44EAC104C100E01830BC3A
:1005000000EBC25000F023B8002801DBC0F100402E
:10051000002901DBC1F1004181427047002801DB65
:10052000C0F10040002901DBC1F100418842704761
:10053000202A04DB203A00FA02F1002070479140A3
:10054000C2F1200320FA03F31943904070470029B9
:10055000A8BF7047401C490008BF20F00100704749
:1005600010B4B0FA80FC00FA0CF050EA010404BFA9
:1005700010BC704749B1CCF1200421FA04F411FAFF
:100580000CF118BF012121430843A3EB0C01CB1D43
:100590004FEA00614FEA102042BF002010BC7047B4
:1005A00000EBC35010440029A4BF10BC7047401C8E
:1005B000490008BF20F0010010BC7047420005D080
:1005C000C0F3C7525242914201DC0020704700EB59
:1005D000C150704710B541000CD0C0F3C7519629E7
:1005E00008DC7E2909DC06DB410204D000F0004073
:1005F00040F07E5010BD002010BDC1F19604C4F142
:10060000200100FA01F1E040FFF7A1FFA04010BD7A
:1006100010B5141E73F1000408DA401C41F100010A
:1006200092185B411A4301D120F0010010BD2DE961
:10063000F04D92469B4611B1B1FA81F202E0B0FA58
:1006400080F220329046FFF773FF04460F4640EADF
:100650000A0041EA0B0153465A46084313D011469B
:1006600053EA010019D0C8F14002504600F040F8AA
:1006700005460E46504659464246FFF759FF084385
:1006800005D0012004E020463946BDE8F08D002069
:10069000054346EAE0762C4337430A986305E40AAB
:1006A000A0EB08000022FD0A44EA47540A3002D5B4
:1006B00000200146E9E7010510196941DDE9084517
:1006C00000196941BDE8F04DA2E70000064C074D56
:1006D00006E0E06840F0010394E807009847103412
:1006E000AC42F6D3FFF706FD245B0008445B00082C
:1006F000202A04DB203A21FA02F00021704721FA77
:1007000002F3D040C2F120029140084319467047DD
:10071000F0B4002802DCF0BC00207047C0F3C751E1
:10072000C0F3160040F40000CA0701D14000491E82
:100730003F2202EB6105002211464FF4000626FA23
:1007400001F31344D418844201D8001B1A46400018
:10075000491C1729F3DD5100814202D24FF0FF31CD
:1007600000E0002102EBC550F0BCFFF7F0BE70B511
:100770008C1810F8015B15F0070301D110F8013B4C
:100780002A1106D110F8012B03E010F8016B01F8D3
:10079000016B5B1EF9D12B0705D40023521E0DD42B
:1007A00001F8013BFAE710F8013BCB1A921C03E079
:1007B00013F8015B01F8015B521EF9D5A142D8D3B1
:1007C000002070BD21B1826842F00102826003E026
:1007D000826822F0010282607047000030B5024654
:1007E0000020002350680F4C20400D790C6844EA2B
:1007F00005242043506090680B4C2040D1E90254FE
:100800002C434D7944EA450420439060D06A20F49B
:1008100070000C7C641EE4B2234340EA0350D062B3
:1008200030BD0000FFFEF0FFFDF7F1FFF0B504461C
:100830000D4600200021092D11DDE068A5F10A0612
:1008400006EB4607072606FA07F18843A5F10A06D4
:1008500006EB460603FA06F10843E0600CE0206967
:1008600005EB4507072606FA07F1884305EB450621
:1008700003FA06F108432061072A0FDA606B561E5F
:1008800006EB86071F2606FA07F18843561E06EB7D
:10089000860605FA06F10843606322E00D2A0FDAA6
:1008A000206BD61F06EB86071F2606FA07F1884342
:1008B000D61F06EB860605FA06F10843206310E012
:1008C000E06AA2F10D0606EB86071F2606FA07F17D
:1008D0008843A2F10D0606EB860605FA06F10843E9
:1008E000E062F0BD2DE9F04F87B0C0480078401CB1
:1008F000BE490870BE480078401CBD490870BD481C
:100900000078401CBB490870BB480078401CBA49BD
:100910000870BA480078401CB8490870B34800789D
:10092000372805DB0020B14908700120B449487020
:10093000AF480078052805DB0020AD49087001208C
:10094000AF498870AB480078142805DB0020A9491E
:1009500008700120AA49C870A7480078232805DB41
:100960000020A54908700120A5490871A348007816
:100970003C2805DB0020A14908700120A0494871EE
:100980009F48407878B100209D4948709D48007884
:1009900000219D4BCDE900109A6859681868002322
:1009A00000F092FE1FE19648807800286DD000206C
:1009B0009349887095498868FFF731FD0FFA80FBED
:1009C0005846FFF70DFD82469149FFF727FC814607
:1009D000FFF725FD04B28D494868FFF720FD0FFAA7
:1009E00080FB5846FFF7FCFC82468949FFF716FC5E
:1009F0008146FFF714FD05B284490868FFF70FFD33
:100A00000FFA80FB5846FFF7EBFC82468049FFF760
:100A100005FC8146FFF703FD06B27E498868FFF7B3
:100A2000FEFC07B27B494868FFF7F9FC0FFA80F833
:100A300078490868FFF7F3FC00B2069000200290A6
:100A40000390049033463A464146CDE90054059060
:100A5000069800F07BFD6D4988686D49FFF7DEFB65
:100A600004466D48006B6C49C96A6B4A926A6A4BCE
:100A7000DB68CDE90032CDE902106848036BC26A39
:100A8000816A204601F09AF8ADE05D48C07818B15F
:100A900000205B49C870A6E05948007918B10020D1
:100AA000574908719FE05648407988B10020544961
:100AB00048715B4988685B49FFF7B0FB0546FFF763
:100AC000C7FC84B24FF4E471204600F0F5FC8AE0E4
:100AD0004B488079D0B10020494988714F488168DE
:100AE00042680068504B9B68CDE90230CDE9042193
:100AF0004D4840684C490968CDE900104B4883686F
:100B000042680168012000F0D1FB6CE03C48C079EC
:100B1000E0B100203A49C8713F4880683E494968C1
:100B20003D4A1268424B9B68CDE90232CDE9041080
:100B30003F4840683E490968CDE900103D48836858
:100B400042680168022000F0B1FB4CE02C48007ABA
:100B5000B8B100202A490872002137488068CDE9E1
:100B60000201049134480591406833490968CDE990
:100B700000103248836842680168032000F096FB49
:100B800031E01F48407A70B300201D4948722C485C
:100B90002C498A072C4BCDE90232CDE904102B48B1
:100BA0002B490246CDE90010012000F07FFB002018
:100BB000284ACDE9020204900590274827490023DE
:100BC0000246CDE90010022000F070FB00200290E8
:100BD0000390049005900090034602460146019060
:100BE000032000F063FB07B0BDE8F08F7D0200201A
:100BF0007E0200207F02002080020020810200206F
:100C00003E060020790200205803002064030020E3
:100C1000A34C65427C030020980400204C05002072
:100C2000E40100200000C84210050020D404002088
:100C30005C04002020040020C4050020880500205A
:100C40007B142E3FCDCC4C3D5C8FC23E295C0F3DCA
:100C50006666263F0000A0400AD7233C9A991940B7
:100C60002DE9F05F04460D460026B14607E014F872
:100C700009003044C6B209F1010000F0FF09681E06
:100C80004845F4DC601910F8010CB04201D0BDE811
:100C9000F09F2078AA2802D16078AF2800D0F6E72C
:100CA000A07801283ED1207901280AD1FE48007899
:100CB00040F00200FC4908700020FC490880488090
:100CC0008880207902280AD1F748007840F0010096
:100CD000F54908700020F64908804880888020790E
:100CE00003280AD1F048007840F00200EE4908706D
:100CF0000846007840F001000870207904280FD1E0
:100D0000EC48007880F00100EA4908700846007855
:100D100018B10120E849087002E00020E649087097
:100D200002F05AFBA078022812D12079012803D1C1
:100D3000E2498871C87108722079A02802D1012087
:100D4000DE4908702079A12802D10120DB494872D0
:100D5000A07810287ED12179090209B2627941EA8E
:100D60000200FFF74BFB8246D54AD64BFFF7C6FA87
:100D70000746FFF7ADFBD4490860A179090209B223
:100D8000E27941EA0200FFF739FB8246CC4ACD4BBB
:100D9000FFF7B4FA0746FFF79BFBCB494860217A7F
:100DA000090209B2627A41EA0200FFF727FB824694
:100DB000C34AC44BFFF7A2FA0746FFF789FBC249B3
:100DC0008860A17A090209B2E27A41EA0200FFF7DB
:100DD00015FB8246BA4ABB4BFFF790FA0746FFF76E
:100DE00077FBBA490860217B090209B2627B41EABC
:100DF0000200FFF703FB8246B14AB24BFFF77EFACF
:100E00000746FFF765FBB1494860A17B090209B2BB
:100E1000E27B41EA0200FFF7F1FA8246A84AA94BB9
:100E2000FFF76CFA0746FFF753FBA8498860217C5F
:100E3000090209B2627C41EA0200FFF7DFFA82464A
:100E40009F4AA04BFFF75AFA0746FFF741FBA0491C
:100E5000086000E029E0A17C090209B2E27C41EAD5
:100E60000200FFF7CBFA8246954A964BFFF746FA07
:100E70000746FFF72DFB96494860217D090209B21C
:100E8000627D41EA0200FFF7B9FA07468C4A8D4BB2
:100E9000FFF734FA8246FFF71BFB8D498860A07884
:100EA000314600F0D7F902F097FAA07811287DD1E9
:100EB0002179090209B2627941EA0200FFF79EFA3C
:100EC00007467F4A7F4BFFF719FA8246FFF700FB80
:100ED00080490860A179090209B2E27941EA020079
:100EE000FFF78CFA8246764A764BFFF707FA0746F9
:100EF000FFF7EEFA77494860217A090209B2627A6F
:100F000041EA0200FFF77AFA82466D4A6D4BFFF71D
:100F1000F5F90746FFF7DCFA6E498860A17A090205
:100F200009B2E27A41EA0200FFF768FA0746644A2A
:100F3000644BFFF7E3F98246FFF7CAFA6649086097
:100F4000217B090209B2627B41EA0200FFF756FAEF
:100F500007465B4A5B4BFFF7D1F98246FFF7B8FAC9
:100F60005D494860A17B090209B2E27B41EA0200C7
:100F7000FFF744FA8246524A524BFFF7BFF9074641
:100F8000FFF7A6FA54498860217C090209B2627C05
:100F900041EA0200FFF732FA8246494A494BFFF71D
:100FA000ADF90746FFF794FA4C4900E02AE00860E3
:100FB000A17C090209B2E27C41EA0200FFF71EFAB5
:100FC00007463F4A3F4BFFF799F98246FFF780FA01
:100FD00042494860217D090209B2627D41EA02006E
:100FE000FFF70CFA0746364A364BFFF787F9824679
:100FF000FFF76EFA39498860A078314600F02AF987
:1010000002F0EAF9A07812286ED12179090209B21A
:10101000627941EA0200FFF7F1F90746284A294BB5
:10102000FFF76CF98246FFF753FA2D490860A17962
:10103000090209B2E27941EA0200FFF7DFF9074647
:101040001F4A204BFFF75AF98246FFF741FA24491D
:101050004860217A090209B2627A41EA0200FFF788
:10106000CDF90746164A174BFFF748F98246FFF7B6
:101070002FFA1B498860A17A090209B2E27A41EA93
:101080000200FFF7BBF907460D4A0E4BFFF736F992
:101090008246FFF71DFA13490860217B090209B255
:1010A000627B41EA020020E0200200200E020020C4
:1010B000080200207C020020790200203E06002069
:1010C000FCA9F1D24D62503FD4040020100500204D
:1010D0004C050020200400205C040020980400201F
:1010E00088050020C405002023E0FFF787F90746A4
:1010F0001B4A1C4BFFF702F98246FFF7E9F91A4930
:101100004860A17B090209B2E27B41EA0200FFF7D5
:1011100075F90746124A134BFFF7F0F88246FFF7BE
:10112000D7F911498860A078314600F093F802F0B1
:1011300053F9A078132803D1A078314600F08AF83B
:10114000A078142803D1A078314600F083F8A07865
:10115000152803D1A078314600F07CF800BF96E551
:10116000FCA9F1D24D62503FC405002010B50446E1
:101170003448007838B9AA2C05D1012031490870CB
:10118000314804705DE02F480078012807D1AF2C6A
:1011900005D102202B4908702B48447051E02948A2
:1011A0000078022807D1F12C05DA032025490870C0
:1011B0002548847045E02348007803280CD1322C60
:1011C0000ADA04201F4908701F48C4701F480470C1
:1011D00000201F49087034E01A480078042819D10B
:1011E0001A480078002815DD18480078401E174975
:1011F00008701748007816490978491C144A11707C
:10120000001D11490C5411480078D0B905200D4932
:10121000087016E00B48007805280FD10020094916
:1012200008700B480078001D07490C5408480078E6
:10123000401DC1B20448FFF713FD02E00020014940
:10124000087010BD840200207A060020820200206F
:10125000830200202DE9F04105460E460027AA2012
:101260000D4908704870EF2088700220C870084649
:1012700005714671002405E00748005D3844C7B297
:10128000601CC4B2062CF7DB03488771072100F00D
:1012900005F8BDE8F08100004806002070B504465E
:1012A0000D462946204604F003FC70BD2DE9FC5F85
:1012B00006460F4690469946DDF830B00024A24617
:1012C000AA222146641C7A4842542146641C425496
:1012D00006F10F00C2B22146641C75484254002238
:1012E0002146641C425473493846FEF797FF00902C
:1012F000FFF795F800B201909DF805202146641C87
:101300006B4842549DF804202146641C42546949AC
:101310004046FEF783FF0090FFF781F800B201908E
:101320009DF805202146641C614842549DF8042024
:101330002046611CCCB25E490A545E494846FEF71D
:101340006DFF0090FFF76BF800B201909DF805204B
:101350002046611CCCB256490A549DF80420204610
:10136000611CCCB252490A5452495846FEF756FF06
:101370000090FFF754F800B201909DF80520204638
:10138000611CCCB24A490A549DF804202046611CD5
:10139000CCB247490A5447490D98FEF73FFF0090E9
:1013A000FFF73DF800B201909DF805202046611C32
:1013B000CCB23F490A549DF804202046611CCCB2AF
:1013C0003B490A543B490E98FEF728FF0090FFF76F
:1013D00026F800B201909DF805202046611CCCB291
:1013E00033490A549DF804202046611CCCB2304990
:1013F0000A5430490F98FEF711FF0090FFF70FF8DD
:1014000000B201909DF805202046611CCCB228490D
:101410000A549DF804202046611CCCB224490A5489
:1014200024491098FEF7FAFE0090FEF7F8FF00B28C
:1014300001909DF805202046611CCCB21C490A543D
:101440009DF804202046611CCCB219490A54194960
:101450001198FEF7E3FE0090FEF7E1FF00B2019065
:101460009DF805202046611CCCB211490A549DF814
:1014700004202046611CCCB20D490A54201FC870BC
:10148000002506E00A48405D504400F0FF0A681C51
:10149000C5B2A542F6DB2046611CCCB2044901F876
:1014A00000A021460248FFF7F9FEBDE8FC9F0000BE
:1014B0004806002000007A442DE9F84306460F460E
:1014C0000024A046AA222146641C1F4842542146FB
:1014D000641C425405222146641C425400222146C9
:1014E000641C425400969DF801202146641C42541D
:1014F0009DF800202146641C425400979DF801206D
:101500002146641C42549DF800202046611CCCB248
:101510000D490A54201FC870002506E00A48405DA6
:10152000404400F0FF08681CC5B2A542F6DB204627
:10153000611CCCB2044901F8008021460248FFF743
:10154000ADFEBDE8F8830000480600202DE9F84F05
:1015500006460F4690469946DDF828B00024A2467C
:10156000AA222146641C574842542146641C425416
:1015700002222146641C425400222146641C42542B
:1015800000969DF801202146641C42549DF80020DD
:101590002146641C425400979DF801202146641C9A
:1015A00042549DF800202046611CCCB245490A54A3
:1015B000CDF800809DF801202046611CCCB2414945
:1015C0000A549DF800202046611CCCB23D490A54C3
:1015D000CDF800909DF801202046611CCCB239491D
:1015E0000A549DF800202046611CCCB235490A54AB
:1015F000CDF800B09DF801202046611CCCB23149E5
:101600000A549DF800202046611CCCB22D490A5492
:101610000B9800909DF801202046611CCCB229490E
:101620000A549DF800202046611CCCB225490A547A
:101630000C9800909DF801202046611CCCB22149F5
:101640000A549DF800202046611CCCB21D490A5462
:101650000D9800909DF801202046611CCCB21949DC
:101660000A549DF800202046611CCCB215490A544A
:101670000E9800909DF801202046611CCCB21149C3
:101680000A549DF800202046611CCCB20D490A5432
:10169000201FC870002506E00A48405D504400F055
:1016A000FF0A681CC5B2A542F6DB2046611CCCB21D
:1016B000044901F800A021460248FFF7EFFDBDE80C
:1016C000F88F0000480600202DE9FE4F82460E46A6
:1016D00017469846DDF830B00024A146CDF80480C6
:1016E000AA222146641C484842542146641C4254A4
:1016F00001222146641C425400222146641C4254AB
:1017000042495046FEF78AFD0090FEF788FE00B27F
:1017100002909DF809202146641C3B4842549DF8E4
:1017200008202146641C425438493046FEF776FDB5
:101730000090FEF774FE00B202909DF80920214649
:10174000641C314842549DF808202146601CC4B2F4
:101750002D4842542D493846FEF760FD0090FEF7B3
:101760005EFE00B202909DF809202046611CCCB2BA
:1017700025490A549DF808202146601CC4B222481D
:1017800042549DF807202046611CCCB21E490A54E1
:101790009DF806202046611CCCB21B490A549DF8D6
:1017A00005202046611CCCB217490A549DF804203C
:1017B0002146601CC4B2144842542046611CCCB27D
:1017C000114901F800B02146621CD4B20E4A0D98AE
:1017D0005054201F1146C870002506E00A48405D9D
:1017E000484400F0FF09681CC5B2A542F6DB20465C
:1017F000611CCCB2044901F8009021460248FFF771
:101800004DFDBDE8FE8F0000480600200000C842E4
:1018100000B50948007868B10848007828B1002070
:101820000649087002F0EAF804E001200349087054
:1018300002F0D7F800BD0000F8010020DD01002013
:1018400000B587B001214FF4017002F03BF84FF46E
:10185000004002F01BF80220ADF8180000208DF8BF
:101860001B0006A9104800F017FD0020019004900D
:1018700001208DF8140000208DF808004FF460203E
:10188000039000208DF8090001A90848FEF7A6FF83
:1018900001210648FEF796FF07230122114603485F
:1018A000FEF7C4FF07B000BD00080140002401405E
:1018B00010B5044628480078C007B0EBC47F0FD0AD
:1018C00004F0010038B101202449087002F074F8D6
:1018D00002F087F804E000202049087002F081F847
:1018E0001D48007800F0020004F0020188420FD089
:1018F00004F0010038B101201849087002F05CF8CA
:1019000002F06FF804E000201449087002F069F852
:1019100004F0040028B11248007840F0010010499A
:1019200008700D48007800F0080004F008018842B3
:101930000FD004F0080030B10948007840F04000B2
:101940000749087005E00648007820F04000044987
:1019500008700148047010BD900200207902002038
:10196000200200202DE9F04F87B005460E461446B0
:1019700099462868049068680590A8680690B4F9AC
:101980000010A1F2DC50FEF72BFD07467C49FEF764
:1019900077FC0190B4F90210A1F2DC50FEF720FDB3
:1019A00007467749FEF76CFC0290B4F9061040F246
:1019B000DC52501AFEF714FD07467149FEF760FC31
:1019C00003907048007810B9002003900CE0039851
:1019D000FEF752FD21F00041074600226A4BFEF758
:1019E0005FFD01D20020039068480078C0F38010AA
:1019F00018B104A901A803F07FFB6548049A019976
:101A000001F03AFC6348059A029901F035FC6249FD
:101A10007068FEF703FC07465D483A46416B5F4835
:101A200001F02AFC5C493068FEF7F8FB80F00047C3
:101A300058483A46416B5A4801F01EFC5649B06876
:101A4000FEF7ECFB0746574A11680398FEF7E6FBE2
:101A500080463A464146544801F00EFCB4F9040071
:101A6000642863DDB9F1000F60D0B4F90400FEF71B
:101A7000B7FC82464948416B5046FEF7C9FB804699
:101A80004748416B4046FEF7C3FB07464648416B5B
:101A90003846FEF7BDFB45490860B4F90400FEF77F
:101AA0009FFC82463D48416B5046FEF75FFB8046F7
:101AB0003B48416B4046FEF7ABFB07463A48416B5B
:101AC0003846FEF753FB3A490860B4F90400FEF7C4
:101AD00087FC82463148416B5046FEF747FB804603
:101AE0002F48416B4046FEF741FB07462E48416BAD
:101AF0003846FEF78DFB2F490860B4F90400FEF765
:101B00006FFC82462548416B5046FEF781FB8046BC
:101B10002348416B4046FEF729FB07462248416BAC
:101B20003846FEF723FB2449086008E000201F49DF
:101B300008601F4908601F4908601F4908601E4867
:101B40000068FEF76CFC07B21A480068FEF767FCF5
:101B50000FFA80F816480068FEF761FC0FFA80FA69
:101B600012480068FEF75BFC0FFA80FB3B464246DA
:101B70005146584601F0E2FA07B0BDE8F08F000088
:101B800000002042780200200000104020020020C7
:101B9000200400205C040020A34C6542D4040020F3
:101BA00010050020980400204C0500206802002049
:101BB0006C02002070020020740200202DE9F84F12
:101BC00006460F4690469946DDF828B00024A24606
:101BD000AA222146641C874842542146641C425470
:101BE000F1222146641C425400222146641C4254C6
:101BF00000969DF803202146641C42549DF8022063
:101C00002146641C42549DF801202146641C425424
:101C10009DF800202046611CCCB276490A540097FA
:101C20009DF803202046611CCCB272490A549DF8ED
:101C300002202146601CC4B26E4842549DF8012027
:101C40002046611CCCB26B490A549DF80020204606
:101C5000611CCCB267490A54CDF800809DF803207E
:101C60002046611CCCB263490A549DF802202046EC
:101C7000611CCCB25F490A549DF801202046611CCA
:101C8000CCB25C490A549DF800202046611CCCB2BD
:101C900058490A54CDF800909DF803202046611C55
:101CA000CCB254490A549DF802202046611CCCB2A3
:101CB00050490A549DF801202046611CCCB24D4980
:101CC0000A549DF800202046611CCCB249490A54B0
:101CD000CDF800B09DF803202046611CCCB24549E8
:101CE0000A549DF802202046611CCCB241490A5496
:101CF0009DF801202046611CCCB23E490A549DF853
:101D000000202046611CCCB23A490A540B9800903E
:101D10009DF803202046611CCCB236490A549DF838
:101D200002202046611CCCB232490A549DF80120A1
:101D30002046611CCCB22F490A549DF80020204651
:101D4000611CCCB22B490A540C9800909DF80320DA
:101D50002046611CCCB227490A549DF80220204637
:101D6000611CCCB223490A549DF801202046611C15
:101D7000CCB220490A549DF800202046611CCCB208
:101D80001C490A540D9800909DF803202046611CC0
:101D9000CCB218490A549DF802202046611CCCB2EE
:101DA00014490A549DF801202046611CCCB2114907
:101DB0000A549DF800202046611CCCB20D490A54FB
:101DC000201FC870002506E00A48405D504400F01E
:101DD000FF0A681CC5B2A542F6DB2046611CCCB2E6
:101DE000044901F800A021460248FFF757FABDE870
:101DF000F88F00004806002000201C490880488019
:101E00008880C880088148814FF4E160888108207B
:101E1000C881322008824FF4E1604882082088821D
:101E20003220C882002008834883888340F2A23091
:101E3000C883052008844FF45770488440F2A230CC
:101E400088840520C8844FF4577008854FF4FA60E1
:101E50004885322088854FF47A70C885002008862E
:101E600048868886C886088748877047000600200D
:101E700070B5FFF7C1FF3E242046E11704EB9171D6
:101E80008910A4EB8101091D09B1012100E00021A5
:101E900094FBF1F1CDB22A460249034802F07AF9E7
:101EA00070BD00000006002000F8010810B56FF0BA
:101EB000040002F0B1FA0A4800680A49B0FBF1F0E8
:101EC000094908700846007800EB4001C1EBC010DA
:101ED0004FF6FF7101EAC0000449088010BD000000
:101EE000A802002000127A00DE010020E00100209C
:101EF000014600224FF0E0231A610E4A12884A433D
:101F00005A6100229A611A46126942F001021A616E
:101F100000BF4FF0E022106900F001021AB100F496
:101F20008032002AF5D000224FF0E0231A619A6136
:101F300070470000E0010020014600224FF0E0233E
:101F40001A610E4A12784A435A6100229A611A466F
:101F5000126942F001021A6100BF4FF0E0221069DD
:101F600000F001021AB100F48032002AF5D00022FC
:101F70004FF0E0231A619A6170470000DE010020F3
:101F800010B5042000F042F8002834D01A48006848
:101F900040F4807018490860072001F0BDFF044636
:101FA00004F0200050B10F2002F014F82021272067
:101FB00001F0F4FFFF21E12001F0F0FF04F0400008
:101FC00040B10E4801F00CFF01F0A2FD4021272096
:101FD00001F0E4FF04F0100050B10F2001F0FAFF0F
:101FE0001021272001F0DAFFFF21E12001F0D6FFC8
:101FF000042000F005F810BD14080140E80200209C
:1020000001490860704700001404014001460020A7
:102010000022074B1B6803EA0102054B14331B68BF
:102020000B4013B10AB1012000E00020704700000E
:1020300000040140002123498279002A3AD00A464F
:10204000126803689A430B461A600A1D12680368F7
:102050009A430B1D1A60027911440A6803681A43F7
:102060000A60184A0832126803689A43154B08330D
:102070001A601A1D126803689A43124B0C331A60D7
:102080004279102A0ED11A1F126803681A430D4BA9
:1020900008331A601A1D126803681A43094B0C337F
:1020A0001A600DE00749427911440A6803681A432F
:1020B0000A6005E0027911440A6803689A430A60DD
:1020C00070470000000401400EB50121092001F015
:1020D000F9FB0221012000F0BFF80420ADF8080050
:1020E00048208DF80B0003208DF80A0002A909484A
:1020F00000F0D2F80420009000208DF804000C209D
:102100008DF8050001208DF806006846FFF792FF64
:102110000EBD0000000C014030B5044604254FF40C
:10212000302000F085F80546042D17D10C480069D1
:1021300040F002000A49086108464461006940F025
:10214000400008614FF4302000F072F80546044862
:10215000006941F6FD71084001490861284630BD1B
:102160000020024004200B49C96801F0010109B1B7
:1021700001200EE00749C96801F0040109B10220FD
:1021800007E00449C96801F0100109B1032000E02B
:1021900004207047002002400348006940F080009E
:1021A00001490861704700000020024078B50646EA
:1021B0000C46042500200090E80200F039F805469E
:1021C000042D24D11348006940F001001149086131
:1021D0003480E80200F02CF80546042D10D1B01C24
:1021E0000090200C00990880E80200F021F80546D4
:1021F0000848006941F6FE7108400649086106E09A
:102200000448006941F6FE71084002490861284609
:1022100078BD00000020024002480349486003489E
:10222000486070472301674500200240AB89EFCD2D
:1022300000B502460423FFF795FF034603E0FFF7CE
:1022400091FF0346521E012B01D1002AF7D102B99A
:102250000523184600BD000030B500228B071C0F77
:102260000F2303FA04F20B4B8C1053F824309343E2
:10227000084C8D1044F8253023468C1053F8243038
:102280008C07240F00FA04F42343024C8D1044F809
:10229000253030BD080001402DE9F04102460025FF
:1022A0000026002000230024002791F803C00CF032
:1022B0000F0591F803C00CF0100CBCF1000F03D017
:1022C00091F802C04CEA050591F800C0BCF1000F7E
:1022D00031D0146800202BE04FF0010C0CFA00F311
:1022E000B1F800C00CEA03069E4220D183004FF0F3
:1022F0000F0C0CFA03F7BC4305FA03FC4CEA040488
:1023000091F803C0BCF1280F06D14FF0010C0CFA74
:1023100000FCC2F814C00AE091F803C0BCF1480FF9
:1023200005D14FF0010C0CFA00FCC2F810C0401CA3
:102330000828D1D31460B1F800C0BCF1FF0F34DD20
:10234000546800202EE000F1080C4FF0010808FA54
:102350000CF3B1F800C00CEA03069E4221D18300C1
:102360004FF00F0C0CFA03F7BC4305FA03FC4CEAE0
:10237000040491F803C0BCF1280F05D100F1080C4A
:1023800008FA0CF8C2F8148091F803C0BCF1480FA9
:1023900007D100F1080C4FF0010808FA0CF8C2F858
:1023A0001080401C0828CED35460BDE8F081416104
:1023B000704701617047000010B540200A4908606D
:1023C00001F002FC8020084908600120FFF7B4FDFD
:1023D00040200549091F08600220FFF7ADFD40209D
:1023E0000149086010BD0000140C014008B501212E
:1023F000082001F067FAC020ADF8000010208DF829
:10240000030003208DF8020069460448FFF744FFEB
:10241000C0210248FFF7CDFF08BD0000000C0140BD
:1024200010B540200A49086001F0CEFB8020084921
:10243000091F08600120FFF77FFD40200449091FA4
:1024400008600120FFF778FD40200149086010BDB9
:10245000140C014070B50546002401F0A3FB0026D2
:1024600018E04020104908600120FFF765FD40207A
:102470000D49091F08606006040E0B480C380068FF
:10248000C0F3C01008B1601CC4B20120FFF754FDB6
:10249000701CC6B2082EE4DB15B1FFF78DFF01E01A
:1024A000FFF7BEFF204670BD140C014070B5044616
:1024B0000D46164600F086F8204600F055F800F06C
:1024C000B3F818B100F098F8012070BD284600F06C
:1024D0004BF800F0A9F800F075F8611CC8B200F0E4
:1024E00043F800F0A1F80020FFF7B4FF307000F0CF
:1024F00083F80020E9E72DE9F04706460F46154628
:102500009846002400F05EF8304600F02DF800F008
:102510008BF820B100F070F80120BDE8F087384654
:1025200000F022F800F080F800F04CF8711CC8B2FE
:1025300000F01AF800F078F800240FE0681EA042BE
:1025400004D00120FFF786FF814603E00020FFF75B
:1025500081FF814608F80490601CC4B2AC42EDDBF8
:1025600000F04AF80020D8E770B5044601F02CFBD3
:1025700040201349086000251EE004F0800020B1CF
:1025800080200F49091F086002E080200C49086084
:102590006006040E0120FFF7CFFC40200849091F08
:1025A00008600120FFF7C8FC4020054908600120B1
:1025B000FFF7C2FC681CC5B2082DDEDB70BD000051
:1025C000140C014010B501F0FFFA802009490860A1
:1025D000402008600420FFF7AFFC80200549091D5A
:1025E00008600420FFF7A8FC40200249091D08608C
:1025F00010BD0000100C014010B501F0E5FA4020BC
:1026000008490860802008600420FFF795FC4020FE
:102610000449091F0860802008600420FFF78CFC33
:1026200010BD0000140C014010B5002401F0BAFAEE
:102630008020104908600120FFF77EFC40200D49F2
:1026400008600120FFF778FC07E0601CC4B2FA2C98
:1026500003DDFFF7D1FF012010BD064808380068F0
:10266000C0F3C0100028F0D140200249091D0860C5
:102670000020F1E7100C014070B506460C461546E7
:10268000FFF7A0FF3046FFF76FFFFFF7CDFF18B150
:10269000FFF7B2FF012070BD2046FFF765FFFFF78F
:1026A000C3FF2846FFF760FFFFF7BEFF18B1FFF733
:1026B000A3FF0120EFE7FFF79FFF0020EBE70000FB
:1026C00007B5A8B02422FE491EA8FDF73DFD2998B4
:1026D00000681D90299840681C90299880681B907C
:1026E000289800681A90289840681990289880685F
:1026F0001890F44801680068FDF790FD1090F248CA
:102700000168F0480068FDF789FD0F90EF48016807
:10271000EC480068FDF782FD0E90ED480168E9483D
:102720000068FDF77BFD0D90E74801680068FDF744
:1027300075FD0C90E5480168E3480068FDF76EFD03
:102740000B90E3480168E0480068FDF767FD0A90D8
:10275000DE4801680068FDF761FD0990DC4801680A
:10276000DA480068FDF75AFD0890D948016800680A
:10277000FDF754FD0790DDE91C10FDF74FFD0590B6
:102780001B99FDF74BFD00210690FDF7BDFE01D121
:102790002BB000BD1B990846FDF740FD05901C9924
:1027A0000846FDF73BFD03901D990846FDF736FDF1
:1027B00002900399FDF7DAFC04900599FDF7D6FC29
:1027C000069003F06FF8119011991D98FDF726FD02
:1027D0001D9011991C98FDF721FD1C9011991B98D3
:1027E000FDF71CFD1B900E990A98FDF711FD4FF0A7
:1027F00080410690FDF712FD179008990F98FDF79C
:10280000B5FC4FF080410690FDF708FD16900C993D
:102810001098FDF7FDFC05900999FDF7F9FC06906D
:102820000799FDF7A3FC159016991B98FDF7F6FC88
:10283000069015991C98FDF7F1FC05900699FDF797
:10284000E7FC149015991D98FDF7E8FC0690179980
:102850001B98FDF7E3FC05900699FDF7D9FC139052
:1028600017991C98FDF7DAFC069016991D98FDF74C
:10287000D5FC05900699FDF7CBFC1290954914986C
:10288000FDF7CCFC0690944801680698FDF76EFCB5
:10289000914908608F491398FDF7C0FC06908F4856
:1028A00001680698FDF762FC8C4908608949129816
:1028B000FDF7B4FC06908A4801680698FDF756FCBF
:1028C000874908604FF07F501499FDF7A7FC0590E9
:1028D0001A99FDF74BFC06907F4801680698FDF7B2
:1028E00045FC1A904FF07F501399FDF797FC059027
:1028F0001999FDF73BFC0690784801680698FDF7AA
:1029000035FC19904FF07F501299FDF787FC059028
:102910001899FDF72BFC0690714801680698FDF7A1
:1029200025FC18906A4818990068FDF777FC049018
:10293000664819990068FDF771FC029062480068CA
:1029400080F0004000901A99FDF768FC0190029910
:10295000FDF75EFC03900499FDF75AFC5D49059074
:10296000FDF75CFC0690574801680698FDF7FEFBF2
:1029700054490860564819990068FDF74FFC0490C7
:10298000524818990068FDF749FC02904D481A9981
:102990000068FDF743FC01900299FDF7E7FB039007
:1029A0000499FDF735FC4B490590FDF737FC06907F
:1029B000454801680698FDF7D9FB4349086044483B
:1029C0001A990068FDF72AFC04903F48189900689E
:1029D000FDF724FC02903B4819990068FDF71EFCA6
:1029E00001900299FDF714FC03900499FDF7BEFBDA
:1029F00038490590FDF712FC0690344801680698A6
:102A0000FDF7B4FB3149086030481A990068FDF7BA
:102A100005FC04902C4819990068FDF7FFFB029013
:102A2000284818990068FDF7F9FB01900299FDF715
:102A30009DFB03900499FDF7EBFB26490590FDF7FC
:102A4000EDFB0690224801680698FDF78FFB2049B0
:102A50000860084601680068FDF7E0FB05901B4828
:102A600001680068FDF7DAFB039017480168006809
:102A7000FDF7D4FB0190134801680068FDF7CEFB19
:102A800000900199FDF772FB02900399FDF76EFB30
:102A900004900599FDF76AFB069002F003FF119080
:102AA000084811990068FDF7B9FB06490860064817
:102AB00011990068FDF7B2FB03490860034811E073
:102AC000E05A000840020020440200204802002092
:102AD0004C0200200AD7A33B5002002054020020E1
:102AE0005802002011990068FDF798FB65490860BD
:102AF000654811990068FDF791FB634908600C99DE
:102B00001098FDF733FB05900999FDF781FB0690BE
:102B10000799FDF77DFB1E900D990B98FDF726FB9D
:102B20004FF080410690FDF779FB1F900E990A98AF
:102B3000FDF76EFB4FF080410690FDF76FFB209094
:102B40000D990B98FDF764FB4FF080410690FDF75F
:102B500065FB21900C991098FDF75AFB0590099997
:102B6000FDF704FB06900799FDF752FB22900F99A1
:102B70000898FDF7FBFA4FF080410690FDF74EFBF9
:102B800023900E990A98FDF7F1FA4FF080410690D4
:102B9000FDF744FB24900F990898FDF739FB4FF09F
:102BA00080410690FDF73AFB25900C991098FDF7AF
:102BB0002FFB05900999FDF72BFB06900799FDF770
:102BC000D5FA26902898806830490490FDF726FBB6
:102BD0002F490590FDF722FB06902A988068014650
:102BE00005900698FDF7C2FA2A9988600E990A980E
:102BF000FDF70EFB4FF080410490FDF70FFB0590B1
:102C000002F0C0FB23490690FDF708FB2A990860F3
:102C10000C991098FDF7FCFA02900999FDF7F8FA63
:102C200003900799FDF7A2FA05904FF080400F99A5
:102C3000FDF7F4FA03904FF080400899FDF7EEFAA3
:102C400002900399FDF792FA0490059902F02CFC8A
:102C500010490690FDF7E2FA2A9948600020279073
:102C60000AE01EA9279851F820100B4A42F82010BC
:102C70002798401CC0B2279027980928F1DB00BF95
:102C800086E50000480200204C020020A34C65426B
:102C90000AD7233C33336542AC0300200749016067
:102CA00007494160074981600021C160016181617C
:102CB0000022C26102624262704700006F12833AD2
:102CC000A69B443B8FC2F53C00B50348FFF7E6FFE7
:102CD0000248FFF7E3FF00BDD0030020F803002007
:102CE00008B50121082000F0EDFD4FF44070ADF86B
:102CF000000010208DF8030003208DF802006946C3
:102D00000648FFF7C9FA4FF480710448FFF751FBFA
:102D10004FF400710148FFF74AFB08BD000C014069
:102D200010B50A48007840B10020084908704FF4F7
:102D300080710748FFF73DFB06E00120034908705A
:102D400001020348FFF733FB10BD0000D90100204A
:102D5000000C014000B589B001210D2000F0B2FD4A
:102D60000121022000F09EFDC020ADF820001820B7
:102D70008DF8230003208DF8220008A93848FFF7BA
:102D80008BFA0320ADF8200018208DF823000320D3
:102D90008DF8220008A93348FFF77EFA40F2E730A9
:102DA000ADF818006420ADF814000020ADF816004E
:102DB000ADF81A0005A92C4801F0D4FD6020ADF84B
:102DC00004000020ADF80A00ADF80C000120ADF8B9
:102DD000060001A9244801F069FC0821224801F0FD
:102DE000B1FC6020ADF804000020ADF80A00ADF899
:102DF0000C000120ADF8060001A91B4801F0ACFC55
:102E00000821194801F0FAFC6020ADF80400002008
:102E1000ADF80A00ADF80C000120ADF8060001A9DC
:102E2000114801F0F9FC08210F4801F045FD602030
:102E3000ADF804000020ADF80A00ADF80C00012048
:102E4000ADF8060001A9084801F040FD0821064838
:102E500001F07AFD0121044801F0E1FB09B000BD59
:102E600000080140000C01400004004010B504E0DF
:102E700004A002F081F900F029FE00F056F90028C4
:102E8000F6D010BD0D4D505536303530206E6F20C8
:102E9000636F6E6E6563742E2E2E0D0A00000000A7
:102EA00010B5FFF7E3FF80216B2000F029F96420C3
:102EB000FFF71EF801216B2000F022F900213820D5
:102EC00000F01EF918211B2000F01AF908211C201F
:102ED00000F016F902211A2000F012F90021192041
:102EE00000F00EF90221372000F00AF910BD0000B1
:102EF0000FB52B480088A0B90020ADF80000ADF850
:102F00000200ADF8040027490860274908602749F6
:102F10000860012022490880002300201080508092
:102F20009080BDF900001F49096808441D490860E8
:102F3000BDF902001C49096808441B490860BDF935
:102F40000400C01A1949096808441849086014485F
:102F50000088C8281DD1134800681149098890FBD2
:102F6000F1F000B21080104800680D49098890FB0C
:102F7000F1F000B250800D4800680949098890FBC3
:102F8000F1F000B29080002005490880012004B0D3
:102F900000BD03480088401C014908800020F6E776
:102FA0003002002024020020280200202C020020F1
:102FB0000CB5394840783849097840EA012037494A
:102FC0000988401A00B2364908803348C07832492F
:102FD000897840EA012031494988401A00B23049D5
:102FE00048802D4840792C49097940EA01202B4935
:102FF0008988401A00B22A4988802748407A2649A1
:10300000097A40EA012027490988401A00B2264976
:1030100008802148C07A2049897A40EA0120214964
:103020004988401A00B2204948801B48407B1A4911
:10303000097B40EA01201B498988401A00B21A49DD
:1030400088801A48006878B908460168009180882D
:10305000ADF804000023134ADDE90001FFF748FF43
:1030600010B10120114908601148006898B90F4853
:10307000006880B10A48016800918088ADF80400BA
:1030800042F20403054ADDE90001FFF731FF10B108
:103090000120074908600CBD480300200E020020F3
:1030A00014020020080200201A020020340200202E
:1030B0003802002010B5034A0E213B2000F011F821
:1030C00010BD00004803002070B504460D462A4696
:1030D0002146D020FFF7EAF908B1012070BD002099
:1030E000FCE770B504460D46164633462A4621468F
:1030F000D020FFF700FA08B1012070BD0020FCE7E6
:1031000070B504460D462A462146D020FFF7B4FA92
:1031100008B1012070BD0020FCE708B569467520A4
:10312000FFF7D2FF9DF8000008BD10B5FFF7F5FFCF
:10313000682801D1012010BD0020FCE730B5B0F5B2
:103140007A7F01DD4FF47A70B1F57A7F01DD4FF4BB
:103150007A71B2F57A7F01DD4FF47A72B3F57A7F36
:1031600001DD4FF47A73002800DA0020002900DA2C
:103170000021002A00DA0022002B00DA0023044D8F
:1031800028802D1D29802D1D2A802D1D2B8030BDCE
:103190003404004070B5002100230F22C47804B32A
:1031A000154C246804F4E064C4F5E064210AC1F11C
:1031B0000403CA40447804FA03F18478144021439C
:1031C00009010E4C0678A155047804F01F0501246E
:1031D000AC4005786D11AD0005F1E025C5F8004162
:1031E00009E0047804F01F050124AC40044D067882
:1031F000761145F8264070BD0CED00E000E400E0DB
:1032000080E100E002490143024A1160704700007A
:103210000000FA050CED00E008B54FF4A060FFF7E0
:10322000F1FF1E208DF8000001208DF801008DF8BF
:1032300002008DF803006846FFF7ACFF25208DF8EB
:10324000000002208DF8010001208DF802008DF8A9
:1032500003006846FFF79EFF08208DF8000002205B
:103260008DF801008DF8020001208DF803006846FA
:10327000FFF790FF08BD00002DE9F04104460E461F
:10328000154629463046FCF7C3FFE060A169E068B7
:10329000FCF7BEFF6061E1682068FCF7BFFFA06239
:1032A00094F83800FDF7A5F880466168FCF7B6FF92
:1032B00007462169FCF7B2FFE0626169A068FCF78C
:1032C000ADFF2063D4E90A01FCF750FF0746216BEC
:1032D000FCF74CFF60631E480078012831D11D487F
:1032E000B0F90400B4282CDB2846216AFDF716F952
:1032F00007D3206A80F0004729463846FDF70EF9CB
:1033000003D2002084F838001DE0012084F8380042
:10331000D4E90310FCF72AFF2061616A2069FDF7F8
:10332000FDF801D2606A2061606A80F0004738468B
:103330002169FDF7F3F806D2606A80F00040206151
:1033400001E000202061E068A061BDE8F08100009C
:10335000790200208802002070B53E242046E11743
:1033600004EB91718910A4EB8101091D09B10121C0
:1033700000E0002194FBF1F1CDB22A460E490F483E
:1033800000F0F4FE01F040FB0B48408A4FF6FF715D
:1033900088420DD108488089884209D10648008BAF
:1033A000884205D1FEF764FD05A001F0E5FE01E0CD
:1033B000FEF75EFD70BD00000006002000F8010869
:1033C000466C6173682052656164204572726F7249
:1033D0002121210D0A00000070B500F01BF83E24E9
:1033E0002046E11704EB91718910A4EB8101091DBE
:1033F00009B1012100E0002194FBF1F1CDB22A4690
:103400000249034800F0C6FE70BD0000000600201F
:1034100000F8010810B58348008883490880814876
:10342000408848807F488088888080480088C8809D
:103430007E48408808817D48808848817C490868AA
:103440007C49FCF7EBFE0446FDF702F876498881DB
:10345000774948687749FCF7E1FE0446FCF7F8FF36
:103460007149C881724988687249FCF7D7FE0446E1
:10347000FCF7EEFF6C4908826F4908686D49FCF75C
:10348000CDFE0446FCF7E4FF674948826A49486874
:103490006849FCF7C3FE0446FCF7DAFF62498882FC
:1034A000654988686349FCF7B9FE0446FCF7D0FF1C
:1034B0005D49C882614908685E49FCF7AFFE044671
:1034C000FCF7C6FF584908835C4948685949FCF72E
:1034D000A5FE0446FCF7BCFF53494883574988685A
:1034E0005449FCF79BFE0446FCF7B2FF4E49888323
:1034F000534908684F49FCF791FE0446FCF7A8FFC2
:103500004949C8834E4948684A49FCF787FE044642
:10351000FCF79EFF44490884494988684549FCF7FF
:103520007DFE0446FCF794FF3F49488445490868FE
:103530004049FCF773FE0446FCF78AFF3A49888449
:10354000404948683B49FCF769FE0446FCF780FFA8
:103550003549C8843B4988683649FCF75FFE044614
:10356000FCF776FF30490885374908683149FCF790
:1035700055FE0446FCF76CFF2B49488532494868E4
:103580002C49FCF74BFE0446FCF762FF2649888570
:103590002D4988682749FCF741FE0446FCF758FF8F
:1035A0002149C885294908682249FCF737FE0446A5
:1035B000FCF74EFF1C490886244948681D49FCF762
:1035C0002DFE0446FCF744FF174948861F498868CA
:1035D0001849FCF723FE0446FCF73AFF1249888697
:1035E0001B4908681349FCF719FE0446FCF730FF35
:1035F0000D49C886164948680E49FCF70FFE044677
:10360000FCF726FF08490887114988680949FCF733
:1036100005FE0446FCF71CFF034948870D48007867
:10362000888710BD0E02002000060020080200203E
:103630002004002000007A445C040020980400204C
:10364000D4040020100500204C050020880500202F
:10365000C4050020FB01002000201E4981F838002D
:103660001D4808621D48486200201D4981F8380045
:103670001C4808621C48486200201C4981F8380038
:1036800015480862154848620020194981F8380039
:1036900014480862144848620020164981F838002E
:1036A0000D4808620D4848620020134981F838002F
:1036B0000C4808620C4848620020104981F8380024
:1036C000086248620E4981F838000E4808620648D0
:1036D00048627047D404002000001643000096445E
:1036E0002004002000000C42000048431005002088
:1036F0005C0400204C050020980400208805002070
:10370000C40500200000C84270B5FFF7D3FCFFF7E6
:103710004FFC5149B1F90000FCF762FE05464F49E4
:10372000FCF77CFD04464E49FCF778FD4D490860E6
:103730004949B1F90200FCF753FE05464749FCF739
:103740006DFD04464649FCF769FD4649486042491B
:10375000B1F90400FCF744FE05464049FCF75EFD64
:1037600004463F49FCF75AFD3E4988603E49B1F99D
:103770000000FCF735FE04463C49FCF74FFD3C4990
:1037800008603949B1F90200FCF72AFE04463749BE
:10379000FCF744FD364948603349B1F90400FCF7B1
:1037A0001FFE04463149FCF739FD31498860314834
:1037B000007890B32B4908682F49FCF72FFD044689
:1037C0002E4908682E49FCF729FD05462146FCF7DD
:1037D000CDFC2A490860234948682749FCF71EFDAB
:1037E0000446264948682649FCF718FD0546214647
:1037F000FCF7BCFC214948601A4988681E49FCF75F
:103800000DFD04461D4988681D49FCF707FD054666
:103810002146FCF7ABFC1949886018480068194933
:1038200008601648406848601448806888600868E6
:103830000021FCF769FE0ED0124948680021FCF710
:1038400063FE08D00F4988680021FCF75DFE02D0B6
:1038500001200D49087070BD1402002040DAFF38C5
:103860000AE81C41940300201A02002045798B3A93
:10387000640300205C020020CDCCCC3D7C03002002
:103880006666663FA00300203C020020014600203F
:10389000034A506820F440400843506070470000DD
:1038A0000010024029B1064AD2690243044BDA6192
:1038B00004E0034AD2698243014BDA617047000099
:1038C0000010024029B1064A92690243044B9A61F2
:1038D00004E0034A92698243014B9A6170470000F9
:1038E0000010024030B500210022002400232D4D9D
:1038F0006D6805F00C0121B1042905D0082923D1F8
:1039000005E0294D056022E0274D05601FE0254DAB
:103910006D6805F47012234D6D6805F4803402253E
:1039200005EB92421CB9214D554305600BE01D4D3E
:103930006D6805F400351DB11C4D5543056002E06E
:10394000194D5543056002E0174D056000BF00BFEB
:10395000144D6D6805F0F0010909154D6B5C0568A3
:10396000DD4045600F4D6D6805F4E061090A104DBA
:103970006B5C4568DD4085600A4D6D6805F46051FB
:10398000C90A0B4D6B5C4568DD40C560054D6D682F
:1039900005F44041890B074D6B5CC568B5FBF3F539
:1039A000056130BD0010024000127A0000093D00A0
:1039B00092020020A202002010B500240EE0022C8A
:1039C00005DA00221146FF2001F088FB04E0002206
:1039D000FF21104601F082FB601CC4B2042CEEDB18
:1039E00010BD10B5002406E000221146104601F07B
:1039F00075FB601CC4B2042CF6DB10BD10B50024AE
:103A000006E00022FF21104601F068FB601CC4B2F2
:103A1000042CF6DB10BD0000F0B5002500260027C1
:103A2000264801780078401C244A1070102907DBD2
:103A300000201146087022480078401C2049087078
:103A4000002431E01F480078042802DD00201D49D1
:103A500008701D481A49097800EB81101949097846
:103A600050F82100C0F3074517481549097800EBC5
:103A700081101449097830F82100C0F30726124854
:103A80000F49097800EB81100E49097810F8217070
:103A90003A462946304601F021FB0A480078401C8E
:103AA00008490870601CC4B2042CCBDB04480078C1
:103AB000072802D1002002490870F0BDDC01002077
:103AC000DB010020DA0100201800002010B50024DE
:103AD00006E000221146FF2001F000FB601CC4B28A
:103AE000042CF6DB10BD00B50346002200BF0BE03E
:103AF00003FA02F000F0010010B101F0B3FA01E0A6
:103B000001F078FA501CC2B2082AF1DB00BD0000B7
:103B100010B501201F4908701F48C07AA52800D0A1
:103B200010BD1D48007800F0010020B31A488078CD
:103B30001949C97840EA012000B21849C8801648DE
:103B400000791549497940EA012000B2134988807B
:103B5000114880791049C97940EA012000B20F4923
:103B600008800D48007A0C49497A40EA012000B2E9
:103B70000A49488008E00848007800F0080018B1B9
:103B800005494878FDF794FE0348807A0449087097
:103B900000BFC5E778020020E8020020880200206C
:103BA0008602002008B501210820FFF78BFE802047
:103BB000ADF8000004208DF8030069460148FEF7C7
:103BC0006BFB08BD000C014008B501210820FFF780
:103BD00079FE8020ADF8000010208DF8030003204E
:103BE0008DF8020069460248FEF756FB08BD00004A
:103BF000000C014010B504E004A001F0BDFAFFF78D
:103C0000FDFE00F0A5F90028F6D010BD0D205349A7
:103C100032345231206E6F20636F6E6E6563742E86
:103C20002E2E0D0A0000000010B51E48006840F45A
:103C300080701C4908600321232000F0AFF90522A1
:103C40001949302000F042F9052217492A2000F0D6
:103C50003DF91A21242000F0A1F90121222000F0D1
:103C60009DF90121212000F099F92021312000F057
:103C700095F905220D492A2000F028F91E2125205A
:103C800000F08CF92721262000F088F90F2000F0A1
:103C9000A1F90448001F006840F480700149091F21
:103CA000086010BD14080140FC0100200102002042
:103CB00010B513480078322810DD4FF0E0218869F4
:103CC000FCF73AFAFCF72EFA322190FBF1F201FBF5
:103CD00012000B490870FFF77FFB0FE009480079DD
:103CE00007490978884209D00548007805490871D4
:103CF0000348007804490871FFF796FF10BD0000E3
:103D0000FB010020FC0100200102002008B5012178
:103D10000C20FFF7D7FD4FF48050ADF800001020C5
:103D20008DF8030003208DF8020069461748FEF75E
:103D3000B3FA4FF480511548FEF739FB4FF4807009
:103D4000ADF8000010208DF8030003208DF802006C
:103D500069460F48FEF7A0FA4FF480710C48FEF751
:103D600026FB00F097F9FFF745FF08481030006880
:103D700040F480500549103108600548143000684F
:103D800040F4807002491431086008BD000C014005
:103D9000000801402DE9F04107460C4615460F4842
:103DA000006840F480500D490860384600F04AF938
:103DB0008046002605E0FF2000F044F92070641CD6
:103DC000761CAE42F7DB0548001F006840F48050C7
:103DD0000249091F08604046BDE8F081140C01400B
:103DE00010B504460B48006840F48070094908602B
:103DF000202221466120FFF7CDFFFF21E22000F0C5
:103E0000CDF80448001F006840F480700149091F84
:103E1000086010BD1408014010B50F480078C8B103
:103E20000E48007850B10E4800780E490978884253
:103E300004D101F0CFF8FFF7E1FD07E00748007873
:103E400020B10948007808B9FFF7B6FD04480078AA
:103E50000449087010BD000078020020790200209B
:103E60008602002091020020F801002010B50446CF
:103E70001448006840F48070124908600522124915
:103E8000302000F023F805220F492A2000F01EF808
:103E900020222146A02000F019F80E21202000F059
:103EA0007DF87E21272000F079F80648001F006881
:103EB00040F480700349091F08600A20FEF73CF8AF
:103EC00010BD000014080140FC0100202DE9F04164
:103ED00007460C4615460F48006840F480500D49CF
:103EE0000860384600F0AEF88046002604E02078EE
:103EF00000F0A8F8641C761CAE42F8DB0548001FF1
:103F0000006840F480500349091F08604046BDE83E
:103F1000F0810000140C014070B504460B480068A5
:103F200040F4805009490860204600F08BF8FF20DB
:103F300000F088F805460548001F006840F48050EE
:103F40000249091F0860284670BD0000140C01409A
:103F50001CB510A103C9CDE9000105226946302036
:103F6000FFF7B4FF052269461020FFF713FF002476
:103F700006E01DF80400A52800D003E0601CC4B2D0
:103F8000052CF6DB00BF052C01D000201CBD012054
:103F9000FCE70000A5A5A5A5A500000070B5054695
:103FA0000C460B48006840F48050094908602846D8
:103FB00000F048F80646204600F044F80448001F88
:103FC000006840F480500249091F0860304670BD07
:103FD000140C014010B504460E2C16D11848006888
:103FE00040F48070164908600E212020FFF7D6FFAC
:103FF0007E212720FFF7D2FF1148001F006840F400
:1040000080700F49091F086018E00D48006840F4EF
:1040100080700B4908600F212020FFF7BFFF7E2131
:104020002720FFF7BBFF0648001F006840F48070A0
:104030000349091F0860C820FDF77EFF10BD00007E
:104040001408014010B5044600BF02210A4800F0E0
:1040500061F80028F9D02146074800F067F800BF52
:104060000121054800F056F80028F9D0024800F078
:104070005AF8C0B210BD00000038004021B10288DB
:1040800042F04002028004E002884FF6BF731A40FB
:104090000280704700B587B001210820FFF712FCAD
:1040A00001218803FFF7FEFB4FF46040ADF80400E8
:1040B00018208DF8070003208DF8060001A9134889
:1040C000FEF7EAF84FF48270ADF80A004FF4007082
:1040D000ADF812000020ADF81000ADF80E00ADF8FC
:1040E0000C001020ADF814000020ADF80800ADF869
:1040F00016000720ADF8180002A9054800F018F8CE
:1041000001210348FFF7BAFF07B000BD000C0140D2
:10411000003800400246002013890B400BB10120FB
:1041200000E0002070470146888970478181704710
:1041300010B50022028802F441520B884C882343B8
:104140008C882343CC8823430C8923434C89234305
:104150008C892343CC8923431A430280838B4FF2FB
:10416000FF74234083830B8A038210BD30B503465E
:104170000C461546002206E0184600F007F844F801
:1041800022001B1D521CAA42F6D330BD014608680E
:10419000704700002DE9F04704460E4617464FF0E1
:1041A00004080025A946B4F1006F02D319488442DF
:1041B00001D3BDE8F087FEF72FF8254604EB870909
:1041C0001448854211D20DE02846FFF7DFFF401C5E
:1041D00038B11148FDF7A0FF8046B8F1040F01D0B7
:1041E00002E02D1D4D45EFD300BFB8F1040F0CD1F7
:1041F00008E020463168FDF7D9FF042800D003E02D
:10420000241D361D4C45F4D300BFFDF7C5FF00BF8C
:10421000CFE700000000020800F8010838B53C486C
:10422000007830B13B48007840F010003949087000
:1042300005E03848007820F0100036490870FF206B
:10424000354908703348007848703448B0F90400A4
:1042500000909DF8010088709DF80000C8703049FA
:1042600088683049FBF7DAFF0446FCF7D8F800B25B
:1042700000909DF80100284908719DF800004871E0
:10428000274948682749FBF7C9FF0446FCF7C7F8E8
:1042900000B200909DF801001F4988719DF8000050
:1042A000C8711F4908681F49FBF7B8FF0446FCF7AF
:1042B000B6F800B200909DF80100174908729DF809
:1042C000000048721849C8691649FBF7A7FF044661
:1042D000FCF7A5F800B200909DF801000E49887225
:1042E0009DF80000C872114988680E49FBF796FFD7
:1042F0000446FCF794F800B200909DF801000649CE
:1043000008739DF8000048730846FFF7AFFD38BDFD
:104310007902002020020020C8020020880200202C
:10432000580300200000C84208030020E4010020D8
:1043300010B500F001F810BD0CB500200190009000
:104340003348006840F480303149086000BF30488D
:10435000006800F4003000900198401C0190009823
:1043600018B90198B0F5A06FF1D12948006800F4A0
:10437000003010B10120009001E000200090009872
:10438000012843D12348006840F01000214908600B
:104390000846006820F0070008600846006840F002
:1043A000020008601A484068194948600846406899
:1043B00048600846406840F48060486008464068AD
:1043C00020F47C1048600846406840F4E8104860DB
:1043D0000846006840F08070086000BF0C48006824
:1043E00000F000700028F9D00948406820F0030070
:1043F000074948600846406840F00200486000BF36
:104400000348406800F00C000828F9D10CBD0000FA
:104410000010024000200240042808D14FF0E021A3
:10442000096941F004014FF0E022116107E04FF00B
:10443000E021096921F004014FF0E0221161704789
:1044400010B51348006840F00100114908600846A3
:104450004068104908400E494860084600680E4907
:1044600008400B4908600846006820F48020086076
:104470000846406820F4FE0048604FF41F00886042
:10448000FFF756FF4FF000600449086010BD0000C0
:10449000001002400000FFF8FFFFF6FE08ED00E00C
:1044A00010B5FEF7B9FEFEF71BFCFDF7FFFC4FF45D
:1044B000E12000F043FDFDF799FF00F0D7F8FDF78C
:1044C00003FEFFF723FCFEF7EBFCFEF743FCFDF7D2
:1044D000B7F9FEF741FFFFF7BFF8FEF7F5FBFFF76F
:1044E00080FA04A000F048FE41F28830FDF700FD9C
:1044F00010BD000053797374656D20496E69742096
:1045000046696E6973680A0010B50121344800F0ED
:1045100092F800285FD033480088401C3149088059
:1045200031480088401C3049088030480088401CD1
:104530002E4908802E480088401C2D4908802D48AF
:104540000088401C2B4908802B480088401C2A49C1
:1045500008802A480088401C284908802148008893
:10456000022805DB00201F4908800120244908702B
:104570001D480088052805DB00201B490880012014
:1045800020490870194800880A2805DB00201749CF
:10459000088001201C49087015480088642805DB44
:1045A000002013490880012018490870114800882C
:1045B000C82805DB00200F49088001201449087035
:1045C0000D480088B0F5C87F05DB00200A49088047
:1045D0000120104908700121014800F01DF810BDAC
:1045E0000008004006000020080000200A0000200B
:1045F0000C0000200E0000201000002012000020FF
:104600000500002002000020010000200000002022
:104610000300002004000020CA430282704721B139
:10462000028842F00102028004E002884FF6FE7325
:104630001A400280704730B5024600200023002453
:10464000158A05EA0103958905EA010413B10CB145
:10465000012000E0002030BD1AB183890B43838123
:1046600002E083898B438381704700000EB50121EE
:104670000420FFF717F94720ADF804006320ADF8D8
:1046800000000020ADF80600ADF8020069460648BB
:1046900000F068F9012211460348FFF7DDFF012110
:1046A0000148FFF7BCFF0EBD0008004070B50024B4
:1046B00000220023058C4FF6FE7635400584028CDF
:1046C0008388048B4FF68F752C40B51E2C400D88C7
:1046D0002C43751E2A400D892A434D882A43144DC8
:1046E000A8420BD0134DA84208D0134DA84205D0C4
:1046F000124DA84202D0124DA84213D14FF6F775C1
:104700002A404D892A434FF6FB752A408D882A435B
:104710004FF6FF652B404FF6FF552B408D892B43FD
:10472000CD892B4383800483CD888586028470BD28
:10473000002C014000340140004001400044014091
:10474000004801400A460021018B4FF6F7731940DB
:10475000114301837047000070B50024002200233C
:10476000058C4FF6EF7635400584028C8388048BE8
:1047700048F6FF752C404FF6FF452C400D884FF64C
:10478000FF7606EA05252C434FF6DF752A400D8992
:1047900006EA05152A434D8806EA05152A43154DF4
:1047A000A84202D0144DA8421DD14FF67F752A4071
:1047B0004D894FF6FF7606EA05152A434FF6BF7579
:1047C0002A408D8806EA05152A434FF6FF352B400F
:1047D0004FF2FF752B408D8906EA85052B43CD8965
:1047E00006EA85052B4383800483CD8805870284F0
:1047F00070BD0000002C0140003401400A46002139
:10480000018B4FF2FF7319404FF6FF7303EA022347
:10481000194301837047000070B500240022002373
:10482000058C4FF6FF6635400584028C8388848BA7
:104830004FF68F752C404FF6FC752C400D882C439D
:104840004FF6FF552A400D894FF6FF7606EA0525FB
:104850002A434D8806EA05252A43154DA84202D071
:10486000144DA8421DD14FF2FF752A404D894FF6D5
:10487000FF7606EA05252A434FF6FF352A408D8844
:1048800006EA05252A434EF6FF752B404DF6FF75C7
:104890002B408D8906EA05152B43CD8906EA0515BF
:1048A0002B4383808483CD888587028470BD00007C
:1048B000002C0140003401400A460021818B4FF654
:1048C000F7731940114381837047000070B50022CF
:1048D00000230024058C4EF6FF7635400584038CBA
:1048E0008488828B48F6FF752A404FF6FF452A40A0
:1048F0000D884FF6FF7606EA05252A434DF6FF752B
:104900002B400D8906EA05352B434D8806EA05350F
:104910002B430B4DA84202D00A4DA84208D14BF6BA
:10492000FF752C408D894FF6FF7606EA85152C43DE
:1049300084808283CD88A0F84050038470BD00003D
:10494000002C0140003401400A460021818B4FF2C7
:10495000FF7319404FF6FF7303EA02231943818363
:1049600070470000002202881D4B98420ED01D4B5C
:1049700098420BD0B0F1804F08D01B4B984205D025
:104980001A4B984202D01A4B984204D14FF68F73BB
:104990001A404B881A43174B984207D0164B98423F
:1049A00004D04FF6FF431A40CB881A4302808B880D
:1049B00083850B8803850A4B98420BD0094B98429C
:1049C00008D00E4B984205D00D4B984202D00D4BAB
:1049D000984201D10B7A038601238382704700003D
:1049E000002C014000340140000400400008004059
:1049F000000C004000100040001400400040014046
:104A0000004401400048014010B58848008800B2C9
:104A1000874908808548408800B24880834880885C
:104A200000B288808148C08800B2824908807F48EF
:104A3000008900B248807D48408900B288807B4967
:104A40008889FBF7D6FC04467B49FBF719FC7B49B8
:104A500008607649C889FBF7CCFC04467649FBF729
:104A60000FFC764948607149088AFBF7C2FC04468E
:104A70007149FBF705FC714988606C49488AFBF76E
:104A8000B8FC04466C49FBF7FBFB6D4908606749BD
:104A9000888AFBF7AEFC04466749FBF7F1FB6849DF
:104AA00048606249C88AFBF7A4FC04466249FBF7E8
:104AB000E7FB634988605D49088BFBF79AFC044675
:104AC0005D49FBF7DDFB5F4908605849488BFBF700
:104AD00090FC04465849FBF7D3FB5A4948605349B8
:104AE000888BFBF786FC04465349FBF7C9FB554905
:104AF00088604E49C88BFBF77CFC04464E49FBF7A7
:104B0000BFFB514908604949088CFBF772FC044619
:104B10004949FBF7B5FB4C4948604449488CFBF7D1
:104B200068FC04464449FBF7ABFB474988603F49B2
:104B3000888CFBF75EFC04463F49FBF7A1FB434929
:104B400008603A49C88CFBF754FC04463A49FBF725
:104B500097FB3E4948603549088DFBF74AFC0446FF
:104B60003549FBF78DFB394988603049488DFBF7A3
:104B700040FC04463049FBF783FB354908602B496C
:104B8000888DFBF736FC04462B49FBF779FB30494F
:104B900048602649C88DFBF72CFC04462649FBF7E4
:104BA0006FFB2B4988602149088EFBF722FC0446E5
:104BB0002149FBF765FB274908601C49488EFBF734
:104BC00018FC04461C49FBF75BFB22494860174967
:104BD000888EFBF70EFC04461749FBF751FB1D4975
:104BE00088601249C88EFBF704FC04461249FBF7A3
:104BF00047FB194908600D49088FFBF7FAFB04468B
:104C00000D49FBF73DFB144948600849488FFBF705
:104C1000F0FB04460849FBF733FB0F498860034863
:104C200090F83C000D49087010BD000000060020FF
:104C30000E0200200802002000007A442004002018
:104C40005C04002098040020D404002010050020FB
:104C50004C05002088050020C4050020FB01002031
:104C600010B52348007820B1002021490870FBF7D7
:104C700039FE20480078B0B100201E4908701E4857
:104C80000088401C00B21C490880FEF73DFD1B4A0D
:104C90001B491C48FDF714FD1B4803781B4A1949A2
:104CA0001648FCF75FFE1A48007870B100201849DA
:104CB0000870FEF735F81448007820B915480078D8
:104CC00008B1FEF7A9FEFCF7A3FD1348007830B148
:104CD000002011490870FFF79FF8FFF79FFA0F486F
:104CE000007820B100200D490870FEF7E1FF10BDEB
:104CF00005000020010000201400002058030020BF
:104D00007C03002064030020790200208802002038
:104D100000000020D8010020030000200400002033
:104D200070B500BF40F225510F4800F047F838B188
:104D30000D48001D0088C4B22046FCF717FA0CE0AD
:104D400040F22441084800F039F830B106480088A4
:104D5000C5B20548001D0088C5B240F22551024881
:104D600000F004F870BD00000038014010B50022CA
:104D7000002340F66A14A14200D100BF0A120124A8
:104D80009440A3B2DC43048010BD21B1828942F477
:104D90000052828104E082894DF6FF731A408281BD
:104DA000704702460020B1F5007F00D100BF138894
:104DB0000B400BB1012000E00020704770B50246A7
:104DC000002400230025002040F66A16B14200D1DD
:104DD00000BFC1F3421501F01F03012606FA03F3D9
:104DE000012D02D19689334006E0022D02D1168AA8
:104DF000334001E0968A33400C12012606FA04F48F
:104E00001688344013B10CB1012000E0002070BDC1
:104E1000F0B50346002400260025002040F66A175E
:104E2000B94200D100BF1846C1F3421401F01F0679
:104E3000012707FA06F5012C01D10C3004E0022C01
:104E400001D1103000E014301AB107682F43076019
:104E500002E00768AF430760F0BD00002DE9F047AE
:104E600086B005460E460024A24600BFA146002794
:104E7000B08900B100BF2F462C8A4CF6FF70044069
:104E8000F08804432C82AC894EF6F3100440B088BD
:104E900031890843718908430443AC81AC8A4FF6D9
:104EA000FF400440B0890443AC8201A8FEF71AFD1C
:104EB0001F48874202D1DDF810A001E0DDF80CA008
:104EC000A88900F4004040B10AEBCA0000EB0A10C8
:104ED00031684900B0FBF1F807E00AEBCA0000EBCB
:104EE0000A1031688900B0FBF1F86420B8FBF0F0DB
:104EF00004012009642101FB1089A88900F4004005
:104F000040B1322000EBC900B0FBF1F000F0070027
:104F1000044308E0322000EB09106421B0FBF1F0FB
:104F200000F00F0004432C8106B0BDE8F0870000BC
:104F300000380140C1F308028280704710B586B086
:104F40000446012144F20400FEF7BCFC4FF400705B
:104F5000ADF8140018208DF8170003208DF8160006
:104F600005A91A48FDF798F94FF48060ADF81400D0
:104F700004208DF8170003208DF8160005A91348AA
:104F8000FDF78AF90C20ADF80E000020ADF80C00FA
:104F90000194ADF80A00ADF80800ADF8100001A9C1
:104FA0000B48FFF75BFF012240F225510848FFF74D
:104FB0002FFF012240F224410548FFF729FF01217C
:104FC0000348FFF7E2FE06B010BD000000080140F4
:104FD000003801400648808800B2054988800846AC
:104FE000B0F90400962801DC962088807047000004
:104FF000880200201A48006840F4007018490860D0
:1050000000BF00BF00BF00BF00BF00BF1448001DAD
:10501000006840F400701249091D086000BF00BF1D
:1050200000BF00BF00BF00BF00BF00BF00BF00BF88
:1050300000BF00BF00BF00BF00BF00BF00BF00BF78
:1050400000BF00BF00BF00BF00BF00BF00BF00BF68
:1050500000BF00BF00BF00BF00BF00BF704700001F
:10506000100C01401C48006840F400701A490860A8
:1050700000BF00BF00BF00BF00BF00BF00BF00BF38
:1050800000BF00BF00BF00BF00BF00BF00BF00BF28
:1050900000BF00BF00BF00BF00BF00BF00BF00BF18
:1050A00000BF00BF00BF00BF00BF00BF00BF00BF08
:1050B0000948001D006840F400700749091D086098
:1050C00000BF00BF00BF00BF00BF00BF00BF00BFE8
:1050D00000BF00BF70470000100C014070B50646CD
:1050E0000C4615463046FEF7FEFC2046FEF7FBFC5C
:1050F0002846FEF7F8FC70BD2DE9FE4F04468946B0
:10510000D9F80800FBF7B8F921F0004107464FF045
:105110000052184BFBF7F2F80546FBF7D9F9824627
:10512000504600F0EFFA0290504600F0E7FB019085
:10513000D4F800B060680090DDE90001FBF76EF87C
:10514000054658460299FBF769F806462946FBF7DB
:105150000DF8206058460199FBF760F80546029962
:105160000098FBF75BF806462946FBF751F86060AC
:10517000BDE8FE8F47DF913F014A024900F0F0B8D9
:1051800081580008C00200204100080218BF042016
:105190000A0E18BF40F001004FF07F4232EA0101D1
:1051A00008BF40F00200012808BF05207047012118
:1051B000FBF704BAFAF7DABF00210846FBF760B83C
:1051C0006FF05E010807FBF7F9B900002DE9F04D1B
:1051D0000D4614464FF07F41B1EB440F9EBF4FF098
:1051E000FF312960BDE8F08D4FF0004040EA042116
:1051F000C4F3C750783810F01F024A4B4FEA601CC6
:10520000C2F120067B44C4F3C750A0F178004FEAF6
:10521000601003EB800053F82C3008BFD0E901C6C2
:1052200012D0D0F804C093402CFA06F73B438768AD
:105230000CFA02FC27FA06F8C06807FA02F2F040FE
:105240004CEA080C42EA0006A3FB0132ACFB01C0A9
:10525000A6FB016101EB0C068E4234BF4FF0010C3E
:105260004FF0000CC1186144BCF1000F02D0814224
:1052700002D903E0814201D2012000E00020104465
:1052800000F120024FEA92188006CA0C40EA423030
:105290004F03C5F80080FBF7A3F882463846FBF7BA
:1052A000A8F86FF01201FBF789F907463046FBF7C3
:1052B000A0F86FF02501FBF781F983463946504687
:1052C000FAF754FF5946FAF751FF00F500666FF3FD
:1052D0000B0651463046FAF79BFF3946FAF798FF1E
:1052E0005946FAF798FF1049FAF798FF07460F4911
:1052F0003046FAF793FF3946FAF738FF07460C496C
:105300003046FAF78BFF3946FAF730FF14F0004FBA
:1053100008BFBDE8F08DC8F1805180F000402960E1
:10532000BDE8F08DFC080000DB0FC92F22AAFD2983
:105330000000C92F02E008C8121F08C1002AFAD1D4
:1053400070477047002001E001C1121F002AFBD105
:10535000704700000149086070470000C402002047
:105360002DE9F04116460F460446002503E0394674
:10537000B047641C6D1C20780028F8D12846BDE891
:10538000F08100002DE9F04104464FF00E4000EBA3
:105390004400B0F1506F204655D84FF0FC41B1EBBE
:1053A000440F1CD224F000404FF07E51FAF733FF37
:1053B0004FF0FF31FBF702F9054600F063FB14F0F4
:1053C000004F1DBF2F4F304E80F000402F4F08BFC1
:1053D0002F4E4FF04041FAF721FF044605E0002729
:1053E0003E460146FAF71AFF05462A492846FAF7CB
:1053F00015FF2949FAF7BAFE2946FAF70FFF2749A0
:10540000FAF7B4FE2946FAF709FF2549FAF7AEFE86
:105410002946FAF703FF2349FAF7A8FE80462946F2
:105420002046FAF7FBFE4146FAF7F8FE05463146FC
:105430002046FAF79BFE2946FAF798FE3946BDE862
:10544000F041FAF793BE4FF0E441B1EB440F08D9B5
:10545000FFF79AFE042808BFFFF7B2FE2046BDE81A
:10546000F0814FF07F41B1EB440F03D2BDE8F04132
:10547000FFF79DBE0120FFF76DFFBDE8F041FFF78C
:105480009BBE00000000C9BF22AAFDB90000C93FB1
:1054900022AAFD3924FE1C3DC78AD83C1E67383D30
:1054A0001B93993DAFAA2A3E2DE9F0474FF0684281
:1054B00002EB40030C460546B3F1654F3CBF02EBDF
:1054C0004102B2F1654F7CD2C0F3C753C1F3C7525A
:1054D0009A1A1B2A06DD10F0004F14BF7648774851
:1054E000BDE8F08712F11A0F17DA11F0004F06D05D
:1054F00010F0004F0CBF72487248BDE8F08721469B
:105500002846FAF7BDFE0446FFF73EFE042808BF12
:10551000FFF756FE2046BDE8F0874200B2EB410F90
:1055200025D910F0004F19BF674F684E684F694E7C
:10553000224685F0004415460A4680F00041104698
:105540000A1A5200B2F1807F40D248406249DFF827
:105550008CA110F0004F18D04FF03F483846FAF7B2
:1055600057FE074651463046FAF752FE17E011F053
:10557000004F04BF00263746E2D010F0004F19BF9D
:10558000574F584E584F594EDAE74FF07C5838462F
:10559000FAF7ECFD074651463046FAF7E7FD0646B6
:1055A00041462846FAF73AFE2146FAF7DFFD8246E1
:1055B00021464046FAF732FE2946FAF72CFE5146BC
:1055C00000E037E0FAF75CFE044604E02146284696
:1055D000FAF756FE04460146FAF720FE8046444993
:1055E000FAF71CFE4349FAF7C1FD4146FAF716FEE9
:1055F0004149FAF7BBFD4146FAF710FE3F49FAF779
:10560000B5FD4146FAF70AFE3D49FAF7AFFD0546FA
:1056100041462046FAF702FE2946FAF7FFFD3146D9
:10562000FAF7A4FD2146FAF7A1FD3946BDE8F04797
:10563000FAF79CBD4FF07F42B2EB400F28BFB2EBB0
:10564000410F03D2BDE8F047FFF7B4BD40EA0103C4
:105650005B0008BF44F0FF410AD0B2EB400F08BF27
:10566000B2EB410F06D125F0804024F08041054681
:105670000C4629E7B2EB400F12BF5FEA410245F04A
:10568000FF4004F000413FF41FAF4A0092EA40039C
:105690003FF51AAF002AACBF4FF09F464FF03E5681
:1056A0003146FAF7BBFD054631462046FAF7B6FD0E
:1056B00004462846214607E7DB0FC9BFDB0FC93F79
:1056C000DB0F4940DB0F49C00000C9BF22AAFDB96A
:1056D0000000C93F22AAFD390060ED3EC30ACE3763
:1056E000000049C022AA7DBA0000494022AA7D3AA2
:1056F0002DAD65BD8FB8D53D0FB511BE61C84C3E0F
:10570000A8AAAABE2DE9F843044602464F486946B6
:10571000B0EB420F09D94FF0E640B0EB420F94BF17
:1057200000204FF0FF30009030E0494B22F0004065
:10573000834271D947492046FAF770FDFAF74AFFCC
:105740008046FAF76CFE00F00300009042494046A4
:10575000FAF764FD054641494046FAF75FFD064603
:105760003F494046FAF75AFD07463E494046FAF798
:1057700055FD2146FAF74FFD3946FAF749FD314606
:10578000FAF746FD2946FAF743FD04462546009CF4
:10579000002C45DB294614F0010F08461CD0FAF70F
:1057A0003DFD06463049FAF739FD3049FAF733FD39
:1057B0003146FAF733FD2E49FAF7D8FC3146FAF7AD
:1057C0002DFD2946FAF72AFD2946FAF7CFFC14F0F9
:1057D000020F1CD0BDE8F883FAF720FD05462549E5
:1057E000FAF71CFD2449FAF7C1FC2946FAF716FD21
:1057F0002249FAF7BBFC2946FAF710FD4FF07E511B
:10580000FAF7B4FC14F0020F08BFBDE8F88380F08B
:105810000040BDE8F883FFE71046FFF7D7FCB4E788
:105820006800B0F17F4F3CBF4FF07E50BDE8F88379
:1058300007D14FF00100FFF78DFDBDE8F843FFF7FA
:10584000BBBC2846BDE8F843FFF7B1BCB61F927E4B
:10585000490E494683F9223F1A61342C0020A233B5
:1058600000A0FD390000C93F336D4C39DA82083C95
:10587000A0AA2ABEB93AB2BACA9F2A3DDDFFFFBE2E
:1058800070B504460D46E1B20548FFF753FB00BF73
:1058900080210348FFF785FA0028F9D0204670BD23
:1058A000003801402DE9F04704464FF07C51204676
:1058B000FAF7B4FC814625462E460C48A0EB660656
:1058C000354629464846FAF7A9FC82462946FAF7A2
:1058D000A5FC80464FF07F51FAF79DFC074629460C
:1058E000FAF79CFC05462846BDE8F087865A375FE4
:1058F000FEF7D6FD01E0FFF7B3F9FCE72DE9F84329
:105900000446024652486946B0EB420F09D94FF0AF
:10591000E640B0EB420F94BF00204FF0FF30009004
:1059200030E04C4B22F00040834271D94A49204676
:10593000FAF774FCFAF74EFE8046FAF770FD00F0B5
:105940000300009045494046FAF768FC0546444983
:105950004046FAF763FC064642494046FAF75EFCC9
:10596000074641494046FAF759FC2146FAF753FCED
:105970003946FAF74DFC3146FAF74AFC2946FAF760
:1059800047FC04462546009C002C45DB294614F0C4
:10599000010F08461ED0FAF741FC05463349FAF7D5
:1059A0003DFC3349FAF7E2FB2946FAF737FC314967
:1059B000FAF7DCFB2946FAF731FC4FF07E51FAF793
:1059C000D5FB14F0020F08BFBDE8F88380F000405B
:1059D000BDE8F883FAF722FC06462749FAF71EFCD1
:1059E0002649FAF718FC3146FAF718FC2449FAF769
:1059F000BDFB3146FAF712FC2946FAF70FFC29469F
:105A0000FAF7B4FB14F0020FE0D1BDE8F883FFE72A
:105A10001046FFF7DBFBB4E76800B0F17F4F09D217
:105A20002846FFF7B1FB042808BFFFF7C9FB28464B
:105A3000BDE8F88306D10120FFF78CFCBDE8F843F0
:105A4000FFF7BABB2846BDE8F843FFF7B0BB00003C
:105A5000B61F927E490E494683F9223F1A61342CC3
:105A60000020A23300A0FD390000C93FB93AB2BA04
:105A7000CA9F2A3DDDFFFFBE336D4C39DA82083CF8
:105A8000A0AA2ABE70B50546FAF742FE044620F0E9
:105A90000040C0F1FF40C00F08D025F00040C0F129
:105AA000FF40C00F04BF0120FFF754FC204670BD2B
:105AB00070B505460E4600240CE0295D0748FFF747
:105AC00039FA00BF40210548FFF76BF90028F9D0EB
:105AD000601CC4B2B442F0DB70BD0000003801406D
