:020000040800F2
:10000000E00F002001010008090100080B010008B1
:100010000D0100080F010008110100080000000098
:1000200000000000000000000000000013010008B4
:100030001501000800000000170100081901000860
:100040001B0100081B0100081B0100081B01000820
:100050001B0100081B0100081B0100081B01000810
:10006000752200081B0100081B0100081B01000885
:100070001B0100081B0100081B0100081B010008F0
:100080001B0100081B0100081B0100081B010008E0
:100090001B0100081B0100081B0100081B010008D0
:1000A0001B0100081B0100081B0100081B010008C0
:1000B0001B0100081B010008C54B00081B010008BC
:1000C0001B0100081B0100081B0100081B010008A0
:1000D0001B010008DD5300081B0100081B0100087C
:1000E0001B0100081B0100081B010008DFF80CD0F1
:1000F00000F05AFB00480047AD5F0008E00F002009
:100100000648804706480047FEE7FEE7FEE7FEE7B1
:10011000FEE7FEE7FEE7FEE7FEE7FEE7FD4A000832
:10012000ED0000080649074A0868504343F23902C7
:10013000104408604008704701490860704700009B
:10014000F00200206D4EC64140EA01039B0703D038
:1001500009E008C9121F08C0042AFAD203E011F806
:10016000013B00F8013B521EF9D27047F0B480EA1F
:100170000102D40F4200B2EB410F02D20246084600
:1001800011464A0042D0C30DDDB2C1F3C752AD1AC9
:10019000202D35DAC1F3160141F4000204B15242B8
:1001A000C5F1200602FA06F12A411044B3EBD05FF4
:1001B00023D0C4B1012DA0EBC35009DCF0BC4FF03B
:1001C000004202EAC352DBB200F5000000F036BA8A
:1001D000400000F1807000EBC350A0F1807040EA55
:1001E000D170490009E0490841EAC071A0EBC35051
:1001F00000F50000400800EBC350F0BC00F015BA59
:100200006142012202EB4101001BF6E7F0BC70479E
:1002100081F00041AAE780F00040A7E780EA0102F0
:1002200010B502F00043400022D04A001FD0010E5A
:1002300001EB1261C0F35600C2F3560240F4000015
:1002400042F40002A0FB022000047F39140400D015
:10025000401C50EA124001D44000491EC2B20C06B4
:1002600004EBD010401C4008802A02D003E000209C
:1002700010BD20F00100002900DA0020184310BD55
:1002800030B480EA010202F0004530F0004221F073
:10029000004013D090B1C30DD40DC2F31601C0F3CA
:1002A0001600E41A41F4000140F400027D3491424A
:1002B00001D3641C00E04900002C02DA30BC0020AD
:1002C00070474FF400000023914201D3891A034381
:1002D00040084FEA4101F7D151B1914202D14FF0AC
:1002E000004105E002D24FF0010101E06FF0010191
:1002F00003EBC450284430BC00F097B92DE9FE4F01
:1003000081EA030404F0004421F0004100944FF01E
:10031000000B23F0004350EA01045ED052EA0304CC
:100320005BD0C3F30A54C1F30A552C44A4F2F3344E
:100330000194A0FB0254C1F3130141F48011C3F3F3
:10034000130343F4801301FB024400FB034E840AB1
:10035000970A44EA815447EA8357A4FB0768029549
:100360008D0A05FB07854FEA932C04FB0C542705E7
:10037000029D4FEA065847EA1637B5EB08056EEBC3
:10038000070C870E920E47EA811742EA8312A7FBF9
:100390000201B6EB0B0164EB00042B0D43EA0C33B6
:1003A0005E1844EB1C50DA465146E7FB0201C5F3E8
:1003B00013044FEA0B3343EA14534FEA0432019C0F
:1003C00043EA0603A4F10C040294009CCDE900B4B6
:1003D00000F09BF903B0BDE8F08F00200146F9E77B
:1003E0002DE9F04D81EA030404F0004B21F00045B3
:1003F00014464FF0000A23F0004150EA050220D0D5
:1004000054EA01021DD0C5F30A570246C5F313038F
:10041000C1F31300C1F30A5640F4801543F480136E
:10042000A7EB0608101BD64608F2FD3873EB050053
:1004300002D308F1010801E092185B41B8F1000F06
:1004400003DA00200146BDE8F08D00204FF4801152
:10045000064684460EE0171B73EB050705D3121BF7
:1004600063EB050306434CEA010C49084FEA3000F0
:1004700092185B4150EA0107EDD152EA030012D015
:1004800082EA040083EA0501084305D0101BAB4152
:1004900006D20122002306E000224FF0004302E0D2
:1004A0006FF0010253101AEB06004CEB085110EBF1
:1004B0000A0041EB0B01BDE8F04D00F017B9C10F88
:1004C00080EAE0700844CA079623002100F0B6B81D
:1004D00096230022114600F0B1B80EB5C10F80EA94
:1004E000E0700844CA07002140F233438DE80E0053
:1004F0000A460B4600F009F903B000BD00F00042C7
:1005000020F00040C10DC0F3160040F400007F2928
:1005100001DA00207047962903DCC1F19601C8403A
:1005200001E096398840002AF4D04042704720F01C
:100530000040C10DC0F3160040F400007F2901DA2D
:1005400000207047962903DCC1F19601C84070472E
:1005500096398840704700F0004230F000400AD0E1
:10056000C10D01F56071C0F3160042EA0151C208E5
:1005700040071143704700200146704730B5041E04
:1005800071F1000404DB4FF00044404264EB0101D0
:10059000141E73F1000405DB1C464FF00043524269
:1005A00063EB04038B4208BF824230BD01F000437D
:1005B00030B421F0004150EA010206D00A0DA2F544
:1005C0006072C1F31301002A02DC30BC00207047C6
:1005D000440F44EAC104C100E01830BC00EBC25033
:1005E00000F023B8002801DBC0F10040002901DB46
:1005F000C1F1004181427047002801DBC0F1004099
:10060000002901DBC1F1004188427047202A04DB48
:10061000203A00FA02F1002070479140C2F1200315
:1006200020FA03F31943904070470029A8BF704790
:10063000401C490008BF20F00100704710B4B0FA18
:1006400080FC00FA0CF050EA010404BF10BC7047B3
:1006500049B1CCF1200421FA04F411FA0CF118BFCD
:10066000012121430843A3EB0C01CB1D4FEA00619C
:100670004FEA102042BF002010BC704700EBC3506F
:1006800010440029A4BF10BC7047401C490008BF9B
:1006900020F0010010BC7047420005D0C0F3C752E3
:1006A0005242914201DC0020704700EBC15070477C
:1006B00010B541000CD0C0F3C751962908DC7E2943
:1006C00009DC06DB410204D000F0004040F07E501F
:1006D00010BD002010BDC1F19604C4F1200100FA44
:1006E00001F1E040FFF7A1FFA04010BD10B5141EBE
:1006F00073F1000408DA401C41F1000192185B41DB
:100700001A4301D120F0010010BD2DE9F04D9246B1
:100710009B4611B1B1FA81F202E0B0FA80F22032C8
:100720009046FFF773FF04460F4640EA0A0041EA8D
:100730000B0153465A46084313D0114653EA0100B1
:1007400019D0C8F14002504600F040F805460E4668
:10075000504659464246FFF759FF084305D001204D
:1007600004E020463946BDE8F08D0020054346EA06
:10077000E0762C4337430A986305E40AA0EB0800AF
:100780000022FD0A44EA47540A3002D500200146FF
:10079000E9E7010510196941DDE9084500196941DA
:1007A000BDE8F04DA2E70000064C074D06E0E0680A
:1007B00040F0010394E8070098471034AC42F6D3A8
:1007C000FFF798FCE861000808620008202A04DBB3
:1007D000203A21FA02F00021704721FA02F3D040BA
:1007E000C2F120029140084319467047F0B4002836
:1007F00002DCF0BC00207047C0F3C751C0F3160004
:1008000040F40000CA0701D14000491E3F2202EB1C
:100810006105002211464FF4000626FA01F3134445
:10082000D418844201D8001B1A464000491C1729DD
:10083000F3DD5100814202D24FF0FF3100E0002190
:1008400002EBC550F0BCFFF7F0BE70B58C1810F885
:10085000015B15F0070301D110F8013B2A1106D105
:1008600010F8012B03E010F8016B01F8016B5B1E1F
:10087000F9D12B0705D40023521E0DD401F8013BFA
:10088000FAE710F8013BCB1A921C03E013F8015B66
:1008900001F8015B521EF9D5A142D8D3002070BDEA
:1008A00021B1826842F00102826003E0826822F096
:1008B000010282607047000030B50246002000232C
:1008C00050680F4C20400D790C6844EA0524204301
:1008D000506090680B4C2040D1E902542C434D7974
:1008E00044EA450420439060D06A20F470000C7CF8
:1008F000641EE4B2234340EA0350D06230BD0000DE
:10090000FFFEF0FFFDF7F1FFF0B504460D460020B5
:100910000021092D11DDE068A5F10A0606EB460766
:10092000072606FA07F18843A5F10A0606EB4606F4
:1009300003FA06F10843E0600CE0206905EB450787
:10094000072606FA07F1884305EB450603FA06F188
:1009500008432061072A0FDA606B561E06EB8607F4
:100960001F2606FA07F18843561E06EB860605FA8F
:1009700006F10843606322E00D2A0FDA206BD61FD0
:1009800006EB86071F2606FA07F18843D61F06EBFB
:10099000860605FA06F10843206310E0E06AA2F13A
:1009A0000D0606EB86071F2606FA07F18843A2F11B
:1009B0000D0606EB860605FA06F10843E062F0BD77
:1009C0002DE9F04F87B0C0480078401CBE49087040
:1009D000BE480078401CBD490870BD480078401CE6
:1009E000BB490870BB480078401CBA490870BA4837
:1009F0000078401CB8490870B3480078372805DBF8
:100A00000020B14908700120B4494870AF4800780F
:100A1000052805DB0020AD4908700120AF4988702A
:100A2000AB480078142805DB0020A9490870012094
:100A3000AA49C870A7480078232805DB0020A549EB
:100A400008700120A5490871A34800783C2805DBFF
:100A50000020A14908700120A04948719F484078B2
:100A600078B100209D4948709D48007800219D4B39
:100A7000CDE900109A6859681868002300F092FECA
:100A80001FE19648807800286DD000209349887037
:100A900095498868FFF732FD0FFA80FB5846FFF74B
:100AA0000EFD82469149FFF7B9FB8146FFF726FD0F
:100AB00004B28D494868FFF721FD0FFA80FB5846C4
:100AC000FFF7FDFC82468949FFF7A8FB8146FFF747
:100AD00015FD05B284490868FFF710FD0FFA80FB89
:100AE0005846FFF7ECFC82468049FFF797FB8146AA
:100AF000FFF704FD06B27E498868FFF7FFFC07B2E6
:100B00007B494868FFF7FAFC0FFA80F878490868D3
:100B1000FFF7F4FC00B206900020029003900490CE
:100B200033463A464146CDE900540590069800F018
:100B30007BFD6D4988686D49FFF770FB04466D4881
:100B4000006B6C49C96A6B4A926A6A4BDB68CDE9F3
:100B50000032CDE902106848036BC26A816A204600
:100B600001F0A6F9ADE05D48C07818B100205B49FE
:100B7000C870A6E05948007918B10020574908719B
:100B80009FE05648407988B10020544948715B493C
:100B900088685B49FFF742FB0546FFF7C8FC84B253
:100BA0004FF4E471204600F0F5FC8AE04B48807970
:100BB000D0B10020494988714F4881684268006877
:100BC000504B9B68CDE90230CDE904214D48406887
:100BD0004C490968CDE900104B48836842680168B8
:100BE000012000F0D1FB6CE03C48C079E0B100206E
:100BF0003A49C8713F4880683E4949683D4A126891
:100C0000424B9B68CDE90232CDE904103F48406871
:100C10003E490968CDE900103D4883684268016893
:100C2000022000F0B1FB4CE02C48007AB8B1002063
:100C30002A490872002137488068CDE902010491F1
:100C400034480591406833490968CDE900103248BD
:100C5000836842680168032000F096FB31E01F487A
:100C6000407A70B300201D4948722C482C498A07ED
:100C70002C4BCDE90232CDE904102B482B4902461A
:100C8000CDE90010012000F07FFB0020284ACDE9CB
:100C90000202049005902748274900230246CDE927
:100CA0000010022000F070FB0020029003900490DE
:100CB000059000900346024601460190032000F093
:100CC00063FB07B0BDE8F08FB1020020B202002044
:100CD000B3020020B4020020B5020020720B0020F5
:100CE000AD0200208C08002098080020A34C65422B
:100CF000B0080020CC090020800A0020E401002078
:100D00000000C842440A0020080A00209009002080
:100D100054090020F80A0020BC0A00207B142E3F52
:100D2000CDCC4C3D5C8FC23E295C0F3D6666263FB4
:100D30000000A0400AD7233C9A9919402DE9F05FA2
:100D400004460D460026B14607E014F80900304479
:100D5000C6B209F1010000F0FF09681E4845F4DC45
:100D6000601910F8010CB04201D0BDE8F09F207866
:100D7000AA2802D16078AF2800D0F6E7A078012831
:100D80003ED1207901280AD1FE48007840F00200C7
:100D9000FC4908700020FC49088048808880207940
:100DA00002280AD1F748007840F00100F5490870A0
:100DB0000020F649088048808880207903280AD1DD
:100DC000F048007840F00200EE49087008460078CC
:100DD00040F001000870207904280FD1EC48007819
:100DE00080F00100EA4908700846007818B1012037
:100DF000E849087002E00020E649087002F006FEAB
:100E0000A078022812D12079012803D1E249887103
:100E1000C87108722079A02802D10120DE4908702B
:100E20002079A12802D10120DB494872A07810283E
:100E30007ED12179090209B2627941EA0200FFF705
:100E40004CFB8246D54AD64BFFF758FA0746FFF7C8
:100E5000ADFBD4490860A179090209B2E27941EAFF
:100E60000200FFF73AFB8246CC4ACD4BFFF746FA29
:100E70000746FFF79BFBCB494860217A090209B27C
:100E8000627A41EA0200FFF728FB8246C34AC44B5C
:100E9000FFF734FA0746FFF789FBC2498860A17A59
:100EA000090209B2E27A41EA0200FFF716FB824624
:100EB000BA4ABB4BFFF722FA0746FFF777FBBA495E
:100EC0000860217B090209B2627B41EA0200FFF758
:100ED00004FB8246B14AB24BFFF710FA0746FFF710
:100EE00065FBB1494860A17B090209B2E27B41EA96
:100EF0000200FFF7F2FA8246A84AA94BFFF7FEF973
:100F00000746FFF753FBA8498860217C090209B214
:100F1000627C41EA0200FFF7E0FA82469F4AA04B5A
:100F2000FFF7ECF90746FFF741FBA049086000E036
:100F300029E0A17C090209B2E27C41EA0200FFF744
:100F4000CCFA8246954A964BFFF7D8F90746FFF749
:100F50002DFB96494860217D090209B2627D41EA74
:100F60000200FFF7BAFA07468C4A8D4BFFF7C6F925
:100F70008246FFF71BFB8D498860A078314600F060
:100F8000D7F902F043FDA07811287DD1217909021B
:100F900009B2627941EA0200FFF79FFA07467F4AE9
:100FA0007F4BFFF7ABF98246FFF700FB80490860F3
:100FB000A179090209B2E27941EA0200FFF78DFA4C
:100FC0008246764A764BFFF799F90746FFF7EEFA25
:100FD00077494860217A090209B2627A41EA02003F
:100FE000FFF77BFA82466D4A6D4BFFF787F907469C
:100FF000FFF7DCFA6E498860A17A090209B2E27A49
:1010000041EA0200FFF769FA0746644A644BFFF7BA
:1010100075F98246FFF7CAFA66490860217B090222
:1010200009B2627B41EA0200FFF757FA07465B4AC2
:101030005B4BFFF763F98246FFF7B8FA5D494860FA
:10104000A17B090209B2E27B41EA0200FFF745FAFF
:101050008246524A524BFFF751F90746FFF7A6FA6C
:1010600054498860217C090209B2627C41EA02008D
:10107000FFF733FA8246494A494BFFF73FF90746E3
:10108000FFF794FA4C4900E02AE00860A17C0902CD
:1010900009B2E27C41EA0200FFF71FFA07463F4A25
:1010A0003F4BFFF72BF98246FFF780FA4249486031
:1010B000217D090209B2627D41EA0200FFF70DFAC3
:1010C0000746364A364BFFF719F98246FFF76EFAA4
:1010D00039498860A078314600F02AF902F096FC80
:1010E000A07812286ED12179090209B2627941EA09
:1010F0000200FFF7F2F90746284A294BFFF7FEF8EE
:101100008246FFF753FA2D490860A179090209B216
:10111000E27941EA0200FFF7E0F907461F4A204B57
:10112000FFF7ECF88246FFF741FA24494860217A3C
:10113000090209B2627A41EA0200FFF7CEF90746D6
:10114000164A174BFFF7DAF88246FFF72FFA1B49CA
:101150008860A17A090209B2E27A41EA0200FFF747
:10116000BCF907460D4A0E4BFFF7C8F88246FFF759
:101170001DFA13490860217B090209B2627B41EA2A
:10118000020020E0200200200E02002008020020C1
:10119000B0020020AD020020720B0020FCA9F1D2A9
:1011A0004D62503F080A0020440A0020800A0020B7
:1011B0005409002090090020CC090020BC0A00201E
:1011C000F80A002023E0FFF788F907461B4A1C4B6A
:1011D000FFF794F88246FFF7E9F91A494860A17BC6
:1011E000090209B2E27B41EA0200FFF776F90746FD
:1011F000124A134BFFF782F88246FFF7D7F91149DD
:101200008860A078314600F093F802F0FFFBA078E8
:10121000132803D1A078314600F08AF8A07814286A
:1012200003D1A078314600F083F8A078152803D1C7
:10123000A078314600F07CF800BF96E5FCA9F1D219
:101240004D62503FF80A002010B50446344800783B
:1012500038B9AA2C05D101203149087031480470F1
:101260005DE02F480078012807D1AF2C05D102207E
:101270002B4908702B48447051E029480078022817
:1012800007D1F12C05DA0320254908702548847020
:1012900045E02348007803280CD1322C0ADA0420D8
:1012A0001F4908701F48C4701F48047000201F4960
:1012B000087034E01A480078042819D11A480078D8
:1012C000002815DD18480078401E17490870174897
:1012D000007816490978491C144A1170001D1149FB
:1012E0000C5411480078D0B905200D49087016E05B
:1012F0000B48007805280FD10020094908700B48D9
:101300000078001D07490C5408480078401DC1B200
:101310000448FFF713FD02E000200149087010BDEA
:10132000B8020020AE0B0020B6020020B702002059
:101330002DE9F04105460E460027AA200D49087008
:101340004870EF2088700220C87008460571467109
:10135000002405E00748005D3844C7B2601CC4B2F1
:10136000062CF7DB03488771072100F005F8BDE87C
:10137000F08100007C0B002070B504460D46294624
:10138000204604F0F7FE70BD2DE9FC5F06460F46CF
:1013900090469946DDF830B00024A246AA222146A4
:1013A000641C7A4842542146641C425406F10F00E2
:1013B000C2B22146641C7548425400222146641C76
:1013C000425473493846FEF729FF0090FFF796F81C
:1013D00000B201909DF805202146641C6B484254E0
:1013E0009DF804202146641C425469494046FEF79A
:1013F00015FF0090FFF782F800B201909DF80520DC
:101400002146641C614842549DF804202046611C1A
:10141000CCB25E490A545E494846FEF7FFFE009092
:10142000FFF76CF800B201909DF805202046611C82
:10143000CCB256490A549DF804202046611CCCB217
:1014400052490A5452495846FEF7E8FE0090FFF709
:1014500055F800B201909DF805202046611CCCB2E1
:101460004A490A549DF804202046611CCCB24749E1
:101470000A5447490D98FEF7D1FE0090FFF73EF859
:1014800000B201909DF805202046611CCCB23F4976
:101490000A549DF804202046611CCCB23B490A54F2
:1014A0003B490E98FEF7BAFE0090FFF727F800B20E
:1014B00001909DF805202046611CCCB233490A54A6
:1014C0009DF804202046611CCCB230490A543049B2
:1014D0000F98FEF7A3FE0090FFF710F800B20190FE
:1014E0009DF805202046611CCCB228490A549DF87D
:1014F00004202046611CCCB224490A542449109887
:10150000FEF78CFE0090FEF7F9FF00B201909DF807
:1015100005202046611CCCB21C490A549DF80420C9
:101520002046611CCCB219490A5419491198FEF79A
:1015300075FE0090FEF7E2FF00B201909DF80520D5
:101540002046611CCCB211490A549DF80420204663
:10155000611CCCB20D490A54201FC870002506E05A
:101560000A48405D504400F0FF0A681CC5B2A5421D
:10157000F6DB2046611CCCB2044901F800A02146EC
:101580000248FFF7F9FEBDE8FC9F00007C0B00203D
:1015900000007A442DE9F84306460F460024A04691
:1015A000AA222146641C1F4842542146641C42540E
:1015B00005222146641C425400222146641C4254E8
:1015C00000969DF801202146641C42549DF800209D
:1015D0002146641C425400979DF801202146641C5A
:1015E00042549DF800202046611CCCB20D490A549B
:1015F000201FC870002506E00A48405D404400F006
:10160000FF08681CC5B2A542F6DB2046611CCCB2BF
:10161000044901F8008021460248FFF7ADFEBDE80D
:10162000F88300007C0B00202DE9F84F06460F469A
:1016300090469946DDF828B00024A246AA22214609
:10164000641C574842542146641C425402222146DD
:10165000641C425400222146641C425400969DF8AA
:1016600001202146641C42549DF800202146641C40
:10167000425400979DF801202146641C42549DF875
:1016800000202046611CCCB245490A54CDF80080A8
:101690009DF801202046611CCCB241490A549DF8B6
:1016A00000202046611CCCB23D490A54CDF8009080
:1016B0009DF801202046611CCCB239490A549DF89E
:1016C00000202046611CCCB235490A54CDF800B048
:1016D0009DF801202046611CCCB231490A549DF886
:1016E00000202046611CCCB22D490A540B98009072
:1016F0009DF801202046611CCCB229490A549DF86E
:1017000000202046611CCCB225490A540C98009058
:101710009DF801202046611CCCB221490A549DF855
:1017200000202046611CCCB21D490A540D9800903F
:101730009DF801202046611CCCB219490A549DF83D
:1017400000202046611CCCB215490A540E98009026
:101750009DF801202046611CCCB211490A549DF825
:1017600000202046611CCCB20D490A54201FC870CD
:10177000002506E00A48405D504400F0FF0A681C5E
:10178000C5B2A542F6DB2046611CCCB2044901F883
:1017900000A021460248FFF7EFFDBDE8F88F0000EA
:1017A0007C0B00202DE9FE4F82460E4617469846D8
:1017B000DDF830B00024A146CDF80480AA222146ED
:1017C000641C484842542146641C4254012221466C
:1017D000641C425400222146641C42544249504633
:1017E000FEF71CFD0090FEF789FE00B202909DF806
:1017F00009202146641C3B4842549DF8082021469C
:10180000641C425438493046FEF708FD0090FEF74C
:1018100075FE00B202909DF809202146641C3148F3
:1018200042549DF808202146601CC4B22D48425401
:101830002D493846FEF7F2FC0090FEF75FFE00B23D
:1018400002909DF809202046611CCCB225490A541B
:101850009DF808202146601CC4B2224842549DF8DD
:1018600007202046611CCCB21E490A549DF8062070
:101870002046611CCCB21B490A549DF80520204625
:10188000611CCCB217490A549DF804202146601C03
:10189000C4B2144842542046611CCCB2114901F82C
:1018A00000B02146621CD4B20E4A0D985054201F3D
:1018B0001146C870002506E00A48405D484400F023
:1018C000FF09681CC5B2A542F6DB2046611CCCB2FC
:1018D000044901F8009021460248FFF74DFDBDE89C
:1018E000FE8F00007C0B00200000C8422DE9FE4F57
:1018F00004460F4615464FF00008C146C246002078
:10190000029001900090B4F9000040F2DC5188424E
:101910000CDD75487549097850F8210000F2DC505B
:101920007149724A127841F822001EE0B4F90000B1
:101930006F4988420CDA6C486C49097850F82100EC
:10194000A0F2DC506849694A127841F822000CE0A4
:1019500065486649097850F82100B4F90010084438
:101960006149624A127841F82200B4F9020040F25B
:10197000DC5188420CDD5F485C49097850F8210051
:1019800000F2DC505B49594A127841F822001EE00F
:10199000B4F90200564988420CDA5648534909788E
:1019A00050F82100A0F2DC505249504A127841F818
:1019B00022000CE04F484D49097850F82100B4F955
:1019C000021008444B49494A127841F82200B4F900
:1019D000040040F2DC5188420CDD47484349097855
:1019E00050F8210000F2DC504349404A127841F897
:1019F00022001EE0B4F904003D4988420CDA3E485A
:101A00003A49097850F82100A0F2DC503A49374AA7
:101A1000127841F822000CE037483449097850F830
:101A20002100B4F9041001443348304A127840F8D8
:101A30002210B4F900002C492C4A127841F82200F7
:101A4000B4F902002B49294A127841F82200B4F96E
:101A500004002949254A127841F82200B4F900000F
:101A60000290B4F902000190B4F9040000901F48FC
:101A70000078401C1D49087008460078A84204DA26
:101A80001E48007808B1BDE8FE8F00201B49087091
:101A900000260CE0144850F826008044154850F801
:101AA00026008144144850F826008244761CAE4239
:101AB000F0DB0E480078A84202DB00200B490870DA
:101AC00098FBF5FB5846FEF7FAFC386099FBF5FBEE
:101AD0005846FEF7F4FC78609AFBF5FB5846FEF793
:101AE000EEFCB86000BFCEE7FC06002044020020F8
:101AF00024FAFFFF4C0700209C070020450200202D
:101B000000B50948007868B10848007828B100207D
:101B10000649087002F0D0FA04E001200349087079
:101B200002F0BDFA00BD0000F8010020DD01002038
:101B300000B587B001214FF4017002F021FA4FF493
:101B4000004002F001FA0220ADF8180000208DF8E4
:101B50001B0006A9104800F019FD00200190049018
:101B600001208DF8140000208DF808004FF460204B
:101B7000039000208DF8090001A90848FEF79CFE9B
:101B800001210648FEF78CFE072301221146034877
:101B9000FEF7BAFE07B000BD000801400024014076
:101BA00010B5044628480078C007B0EBC47F0FD0BA
:101BB00004F0010038B101202449087002F05AFAFB
:101BC00002F06DFA04E000202049087002F067FA84
:101BD0001D48007800F0020004F0020188420FD096
:101BE00004F0010038B101201849087002F042FAEF
:101BF00002F055FA04E000201449087002F04FFA90
:101C000004F0040028B11248007840F001001049A7
:101C100008700D48007800F0080004F008018842C0
:101C20000FD004F0080030B10948007840F04000BF
:101C30000749087005E00648007820F04000044994
:101C400008700148047010BDC4020020AD020020DD
:101C5000200200202DE9F04F87B005460E461446BD
:101C600099462868049068680590A8680690B4F9B9
:101C70000010A1F2DC50FEF722FC07467C49FEF77B
:101C8000FFFA0190B4F90210A1F2DC50FEF717FC44
:101C900007467749FEF7F4FA0290B4F9061040F2CD
:101CA000DC52501AFEF70BFC07467249FEF7E8FAC1
:101CB00003907148007810B9002003900CE003985D
:101CC000FEF749FC21F00041074600226B4BFEF76E
:101CD00055FC01D20020039069480078C0F38010C1
:101CE00018B104A901A803F065FD6648049A01999A
:101CF00001F0DCFD6448059A029901F0D7FD6349C3
:101D00007068FEF78BFA07465E483A46416B6048BA
:101D100001F0CCFD5D493068FEF780FA80F00047A5
:101D200059483A46416B5B4801F0C0FD5749B068DD
:101D3000FEF774FA0746584A11680398FEF76EFAE0
:101D400080463A464146554801F0B0FDB4F90400DA
:101D5000B42863DDB9F1000F60D0B4F90400FEF7D8
:101D6000AEFB82464A48416B5046FEF751FA804628
:101D70004848416B4046FEF74BFA07464748416BDF
:101D80003846FEF7F3F946490860B4F90400FEF757
:101D900096FB82463E48416B5046FEF7E7F9804687
:101DA0003C48416B4046FEF733FA07463B48416BDF
:101DB0003846FEF72DFA3B490860B4F90400FEF7F7
:101DC0007EFB82463248416B5046FEF7CFF9804693
:101DD0003048416B4046FEF7C9F907462F48416B32
:101DE0003846FEF7C3F930490860B4F90400FEF73D
:101DF00066FB82462648416B5046FEF709FA80464C
:101E00002448416B4046FEF7B1F907462348416B31
:101E10003846FEF7FDF92549086008E00020204912
:101E200008602049086020490860204908601F4870
:101E30000068FEF763FB07B21B480068FEF75EFB15
:101E40000FFA80F817480068FEF758FB0FFA80FA7F
:101E500013480068FEF752FB0FFA80FB3B464246F0
:101E60005146584601F084FC07B0BDE8F08F0000F1
:101E70000000A04100002042AC0200200000104001
:101E8000200200205409002090090020A34C654244
:101E9000080A0020440A0020CC090020800A002003
:101EA0009C020020A0020020A4020020A802002022
:101EB0002DE9F84F06460F4690469946DDF828B0C2
:101EC0000024A246AA222146641C87484254214687
:101ED000641C4254F1222146641C425400222146D3
:101EE000641C425400969DF803202146641C425411
:101EF0009DF802202146641C42549DF80120214691
:101F0000641C42549DF800202046611CCCB27649E6
:101F10000A5400979DF803202046611CCCB27249F8
:101F20000A549DF802202146601CC4B26E484254F7
:101F30009DF801202046611CCCB26B490A549DF8E3
:101F400000202046611CCCB267490A54CDF80080BD
:101F50009DF803202046611CCCB263490A549DF8C9
:101F600002202046611CCCB25F490A549DF8012032
:101F70002046611CCCB25C490A549DF800202046E2
:101F8000611CCCB258490A54CDF800909DF803204A
:101F90002046611CCCB254490A549DF802202046C8
:101FA000611CCCB250490A549DF801202046611CA6
:101FB000CCB24D490A549DF800202046611CCCB299
:101FC00049490A54CDF800B09DF803202046611C11
:101FD000CCB245490A549DF802202046611CCCB27F
:101FE00041490A549DF801202046611CCCB23E496B
:101FF0000A549DF800202046611CCCB23A490A548C
:102000000B9800909DF803202046611CCCB2364905
:102010000A549DF802202046611CCCB232490A5471
:102020009DF801202046611CCCB22F490A549DF82E
:1020300000202046611CCCB22B490A540C98009019
:102040009DF803202046611CCCB227490A549DF814
:1020500002202046611CCCB223490A549DF801207D
:102060002046611CCCB220490A549DF8002020462D
:10207000611CCCB21C490A540D9800909DF80320B5
:102080002046611CCCB218490A549DF80220204613
:10209000611CCCB214490A549DF801202046611CF1
:1020A000CCB211490A549DF800202046611CCCB2E4
:1020B0000D490A54201FC870002506E00A48405DFB
:1020C000504400F0FF0A681CC5B2A542F6DB20466A
:1020D000611CCCB2044901F800A021460248FFF778
:1020E0004BF9BDE8F88F00007C0B002000201C4954
:1020F000088048808880C880088148814FF4E1606A
:1021000088810820C881322008824FF4E16048822B
:10211000082088823220C882002008834883888370
:1021200040F2A230C883052008844FF457704884D9
:1021300040F2A23088840520C8844FF45770088587
:102140004FF4FA604885322088854FF47A70C8854C
:102150000020088648868886C88608874887704792
:10216000340B002070B5FFF7C1FF3E242046E11775
:1021700004EB91718910A4EB8101091D09B10121C2
:1021800000E0002194FBF1F1CDB22A460249034858
:1021900002F05EFB70BD0000340B002000F8010867
:1021A00010B56FF0040002F095FC0A4800680A4977
:1021B000B0FBF1F0094908700846007800EB4001D7
:1021C000C1EBC0104FF6FF7101EAC000044908805E
:1021D00010BD0000DC02002000127A00DE010020A9
:1021E000E0010020014600224FF0E0231A610E4A70
:1021F00012884A435A6100229A611A46126942F0D3
:1022000001021A6100BF4FF0E022106900F00102E4
:102210001AB100F48032002AF5D000224FF0E023FA
:102220001A619A6170470000E00100200146002217
:102230004FF0E0231A610E4A12784A435A61002295
:102240009A611A46126942F001021A6100BF4FF00A
:10225000E022106900F001021AB100F48032002A75
:10226000F5D000224FF0E0231A619A617047000018
:10227000DE01002010B5042000F042F8002834D020
:102280001A48006840F4807018490860072002F07E
:10229000A1F9044604F0200050B10F2002F0F8F933
:1022A0002021272002F0D8F9FF21E12002F0D4F903
:1022B00004F0400040B10E4802F0F0F801F086FF53
:1022C0004021272002F0C8F904F0100050B10F207F
:1022D00002F0DEF91021272002F0BEF9FF21E120F3
:1022E00002F0BAF9042000F005F810BD140801400E
:1022F0001C030020014908607047000014040140DD
:10230000014600200022074B1B6803EA0102054B2F
:1023100014331B680B4013B10AB1012000E0002008
:102320007047000000040140002123498279002AFF
:102330003AD00A46126803689A430B461A600A1D8F
:10234000126803689A430B1D1A60027911440A68E7
:1023500003681A430A60184A0832126803689A43ED
:10236000154B08331A601A1D126803689A43124B02
:102370000C331A604279102A0ED11A1F12680368B2
:102380001A430D4B08331A601A1D126803681A436A
:10239000094B0C331A600DE00749427911440A6871
:1023A00003681A430A6005E0027911440A68036869
:1023B0009A430A6070470000000401400EB50121F5
:1023C000092001F0DDFD0221012000F0BFF804200A
:1023D000ADF8080048208DF80B0003208DF80A00A6
:1023E00002A9094800F0D2F80420009000208DF8DE
:1023F00004000C208DF8050001208DF806006846C9
:10240000FFF792FF0EBD0000000C014030B50446FE
:1024100004254FF4302000F085F80546042D17D12F
:102420000C48006940F002000A490861084644610E
:10243000006940F0400008614FF4302000F072F86D
:1024400005460448006941F6FD71084001490861EC
:10245000284630BD0020024004200B49C96801F025
:10246000010109B101200EE00749C96801F004012A
:1024700009B1022007E00449C96801F0100109B15F
:10248000032000E004207047002002400348006958
:1024900040F08000014908617047000000200240C0
:1024A00078B506460C46042500200090E80200F0AE
:1024B00039F80546042D24D11348006940F0010085
:1024C000114908613480E80200F02CF80546042D1B
:1024D00010D1B01C0090200C00990880E80200F098
:1024E00021F805460848006941F6FE710840064992
:1024F000086106E00448006941F6FE71084002499F
:102500000861284678BD00000020024002480349C7
:102510004860034848607047230167450020024037
:10252000AB89EFCD00B502460423FFF795FF0346C4
:1025300003E0FFF791FF0346521E012B01D1002A51
:10254000F7D102B90523184600BD000030B50022BE
:102550008B071C0F0F2303FA04F20B4B8C1053F85C
:1025600024309343084C8D1044F8253023468C10BA
:1025700053F824308C07240F00FA04F42343024C50
:102580008D1044F8253030BD080001402DE9F041A0
:10259000024600250026002000230024002791F891
:1025A00003C00CF00F0591F803C00CF0100CBCF147
:1025B000000F03D091F802C04CEA050591F800C065
:1025C000BCF1000F31D0146800202BE04FF0010C5B
:1025D0000CFA00F3B1F800C00CEA03069E4220D1C9
:1025E00083004FF00F0C0CFA03F7BC4305FA03FC11
:1025F0004CEA040491F803C0BCF1280F06D14FF057
:10260000010C0CFA00FCC2F814C00AE091F803C0F7
:10261000BCF1480F05D14FF0010C0CFA00FCC2F8D8
:1026200010C0401C0828D1D31460B1F800C0BCF120
:10263000FF0F34DD546800202EE000F1080C4FF04D
:10264000010808FA0CF3B1F800C00CEA03069E4238
:1026500021D183004FF00F0C0CFA03F7BC4305FAAD
:1026600003FC4CEA040491F803C0BCF1280F05D127
:1026700000F1080C08FA0CF8C2F8148091F803C0B5
:10268000BCF1480F07D100F1080C4FF0010808FA1F
:102690000CF8C2F81080401C0828CED35460BDE866
:1026A000F0814161704701617047000010B5402022
:1026B0000A49086001F0E6FD802008490860012011
:1026C000FFF7B4FD40200549091F08600220FFF70D
:1026D000ADFD40200149086010BD0000140C014010
:1026E00008B50121082001F04BFCC020ADF8000026
:1026F00010208DF8030003208DF80200694604487D
:10270000FFF744FFC0210248FFF7CDFF08BD0000DE
:10271000000C014010B540200A49086001F0B2FDEC
:1027200080200849091F08600120FFF77FFD402035
:102730000449091F08600120FFF778FD4020014986
:10274000086010BD140C014070B50546002401F06E
:1027500087FD002618E04020104908600120FFF79F
:1027600065FD40200D49091F08606006040E0B48F6
:102770000C380068C0F3C01008B1601CC4B201205E
:10278000FFF754FD701CC6B2082EE4DB15B1FFF74D
:102790008DFF01E0FFF7BEFF204670BD140C014025
:1027A00070B504460D46164600F086F8204600F047
:1027B00055F800F0B3F818B100F098F8012070BD9A
:1027C000284600F04BF800F0A9F800F075F8611CFD
:1027D000C8B200F043F800F0A1F80020FFF7B4FF02
:1027E000307000F083F80020E9E72DE9F047064655
:1027F0000F4615469846002400F05EF8304600F07B
:102800002DF800F08BF820B100F070F80120BDE841
:10281000F087384600F022F800F080F800F04CF81D
:10282000711CC8B200F01AF800F078F800240FE02C
:10283000681EA04204D00120FFF786FF814603E016
:102840000020FFF781FF814608F80490601CC4B2A5
:10285000AC42EDDB00F04AF80020D8E770B5044642
:1028600001F010FD40201349086000251EE004F02F
:10287000800020B180200F49091F086002E08020FD
:102880000C4908606006040E0120FFF7CFFC4020D1
:102890000849091F08600120FFF7C8FC40200549CE
:1028A00008600120FFF7C2FC681CC5B2082DDEDB02
:1028B00070BD0000140C014010B501F0E3FC802055
:1028C00009490860402008600420FFF7AFFC802021
:1028D0000549091D08600420FFF7A8FC40200249B3
:1028E000091D086010BD0000100C014010B501F07A
:1028F000C9FC402008490860802008600420FFF7D8
:1029000095FC40200449091F0860802008600420CD
:10291000FFF78CFC10BD0000140C014010B5002422
:1029200001F09EFC8020104908600120FFF77EFC2A
:1029300040200D4908600120FFF778FC07E0601C8B
:10294000C4B2FA2C03DDFFF7D1FF012010BD064809
:1029500008380068C0F3C0100028F0D140200249B8
:10296000091D08600020F1E7100C014070B5064613
:102970000C461546FFF7A0FF3046FFF76FFFFFF745
:10298000CDFF18B1FFF7B2FF012070BD2046FFF761
:1029900065FFFFF7C3FF2846FFF760FFFFF7BEFFA5
:1029A00018B1FFF7A3FF0120EFE7FFF79FFF00201B
:1029B000EBE7000007B5A8B02422FE491EA8FDF7EA
:1029C000C3FB299800681D90299840681C9029989D
:1029D00080681B90289800681A9028984068199081
:1029E000289880681890F44801680068FDF716FC84
:1029F0001090F2480168F0480068FDF70FFC0F9056
:102A0000EF480168EC480068FDF708FC0E90ED48BF
:102A10000168E9480068FDF701FC0D90E74801688E
:102A20000068FDF7FBFB0C90E5480168E34800688F
:102A3000FDF7F4FB0B90E3480168E0480068FDF700
:102A4000EDFB0A90DE4801680068FDF7E7FB09909E
:102A5000DC480168DA480068FDF7E0FB0890D948D7
:102A600001680068FDF7DAFB0790DDE91C10FDF74F
:102A7000D5FB05901B99FDF7D1FB00210690FDF7D2
:102A8000B1FD01D12BB000BD1B990846FDF7C6FB77
:102A900005901C990846FDF7C1FB03901D99084657
:102AA000FDF7BCFB02900399FDF760FB04900599CC
:102AB000FDF75CFB069003F053FA119011991D98F5
:102AC000FDF7ACFB1D9011991C98FDF7A7FB1C901E
:102AD00011991B98FDF7A2FB1B900E990A98FDF720
:102AE00097FB4FF080410690FDF798FB17900899EF
:102AF0000F98FDF73BFB4FF080410690FDF78EFBF2
:102B000016900C991098FDF783FB05900999FDF735
:102B10007FFB06900799FDF729FB159016991B98E6
:102B2000FDF77CFB069015991C98FDF777FB059047
:102B30000699FDF76DFB149015991D98FDF76EFB36
:102B4000069017991B98FDF769FB05900699FDF70C
:102B50005FFB139017991C98FDF760FB0690169980
:102B60001D98FDF75BFB05900699FDF751FB129050
:102B700095491498FDF752FB069094480168069811
:102B8000FDF7F4FA914908608F491398FDF746FB69
:102B900006908F4801680698FDF7E8FA8C490860AE
:102BA00089491298FDF73AFB06908A480168069811
:102BB000FDF7DCFA874908604FF07F501499FDF764
:102BC0002DFB05901A99FDF7D1FA06907F48016810
:102BD0000698FDF7CBFA1A904FF07F501399FDF746
:102BE0001DFB05901999FDF7C1FA06907848016818
:102BF0000698FDF7BBFA19904FF07F501299FDF738
:102C00000DFB05901899FDF7B1FA0690714801681F
:102C10000698FDF7ABFA18906A4818990068FDF716
:102C2000FDFA0490664819990068FDF7F7FA0290DA
:102C30006248006880F0004000901A99FDF7EEFAB3
:102C400001900299FDF7E4FA03900499FDF7E0FA88
:102C50005D490590FDF7E2FA06905748016806982D
:102C6000FDF784FA54490860564819990068FDF741
:102C7000D5FA0490524818990068FDF7CFFA0290EF
:102C80004D481A990068FDF7C9FA01900299FDF7BD
:102C90006DFA03900499FDF7BBFA4B490590FDF7D7
:102CA000BDFA0690454801680698FDF75FFA43496A
:102CB000086044481A990068FDF7B0FA04903F484C
:102CC00018990068FDF7AAFA02903B481999006824
:102CD000FDF7A4FA01900299FDF79AFA039004997E
:102CE000FDF744FA38490590FDF798FA0690344804
:102CF00001680698FDF73AFA3149086030481A9998
:102D00000068FDF78BFA04902C4819990068FDF7CC
:102D100085FA0290284818990068FDF77FFA01901B
:102D20000299FDF723FA03900499FDF771FA2649F9
:102D30000590FDF773FA0690224801680698FDF7A2
:102D400015FA20490860084601680068FDF766FA30
:102D500005901B4801680068FDF760FA039017486A
:102D600001680068FDF75AFA01901348016800688D
:102D7000FDF754FA00900199FDF7F8F902900399D4
:102D8000FDF7F4F904900599FDF7F0F9069003F0CA
:102D9000E7F81190084811990068FDF73FFA0649D5
:102DA0000860064811990068FDF738FA0349086081
:102DB000034811E0A46100085002002054020020E2
:102DC000580200205C0200200AD7A33B60020020CA
:102DD000640200206802002011990068FDF71EFAC5
:102DE0006A4908606A4811990068FDF717FA68494E
:102DF00008600C991098FDF7B9F905900999FDF74D
:102E000007FA06900799FDF703FA1E900D990B98A3
:102E1000FDF7ACF94FF080410690FDF7FFF91F90E8
:102E20000E990A98FDF7F4F94FF080410690FDF7EE
:102E3000F5F920900D990B98FDF7EAF94FF08041D4
:102E40000690FDF7EBF921900C991098FDF7E0F949
:102E500005900999FDF78AF906900799FDF7D8F9C9
:102E600022900F990898FDF781F94FF08041069064
:102E7000FDF7D4F923900E990A98FDF777F94FF0F2
:102E800080410690FDF7CAF924900F990898FDF744
:102E9000BFF94FF080410690FDF7C0F925900C99DD
:102EA0001098FDF7B5F905900999FDF7B1F906906D
:102EB0000799FDF75BF926902898806835490490BA
:102EC000FDF7ACF934490590FDF7A8F906902A986A
:102ED0008068014605900698FDF748F92A998860B0
:102EE0000E990A98FDF794F94FF080410490FDF790
:102EF00095F9059002F0A4FD28490690FDF78EF99A
:102F00002A9908600C991098FDF782F902900999A6
:102F1000FDF77EF903900799FDF728F905904FF02A
:102F200080400F99FDF77AF903904FF0804008999F
:102F3000FDF774F902900399FDF718F904900599CB
:102F400002F010FE15490690FDF768F92A994860CD
:102F500000F0ECF8124801682A98016011480168F5
:102F60002A984160002027900AE01EA9279851F86E
:102F700020100D4A42F820102798401CC0B227901C
:102F800027980928F1DB00BF7CE5000058020020EB
:102F90005C020020A34C65420AD7233C33336542D0
:102FA000900200208C020020E00800200E4A0A60F7
:102FB0000E4A4A600E4A8A600022CA600A618A612B
:102FC0000023CB610B624B62074A0260074A4260F2
:102FD0004FF0824282600022C26002618261C3615E
:102FE00003624362704700006F12833AA69B443B22
:102FF0008FC2F53C2DE9F04F87B004460E461746C8
:103000001D4638462169FDF703F96061284661696C
:10301000FDF704F98246E168FDF7A8F8E06028466C
:10302000616AFDF7FBF80090E169FDF7F1F80190A6
:10303000216AFDF7EDF883462168FDF797F82946E8
:103040000290FDF7EBF88246A169FDF78FF8A061C9
:103050002846616AFDF7E2F88246E169FDF7DBF890
:10306000E0612846616AFDF7D9F88246216AFDF7DA
:10307000D2F8206229466068FDF7D0F88246616A7E
:10308000FDF774F86062A168A069FDF76FF806901B
:10309000A0690699FDF7F4F80490206A0699FDF7F7
:1030A000EFF805903046E168FDF7B2F80390DDE9EE
:1030B0000310FDF7B3F88246E168FDF757F8E060CA
:1030C00003990598FDF7AAF882462169FDF74EF8A5
:1030D0002061D4F81880D4F81C9041460498FDF77C
:1030E0009DF88246A169FDF796F8A06149460498CB
:1030F000FDF794F88246E169FDF78DF8E0614146FD
:103100000598FDF78BF88246216AFDF784F8206266
:1031100049460598FDF782F88246616AFDF77BF81B
:103120006062E06807B0BDE8F08F00002DE9F05F55
:103130003E4A3F493F4800F06FF93F4A3F49404807
:1031400000F0A6F93E48B0F90000FDF7C6F90646C2
:1031500000223C4BFDF744F90446FDF727FA3A49B3
:1031600008603648B0F90000FDF7B7F906460022BE
:10317000344BFDF735F90446FDF718FA334908607A
:103180002A48B0F90000FDF79AF982462848B0F9BC
:103190000000FDF794F98346514602F0E3FC8146B6
:1031A0002B49FDF73BF80446FDF7D5F90746294AB8
:1031B000294BFDF715F90546FDF7F8F92749086091
:1031C0001A48B0F90000FDF77AF982461948B0F9BB
:1031D0000000FDF774F98346514602F0C3FC8146B6
:1031E0001B49FDF71BF80446FDF7B5F90746194AD8
:1031F000194BFDF7F5F80546FDF7D8F918490860B1
:10320000184B12480268154801681748FFF7F2FE8C
:1032100016490860134B0C480268114801681448AD
:10322000FFF7E8FE13490860BDE8F09F7402002034
:1032300072020020700200207A0200207802002032
:1032400076020020006060407C02002080020020A6
:1032500000003443182D4454FB210940840200200F
:10326000880200200AD7233C040900208C02002099
:103270002C0900209002002000B502490248FFF707
:1032800095FE00BD2C0900200409002008B501218D
:10329000082000F075FE4FF44070ADF800001020DB
:1032A0008DF8030003208DF8020069460648FFF7F9
:1032B0006DF94FF480710448FFF7F5F94FF4007190
:1032C0000148FFF7EEF908BD000C014010B50A48AF
:1032D000007840B10020084908704FF48071074819
:1032E000FFF7E1F906E001200349087001020348F5
:1032F000FFF7D7F910BD0000D9010020000C0140F4
:1033000000B589B001210D2000F03AFE0121022014
:1033100000F026FEC020ADF8200018208DF8230014
:1033200003208DF8220008A93848FFF72FF9032061
:10333000ADF8200018208DF8230003208DF822001E
:1033400008A93348FFF722F940F2E730ADF818003A
:103350006420ADF814000020ADF81600ADF81A0096
:1033600005A92C4801F05CFE6020ADF804000020A7
:10337000ADF80A00ADF80C000120ADF8060001A977
:10338000244801F0F1FC0821224801F039FD6020B9
:10339000ADF804000020ADF80A00ADF80C000120E3
:1033A000ADF8060001A91B4801F034FD08211948B9
:1033B00001F082FD6020ADF804000020ADF80A00A5
:1033C000ADF80C000120ADF8060001A9114801F08C
:1033D00081FD08210F4801F0CDFD6020ADF804000B
:1033E0000020ADF80A00ADF80C000120ADF8060091
:1033F00001A9084801F0C8FD0821064801F002FEB5
:103400000121044801F069FC09B000BD0008014039
:10341000000C0140000400407CB506460C461546F1
:103420006A4606213B2000F076F99DF801009DF8E0
:10343000001040EA012000B230809DF803009DF8A2
:10344000021040EA012000B220809DF805009DF89E
:10345000041040EA012000B228807CBD10B504E0D1
:1034600004A002F0E7F900F08FFE00F078F90028E0
:10347000F6D010BD0D4D505536303530206E6F20D2
:10348000636F6E6E6563742E2E2E0D0A00000000B1
:103490007CB506460C4615466A460621432000F0D8
:1034A0003AF99DF801009DF8001040EA012000B2B1
:1034B00030809DF803009DF8021040EA012000B220
:1034C00020809DF805009DF8041040EA012000B21C
:1034D00028807CBD10B5FFF7C1FF80216B2000F074
:1034E00029F96420FEF77EFE01216B2000F022F90D
:1034F0000021382000F01EF918211B2000F01AF9D5
:1035000008211C2000F016F906211A2000F012F9FB
:103510000021192000F00EF90221372000F00AF9ED
:1035200010BD00000FB52B480088A0B90020ADF8F1
:103530000000ADF80200ADF80400274908602749F3
:1035400008602749086001202249088000230020E4
:10355000108050809080BDF900001F490968084420
:103560001D490860BDF902001C49096808441B494F
:103570000860BDF90400C01A1949096808441849CF
:10358000086014480088C8281DD1134800681149F4
:10359000098890FBF1F000B21080104800680D49D6
:1035A000098890FBF1F000B250800D48006809498D
:1035B000098890FBF1F000B2908000200549088056
:1035C000012004B000BD03480088401C0149088068
:1035D0000020F6E73002002024020020280200200C
:1035E0002C0200200CB5394840783849097840EA67
:1035F000012037490988401A00B23649088033480B
:10360000C0783249897840EA012031494988401A16
:1036100000B2304948802D4840792C49097940EA68
:1036200001202B498988401A00B22A4988802748FE
:10363000407A2649097A40EA012027490988401A38
:1036400000B2264908802148C07A2049897A40EA98
:10365000012021494988401A00B2204948801B486E
:10366000407B1A49097B40EA01201B498988401A9E
:1036700000B21A4988801A48006878B9084601687B
:1036800000918088ADF804000023134ADDE90001B1
:10369000FFF748FF10B10120114908601148006888
:1036A00098B90F48006880B10A4801680091808885
:1036B000ADF8040042F20403054ADDE90001FFF71A
:1036C00031FF10B10120074908600CBD7C030020C8
:1036D0000E02002014020020080200201A0200201E
:1036E000340200203802002010B5034A0E213B208E
:1036F00000F011F810BD00007C03002070B50446F6
:103700000D462A462146D020FFF74AF808B101208D
:1037100070BD0020FCE770B504460D4616463346E2
:103720002A462146D020FFF760F808B1012070BD7D
:103730000020FCE770B504460D462A462146D020FD
:10374000FFF714F908B1012070BD0020FCE708B5AF
:1037500069467520FFF7D2FF9DF8000008BD10B53F
:10376000FFF7F5FF682801D1012010BD0020FCE71C
:1037700030B5B0F57A7F01DD4FF47A70B1F57A7F1C
:1037800001DD4FF47A71B2F57A7F01DD4FF47A7280
:10379000B3F57A7F01DD4FF47A73002800DA002058
:1037A000002900DA0021002A00DA0022002B00DACA
:1037B0000023044D28802D1D29802D1D2A802D1DBC
:1037C0002B8030BD3404004070B5002100230F224F
:1037D000C47804B3154C246804F4E064C4F5E064D0
:1037E000210AC1F10403CA40447804FA03F1847841
:1037F0001440214309010E4C0678A155047804F0C9
:103800001F050124AC4005786D11AD0005F1E025E0
:10381000C5F8004109E0047804F01F050124AC401C
:10382000044D0678761145F8264070BD0CED00E099
:1038300000E400E080E100E002490143024A116037
:10384000704700000000FA050CED00E008B54FF4E9
:10385000A060FFF7F1FF1E208DF8000001208DF819
:1038600001008DF802008DF803006846FFF7ACFFF9
:1038700025208DF8000002208DF8010001208DF830
:1038800002008DF803006846FFF79EFF08208DF8C0
:10389000000002208DF801008DF8020001208DF853
:1038A00003006846FFF790FF08BD00002DE9F041D6
:1038B00004460E46154629463046FCF7A9FCE06052
:1038C000A169E068FCF7A4FC6061E1682068FCF78E
:1038D000A5FCA06294F83800FCF7FAFD8046616808
:1038E000FCF79CFC07462169FCF798FCE0626169E3
:1038F000A068FCF793FC2063D4E90A01FCF736FCCE
:103900000746216BFCF732FC60631E4800780128F3
:1039100031D11D48B0F90400B4282CDB2846216AB7
:10392000FCF76AFE07D3206A80F000472946384634
:10393000FCF762FE03D2002084F838001DE001206D
:1039400084F83800D4E90310FCF710FC2061616AA8
:103950002069FCF751FE01D2606A2061606A80F044
:10396000004738462169FCF747FE06D2606A80F0BE
:103970000040206101E000202061E068A061BDE816
:10398000F0810000AD020020BC02002070B53E2492
:103990002046E11704EB91718910A4EB8101091D08
:1039A00009B1012100E0002194FBF1F1CDB22A46DA
:1039B0000E490F4800F038FF01F084FB0B48408AA5
:1039C0004FF6FF7188420DD108488089884209D19D
:1039D0000648008B884205D1FEF7C4FB05A001F024
:1039E00029FF01E0FEF7BEFB70BD0000340B002094
:1039F00000F80108466C61736820526561642045D7
:103A000072726F722121210D0A00000070B500F062
:103A10001BF83E242046E11704EB91718910A4EBBA
:103A20008101091D09B1012100E0002194FBF1F1A0
:103A3000CDB22A460249034800F00AFF70BD0000DB
:103A4000340B002000F8010810B583480088834932
:103A500008808148408848807F48808888808048E6
:103A60000088C8807E48408808817D4880884881D9
:103A70007C4908687C49FCF7D1FB0446FCF757FDFC
:103A800076498881774948687749FCF7C7FB04463F
:103A9000FCF74DFD7149C881724988687249FCF78D
:103AA000BDFB0446FCF743FD6C4908826F4908687A
:103AB0006D49FCF7B3FB0446FCF739FD67494882C2
:103AC0006A4948686849FCF7A9FB0446FCF72FFDE2
:103AD00062498882654988686349FCF79FFB044610
:103AE000FCF725FD5D49C882614908685E49FCF71D
:103AF00095FB0446FCF71BFD584908835C49486860
:103B00005949FCF78BFB0446FCF711FD53494883E8
:103B1000574988685449FCF781FB0446FCF707FDC8
:103B20004E498883534908684F49FCF777FB0446A0
:103B3000FCF7FDFC4949C8834E4948684A49FCF7EF
:103B40006DFB0446FCF7F3FC444908844949886846
:103B50004549FCF763FB0446FCF7E9FC3F49488410
:103B6000454908684049FCF759FB0446FCF7DFFC6F
:103B70003A498884404948683B49FCF74FFB044672
:103B8000FCF7D5FC3549C8843B4988683649FCF7C1
:103B900045FB0446FCF7CBFC3049088537490868EB
:103BA0003149FCF73BFB0446FCF7C1FC2B49488537
:103BB000324948682C49FCF731FB0446FCF7B7FC56
:103BC000264988852D4988682749FCF727FB044644
:103BD000FCF7ADFC2149C885294908682249FCF752
:103BE0001DFB0446FCF7A3FC1C49088624494868D1
:103BF0001D49FCF713FB0446FCF799FC174948865E
:103C00001F4988681849FCF709FB0446FCF78FFC3C
:103C1000124988861B4908681349FCF7FFFA0446D5
:103C2000FCF785FC0D49C886164948680E49FCF723
:103C3000F5FA0446FCF77BFC0849088711498868B7
:103C40000949FCF7EBFA0446FCF771FC0349488785
:103C50000D480078888710BD0E020020340B00202C
:103C6000080200205409002000007A449009002036
:103C7000CC090020080A0020440A0020800A002005
:103C8000BC0A0020F80A0020FB01002000201E4989
:103C900081F838001D4808621D48486200201D490F
:103CA00081F838001C4808621C48486200201C4902
:103CB00081F8380015480862154848620020194903
:103CC00081F83800144808621448486200201649F8
:103CD00081F838000D4808620D48486200201349F9
:103CE00081F838000C4808620C48486200201049EE
:103CF00081F83800086248620E4981F838000E48A1
:103D00000862064848627047080A0020000016430F
:103D1000000096445409002000000C420000484373
:103D2000440A002090090020800A0020CC090020CD
:103D3000BC0A0020F80A00200000C84270B5FFF756
:103D4000D3FCFFF74FFC142271497248FDF7CEFDFA
:103D50006F4908687049FCF761FA04466F49FCF73F
:103D60005DFA6F4908606A4948686B49FCF756FA82
:103D700004466A49FCF752FA694948606449886810
:103D80006549FCF74BFA04466449FCF747FA644975
:103D900088606449B1F90000FCF791FB0446624970
:103DA000FCF73CFA614908605E49B1F90200FCF792
:103DB00086FB04465C49FCF731FA5C494860594986
:103DC000B1F90400FCF77BFB04465749FCF726FADF
:103DD0005649886056480078002879D050490868CC
:103DE0005449FCF71BFA0446494908685249FCF754
:103DF00015FA05462146FCF7B9F9454908604849D6
:103E000048684C49FCF70AFA0446414948684A495F
:103E1000FCF704FA05462146FCF7A8F93C4948603E
:103E20003F4988684349FCF7F9F9044638498868EE
:103E30004149FCF7F3F905462146FCF797F9344967
:103E400088603E4908683B49FCF7E8F90446374971
:103E500008683949FCF7E2F905462146FCF786F97E
:103E600032490860354948683249FCF7D7F90446B9
:103E70002E4948683049FCF7D1F905462146FCF740
:103E800075F92A4948602D4988682A49FCF7C6F91E
:103E90000446264988682849FCF7C0F905462146AA
:103EA000FCF764F921498860194800681C490860DA
:103EB0001748406848601648806888601B4800685A
:103EC0001E49086019484068486018488068886042
:103ED0000F4800681A4908600D48406848600C485F
:103EE0008068886008680021FCF77CFB0ED01449CC
:103EF00048680021FCF776FB08D01149886800214A
:103F0000FCF770FB02D001200E49087070BD000064
:103F1000B00800201402002040DAFF380AE81C41F3
:103F2000C80800201A02002045798B3A9808002022
:103F30006C0200206666663FCDCCCC3DA408002014
:103F4000D40800204C02002001460020034A50689B
:103F500020F44040084350607047000000100240C9
:103F600029B1064AD2690243044BDA6104E0034AEC
:103F7000D2698243014BDA617047000000100240B1
:103F800029B1064A92690243044B9A6104E0034A4C
:103F900092698243014B9A61704700000010024011
:103FA00030B500210022002400232D4D6D6805F05E
:103FB0000C0121B1042905D0082923D105E0294DA0
:103FC000056022E0274D05601FE0254D6D6805F472
:103FD0007012234D6D6805F48034022505EB924282
:103FE0001CB9214D554305600BE01D4D6D6805F46E
:103FF00000351DB11C4D5543056002E0194D554378
:10400000056002E0174D056000BF00BF144D6D68EC
:1040100005F0F0010909154D6B5C0568DD40456050
:104020000F4D6D6805F4E061090A104D6B5C456841
:10403000DD4085600A4D6D6805F46051C90A0B4D7D
:104040006B5C4568DD40C560054D6D6805F4404119
:10405000890B074D6B5CC568B5FBF3F5056130BD99
:104060000010024000127A0000093D00C602002044
:10407000D602002010B500240EE0022C05DA002242
:104080001146FF2001F088FB04E00022FF211046CA
:1040900001F082FB601CC4B2042CEEDB10BD10B535
:1040A000002406E000221146104601F075FB601C5A
:1040B000C4B2042CF6DB10BD10B5002406E00022CB
:1040C000FF21104601F068FB601CC4B2042CF6DB33
:1040D00010BD0000F0B50025002600272648017815
:1040E0000078401C244A1070102907DB002011467C
:1040F000087022480078401C20490870002431E0F4
:104100001F480078042802DD00201D4908701D4862
:104110001A49097800EB81101949097850F82100F3
:10412000C0F3074517481549097800EB8110144979
:10413000097830F82100C0F3072612480F490978A2
:1041400000EB81100E49097810F821703A46294693
:10415000304601F021FB0A480078401C08490870ED
:10416000601CC4B2042CCBDB04480078072802D1C1
:10417000002002490870F0BDDC010020DB010020B6
:10418000DA0100201800002010B5002406E000220B
:104190001146FF2001F000FB601CC4B2042CF6DBCA
:1041A00010BD00B50346002200BF0BE003FA02F089
:1041B00000F0010010B101F0B3FA01E001F078FA6B
:1041C000501CC2B2082AF1DB00BD000010B501206E
:1041D0001F4908701F48C07AA52800D010BD1D488F
:1041E000007800F0010020B31A4880781949C97896
:1041F00040EA012000B21849C880164800791549E4
:10420000497940EA012000B2134988801148807939
:104210001049C97940EA012000B20F4908800D48D1
:10422000007A0C49497A40EA012000B20A494880E4
:1042300008E00848007800F0080018B105494878FF
:10424000FDF7AEFC0348807A0449087000BFC5E75B
:10425000AC0200201C030020BC020020BA02002097
:1042600008B501210820FFF78BFE8020ADF8000083
:1042700004208DF8030069460148FEF787F908BD60
:10428000000C014008B501210820FFF779FE8020CD
:10429000ADF8000010208DF8030003208DF8020017
:1042A00069460248FEF772F908BD0000000C0140A3
:1042B00010B504E004A001F0BDFAFFF7FDFE00F028
:1042C000A5F90028F6D010BD0D20534932345231E3
:1042D000206E6F20636F6E6E6563742E2E2E0D0A36
:1042E0000000000010B51E48006840F480701C49B2
:1042F00008600321232000F0AFF90522194930207E
:1043000000F042F9052217492A2000F03DF91A2150
:10431000242000F0A1F90121222000F09DF90121C3
:10432000212000F099F92021312000F095F9052293
:104330000D492A2000F028F91E21252000F08CF9D3
:104340002721262000F088F90F2000F0A1F9044869
:10435000001F006840F480700149091F086010BD0B
:1043600014080140FC0100200102002010B5134890
:104370000078322810DD4FF0E0218869FBF7DCFE81
:10438000FBF7D0FE322190FBF1F201FB12000B494A
:104390000870FFF73BFB0FE00948007907490978EF
:1043A000884209D00548007805490871034800781B
:1043B00004490871FFF796FF10BD0000FB010020C3
:1043C000FC0100200102002008B501210C20FFF7AC
:1043D000D7FD4FF48050ADF8000010208DF8030099
:1043E00003208DF8020069461748FEF7CFF84FF416
:1043F00080511548FEF755F94FF48070ADF8000074
:1044000010208DF8030003208DF8020069460F4844
:10441000FEF7BCF84FF480710C48FEF742F900F04B
:1044200097F9FFF745FF08481030006840F48050C6
:1044300005491031086005481430006840F4807068
:1044400002491431086008BD000C01400008014019
:104450002DE9F04107460C4615460F48006840F428
:1044600080500D490860384600F04AF98046002621
:1044700005E0FF2000F044F92070641C761CAE4279
:10448000F7DB0548001F006840F480500249091F0F
:1044900008604046BDE8F081140C014010B50446A8
:1044A0000B48006840F480700949086020222146CA
:1044B0006120FFF7CDFFFF21E22000F0CDF8044896
:1044C000001F006840F480700149091F086010BD9A
:1044D0001408014010B50F480078C8B10E480078A4
:1044E00050B10E4800780E490978884204D101F095
:1044F000CFF8FFF7E1FD07E00748007820B1094851
:10450000007808B9FFF7B6FD044800780449087040
:1045100010BD0000AC020020AD020020BA02002055
:10452000C5020020F801002010B5044614480068B8
:1045300040F480701249086005221249302000F0D2
:1045400023F805220F492A2000F01EF820222146D8
:10455000A02000F019F80E21202000F07DF87E2127
:10456000272000F079F80648001F006840F48070AA
:104570000349091F08600A20FDF758FE10BD00001E
:1045800014080140FC0100202DE9F04107460C46CB
:1045900015460F48006840F480500D4908603846C1
:1045A00000F0AEF88046002604E0207800F0A8F87D
:1045B000641C761CAE42F8DB0548001F006840F41E
:1045C00080500349091F08604046BDE8F0810000A3
:1045D000140C014070B504460B48006840F480504C
:1045E00009490860204600F08BF8FF2000F088F8A9
:1045F00005460548001F006840F480500249091F25
:104600000860284670BD0000140C01401CB510A1C4
:1046100003C9CDE90001052269463020FFF7B4FF48
:10462000052269461020FFF713FF002406E01DF85D
:104630000400A52800D003E0601CC4B2052CF6DB02
:1046400000BF052C01D000201CBD0120FCE70000AC
:10465000A5A5A5A5A500000070B505460C460B480C
:10466000006840F4805009490860284600F048F886
:104670000646204600F044F80448001F006840F455
:1046800080500249091F0860304670BD140C01407B
:1046900010B504460E2C16D11848006840F48070FE
:1046A000164908600E212020FFF7D6FF7E21272023
:1046B000FFF7D2FF1148001F006840F480700F49D7
:1046C000091F086018E00D48006840F480700B492D
:1046D00008600F212020FFF7BFFF7E212720FFF772
:1046E000BBFF0648001F006840F480700349091FA3
:1046F0000860C820FDF79AFD10BD000014080140B5
:1047000010B5044600BF02210A4800F061F80028F5
:10471000F9D02146074800F067F800BF012105489D
:1047200000F056F80028F9D0024800F05AF8C0B25C
:1047300010BD00000038004021B1028842F0400264
:10474000028004E002884FF6BF731A40028070476F
:1047500000B587B001210820FFF712FC0121880372
:10476000FFF7FEFB4FF46040ADF8040018208DF811
:10477000070003208DF8060001A91348FDF706FF86
:104780004FF48270ADF80A004FF40070ADF81200DB
:104790000020ADF81000ADF80E00ADF80C001020B0
:1047A000ADF814000020ADF80800ADF816000720A1
:1047B000ADF8180002A9054800F018F801210348D7
:1047C000FFF7BAFF07B000BD000C01400038004001
:1047D0000246002013890B400BB1012000E00020AD
:1047E00070470146888970478181704710B5002263
:1047F000028802F441520B884C8823438C8823435F
:10480000CC8823430C8923434C8923438C8923433D
:10481000CC8923431A430280838B4FF2FF742340D9
:1048200083830B8A038210BD30B503460C461546C0
:10483000002206E0184600F007F844F822001B1D8D
:10484000521CAA42F6D330BD0146086870470000EA
:104850002DE9F04704460E4617464FF004080025A0
:10486000A946B4F1006F02D31948844201D3BDE8D0
:10487000F087FDF74BFE254604EB87091448854277
:1048800011D20DE02846FFF7DFFF401C38B1114878
:10489000FDF7BCFD8046B8F1040F01D002E02D1DEC
:1048A0004D45EFD300BFB8F1040F0CD108E020460E
:1048B0003168FDF7F5FD042800D003E0241D361D06
:1048C0004C45F4D300BFFDF7E1FD00BFCFE700008A
:1048D0000000020800F8010838B53C48007830B103
:1048E0003B48007840F010003949087005E038482E
:1048F000007820F0100036490870FF203549087014
:104900003348007848703448B0F9040000909DF8AE
:10491000010088709DF80000C870304988683049EF
:10492000FBF77CFC0446FBF7E9FD00B200909DF824
:104930000100284908719DF800004871274948681E
:104940002749FBF76BFC0446FBF7D8FD00B200904B
:104950009DF801001F4988719DF80000C8711F492A
:1049600008681F49FBF75AFC0446FBF7C7FD00B275
:1049700000909DF80100174908729DF800004872E8
:104980001849C8691649FBF749FC0446FBF7B6FD10
:1049900000B200909DF801000E4988729DF8000059
:1049A000C872114988680E49FBF738FC0446FBF7CA
:1049B000A5FD00B200909DF80100064908739DF81E
:1049C000000048730846FFF7AFFD38BDAD02002078
:1049D00020020020FC020020BC0200208C080020E5
:1049E0000000C8423C030020E401002010B500F0A4
:1049F00001F810BD0CB5002001900090334800680C
:104A000040F480303149086000BF3048006800F44D
:104A1000003000900198401C0190009818B901984E
:104A2000B0F5A06FF1D12948006800F4003010B152
:104A30000120009001E0002000900098012843D15F
:104A40002348006840F010002149086008460068CB
:104A500020F0030008600846006840F0020008608B
:104A60001A48406819494860084640684860084646
:104A7000406840F4806048600846406820F47C103C
:104A800048600846406840F4E810486008460068FE
:104A900040F08070086000BF0C48006800F00070B3
:104AA0000028F9D00948406820F003000749486011
:104AB0000846406840F00200486000BF0348406874
:104AC00000F00C000828F9D10CBD000000100240D5
:104AD00000200240042808D14FF0E021096941F08C
:104AE00004014FF0E022116107E04FF0E021096975
:104AF00021F004014FF0E0221161704710B5134816
:104B0000006840F0010011490860084640681049FB
:104B100008400E494860084600680E4908400B49A5
:104B200008600846006820F4802008600846406855
:104B300020F4FE0048604FF41F008860FFF756FF26
:104B40004FF000600449086010BD000000100240F2
:104B50000000FFF8FFFFF6FE08ED00E010B5FEF7DD
:104B600075FEFEF793FBFDF71BFB4FF4E12000F011
:104B700043FDFDF7B5FD00F0D7F8FDF71FFCFFF78B
:104B800023FCFEF7A7FCFEF7BBFBFCF7D1FFFEF70B
:104B9000FDFEFFF77BF8FEF76FFBFFF780FA04A03E
:104BA00000F048FE41F28830FDF71CFB10BD00000C
:104BB00053797374656D20496E69742046696E6916
:104BC00073680A0010B50121344800F092F80028FB
:104BD0005FD033480088401C314908803148008844
:104BE000401C3049088030480088401C2E4908800D
:104BF0002E480088401C2D4908802D480088401C04
:104C00002B4908802B480088401C2A4908802A48E4
:104C10000088401C2849088021480088022805DBBC
:104C200000201F4908800120244908701D48008881
:104C3000052805DB00201B49088001202049087059
:104C4000194800880A2805DB002017490880012040
:104C50001C49087015480088642805DB00201349AA
:104C6000088001201849087011480088C82805DB11
:104C700000200F4908800120144908700D48008861
:104C8000B0F5C87F05DB00200A49088001201049E3
:104C900008700121014800F01DF810BD0008004017
:104CA00006000020080000200A0000200C00002060
:104CB0000E0000201000002012000020050000203F
:104CC000020000200100002000000020030000205E
:104CD00004000020CA430282704721B1028842F0DA
:104CE0000102028004E002884FF6FE731A4002803F
:104CF000704730B50246002000230024158A05EADB
:104D00000103958905EA010413B10CB1012000E00B
:104D1000002030BD1AB183890B43838102E083896F
:104D20008B438381704700000EB501210420FFF7FB
:104D300017F94720ADF804006320ADF8000000200B
:104D4000ADF80600ADF802006946064800F068F9C3
:104D5000012211460348FFF7DDFF01210148FFF75B
:104D6000BCFF0EBD0008004070B5002400220023E7
:104D7000058C4FF6FE7635400584028C8388048BC3
:104D80004FF68F752C40B51E2C400D882C43751E98
:104D90002A400D892A434D882A43144DA8420BD03E
:104DA000134DA84208D0134DA84205D0124DA84279
:104DB00002D0124DA84213D14FF6F7752A404D8903
:104DC0002A434FF6FB752A408D882A434FF6FF652C
:104DD0002B404FF6FF552B408D892B43CD892B431C
:104DE00083800483CD888586028470BD002C0140B9
:104DF00000340140004001400044014000480140AF
:104E00000A460021018B4FF6F773194011430183C5
:104E10007047000070B5002400220023058C4FF677
:104E2000EF7635400584028C8388048B48F6FF7545
:104E30002C404FF6FF452C400D884FF6FF7606EAD2
:104E400005252C434FF6DF752A400D8906EA051526
:104E50002A434D8806EA05152A43154DA84202D07B
:104E6000144DA8421DD14FF67F752A404D894FF64B
:104E7000FF7606EA05152A434FF6BF752A408D884E
:104E800006EA05152A434FF6FF352B404FF2FF7512
:104E90002B408D8906EA85052B43CD8906EA8505D9
:104EA0002B4383800483CD880587028470BD000076
:104EB000002C0140003401400A460021018B4FF2D2
:104EC000FF7319404FF6FF7303EA0223194301836E
:104ED0007047000070B5002400220023058C4FF6B7
:104EE000FF6635400584028C8388848B4FF68F756E
:104EF0002C404FF6FC752C400D882C434FF6FF5587
:104F00002A400D894FF6FF7606EA05252A434D888B
:104F100006EA05252A43154DA84202D0144DA842A1
:104F20001DD14FF2FF752A404D894FF6FF7606EAF4
:104F300005252A434FF6FF352A408D8806EA0525C8
:104F40002A434EF6FF752B404DF6FF752B408D8999
:104F500006EA05152B43CD8906EA05152B43838008
:104F60008483CD888587028470BD0000002C0140B9
:104F7000003401400A460021818B4FF6F773194037
:104F8000114381837047000070B500220023002484
:104F9000058C4EF6FF7635400584038C8488828B21
:104FA00048F6FF752A404FF6FF452A400D884FF618
:104FB000FF7606EA05252A434DF6FF752B400D893D
:104FC00006EA05352B434D8806EA05352B430B4D84
:104FD000A84202D00A4DA84208D14BF6FF752C40DA
:104FE0008D894FF6FF7606EA85152C4384808283EF
:104FF000CD88A0F84050038470BD0000002C014013
:10500000003401400A460021818B4FF2FF731940A2
:105010004FF6FF7303EA02231943818370470000B0
:10502000002202881D4B98420ED01D4B98420BD097
:10503000B0F1804F08D01B4B984205D01A4B9842D4
:1050400002D01A4B984204D14FF68F731A404B8806
:105050001A43174B984207D0164B984204D04FF68C
:10506000FF431A40CB881A4302808B8883850B88C4
:1050700003850A4B98420BD0094B984208D00E4B3F
:10508000984205D00D4B984202D00D4B984201D169
:105090000B7A03860123838270470000002C0140B5
:1050A000003401400004004000080040000C0040B3
:1050B0000010004000140040004001400044014046
:1050C0000048014010B58848008800B28749088030
:1050D0008548408800B248808348808800B2888034
:1050E0008148C08800B2824908807F48008900B2A8
:1050F00048807D48408900B288807B498889FBF7D9
:10510000E7F904467B49FBF7BBF87B490860764921
:10511000C889FBF7DDF904467649FBF7B1F8764913
:1051200048607149088AFBF7D3F904467149FBF7D7
:10513000A7F8714988606C49488AFBF7C9F90446A9
:105140006C49FBF79DF86D4908606749888AFBF751
:10515000BFF904466749FBF793F86849486062491C
:10516000C88AFBF7B5F904466249FBF789F8634939
:1051700088605D49088BFBF7ABF904465D49FBF796
:105180007FF85F4908605849488BFBF7A1F904464E
:105190005849FBF775F85A4948605349888BFBF723
:1051A00097F904465349FBF76BF8554988604E4917
:1051B000C88BFBF78DF904464E49FBF761F851495E
:1051C00008604949088CFBF783F904464949FBF715
:1051D00057F84C4948604449488CFBF779F9044634
:1051E0004449FBF74DF8474988603F49888CFBF7F5
:1051F0006FF904463F49FBF743F8434908603A49D1
:10520000C88CFBF765F904463A49FBF739F83E4983
:1052100048603549088DFBF75BF904463549FBF7D3
:105220002FF8394988603049488DFBF751F9044619
:105230003049FBF725F8354908602B49888DFBF785
:1052400047F904462B49FBF71BF8304948602649CB
:10525000C88DFBF73DF904462649FBF711F82B49A9
:1052600088602149088EFBF733F904462149FBF792
:1052700007F8274908601C49488EFBF729F90446BE
:105280001C49FAF7FDFF224948601749888EFBF751
:105290001FF904461749FAF7F3FF1D4988601249C0
:1052A000C88EFBF715F904461249FAF7E9FF1949C8
:1052B00008600D49088FFBF70BF904460D49FAF712
:1052C000DFFF144948600849488FFBF701F904469D
:1052D0000849FAF7D5FF0F498860034890F83C0069
:1052E0000D49087010BD0000340B00200E02002094
:1052F0000802002000007A44540900209009002090
:10530000CC090020080A0020440A0020800A00205E
:10531000BC0A0020F80A0020FB01002010B5234839
:10532000007820B1002021490870FBF749FB204894
:105330000078B0B100201E4908701E480088401C4B
:1053400000B21C490880FEF7F9FC1B4A1B491C48A7
:10535000FDF730FB1B4803781B4A19491648FCF738
:1053600079FC1A48007870B1002018490870FDF7E0
:10537000ADFF1448007820B91548007808B1FEF751
:10538000A9FEFCF7BDFB1348007830B1002011499D
:105390000870FFF79FF8FFF79FFA0F48007820B1D9
:1053A00000200D490870FEF7E1FF10BD0500002048
:1053B00001000020140000208C080020B00800200C
:1053C00098080020AD020020BC0200200000002050
:1053D000D8010020030000200400002070B500BFA9
:1053E00040F225510F4800F047F838B10D48001D34
:1053F0000088C4B22046FBF727FF0CE040F22441AE
:10540000084800F039F830B106480088C5B20548B0
:10541000001D0088C5B240F22551024800F004F892
:1054200070BD00000038014010B50022002340F696
:105430006A14A14200D100BF0A1201249440A3B211
:10544000DC43048010BD21B1828942F40052828184
:1054500004E082894DF6FF731A408281704702464C
:105460000020B1F5007F00D100BF13880B400BB1C5
:10547000012000E00020704770B5024600240023A0
:105480000025002040F66A16B14200D100BFC1F3EA
:10549000421501F01F03012606FA03F3012D02D184
:1054A0009689334006E0022D02D1168A334001E08E
:1054B000968A33400C12012606FA04F4168834400A
:1054C00013B10CB1012000E0002070BDF0B503461F
:1054D000002400260025002040F66A17B94200D1BA
:1054E00000BF1846C1F3421401F01F06012707FA56
:1054F00006F5012C01D10C3004E0022C01D1103052
:1055000000E014301AB107682F43076002E0076813
:10551000AF430760F0BD00002DE9F04786B00546B7
:105520000E460024A24600BFA1460027B08900B164
:1055300000BF2F462C8A4CF6FF700440F0880443CD
:105540002C82AC894EF6F3100440B08831890843B0
:10555000718908430443AC81AC8A4FF6FF40044094
:10556000B0890443AC8201A8FEF71AFD1F488742A8
:1055700002D1DDF810A001E0DDF80CA0A88900F44C
:10558000004040B10AEBCA0000EB0A103168490044
:10559000B0FBF1F807E00AEBCA0000EB0A10316833
:1055A0008900B0FBF1F86420B8FBF0F00401200999
:1055B000642101FB1089A88900F4004040B1322029
:1055C00000EBC900B0FBF1F000F00700044308E075
:1055D000322000EB09106421B0FBF1F000F00F0065
:1055E00004432C8106B0BDE8F0870000003801407C
:1055F000C1F308028280704710B586B004460121CD
:1056000044F20400FEF7BCFC4FF40070ADF8140047
:1056100018208DF8170003208DF8160005A91A48E8
:10562000FCF7B4FF4FF48060ADF8140004208DF84F
:10563000170003208DF8160005A91348FCF7A6FFF4
:105640000C20ADF80E000020ADF80C000194ADF870
:105650000A00ADF80800ADF8100001A90B48FFF7EB
:105660005BFF012240F225510848FFF72FFF01227E
:1056700040F224410548FFF729FF01210348FFF7C5
:10568000E2FE06B010BD00000008014000380140F5
:105690000648808800B2054988800846B0F90400B1
:1056A000962801DC9620888070470000BC0200200C
:1056B0001A48006840F400701849086000BF00BF35
:1056C00000BF00BF00BF00BF1448001D006840F4C9
:1056D00000701249091D086000BF00BF00BF00BF75
:1056E00000BF00BF00BF00BF00BF00BF00BF00BFC2
:1056F00000BF00BF00BF00BF00BF00BF00BF00BFB2
:1057000000BF00BF00BF00BF00BF00BF00BF00BFA1
:1057100000BF00BF00BF00BF70470000100C014079
:105720001C48006840F400701A49086000BF00BFC0
:1057300000BF00BF00BF00BF00BF00BF00BF00BF71
:1057400000BF00BF00BF00BF00BF00BF00BF00BF61
:1057500000BF00BF00BF00BF00BF00BF00BF00BF51
:1057600000BF00BF00BF00BF00BF00BF0948001D51
:10577000006840F400700749091D086000BF00BFC1
:1057800000BF00BF00BF00BF00BF00BF00BF00BF21
:1057900070470000100C014070B506460C461546D7
:1057A0003046FEF7FEFC2046FEF7FBFC2846FEF7DF
:1057B000F8FC70BD2DE9FE4F04468946D9F8080073
:1057C000FAF7C9FE21F0004107464FF00052184B8E
:1057D000FAF794FD0546FAF7E9FE8246504600F0D6
:1057E000EFFA0290504600F0EBFB0190D4F800B0C5
:1057F00060680090DDE90001FAF710FD05465846A3
:105800000299FAF70BFD06462946FAF7AFFC20602D
:1058100058460199FAF702FD054602990098FAF7F1
:10582000FDFC06462946FAF7F3FC6060BDE8FE8FF2
:1058300047DF913F014A024900F0F0B83D5F0008A0
:10584000F40200204100080218BF04200A0E18BF0D
:1058500040F001004FF07F4232EA010108BF40F002
:105860000200012808BF052070470121FAF714BF84
:10587000FAF77CBC00210846FAF702BD6FF05E0122
:105880000807FAF709BF00002DE9F04D0D46144650
:105890004FF07F41B1EB440F9EBF4FF0FF312960C5
:1058A000BDE8F08D4FF0004040EA0421C4F3C7503A
:1058B000783810F01F024A4B4FEA601CC2F12006F4
:1058C0007B44C4F3C750A0F178004FEA601003EBAB
:1058D000800053F82C3008BFD0E901C612D0D0F8B0
:1058E00004C093402CFA06F73B4387680CFA02FC8D
:1058F00027FA06F8C06807FA02F2F0404CEA080CF2
:1059000042EA0006A3FB0132ACFB01C0A6FB016129
:1059100001EB0C068E4234BF4FF0010C4FF0000C2F
:10592000C1186144BCF1000F02D0814202D903E0EA
:10593000814201D2012000E00020104400F1200249
:105940004FEA92188006CA0C40EA42304F03C5F86D
:105950000080FAF7B4FD82463846FAF7B9FD6FF0D9
:105960001201FAF799FE07463046FAF7B1FD6FF0DB
:105970002501FAF791FE834639465046FAF7F6FBC1
:105980005946FAF7F3FB00F500666FF30B06514634
:105990003046FAF73DFC3946FAF73AFC5946FAF731
:1059A0003AFC1049FAF73AFC07460F493046FAF735
:1059B00035FC3946FAF7DAFB07460C493046FAF768
:1059C0002DFC3946FAF7D2FB14F0004F08BFBDE8B2
:1059D000F08DC8F1805180F000402960BDE8F08D65
:1059E00004090000DB0FC92F22AAFD290000C92FDE
:1059F00002E008C8121F08C1002AFAD17047704798
:105A0000002001E001C1121F002AFBD170470000F5
:105A10000149086070470000F80200202DE9F041BC
:105A200016460F460446002503E03946B047641C7D
:105A30006D1C20780028F8D12846BDE8F0810000D0
:105A40002DE9F04104464FF00E4000EB4400B0F168
:105A5000506F204655D84FF0FC41B1EB440F1CD29B
:105A600024F000404FF07E51FAF7D5FB4FF0FF31A4
:105A7000FAF712FE054600F067FB14F0004F1DBF59
:105A80002F4F304E80F000402F4F08BF2F4E4FF069
:105A90004041FAF7C3FB044605E000273E460146B5
:105AA000FAF7BCFB05462A492846FAF7B7FB29490D
:105AB000FAF75CFB2946FAF7B1FB2749FAF756FBE0
:105AC0002946FAF7ABFB2549FAF750FB2946FAF7C6
:105AD000A5FB2349FAF74AFB804629462046FAF7F8
