:020000040800F2
:10000000B00F002001010008090100080B010008E1
:100010000D0100080F010008110100080000000098
:1000200000000000000000000000000013010008B4
:100030001501000800000000170100081901000860
:100040001B0100081B0100081B0100081B01000820
:100050001B0100081B0100081B0100081B01000810
:10006000892000081B0100081B0100081B01000873
:100070001B0100081B0100081B0100081B010008F0
:100080001B0100081B0100081B0100081B010008E0
:100090001B0100081B0100081B0100081B010008D0
:1000A0001B0100081B0100081B0100081B010008C0
:1000B0001B0100081B010008894600081B010008FD
:1000C0001B0100081B0100081B0100081B010008A0
:1000D0001B010008894E00081B0100081B010008D5
:1000E0001B0100081B0100081B010008DFF80CD0F1
:1000F00000F0ECFA00480047595A0008B00F002001
:100100000648804706480047FEE7FEE7FEE7FEE7B1
:10011000FEE7FEE7FEE7FEE7FEE7FEE7C94500086B
:10012000ED0000080649074A0868504343F23902C7
:10013000104408604008704701490860704700009B
:10014000BC0200206D4EC64140EA01039B0703D06C
:1001500009E008C9121F08C0042AFAD203E011F806
:10016000013B00F8013B521EF9D27047F0B480EA1F
:100170000102D40F4200B2EB410F02D20246084600
:1001800011464A0042D0C30DDDB2C1F3C752AD1AC9
:10019000202D35DAC1F3160141F4000204B15242B8
:1001A000C5F1200602FA06F12A411044B3EBD05FF4
:1001B00023D0C4B1012DA0EBC35009DCF0BC4FF03B
:1001C000004202EAC352DBB200F5000000F0C8B9F9
:1001D000400000F1807000EBC350A0F1807040EA55
:1001E000D170490009E0490841EAC071A0EBC35051
:1001F00000F50000400800EBC350F0BC00F0A7B9C8
:100200006142012202EB4101001BF6E7F0BC70479E
:1002100081F00041AAE780F00040A7E780EA0102F0
:1002200010B502F00043400022D04A001FD0010E5A
:1002300001EB1261C0F35600C2F3560240F4000015
:1002400042F40002A0FB022000047F39140400D015
:10025000401C50EA124001D44000491EC2B20C06B4
:1002600004EBD010401C4008802A02D003E000209C
:1002700010BD20F00100002900DA0020184310BD55
:1002800030B480EA010202F0004530F0004221F073
:10029000004013D090B1C30DD40DC2F31601C0F3CA
:1002A0001600E41A41F4000140F400027D3491424A
:1002B00001D3641C00E04900002C02DA30BC0020AD
:1002C00070474FF400000023914201D3891A034381
:1002D00040084FEA4101F7D151B1914202D14FF0AC
:1002E000004105E002D24FF0010101E06FF0010191
:1002F00003EBC450284430BC00F029B92DE9FE4F6F
:1003000081EA030404F0004421F0004100944FF01E
:10031000000B23F0004350EA01045ED052EA0304CC
:100320005BD0C3F30A54C1F30A552C44A4F2F3344E
:100330000194A0FB0254C1F3130141F48011C3F3F3
:10034000130343F4801301FB024400FB034E840AB1
:10035000970A44EA815447EA8357A4FB0768029549
:100360008D0A05FB07854FEA932C04FB0C542705E7
:10037000029D4FEA065847EA1637B5EB08056EEBC3
:10038000070C870E920E47EA811742EA8312A7FBF9
:100390000201B6EB0B0164EB00042B0D43EA0C33B6
:1003A0005E1844EB1C50DA465146E7FB0201C5F3E8
:1003B00013044FEA0B3343EA14534FEA0432019C0F
:1003C00043EA0603A4F10C040294009CCDE900B4B6
:1003D00000F02DF903B0BDE8F08F00200146F9E7E9
:1003E000C10F80EAE0700844CA079623002100F09C
:1003F000B7B896230022114600F0B2B80EB5C10F6F
:1004000080EAE0700844CA07002140F233438DE8D7
:100410000E000A460B4600F00AF903B000BD00F0DA
:10042000004220F00040C10DC0F3160040F400006F
:100430007F2901DA00207047962903DCC1F196017B
:10044000C84001E096398840002AF4D04042704705
:1004500020F00040C10DC0F3160040F400007F29D9
:1004600001DA00207047962903DCC1F19601C840EB
:10047000704796398840704700F0004230F00040E5
:100480000AD0C10D01F56071C0F3160042EA0151B6
:10049000C208400711437047002001467047000022
:1004A00030B5041E71F1000404DB4FF000444042FB
:1004B00064EB0101141E73F1000405DB1C464FF0D0
:1004C0000043524263EB04038B4208BF824230BDBB
:1004D00001F0004330B421F0004150EA010206D09F
:1004E0000A0DA2F56072C1F31301002A02DC30BCD0
:1004F00000207047440F44EAC104C100E01830BC3A
:1005000000EBC25000F023B8002801DBC0F100402E
:10051000002901DBC1F1004181427047002801DB65
:10052000C0F10040002901DBC1F100418842704761
:10053000202A04DB203A00FA02F1002070479140A3
:10054000C2F1200320FA03F31943904070470029B9
:10055000A8BF7047401C490008BF20F00100704749
:1005600010B4B0FA80FC00FA0CF050EA010404BFA9
:1005700010BC704749B1CCF1200421FA04F411FAFF
:100580000CF118BF012121430843A3EB0C01CB1D43
:100590004FEA00614FEA102042BF002010BC7047B4
:1005A00000EBC35010440029A4BF10BC7047401C8E
:1005B000490008BF20F0010010BC7047420005D080
:1005C000C0F3C7525242914201DC0020704700EB59
:1005D000C150704710B541000CD0C0F3C7519629E7
:1005E00008DC7E2909DC06DB410204D000F0004073
:1005F00040F07E5010BD002010BDC1F19604C4F142
:10060000200100FA01F1E040FFF7A1FFA04010BD7A
:1006100010B5141E73F1000408DA401C41F100010A
:1006200092185B411A4301D120F0010010BD2DE961
:10063000F04D92469B4611B1B1FA81F202E0B0FA58
:1006400080F220329046FFF773FF04460F4640EADF
:100650000A0041EA0B0153465A46084313D011469B
:1006600053EA010019D0C8F14002504600F040F8AA
:1006700005460E46504659464246FFF759FF084385
:1006800005D0012004E020463946BDE8F08D002069
:10069000054346EAE0762C4337430A986305E40AAB
:1006A000A0EB08000022FD0A44EA47540A3002D5B4
:1006B00000200146E9E7010510196941DDE9084517
:1006C00000196941BDE8F04DA2E70000064C074D56
:1006D00006E0E06840F0010394E807009847103412
:1006E000AC42F6D3FFF706FD8C5C0008AC5C00085A
:1006F000202A04DB203A21FA02F00021704721FA77
:1007000002F3D040C2F120029140084319467047DD
:10071000F0B4002802DCF0BC00207047C0F3C751E1
:10072000C0F3160040F40000CA0701D14000491E82
:100730003F2202EB6105002211464FF4000626FA23
:1007400001F31344D418844201D8001B1A46400018
:10075000491C1729F3DD5100814202D24FF0FF31CD
:1007600000E0002102EBC550F0BCFFF7F0BE70B511
:100770008C1810F8015B15F0070301D110F8013B4C
:100780002A1106D110F8012B03E010F8016B01F8D3
:10079000016B5B1EF9D12B0705D40023521E0DD42B
:1007A00001F8013BFAE710F8013BCB1A921C03E079
:1007B00013F8015B01F8015B521EF9D5A142D8D3B1
:1007C000002070BD10B503F0D1F903F043FA6420A6
:1007D00001F012FC03F0CAF9642001F00DFC03F0F3
:1007E00039FA642001F008FC03F0C0F9642001F03C
:1007F00003FC03F02FFA642001F0FEFB03F0B6F9CE
:1008000010BD21B1826842F00102826003E082687B
:1008100022F001028260704730B5024600200023BA
:1008200050680F4C20400D790C6844EA05242043A1
:10083000506090680B4C2040D1E902542C434D7914
:1008400044EA450420439060D06A20F470000C7C98
:10085000641EE4B2234340EA0350D06230BD00007E
:10086000FFFEF0FFFDF7F1FFF0B504460D46002056
:100870000021092D11DDE068A5F10A0606EB460707
:10088000072606FA07F18843A5F10A0606EB460695
:1008900003FA06F10843E0600CE0206905EB450728
:1008A000072606FA07F1884305EB450603FA06F129
:1008B00008432061072A0FDA606B561E06EB860795
:1008C0001F2606FA07F18843561E06EB860605FA30
:1008D00006F10843606322E00D2A0FDA206BD61F71
:1008E00006EB86071F2606FA07F18843D61F06EB9C
:1008F000860605FA06F10843206310E0E06AA2F1DB
:100900000D0606EB86071F2606FA07F18843A2F1BB
:100910000D0606EB860605FA06F10843E062F0BD17
:100920002DE9F04F87B0C0480078401CBE490870E0
:10093000BE480078401CBD490870BD480078401C86
:10094000BB490870BB480078401CBA490870BA48D7
:100950000078401CB8490870B3480078372805DB98
:100960000020B14908700120B4494870AF480078B0
:10097000052805DB0020AD4908700120AF498870CB
:10098000AB480078142805DB0020A9490870012035
:10099000AA49C870A7480078232805DB0020A5498C
:1009A00008700120A5490871A34800783C2805DBA0
:1009B0000020A14908700120A04948719F48407853
:1009C00078B100209D4948709D48007800219D4BDA
:1009D000CDE900109A6859681868002300F092FE6B
:1009E0001FE19648807800286DD0002093498870D8
:1009F00095498868FFF713FD0FFA80FB5846FFF70B
:100A0000EFFC82469149FFF709FC8146FFF707FD9D
:100A100004B28D494868FFF702FD0FFA80FB584683
:100A2000FFF7DEFC82468949FFF7F8FB8146FFF7B6
:100A3000F6FC05B284490868FFF7F1FC0FFA80FB69
:100A40005846FFF7CDFC82468049FFF7E7FB814619
:100A5000FFF7E5FC06B27E498868FFF7E0FC07B2C5
:100A60007B494868FFF7DBFC0FFA80F87849086893
:100A7000FFF7D5FC00B2069000200290039004908E
:100A800033463A464146CDE900540590069800F0B9
:100A90007BFD6D4988686D49FFF7C0FB04466D48D2
:100AA000006B6C49C96A6B4A926A6A4BDB68CDE994
:100AB0000032CDE902106848036BC26A816A2046A1
:100AC00001F000F9ADE05D48C07818B100205B4945
:100AD000C870A6E05948007918B10020574908713C
:100AE0009FE05648407988B10020544948715B49DD
:100AF00088685B49FFF792FB0546FFF7A9FC84B2C3
:100B00004FF4E471204600F0F5FC8AE04B48807910
:100B1000D0B10020494988714F4881684268006817
:100B2000504B9B68CDE90230CDE904214D48406827
:100B30004C490968CDE900104B4883684268016858
:100B4000012000F0D1FB6CE03C48C079E0B100200E
:100B50003A49C8713F4880683E4949683D4A126831
:100B6000424B9B68CDE90232CDE904103F48406812
:100B70003E490968CDE900103D4883684268016834
:100B8000022000F0B1FB4CE02C48007AB8B1002004
:100B90002A490872002137488068CDE90201049192
:100BA00034480591406833490968CDE9001032485E
:100BB000836842680168032000F096FB31E01F481B
:100BC000407A70B300201D4948722C482C498A078E
:100BD0002C4BCDE90232CDE904102B482B490246BB
:100BE000CDE90010012000F07FFB0020284ACDE96C
:100BF0000202049005902748274900230246CDE9C8
:100C00000010022000F070FB00200290039004907E
:100C1000059000900346024601460190032000F033
:100C200063FB07B0BDE8F08F7D0200207E0200204C
:100C30007F02002080020020810200203E0B002065
:100C4000790200205808002064080020A34C654267
:100C50007C080020980900204C0A0020E0010020B8
:100C60000000C842100A0020D40900205C090020BE
:100C700020090020C40A0020880A00207B142E3F8F
:100C8000CDCC4C3D5C8FC23E295C0F3D6666263F55
:100C90000000A0400AD7233C9A9919402DE9F05F43
:100CA00004460D460026B14607E014F8090030441A
:100CB000C6B209F1010000F0FF09681E4845F4DCE6
:100CC000601910F8010CB04201D0BDE8F09F207807
:100CD000AA2802D16078AF2800D0F6E7A0780128D2
:100CE0003ED1207901280AD1FE48007840F0020068
:100CF000FC4908700020FC490880488088802079E1
:100D000002280AD1F748007840F00100F549087040
:100D10000020F649088048808880207903280AD17D
:100D2000F048007840F00200EE490870084600786C
:100D300040F001000870207904280FD1EC480078B9
:100D400080F00100EA4908700846007818B10120D7
:100D5000E849087002E00020E649087002F0F2FB62
:100D6000A078022812D12079012803D1E2498871A4
:100D7000C87108722079A02802D10120DE490870CC
:100D80002079A12802D10120DB494872A0781028DF
:100D90007ED12179090209B2627941EA0200FFF7A6
:100DA0002DFB8246D54AD64BFFF7A8FA0746FFF738
:100DB0008FFBD4490860A179090209B2E27941EABE
:100DC0000200FFF71BFB8246CC4ACD4BFFF796FA99
:100DD0000746FFF77DFBCB494860217A090209B23B
:100DE000627A41EA0200FFF709FB8246C34AC44B1C
:100DF000FFF784FA0746FFF76BFBC2498860A17AC8
:100E0000090209B2E27A41EA0200FFF7F7FA8246E4
:100E1000BA4ABB4BFFF772FA0746FFF759FBBA49CC
:100E20000860217B090209B2627B41EA0200FFF7F8
:100E3000E5FA8246B14AB24BFFF760FA0746FFF780
:100E400047FBB1494860A17B090209B2E27B41EA54
:100E50000200FFF7D3FA8246A84AA94BFFF74EFAE1
:100E60000746FFF735FBA8498860217C090209B2D3
:100E7000627C41EA0200FFF7C1FA82469F4AA04B1A
:100E8000FFF73CFA0746FFF723FBA049086000E0A4
:100E900029E0A17C090209B2E27C41EA0200FFF7E5
:100EA000ADFA8246954A964BFFF728FA0746FFF7B8
:100EB0000FFB96494860217D090209B2627D41EA33
:100EC0000200FFF79BFA07468C4A8D4BFFF716FA94
:100ED0008246FFF7FDFA8D498860A078314600F020
:100EE000D7F902F02FFBA07811287DD121790902D2
:100EF00009B2627941EA0200FFF780FA07467F4AA9
:100F00007F4BFFF7FBF98246FFF7E2FA8049086062
:100F1000A179090209B2E27941EA0200FFF76EFA0B
:100F20008246764A764BFFF7E9F90746FFF7D0FA93
:100F300077494860217A090209B2627A41EA0200DF
:100F4000FFF75CFA82466D4A6D4BFFF7D7F907460B
:100F5000FFF7BEFA6E498860A17A090209B2E27A07
:100F600041EA0200FFF74AFA0746644A644BFFF77A
:100F7000C5F98246FFF7ACFA66490860217B090291
:100F800009B2627B41EA0200FFF738FA07465B4A82
:100F90005B4BFFF7B3F98246FFF79AFA5D49486069
:100FA000A17B090209B2E27B41EA0200FFF726FABF
:100FB0008246524A524BFFF7A1F90746FFF788FADB
:100FC00054498860217C090209B2627C41EA02002E
:100FD000FFF714FA8246494A494BFFF78FF9074653
:100FE000FFF776FA4C4900E02AE00860A17C09028C
:100FF00009B2E27C41EA0200FFF700FA07463F4AE5
:101000003F4BFFF77BF98246FFF762FA424948609F
:10101000217D090209B2627D41EA0200FFF7EEF983
:101020000746364A364BFFF769F98246FFF750FA12
:1010300039498860A078314600F02AF902F082FA36
:10104000A07812286ED12179090209B2627941EAA9
:101050000200FFF7D3F90746284A294BFFF74EF95C
:101060008246FFF735FA2D490860A179090209B2D5
:10107000E27941EA0200FFF7C1F907461F4A204B17
:10108000FFF73CF98246FFF723FA24494860217AAA
:10109000090209B2627A41EA0200FFF7AFF9074696
:1010A000164A174BFFF72AF98246FFF711FA1B4938
:1010B0008860A17A090209B2E27A41EA0200FFF7E8
:1010C0009DF907460D4A0E4BFFF718F98246FFF7C8
:1010D000FFF913490860217B090209B2627B41EAEA
:1010E000020020E01C0200200A020020040200206E
:1010F0007C020020790200203E0B0020FCA9F1D2E6
:101100004D62503FD4090020100A00204C0A0020F4
:10111000200900205C09002098090020880A00208E
:10112000C40A002023E0FFF769F907461B4A1C4B5D
:10113000FFF7E4F88246FFF7CBF91A494860A17B34
:10114000090209B2E27B41EA0200FFF757F90746BC
:10115000124A134BFFF7D2F88246FFF7B9F911494B
:101160008860A078314600F093F802F0EBF9A0789F
:10117000132803D1A078314600F08AF8A07814280B
:1011800003D1A078314600F083F8A078152803D168
:10119000A078314600F07CF800BF96E5FCA9F1D2BA
:1011A0004D62503FC40A002010B504463448007810
:1011B00038B9AA2C05D10120314908703148047092
:1011C0005DE02F480078012807D1AF2C05D102201F
:1011D0002B4908702B48447051E0294800780228B8
:1011E00007D1F12C05DA03202549087025488470C1
:1011F00045E02348007803280CD1322C0ADA042079
:101200001F4908701F48C4701F48047000201F4900
:10121000087034E01A480078042819D11A48007878
:10122000002815DD18480078401E17490870174837
:10123000007816490978491C144A1170001D11499B
:101240000C5411480078D0B905200D49087016E0FB
:101250000B48007805280FD10020094908700B4879
:101260000078001D07490C5408480078401DC1B2A1
:101270000448FFF713FD02E000200149087010BD8B
:10128000840200207A0B00208202002083020020CA
:101290002DE9F04105460E460027AA200D490870A9
:1012A0004870EF2088700220C870084605714671AA
:1012B000002405E00748005D3844C7B2601CC4B292
:1012C000062CF7DB03488771072100F005F8BDE81D
:1012D000F0810000480B002070B504460D462946F9
:1012E000204604F099FC70BD2DE9FC5F06460F46D0
:1012F00090469946DDF830B00024A246AA22214645
:10130000641C7A4842542146641C425406F10F0082
:10131000C2B22146641C7548425400222146641C16
:10132000425473493846FEF779FF0090FFF777F88B
:1013300000B201909DF805202146641C6B48425480
:101340009DF804202146641C425469494046FEF73A
:1013500065FF0090FFF763F800B201909DF805204B
:101360002146641C614842549DF804202046611CBB
:10137000CCB25E490A545E494846FEF74FFF0090E2
:10138000FFF74DF800B201909DF805202046611C42
:10139000CCB256490A549DF804202046611CCCB2B8
:1013A00052490A5452495846FEF738FF0090FFF759
:1013B00036F800B201909DF805202046611CCCB2A1
:1013C0004A490A549DF804202046611CCCB2474982
:1013D0000A5447490D98FEF721FF0090FFF71FF8C8
:1013E00000B201909DF805202046611CCCB23F4917
:1013F0000A549DF804202046611CCCB23B490A5493
:101400003B490E98FEF70AFF0090FFF708F800B27C
:1014100001909DF805202046611CCCB233490A5446
:101420009DF804202046611CCCB230490A54304952
:101430000F98FEF7F3FE0090FEF7F1FF00B2019067
:101440009DF805202046611CCCB228490A549DF81D
:1014500004202046611CCCB224490A542449109827
:10146000FEF7DCFE0090FEF7DAFF00B201909DF877
:1014700005202046611CCCB21C490A549DF804206A
:101480002046611CCCB219490A5419491198FEF73B
:10149000C5FE0090FEF7C3FF00B201909DF8052045
:1014A0002046611CCCB211490A549DF80420204604
:1014B000611CCCB20D490A54201FC870002506E0FB
:1014C0000A48405D504400F0FF0A681CC5B2A542BE
:1014D000F6DB2046611CCCB2044901F800A021468D
:1014E0000248FFF7F9FEBDE8FC9F0000480B002012
:1014F00000007A442DE9F84306460F460024A04632
:10150000AA222146641C1F4842542146641C4254AE
:1015100005222146641C425400222146641C425488
:1015200000969DF801202146641C42549DF800203D
:101530002146641C425400979DF801202146641CFA
:1015400042549DF800202046611CCCB20D490A543B
:10155000201FC870002506E00A48405D404400F0A6
:10156000FF08681CC5B2A542F6DB2046611CCCB260
:10157000044901F8008021460248FFF7ADFEBDE8AE
:10158000F8830000480B00202DE9F84F06460F466F
:1015900090469946DDF828B00024A246AA222146AA
:1015A000641C574842542146641C4254022221467E
:1015B000641C425400222146641C425400969DF84B
:1015C00001202146641C42549DF800202146641CE1
:1015D000425400979DF801202146641C42549DF816
:1015E00000202046611CCCB245490A54CDF8008049
:1015F0009DF801202046611CCCB241490A549DF857
:1016000000202046611CCCB23D490A54CDF8009020
:101610009DF801202046611CCCB239490A549DF83E
:1016200000202046611CCCB235490A54CDF800B0E8
:101630009DF801202046611CCCB231490A549DF826
:1016400000202046611CCCB22D490A540B98009012
:101650009DF801202046611CCCB229490A549DF80E
:1016600000202046611CCCB225490A540C980090F9
:101670009DF801202046611CCCB221490A549DF8F6
:1016800000202046611CCCB21D490A540D980090E0
:101690009DF801202046611CCCB219490A549DF8DE
:1016A00000202046611CCCB215490A540E980090C7
:1016B0009DF801202046611CCCB211490A549DF8C6
:1016C00000202046611CCCB20D490A54201FC8706E
:1016D000002506E00A48405D504400F0FF0A681CFF
:1016E000C5B2A542F6DB2046611CCCB2044901F824
:1016F00000A021460248FFF7EFFDBDE8F88F00008B
:10170000480B00202DE9FE4F82460E4617469846AC
:10171000DDF830B00024A146CDF80480AA2221468D
:10172000641C484842542146641C4254012221460C
:10173000641C425400222146641C425442495046D3
:10174000FEF76CFD0090FEF76AFE00B202909DF875
:1017500009202146641C3B4842549DF8082021463C
:10176000641C425438493046FEF758FD0090FEF79D
:1017700056FE00B202909DF809202146641C3148B3
:1017800042549DF808202146601CC4B22D484254A2
:101790002D493846FEF742FD0090FEF740FE00B2AC
:1017A00002909DF809202046611CCCB225490A54BC
:1017B0009DF808202146601CC4B2224842549DF87E
:1017C00007202046611CCCB21E490A549DF8062011
:1017D0002046611CCCB21B490A549DF805202046C6
:1017E000611CCCB217490A549DF804202146601CA4
:1017F000C4B2144842542046611CCCB2114901F8CD
:1018000000B02146621CD4B20E4A0D985054201FDD
:101810001146C870002506E00A48405D484400F0C3
:10182000FF09681CC5B2A542F6DB2046611CCCB29C
:10183000044901F8009021460248FFF74DFDBDE83C
:10184000FE8F0000480B00200000C8422DE9F05F29
:1018500006460F4614464FF00008C146C246B6F988
:1018600000002849284A127841F82200B6F90200FF
:101870002649254A127841F82200B6F90400244985
:10188000214A127841F822001F480078401C1E4966
:10189000087008460078A04204DA1E48007808B1B3
:1018A000BDE8F09F00201B49087000250CE015489A
:1018B00050F825008044154850F82500814414480C
:1018C00050F8250082446D1CA542F0DB0E480078DC
:1018D000A04202DB00200C49087098FBF4FB58463C
:1018E000FEF77EFD386099FBF4FB5846FEF778FD65
:1018F00078609AFBF4FB5846FEF772FDB86000BFB3
:10190000CEE70000C806002036020020180700209D
:10191000680700203702002000B50948007868B148
:101920000848007828B100200649087002F02BF919
:1019300004E001200349087002F018F900BD00001E
:10194000F4010020D901002000B587B001214FF437
:10195000017002F06FF84FF4004002F04FF80220DF
:10196000ADF8180000208DF81B0006A9104800F003
:1019700017FD00200190049001208DF81400002034
:101980008DF808004FF46020039000208DF80900C6
:1019900001A90848FEF740FF01210648FEF731FF84
:1019A0000723012211460348FEF75EFF07B000BD82
:1019B000000801400024014010B504462848007882
:1019C000C007B0EBC47F0FD004F0010038B1012094
:1019D0002449087002F0B5F802F0C8F804E00020CD
:1019E0002049087002F0C2F81D48007800F002009B
:1019F00004F0020188420FD004F0010038B1012048
:101A00001849087002F09DF802F0B0F804E00020D8
:101A10001449087002F0AAF804F0040028B1124832
:101A2000007840F00100104908700D48007800F07F
:101A3000080004F0080188420FD004F0080030B11B
:101A40000948007840F040000749087005E0064862
:101A5000007820F04000044908700148047010BD6F
:101A600090020020790200201C0200202DE9F04F96
:101A700087B005460E461446994628680490686863
:101A80000590A8680690B4F90010A1F2DC50FEF7AA
:101A9000A7FC07467C49FEF7F3FB0190B4F902105E
:101AA000A1F2DC50FEF79CFC07467749FEF7E8FB05
:101AB0000290B4F9061040F2DC52501AFEF790FC86
:101AC00007467149FEF7DCFB03907048007810B9B7
:101AD000002003900CE00398FEF7CEFC21F00041BB
:101AE000074600226A4BFEF7DBFC01D20020039080
:101AF00068480078C0F3801018B104A901A803F069
:101B0000AFFB6548049A019901F06CFC6348059AA3
:101B1000029901F067FC62497068FEF77FFB074697
:101B20005D483A46416B5F4801F05CFC5C493068B7
:101B3000FEF774FB80F0004758483A46416B5A481C
:101B400001F050FC5649B068FEF768FB0746574A5B
:101B500011680398FEF762FB80463A4641465448B6
:101B600001F040FCB4F90400642863DDB9F1000F12
:101B700060D0B4F90400FEF733FC82464948416B5B
:101B80005046FEF745FB80464748416B4046FEF70E
:101B90003FFB07464648416B3846FEF739FB45494F
:101BA0000860B4F90400FEF71BFC82463D48416B17
:101BB0005046FEF7DBFA80463B48416B4046FEF755
:101BC00027FB07463A48416B3846FEF7CFFA3A49B9
:101BD0000860B4F90400FEF703FC82463148416B0B
:101BE0005046FEF7C3FA80462F48416B4046FEF749
:101BF000BDFA07462E48416B3846FEF709FB2F49D0
:101C00000860B4F90400FEF7EBFB82462548416BFF
:101C10005046FEF7FDFA80462348416B4046FEF7EA
:101C2000A5FA07462248416B3846FEF79FFA244939
:101C3000086008E000201F4908601F4908601F492C
:101C400008601F4908601E480068FEF7E8FB07B2FD
:101C50001A480068FEF7E3FB0FFA80F816480068A0
:101C6000FEF7DDFB0FFA80FA12480068FEF7D7FB9B
:101C70000FFA80FB3B4642465146584601F014FBA2
:101C800007B0BDE8F08F000000002042780200207D
:101C9000000010401C020020200900205C090020E8
:101CA000A34C6542D4090020100A002098090020A6
:101CB0004C0A0020680200206C0200207002002004
:101CC000740200202DE9F84F06460F4690469946CB
:101CD000DDF828B00024A246AA222146641C8748C9
:101CE00042542146641C4254F1222146641C425451
:101CF00000222146641C425400969DF80320214690
:101D0000641C42549DF802202146641C42549DF8F4
:101D100001202146641C42549DF800202046611C8D
:101D2000CCB276490A5400979DF803202046611CE6
:101D3000CCB272490A549DF802202146601CC4B2FC
:101D40006E4842549DF801202046611CCCB26B497C
:101D50000A549DF800202046611CCCB267490A5401
:101D6000CDF800809DF803202046611CCCB2634969
:101D70000A549DF802202046611CCCB25F490A54E7
:101D80009DF801202046611CCCB25C490A549DF8A4
:101D900000202046611CCCB258490A54CDF800906E
:101DA0009DF803202046611CCCB254490A549DF88A
:101DB00002202046611CCCB250490A549DF80120F3
:101DC0002046611CCCB24D490A549DF800202046A3
:101DD000611CCCB249490A54CDF800B09DF80320EB
:101DE0002046611CCCB245490A549DF80220204689
:101DF000611CCCB241490A549DF801202046611C67
:101E0000CCB23E490A549DF800202046611CCCB259
:101E10003A490A540B9800909DF803202046611C13
:101E2000CCB236490A549DF802202046611CCCB23F
:101E300032490A549DF801202046611CCCB22F493A
:101E40000A549DF800202046611CCCB22B490A544C
:101E50000C9800909DF803202046611CCCB22749C5
:101E60000A549DF802202046611CCCB223490A5432
:101E70009DF801202046611CCCB220490A549DF8EF
:101E800000202046611CCCB21C490A540D980090D9
:101E90009DF803202046611CCCB218490A549DF8D5
:101EA00002202046611CCCB214490A549DF801203E
:101EB0002046611CCCB211490A549DF800202046EE
:101EC000611CCCB20D490A54201FC870002506E0E1
:101ED0000A48405D504400F0FF0A681CC5B2A542A4
:101EE000F6DB2046611CCCB2044901F800A0214673
:101EF0000248FFF7F1F9BDE8F88F0000480B002019
:101F000000201C49088048808880C880088148815A
:101F10004FF4E16088810820C881322008824FF4A4
:101F2000E1604882082088823220C882002008832D
:101F30004883888340F2A230C883052008844FF488
:101F40005770488440F2A23088840520C8844FF43A
:101F5000577008854FF4FA604885322088854FF421
:101F60007A70C8850020088648868886C8860887D3
:101F700048877047000B002070B5FFF7C1FF3E2473
:101F80002046E11704EB91718910A4EB8101091D32
:101F900009B1012100E0002194FBF1F1CDB22A4604
:101FA0000249034802F0BAF970BD0000000B00209E
:101FB00000F8010810B56FF0040002F0F1FA0A48C9
:101FC00000680A49B0FBF1F009490870084600783A
:101FD00000EB4001C1EBC0104FF6FF7101EAC000F9
:101FE0000449088010BD0000A802002000127A00F9
:101FF000DA010020DC010020014600224FF0E0233E
:102000001A610E4A12884A435A6100229A611A469E
:10201000126942F001021A6100BF4FF0E02210691C
:1020200000F001021AB100F48032002AF5D000223B
:102030004FF0E0231A619A6170470000DC01002034
:10204000014600224FF0E0231A610E4A12784A43FB
:102050005A6100229A611A46126942F001021A611D
:1020600000BF4FF0E022106900F001021AB100F445
:102070008032002AF5D000224FF0E0231A619A61E5
:1020800070470000DA01002010B5042000F042F88B
:10209000002834D01A48006840F48070184908605D
:1020A000072001F0FDFF044604F0200050B10F208E
:1020B00002F054F82021272002F034F8FF21E1201B
:1020C00002F030F804F0400040B10E4801F04CFF3F
:1020D00001F0E2FD4021272002F024F804F0100076
:1020E00050B10F2002F03AF81021272002F01AF820
:1020F000FF21E12002F016F8042000F005F810BDE1
:1021000014080140E80200200149086070470000FF
:1021100014040140014600200022074B1B6803EA1B
:102120000102054B14331B680B4013B10AB10120A7
:1021300000E0002070470000000401400021234916
:102140008279002A3AD00A46126803689A430B46FD
:102150001A600A1D126803689A430B1D1A600279FF
:1021600011440A6803681A430A60184A0832126860
:1021700003689A43154B08331A601A1D12680368E6
:102180009A43124B0C331A604279102A0ED11A1F4F
:10219000126803681A430D4B08331A601A1D12683F
:1021A00003681A43094B0C331A600DE00749427962
:1021B00011440A6803681A430A6005E00279114471
:1021C0000A6803689A430A607047000000040140EF
:1021D0000EB50121092001F02DFC0221012000F0A3
:1021E000BFF80420ADF8080048208DF80B0003204C
:1021F0008DF80A0002A9094800F0D2F804200090E6
:1022000000208DF804000C208DF8050001208DF8C9
:1022100006006846FFF792FF0EBD0000000C01406B
:1022200030B5044604254FF4302000F085F805460B
:10223000042D17D10C48006940F002000A490861DA
:1022400008464461006940F0400008614FF43020C6
:1022500000F072F805460448006941F6FD71084037
:1022600001490861284630BD0020024004200B4986
:10227000C96801F0010109B101200EE00749C968F0
:1022800001F0040109B1022007E00449C96801F026
:10229000100109B1032000E0042070470020024033
:1022A0000348006940F08000014908617047000060
:1022B0000020024078B506460C4604250020009018
:1022C000E80200F039F80546042D24D113480069CE
:1022D00040F00100114908613480E80200F02CF858
:1022E0000546042D10D1B01C0090200C00990880E8
:1022F000E80200F021F805460848006941F6FE7141
:1023000008400649086106E00448006941F6FE718C
:10231000084002490861284678BD000000200240BC
:1023200002480349486003484860704723016745F5
:1023300000200240AB89EFCD00B502460423FFF731
:1023400095FF034603E0FFF791FF0346521E012B62
:1023500001D1002AF7D102B90523184600BD0000BB
:1023600030B500228B071C0F0F2303FA04F20B4B2E
:102370008C1053F824309343084C8D1044F82530CA
:1023800023468C1053F824308C07240F00FA04F4F1
:102390002343024C8D1044F8253030BD0800014025
:1023A0002DE9F041024600250026002000230024EC
:1023B000002791F803C00CF00F0591F803C00CF052
:1023C000100CBCF1000F03D091F802C04CEA0505D7
:1023D00091F800C0BCF1000F31D0146800202BE050
:1023E0004FF0010C0CFA00F3B1F800C00CEA030640
:1023F0009E4220D183004FF00F0C0CFA03F7BC4330
:1024000005FA03FC4CEA040491F803C0BCF1280F60
:1024100006D14FF0010C0CFA00FCC2F814C00AE01F
:1024200091F803C0BCF1480F05D14FF0010C0CFA34
:1024300000FCC2F810C0401C0828D1D31460B1F8C9
:1024400000C0BCF1FF0F34DD546800202EE000F125
:10245000080C4FF0010808FA0CF3B1F800C00CEAC0
:1024600003069E4221D183004FF00F0C0CFA03F7B4
:10247000BC4305FA03FC4CEA040491F803C0BCF128
:10248000280F05D100F1080C08FA0CF8C2F81480E6
:1024900091F803C0BCF1480F07D100F1080C4FF0D0
:1024A000010808FA0CF8C2F81080401C0828CED3A6
:1024B0005460BDE8F081416170470161704710B51B
:1024C00001F054FB01F030FB6420FFF795FD01F0B3
:1024D0004DFB6420FFF790FD01F026FB6420FFF721
:1024E0008BFD01F043FB6420FFF786FD01F01CFB30
:1024F0006420FFF781FD01F039FB10BD10B54020CD
:102500000A49086001F024FC802008490860012085
:10251000FFF796FD40200549091F08600220FFF7DC
:102520008FFD40200149086010BD0000140C0140DF
:1025300008B50121082001F07DFAC020ADF80000A7
:1025400010208DF8030003208DF80200694604482E
:10255000FFF726FFC0210248FFF7AFFF08BD0000CC
:10256000000C014010B540200A49086001F0F0FB62
:1025700080200849091F08600120FFF761FD402005
:102580000449091F08600120FFF75AFD4020014956
:10259000086010BD140C014070B50546002401F020
:1025A000C5FB002618E04020104908600120FFF715
:1025B00047FD40200D49091F08606006040E0B48C6
:1025C0000C380068C0F3C01008B1601CC4B2012010
:1025D000FFF736FD701CC6B2082EE4DB15B1FFF71D
:1025E0008DFF01E0FFF7BEFF204670BD140C0140D7
:1025F00070B504460D46164600F086F8204600F0F9
:1026000055F800F0B3F818B100F098F8012070BD4B
:10261000284600F04BF800F0A9F800F075F8611CAE
:10262000C8B200F043F800F0A1F80020FFF7B4FFB3
:10263000307000F083F80020E9E72DE9F047064606
:102640000F4615469846002400F05EF8304600F02C
:102650002DF800F08BF820B100F070F80120BDE8F3
:10266000F087384600F022F800F080F800F04CF8CF
:10267000711CC8B200F01AF800F078F800240FE0DE
:10268000681EA04204D00120FFF786FF814603E0C8
:102690000020FFF781FF814608F80490601CC4B257
:1026A000AC42EDDB00F04AF80020D8E770B50446F4
:1026B00001F04EFB40201349086000251EE004F0A5
:1026C000800020B180200F49091F086002E08020AF
:1026D0000C4908606006040E0120FFF7B1FC4020A1
:1026E0000849091F08600120FFF7AAFC402005499E
:1026F00008600120FFF7A4FC681CC5B2082DDEDBD2
:1027000070BD0000140C014010B501F021FB8020C9
:1027100009490860402008600420FFF791FC8020F0
:102720000549091D08600420FFF78AFC4020024982
:10273000091D086010BD0000100C014010B501F02B
:1027400007FB402008490860802008600420FFF74C
:1027500077FC40200449091F08608020086004209D
:10276000FFF76EFC10BD0000140C014010B50024F2
:1027700001F0DCFA8020104908600120FFF760FCBE
:1027800040200D4908600120FFF75AFC07E0601C5B
:10279000C4B2FA2C03DDFFF7D1FF012010BD0648BB
:1027A00008380068C0F3C0100028F0D1402002496A
:1027B000091D08600020F1E7100C014070B50646C5
:1027C0000C461546FFF7A0FF3046FFF76FFFFFF7F7
:1027D000CDFF18B1FFF7B2FF012070BD2046FFF713
:1027E00065FFFFF7C3FF2846FFF760FFFFF7BEFF57
:1027F00018B1FFF7A3FF0120EFE7FFF79FFF0020CD
:10280000EBE7000007B5A8B02422FE491EA8FDF79B
:102810009BFC299800681D90299840681C90299875
:1028200080681B90289800681A9028984068199032
:10283000289880681890F44801680068FDF7EEFC5D
:102840001090F2480168F0480068FDF7E7FC0F902F
:10285000EF480168EC480068FDF7E0FC0E90ED4899
:102860000168E9480068FDF7D9FC0D90E748016868
:102870000068FDF7D3FC0C90E5480168E348006868
:10288000FDF7CCFC0B90E3480168E0480068FDF7D9
:10289000C5FC0A90DE4801680068FDF7BFFC09909E
:1028A000DC480168DA480068FDF7B8FC0890D948B0
:1028B00001680068FDF7B2FC0790DDE91C10FDF728
:1028C000ADFC05901B99FDF7A9FC00210690FDF7D2
:1028D0001BFE01D12BB000BD1B990846FDF79EFCE5
:1028E00005901C990846FDF799FC03901D99084630
:1028F000FDF794FC02900399FDF738FC04900599CC
:10290000FDF734FC069003F081F8119011991D98A1
:10291000FDF784FC1D9011991C98FDF77FFC1C901D
:1029200011991B98FDF77AFC1B900E990A98FDF7F8
:102930006FFC4FF080410690FDF770FC17900899EE
:102940000F98FDF713FC4FF080410690FDF766FCF1
:1029500016900C991098FDF75BFC05900999FDF70E
:1029600057FC06900799FDF701FC159016991B98E6
:10297000FDF754FC069015991C98FDF74FFC059047
:102980000699FDF745FC149015991D98FDF746FC36
:10299000069017991B98FDF741FC05900699FDF7E5
:1029A00037FC139017991C98FDF738FC0690169980
:1029B0001D98FDF733FC05900699FDF729FC129050
:1029C00095491498FDF72AFC0690944801680698EA
:1029D000FDF7CCFB914908608F491398FDF71EFC69
:1029E00006908F4801680698FDF7C0FB8C49086087
:1029F00089491298FDF712FC06908A4801680698EA
:102A0000FDF7B4FB874908604FF07F501499FDF73C
:102A100005FC05901A99FDF7A9FB06907F4801680F
:102A20000698FDF7A3FB1A904FF07F501399FDF71E
:102A3000F5FB05901999FDF799FB06907848016818
:102A40000698FDF793FB19904FF07F501299FDF710
:102A5000E5FB05901899FDF789FB06907148016820
:102A60000698FDF783FB18906A4818990068FDF7EF
:102A7000D5FB0490664819990068FDF7CFFB0290DA
:102A80006248006880F0004000901A99FDF7C6FB8C
:102A900001900299FDF7BCFB03900499FDF7B8FB88
:102AA0005D490590FDF7BAFB069057480168069806
:102AB000FDF75CFB54490860564819990068FDF71A
:102AC000ADFB0490524818990068FDF7A7FB0290EF
:102AD0004D481A990068FDF7A1FB01900299FDF796
:102AE00045FB03900499FDF793FB4B490590FDF7D7
:102AF00095FB0690454801680698FDF737FB43496A
:102B0000086044481A990068FDF788FB04903F4824
:102B100018990068FDF782FB02903B4819990068FC
:102B2000FDF77CFB01900299FDF772FB039004997D
:102B3000FDF71CFB38490590FDF770FB0690344803
:102B400001680698FDF712FB3149086030481A9970
:102B50000068FDF763FB04902C4819990068FDF7A5
:102B60005DFB0290284818990068FDF757FB01901B
:102B70000299FDF7FBFA03900499FDF749FB2649FA
:102B80000590FDF74BFB0690224801680698FDF77B
:102B9000EDFA20490860084601680068FDF73EFB31
:102BA00005901B4801680068FDF738FB0390174843
:102BB00001680068FDF732FB019013480168006866
:102BC000FDF72CFB00900199FDF7D0FA02900399D4
:102BD000FDF7CCFA04900599FDF7C8FA069002F0CB
:102BE00015FF1190084811990068FDF717FB064979
:102BF0000860064811990068FDF710FB034908605A
:102C0000034811E0485C0008400200204402002014
:102C1000480200204C0200200AD7A33B50020020AB
:102C2000540200205802002011990068FDF7F6FABE
:102C300065490860654811990068FDF7EFFA634936
:102C400008600C991098FDF791FA05900999FDF725
:102C5000DFFA06900799FDF7DBFA1E900D990B98A5
:102C6000FDF784FA4FF080410690FDF7D7FA1F90E8
:102C70000E990A98FDF7CCFA4FF080410690FDF7C7
:102C8000CDFA20900D990B98FDF7C2FA4FF08041D4
:102C90000690FDF7C3FA21900C991098FDF7B8FA49
:102CA00005900999FDF762FA06900799FDF7B0FAC9
:102CB00022900F990898FDF759FA4FF0804106903D
:102CC000FDF7ACFA23900E990A98FDF74FFA4FF0F2
:102CD00080410690FDF7A2FA24900F990898FDF71D
:102CE00097FA4FF080410690FDF798FA25900C99DD
:102CF0001098FDF78DFA05900999FDF789FA06906D
:102D00000799FDF733FA2690289880683049049097
:102D1000FDF784FA2F490590FDF780FA06902A986E
:102D20008068014605900698FDF720FA2A99886088
:102D30000E990A98FDF76CFA4FF080410490FDF768
:102D40006DFA059002F0D2FB23490690FDF766FA72
:102D50002A9908600C991098FDF75AFA029009997F
:102D6000FDF756FA03900799FDF700FA05904FF02A
:102D700080400F99FDF752FA03904FF08040089978
:102D8000FDF74CFA02900399FDF7F0F904900599CC
:102D900002F03EFC10490690FDF740FA2A9948607F
:102DA000002027900AE01EA9279851F820100B4A0E
:102DB00042F820102798401CC0B227902798092875
:102DC000F1DB00BF86E50000480200204C02002035
:102DD000A34C65420AD7233C33336542AC0800203C
:102DE0000749016007494160074981600021C160CE
:102DF000016181610022C26102624262704700008B
:102E00006F12833AA69B443B8FC2F53C00B5034842
:102E1000FFF7E6FF0248FFF7E3FF00BDD008002000
:102E2000F808002008B50121082000F003FE4FF447
:102E30004070ADF8000010208DF8030003208DF8DD
:102E4000020069460648FFF7ABFA4FF48071044868
:102E5000FFF733FB4FF400710148FFF72CFB08BD6F
:102E6000000C014010B50A48007840B10020084924
:102E700008704FF480710748FFF71FFB06E0012040
:102E80000349087001020348FFF715FB10BD00005D
:102E9000D5010020000C014000B589B001210D20B2
:102EA00000F0C8FD0121022000F0B4FDC020ADF803
:102EB000200018208DF8230003208DF8220008A997
:102EC0003848FFF76DFA0320ADF8200018208DF880
:102ED000230003208DF8220008A93348FFF760FA89
:102EE00040F2E730ADF818006420ADF8140000207F
:102EF000ADF81600ADF81A0005A92C4801F0EEFD5A
:102F00006020ADF804000020ADF80A00ADF80C0018
:102F10000120ADF8060001A9244801F083FC082136
:102F2000224801F0CBFC6020ADF804000020ADF891
:102F30000A00ADF80C000120ADF8060001A91B48FD
:102F400001F0C6FC0821194801F014FD6020ADF81D
:102F500004000020ADF80A00ADF80C000120ADF827
:102F6000060001A9114801F013FD08210F4801F0E6
:102F70005FFD6020ADF804000020ADF80A00ADF858
:102F80000C000120ADF8060001A9084801F05AFD27
:102F90000821064801F094FD0121044801F0F9FBE5
:102FA00009B000BD00080140000C014000040040D1
:102FB00010B504E004A002F093F900F04BFE00F01D
:102FC0006AF90028F6D010BD0D4D50553630353019
:102FD000206E6F20636F6E6E6563742E2E2E0D0A49
:102FE0000000000010B5FFF7E3FF80216B2000F028
:102FF0003DF96420FFF700F801216B2000F036F95D
:103000000021382000F032F918211B2000F02EF9A1
:1030100008211C2000F02AF902211A2000F026F9CC
:103020000021192000F022F90221372000F01EF9BA
:1030300010BD00000FB52B480088A0B90020ADF8E6
:103040000000ADF80200ADF80400274908602749E8
:1030500008602749086001202249088000230020D9
:10306000108050809080BDF900001F490968084415
:103070001D490860BDF902001C49096808441B4944
:103080000860BDF90400C01A1949096808441849C4
:10309000086014480088C8281DD1134800681149E9
:1030A000098890FBF1F000B21080104800680D49CB
:1030B000098890FBF1F000B250800D480068094982
:1030C000098890FBF1F000B290800020054908804B
:1030D000012004B000BD03480088401C014908805D
:1030E0000020F6E72C02002020020020240200200D
:1030F000280200201CB5444840784349097840EA3A
:10310000012042490988401A00B2414908803E48DE
:10311000C0783D49897840EA01203C494988401AF5
:1031200000B23B494880384840793749097940EA3C
:10313000012036498988401A00B2354988803248D2
:10314000407A3149097A40EA012032490988401A17
:1031500000B2314908802C48C07A2B49897A40EA6C
:1031600001202C494988401A00B22B494880264842
:10317000407B2549097B40EA012026498988401A7D
:1031800000B2254988802548007800F00100E0B1B0
:103190000846016800918088ADF8040000231D4AAC
:1031A000DDE90001FFF746FF78B11C48007820F008
:1031B00001001A49087000F0C5F9FFF780F91748B7
:1031C000007840F002001549087014480078C0F3F8
:1031D0004000B8B10E48016800918088ADF8040045
:1031E00042F20403094ADDE90001FFF723FF48B179
:1031F0000A48007820F002000849087000F0A2F99F
:10320000FDF7E0FA1CBD0000480300200A02002080
:103210001002002004020020160200201C020020E0
:1032200010B5034A0E213B2000F011F810BD00003C
:103230004803002070B504460D462A462146D0209A
:10324000FFF7D6F908B1012070BD0020FCE770B58A
:1032500004460D46164633462A462146D020FFF73F
:10326000ECF908B1012070BD0020FCE770B5044600
:103270000D462A462146D020FFF7A0FA08B10120CA
:1032800070BD0020FCE708B569467520FFF7D2FF46
:103290009DF8000008BD10B5FFF7F5FF682801D1C3
:1032A000012010BD0020FCE730B5B0F57A7F01DDCC
:1032B0004FF47A70B1F57A7F01DD4FF47A71B2F58F
:1032C0007A7F01DD4FF47A72B3F57A7F01DD4FF436
:1032D0007A73002800DA0020002900DA0021002A91
:1032E00000DA0022002B00DA0023044D28802D1D77
:1032F00029802D1D2A802D1D2B8030BD34040040D7
:1033000070B5002100230F22C47804B3154C246843
:1033100004F4E064C4F5E064210AC1F10403CA4086
:10332000447804FA03F184781440214309010E4CD7
:103330000678A155047804F01F050124AC400578F7
:103340006D11AD0005F1E025C5F8004109E00478F4
:1033500004F01F050124AC40044D0678761145F8B1
:10336000264070BD0CED00E000E400E080E100E0EC
:1033700002490143024A1160704700000000FA054B
:103380000CED00E008B54FF4A060FFF7F1FF1E2040
:103390008DF8000001208DF801008DF802008DF8F5
:1033A00003006846FFF7ACFF25208DF800000220DF
:1033B0008DF8010001208DF802008DF803006846A9
:1033C000FFF79EFF08208DF8000002208DF8010015
:1033D0008DF8020001208DF803006846FFF790FF8A
:1033E00008BD00002DE9F04104460E461546294669
:1033F0003046FCF70DFFE060A169E068FCF708FFCC
:103400006061E1682068FCF709FFA06294F8380069
:10341000FCF7EFFF80466168FCF700FF0746216973
:10342000FCF7FCFEE0626169A068FCF7F7FE206330
:10343000D4E90A01FCF79AFE0746216BFCF796FED9
:1034400060631E480078012831D11D48B0F904009E
:10345000B4282CDB2846216AFDF760F807D3206AE0
:1034600080F0004729463846FDF758F803D200207F
:1034700084F838001DE0012084F83800D4E90310F6
:10348000FCF774FE2061616A2069FDF747F801D2FC
:10349000606A2061606A80F0004738462169FDF764
:1034A0003DF806D2606A80F00040206101E0002013
:1034B0002061E068A061BDE8F08100007902002091
:1034C0008802002070B53E242046E11704EB91717C
:1034D0008910A4EB8101091D09B1012100E000213F
:1034E00094FBF1F1CDB22A460E490F4800F002FFDD
:1034F00001F046FB0B48408A4FF6FF7188420DD120
:1035000008488089884209D10648008B884205D145
:10351000FEF732FD05A001F0E3FE01E0FEF72CFD11
:1035200070BD0000000B002000F80108466C6173BC
:10353000682052656164204572726F722121210DED
:103540000A00000070B500F01BF83E242046E11789
:1035500004EB91718910A4EB8101091D09B10121CE
:1035600000E0002194FBF1F1CDB22A460249034864
:1035700000F0D4FE70BD0000000B002000F8010830
:1035800010B5834800888349088081484088488076
:103590007F488088888080480088C8807E4840882E
:1035A00008817D48808848817C4908687C49FCF70F
:1035B00035FE0446FCF74CFF764988817749486818
:1035C0007749FCF72BFE0446FCF742FF7149C8819E
:1035D000724988687249FCF721FE0446FCF738FFFF
:1035E0006C4908826F4908686D49FCF717FE04466C
:1035F000FCF72EFF674948826A4948686849FCF72A
:103600000DFE0446FCF724FF6249888265498868FC
:103610006349FCF703FE0446FCF71AFF5D49C882C4
:10362000614908685E49FCF7F9FD0446FCF710FFA4
:10363000584908835C4948685949FCF7EFFD04463E
:10364000FCF706FF53494883574988685449FCF7FB
:10365000E5FD0446FCF7FCFE4E49888353490868A3
:103660004F49FCF7DBFD0446FCF7F2FE4949C883ED
:103670004E4948684A49FCF7D1FD0446FCF7E8FE8C
:1036800044490884494988684549FCF7C7FD044610
:10369000FCF7DEFE3F494884454908684049FCF78D
:1036A000BDFD0446FCF7D4FE3A4988844049486889
:1036B0003B49FCF7B3FD0446FCF7CAFE3549C88414
:1036C0003B4988683649FCF7A9FD0446FCF7C0FE73
:1036D00030490885374908683149FCF79FFD0446A1
:1036E000FCF7B6FE2B494885324948682C49FCF75F
:1036F00095FD0446FCF7ACFE264988852D4988686F
:103700002749FCF78BFD0446FCF7A2FE2149C8853A
:10371000294908682249FCF781FD0446FCF798FE18
:103720001C490886244948681D49FCF777FD044672
:10373000FCF78EFE174948861F4988681849FCF730
:103740006DFD0446FCF784FE124988861B49086813
:103750001349FCF763FD0446FCF77AFE0D49C88661
:10376000164948680E49FCF759FD0446FCF770FEFF
:1037700008490887114988680949FCF74FFD044644
:10378000FCF766FE034948870D480078888710BD1E
:103790000A020020000B0020040200202009002063
:1037A00000007A445C09002098090020D409002018
:1037B000100A00204C0A0020880A0020C40A0020B9
:1037C000F701002000201E4981F838001D480862DA
:1037D0001D48486200201D4981F838001C480862D5
:1037E0001C48486200201C4981F8380015480862CE
:1037F000154848620020194981F8380014480862C9
:10380000144848620020164981F838000D480862C3
:103810000D4848620020134981F838000C480862BE
:103820000C4848620020104981F83800086248625C
:103830000E4981F838000E48086206484862704711
:10384000D4090020000016430000964420090020FF
:1038500000000C4200004843100A00205C090020D0
:103860004C0A002098090020880A0020C40A002081
:103870000000C84270B5FFF7D3FCFFF73BFC0A22FB
:1038800051495248FDF7E2FF4F4908685049FCF79B
:10389000C5FC04464F49FCF7C1FC4B490860486829
:1038A0004B49FCF7BBFC04464A49FCF7B7FC4649C8
:1038B000486088684649FCF7B1FC04464549FCF776
:1038C000ADFC414988604449B1F90000FCF788FD2E
:1038D00004464249FCF7A2FC414908603E49B1F95F
:1038E0000200FCF77DFD04463C49FCF797FC3C498F
:1038F00048603949B1F90400FCF772FD04463749C4
:10390000FCF78CFC364988603648007800283CD0AB
:10391000354908683549FCF781FC04462A4908689E
:103920003349FCF77BFC05462146FCF71FFC264982
:1039300008602D4948682D49FCF770FC044622496F
:1039400048682B49FCF76AFC05462146FCF70EFC4B
:103950001D494860244988682449FCF75FFC0446F7
:10396000194988682249FCF759FC05462146FCF7AD
:10397000FDFB15498860084600681B49086012482D
:10398000406848601048806888600F48006819499E
:1039900008600D48406848600B4880688860086887
:1039A0000021FCF7B1FD0ED0124948680021FCF758
:1039B000ABFD08D00F4988680021FCF7A5FD02D0B7
:1039C00001200D49087070BD7C0800201002002005
:1039D00040DAFF380AE81C411602002045798B3A8C
:1039E000640800205C02002094080020CDCCCC3D6F
:1039F0006666663FA00800203C02002001460020C9
:103A0000034A506820F4404008435060704700006B
:103A10000010024029B1064AD2690243044BDA6120
:103A200004E0034AD2698243014BDA617047000027
:103A30000010024029B1064A92690243044B9A6180
:103A400004E0034A92698243014B9A617047000087
:103A50000010024030B500210022002400232D4D2B
:103A60006D6805F00C0121B1042905D0082923D186
:103A700005E0294D056022E0274D05601FE0254D3A
:103A80006D6805F47012234D6D6805F480340225CD
:103A900005EB92421CB9214D554305600BE01D4DCD
:103AA0006D6805F400351DB11C4D5543056002E0FD
:103AB000194D5543056002E0174D056000BF00BF7A
:103AC000144D6D6805F0F0010909154D6B5C056832
:103AD000DD4045600F4D6D6805F4E061090A104D49
:103AE0006B5C4568DD4085600A4D6D6805F460518A
:103AF000C90A0B4D6B5C4568DD40C560054D6D68BE
:103B000005F44041890B074D6B5CC568B5FBF3F5C7
:103B1000056130BD0010024000127A0000093D002E
:103B200092020020A202002010B5002406E0FF222D
:103B30000021084601F086FB601CC4B2042CF6DBB1
:103B400010BD10B500240EE0022C05DA002211464B
:103B5000FF2001F077FB04E00022FF21104601F076
:103B600071FB601CC4B2042CEEDB10BD10B5002448
:103B700006E000221146104601F064FB601CC4B24E
:103B8000042CF6DB10BD10B5002406E00022FF2156
:103B9000104601F057FB601CC4B2042CF6DB10BDCC
:103BA000F0B5002500260027264801780078401C43
:103BB000244A1070102907DB0020114608702248A3
:103BC0000078401C20490870002431E01F4800782C
:103BD000042802DD00201D4908701D481A49097893
:103BE00000EB81101949097850F82100C0F307450E
:103BF00017481549097800EB81101449097830F805
:103C00002100C0F3072612480F49097800EB811004
:103C10000E49097810F821703A462946304601F0DD
:103C200011FB0A480078401C08490870601CC4B2A7
:103C3000042CCBDB04480078072802D1002002497D
:103C40000870F0BDD8010020D7010020D601002067
:103C50001400002010B5002406E000221146FF20C9
:103C600001F0F0FA601CC4B2042CF6DB10BD00B504
:103C70000346002200BF0BE003FA02F000F001004F
:103C800010B101F0A3FA01E001F068FA501CC2B2D1
:103C9000082AF1DB00BD000010B501201F490870A3
:103CA0001F48C07AA52800D010BD1D48007800F03C
:103CB000010020B31A4880781949C97840EA0120E8
:103CC00000B21849C880164800791549497940EA78
:103CD000012000B213498880114880791049C979C0
:103CE00040EA012000B20F4908800D48007A0C49D3
:103CF000497A40EA012000B20A49488008E00848B1
:103D0000007800F0080018B105494878FDF754FE26
:103D10000348807A0449087000BFC5E77802002094
:103D2000E8020020880200208602002008B5012158
:103D30000820FFF77FFE8020ADF8000004208DF8FA
:103D4000030069460148FEF72BFB08BD000C01404B
:103D500008B501210820FFF76DFE8020ADF80000B6
:103D600010208DF8030003208DF8020069460248F8
:103D7000FEF716FB08BD0000000C014010B504E082
:103D800004A001F0ADFAFFF7FEFE00F0A5F900284F
:103D9000F6D010BD0D20534932345231206E6F20C1
:103DA000636F6E6E6563742E2E2E0D0A0000000088
:103DB00010B51E48006840F480701C49086003215B
:103DC000232000F0AFF905221949302000F042F914
:103DD000052217492A2000F03DF91A21242000F07D
:103DE000A1F90121222000F09DF90121212000F0FC
:103DF00099F92021312000F095F905220D492A205A
:103E000000F028F91E21252000F08CF9272126201A
:103E100000F088F90F2000F0A1F90448001F0068A5
:103E200040F480700149091F086010BD140801406A
:103E3000F8010020FD01002010B513480078322859
:103E400010DD4FF0E0218869FCF776F9FCF76AF99C
:103E5000322190FBF1F201FB12000B490870FFF7D1
:103E600071FB0FE00948007907490978884209D0B9
:103E7000054800780549087103480078044908712D
:103E8000FFF796FF10BD0000F7010020F8010020A9
:103E9000FD01002008B501210C20FFF7CBFD4FF4F8
:103EA0008050ADF8000010208DF8030003208DF83D
:103EB000020069461748FEF773FA4FF4805115481F
:103EC000FEF7F9FA4FF48070ADF8000010208DF87D
:103ED000030003208DF8020069460F48FEF760FAE0
:103EE0004FF480710C48FEF7E6FA00F097F9FFF7FF
:103EF00045FF08481030006840F4805005491031F3
:103F0000086005481430006840F48070024914319C
:103F1000086008BD000C0140000801402DE9F04197
:103F200007460C4615460F48006840F480500D497E
:103F30000860384600F04AF98046002605E0FF2078
:103F400000F044F92070641C761CAE42F7DB054893
:103F5000001F006840F480500249091F0860404675
:103F6000BDE8F081140C014010B504460B48006810
:103F700040F4807009490860202221466120FFF743
:103F8000CDFFFF21E22000F0CDF80448001F0068BB
:103F900040F480700149091F086010BD14080140F9
:103FA00010B50F480078C8B10E48007850B10E48DF
:103FB00000780E490978884204D101F0BFF8FFF774
:103FC000E2FD07E00748007820B10948007808B909
:103FD000FFF7B7FD044800780449087010BD0000E1
:103FE0007802002079020020860200209102002041
:103FF000F401002010B504461448006840F48070B5
:104000001249086005221249302000F023F80522E9
:104010000F492A2000F01EF820222146A02000F09F
:1040200019F80E21202000F07DF87E21272000F0D5
:1040300079F80648001F006840F480700349091FA2
:1040400008600A20FDF7FCFF10BD000014080140C5
:10405000F80100202DE9F04107460C4615460F48AF
:10406000006840F480500D490860384600F0AEF812
:104070008046002604E0207800F0A8F8641C761C36
:10408000AE42F8DB0548001F006840F48050034949
:10409000091F08604046BDE8F0810000140C014093
:1040A00070B504460B48006840F480500949086028
:1040B000204600F08BF8FF2000F088F80546054800
:1040C000001F006840F480500249091F086028461C
:1040D00070BD0000140C01401CB510A103C9CDE94E
:1040E0000001052269463020FFF7B4FF052269462A
:1040F0001020FFF713FF002406E01DF80400A52898
:1041000000D003E0601CC4B2052CF6DB00BF052C18
:1041100001D000201CBD0120FCE70000A5A5A5A53D
:10412000A500000070B505460C460B48006840F439
:10413000805009490860284600F048F806462046A5
:1041400000F044F80448001F006840F48050024921
:10415000091F0860304670BD140C014010B50446BC
:104160000E2C16D11848006840F48070164908607B
:104170000E212020FFF7D6FF7E212720FFF7D2FF58
:104180001148001F006840F480700F49091F086043
:1041900018E00D48006840F480700B4908600F215A
:1041A0002020FFF7BFFF7E212720FFF7BBFF064837
:1041B000001F006840F480700349091F0860C82090
:1041C000FDF73EFF10BD00001408014010B5044685
:1041D00000BF02210A4800F061F80028F9D021460A
:1041E000074800F067F800BF0121054800F056F8C5
:1041F0000028F9D0024800F05AF8C0B210BD000003
:104200000038004021B1028842F04002028004E000
:1042100002884FF6BF731A400280704700B587B01E
:1042200001210820FFF706FC01218803FFF7F2FBBC
:104230004FF46040ADF8040018208DF8070003200B
:104240008DF8060001A91348FEF7AAF84FF4827012
:10425000ADF80A004FF40070ADF812000020ADF880
:104260001000ADF80E00ADF80C001020ADF81400F1
:104270000020ADF80800ADF816000720ADF81800D2
:1042800002A9054800F018F801210348FFF7BAFF1A
:1042900007B000BD000C014000380040024600207D
:1042A00013890B400BB1012000E00020704701464C
:1042B000888970478181704710B50022028802F416
:1042C00041520B884C8823438C882343CC8823435A
:1042D0000C8923434C8923438C892343CC89234372
:1042E0001A430280838B4FF2FF74234083830B8A2F
:1042F000038210BD30B503460C461546002206E089
:10430000184600F007F844F822001B1D521CAA4270
:10431000F6D330BD01460868704700002DE9F0472C
:1043200004460E4617464FF004080025A946B4F18E
:10433000006F02D31948844201D3BDE8F087FDF72E
:10434000EFFF254604EB87091448854211D20DE0A2
:104350002846FFF7DFFF401C38B11148FDF760FF2A
:104360008046B8F1040F01D002E02D1D4D45EFD37A
:1043700000BFB8F1040F0CD108E020463168FDF70A
:1043800099FF042800D003E0241D361D4C45F4D3CA
:1043900000BFFDF785FF00BFCFE700000000020867
:1043A00000F8010838B53C48007830B13B48007847
:1043B00040F010003949087005E03848007820F0D6
:1043C000100036490870FF203549087033480078DE
:1043D00048703448B0F9040000909DF801008870DE
:1043E0009DF80000C870304988683049FBF716FF17
:1043F0000446FCF714F800B200909DF8010028492B
:1044000008719DF800004871274948682749FBF763
:1044100005FF0446FCF703F800B200909DF8010088
:104420001F4988719DF80000C8711F4908681F491D
:10443000FBF7F4FE0446FBF7F2FF00B200909DF894
:104440000100174908729DF8000048721849C869B0
:104450001649FBF7E3FE0446FBF7E1FF00B20090CC
:104460009DF801000E4988729DF80000C87211493C
:1044700088680E49FBF7D2FE0446FBF7D0FF00B276
:1044800000909DF80100064908739DF800004873EC
:104490000846FFF7AFFD38BD790200201C0200205E
:1044A000C802002088020020580800200000C842EE
:1044B00008030020E001002010B500F001F810BD55
:1044C0000CB50020019000903348006840F4803023
:1044D0003149086000BF3048006800F400300090A7
:1044E0000198401C0190009818B90198B0F5A06F90
:1044F000F1D12948006800F4003010B1012000908B
:1045000001E0002000900098012843D12348006872
:1045100040F01000214908600846006820F00300C0
:1045200008600846006840F0020008601A484068C9
:10453000194948600846406848600846406840F4A9
:10454000806048600846406820F47C104860084657
:10455000406840F4E81048600846006840F0807009
:10456000086000BF0C48006800F000700028F9D017
:104570000948406820F00300074948600846406841
:1045800040F00200486000BF0348406800F00C00A3
:104590000828F9D10CBD00000010024000200240A4
:1045A000042808D14FF0E021096941F004014FF0DF
:1045B000E022116107E04FF0E021096921F00401D8
:1045C0004FF0E0221161704710B51348006840F0C9
:1045D00001001149086008464068104908400E492A
:1045E0004860084600680E4908400B4908600846C4
:1045F000006820F4802008600846406820F4FE002F
:1046000048604FF41F008860FFF756FF4FF00060CE
:104610000449086010BD0000001002400000FFF8CF
:10462000FFFFF6FE08ED00E010B5FEF7ABFEFEF76B
:10463000F9FBFDF7BFFC4FF4E12000F033FDFDF77F
:1046400077FF00F0CDF8FDF7C3FDFFF723FCFEF781
:10465000C9FCFEF721FCFDF777F9FEF733FFFFF702
:10466000B1F8FEF7D3FBFFF781FA02A000F038FEA5
:1046700010BD000053797374656D20496E69742014
:1046800046696E6973680A0010B50121324800F06E
:104690008CF800285AD031480088401C2F490880E7
:1046A0002F480088401C2E4908802E480088401C56
:1046B0002C4908802C480088401C2B4908802B4836
:1046C0000088401C2949088029480088401C284946
:1046D000088022480088022805DB00201F49088046
:1046E0000120244908701E480088052805DB0020A9
:1046F0001B4908800120204908701A4800880A28B0
:1047000005DB00201749088001201C490870164865
:104710000088642805DB002013490880012018491F
:10472000087012480088C82805DB00200F4908805F
:104730000120144908700E480088B0F5C87F05DBD9
:1047400000200B49088001200F4908700121024810
:1047500000F01CF810BD000000080040060000201A
:10476000080000200A0000200C0000200E0000209D
:1047700010000020050000200200002001000020A1
:10478000000000200300002004000020CA43028231
:10479000704721B1028842F00102028004E00288E1
:1047A0004FF6FE731A400280704730B50246002073
:1047B00000230024158A05EA0103958905EA01040E
:1047C00013B10CB1012000E0002030BD1AB1838983
:1047D0000B43838102E083898B4383817047000010
:1047E0000EB501210420FFF715F940F2CF20ADF8F6
:1047F00004006320ADF800000020ADF80600ADF81D
:1048000002006946064800F069F901221146044891
:10481000FFF7DCFF01210248FFF7BBFF0EBD0000E0
:104820000008004070B5002400220023058C4FF6DC
:10483000FE7635400584028C8388048B4FF68F7595
:104840002C40B51E2C400D882C43751E2A400D8926
:104850002A434D882A43144DA8420BD0134DA84239
:1048600008D0134DA84205D0124DA84202D0124DD7
:10487000A84213D14FF6F7752A404D892A434FF6C7
:10488000FB752A408D882A434FF6FF652B404FF673
:10489000FF552B408D892B43CD892B438380048387
:1048A000CD888586028470BD002C01400034014013
:1048B0000040014000440140004801400A460021F8
:1048C000018B4FF6F77319401143018370470000C5
:1048D00070B5002400220023058C4FF6EF7635409A
:1048E0000584028C8388048B48F6FF752C404FF6B4
:1048F000FF452C400D884FF6FF7606EA05252C4330
:104900004FF6DF752A400D8906EA05152A434D88C2
:1049100006EA05152A43154DA84202D0144DA842B7
:104920001DD14FF67F752A404D894FF6FF7606EA76
:1049300005152A434FF6BF752A408D8806EA0515EE
:104940002A434FF6FF352B404FF2FF752B408D89E0
:1049500006EA85052B43CD8906EA85052B4383802E
:104960000483CD880587028470BD0000002C0140BF
:10497000003401400A460021018B4FF2FF731940B9
:104980004FF6FF7303EA02231943018370470000C7
:1049900070B5002400220023058C4FF6FF663540D9
:1049A0000584028C8388848B4FF68F752C404FF6DC
:1049B000FC752C400D882C434FF6FF552A400D897D
:1049C0004FF6FF7606EA05252A434D8806EA0525B7
:1049D0002A43154DA84202D0144DA8421DD14FF2D2
:1049E000FF752A404D894FF6FF7606EA05252A43D2
:1049F0004FF6FF352A408D8806EA05252A434EF6F4
:104A0000FF752B404DF6FF752B408D8906EA051585
:104A10002B43CD8906EA05152B4383808483CD88FB
:104A20008587028470BD0000002C014000340140E5
:104A30000A460021818B4FF6F77319401143818399
:104A40007047000070B5002200230024058C4EF64C
:104A5000FF7635400584038C8488828B48F6FF7589
:104A60002A404FF6FF452A400D884FF6FF7606EAAA
:104A700005252A434DF6FF752B400D8906EA0535BD
:104A80002B434D8806EA05352B430B4DA84202D037
:104A90000A4DA84208D14BF6FF752C408D894FF680
:104AA000FF7606EA85152C4384808283CD88A0F8A2
:104AB0004050038470BD0000002C014000340140D0
:104AC0000A460021818B4FF2FF7319404FF6FF73A6
:104AD00003EA022319438183704700000022028801
:104AE0001D4B98420ED01D4B98420BD0B0F1804F19
:104AF00008D01B4B984205D01A4B984202D01A4B53
:104B0000984204D14FF68F731A404B881A43174BC3
:104B1000984207D0164B984204D04FF6FF431A40F4
:104B2000CB881A4302808B8883850B8803850A4BC8
:104B300098420BD0094B984208D00E4B984205D0B2
:104B40000D4B984202D00D4B984201D10B7A03864F
:104B50000123838270470000002C01400034014093
:104B60000004004000080040000C0040001000401D
:104B70000014004000400140004401400048014052
:104B800010B58848008800B2874908808548408869
:104B900000B248808348808800B288808148C088FD
:104BA00000B2824908807F48008900B248807D4871
:104BB000408900B288807B498889FBF71AFC04464B
:104BC0007B49FBF75DFB7B4908607649C889FBF7A9
:104BD00010FC04467649FBF753FB7649486071495F
:104BE000088AFBF706FC04467149FBF749FB71494B
:104BF00088606C49488AFBF7FCFB04466C49FBF76C
:104C00003FFB6D4908606749888AFBF7F2FB044661
:104C10006749FBF735FB684948606249C88AFBF77A
:104C2000E8FB04466249FBF72BFB634988605D495A
:104C3000088BFBF7DEFB04465D49FBF721FB5F4970
:104C400008605849488BFBF7D4FB04465849FBF7EA
:104C500017FB5A4948605349888BFBF7CAFB044647
:104C60005349FBF70DFB554988604E49C88BFBF74C
:104C7000C0FB04464E49FBF703FB51490860494914
:104C8000088CFBF7B6FB04464949FBF7F9FA4C4997
:104C900048604449488CFBF7ACFB04464449FBF7A9
:104CA000EFFA474988603F49888CFBF7A2FB04462E
:104CB0003F49FBF7E5FA434908603A49C88CFBF7DE
:104CC00098FB04463A49FBF7DBFA3E494860354910
:104CD000088DFBF78EFB04463549FBF7D1FA3949BD
:104CE00088603049488DFBF784FB04463049FBF768
:104CF000C7FA354908602B49888DFBF77AFB0446D3
:104D00002B49FBF7BDFA304948602649C88DFBF7AF
:104D100070FB04462649FBF7B3FA2B49886021490A
:104D2000088EFBF766FB04462149FBF7A9FA2749E1
:104D300008601C49488EFBF75CFB04461C49FBF7E6
:104D40009FFA224948601749888EFBF752FB0446B8
:104D50001749FBF795FA1D4988601249C88EFBF781
:104D600048FB04461249FBF78BFA194908600D49C4
:104D7000088FFBF73EFB04460D49FBF781FA144907
:104D800048600849488FFBF734FB04460849FBF7A5
:104D900077FA0F498860034890F83C000D49087085
:104DA00010BD0000000B00200A02002004020020B9
:104DB00000007A44200900205C09002098090020A6
:104DC000D4090020100A00204C0A0020880A002084
:104DD000C40A0020F701002010B52048007820B157
:104DE00000201E490870FBF79BFD1D48007880B12C
:104DF00000201B490870FEF73DFD1A4A1A491B485E
:104E0000FDF700FD1A4803781A4A18491548FCF7BF
:104E10002DFE1948007870B1002017490870FEF780
:104E200021F81348007820B91448007808B1FEF73B
:104E3000B7FEFCF771FD1248007830B10020104930
:104E40000870FFF7ADF8FFF7ADFA0E48007820B113
:104E500000200C490870FEF7EFFF10BD0500002090
:104E600001000020580800207C0800206408002071
:104E7000790200208802002000000020D4010020D8
:104E8000030000200400002070B500BF40F225514F
:104E90000F4800F047F838B10D48001D0088C4B233
:104EA0002046FCF781F90CE040F22441084800F06C
:104EB00039F830B106480088C5B20548001D0088A1
:104EC000C5B240F22551024800F004F870BD000060
:104ED0000038014010B50022002340F66A14A142B8
:104EE00000D100BF0A1201249440A3B2DC43048025
:104EF00010BD21B1828942F40052828104E082898E
:104F00004DF6FF731A408281704702460020B1F5CA
:104F1000007F00D100BF13880B400BB1012000E0DF
:104F20000020704770B502460024002300250020B1
:104F300040F66A16B14200D100BFC1F3421501F03C
:104F40001F03012606FA03F3012D02D1968933408F
:104F500006E0022D02D1168A334001E0968A3340E2
:104F60000C12012606FA04F41688344013B10CB171
:104F7000012000E0002070BDF0B5034600240026AB
:104F80000025002040F66A17B94200D100BF18463C
:104F9000C1F3421401F01F06012707FA06F5012CA0
:104FA00001D10C3004E0022C01D1103000E01430AB
:104FB0001AB107682F43076002E00768AF43076034
:104FC000F0BD00002DE9F04786B005460E460024EE
:104FD000A24600BFA1460027B08900B100BF2F46FE
:104FE0002C8A4CF6FF700440F08804432C82AC8974
:104FF0004EF6F3100440B0883189084371890843A4
:105000000443AC81AC8A4FF6FF400440B0890443AE
:10501000AC8201A8FEF71EFD1F48874202D1DDF8D1
:1050200010A001E0DDF80CA0A88900F4004040B118
:105030000AEBCA0000EB0A1031684900B0FBF1F836
:1050400007E00AEBCA0000EB0A1031688900B0FBE8
:10505000F1F86420B8FBF0F004012009642101FBA1
:105060001089A88900F4004040B1322000EBC9004B
:10507000B0FBF1F000F00700044308E0322000EB41
:1050800009106421B0FBF1F000F00F0004432C8103
:1050900006B0BDE8F087000000380140C1F3080207
:1050A0008280704710B586B00446012144F20400A6
:1050B000FEF7C0FC4FF40070ADF8140018208DF816
:1050C000170003208DF8160005A91A48FDF768F9A6
:1050D0004FF48060ADF8140004208DF81700032011
:1050E0008DF8160005A91348FDF75AF90C20ADF804
:1050F0000E000020ADF80C000194ADF80A00ADF8E8
:105100000800ADF8100001A90B48FFF75BFF012272
:1051100040F225510848FFF72FFF012240F22441B9
:105120000548FFF729FF01210348FFF7E2FE06B01B
:1051300010BD00000008014000380140064880888A
:1051400000B2054988800846B0F90400962801DCC1
:105150009620888070470000880200201A48006866
:1051600040F400701849086000BF00BF00BF00BFD6
:1051700000BF00BF1448001D006840F400701249D1
:10518000091D086000BF00BF00BF00BF00BF00BF17
:1051900000BF00BF00BF00BF00BF00BF00BF00BF17
:1051A00000BF00BF00BF00BF00BF00BF00BF00BF07
:1051B00000BF00BF00BF00BF00BF00BF00BF00BFF7
:1051C00000BF00BF70470000100C01401C48006881
:1051D00040F400701A49086000BF00BF00BF00BF64
:1051E00000BF00BF00BF00BF00BF00BF00BF00BFC7
:1051F00000BF00BF00BF00BF00BF00BF00BF00BFB7
:1052000000BF00BF00BF00BF00BF00BF00BF00BFA6
:1052100000BF00BF00BF00BF0948001D006840F488
:1052200000700749091D086000BF00BF00BF00BF34
:1052300000BF00BF00BF00BF00BF00BF704700003D
:10524000100C014070B506460C4615463046FEF778
:105250000EFD2046FEF70BFD2846FEF708FD70BD4B
:105260002DE9FE4F04468946D9F80800FBF704F9FA
:1052700021F0004107464FF00052184BFBF73EF873
:105280000546FBF725F98246504600F0EFFA0290FA
:10529000504600F0E7FB0190D4F800B06068009041
:1052A000DDE90001FAF7BAFF054658460299FAF718
:1052B000B5FF06462946FAF759FF2060584601997E
:1052C000FAF7ACFF054602990098FAF7A7FF0646E1
:1052D0002946FAF79DFF6060BDE8FE8F47DF913FEA
:1052E000014A024900F0F0B8E9590008C002002064
:1052F0004100080218BF04200A0E18BF40F0010048
:105300004FF07F4232EA010108BF40F0020001285D
:1053100008BF052070470121FBF750B9FAF726BFF7
:1053200000210846FAF7ACBF6FF05E010807FBF7F3
:1053300045B900002DE9F04D0D4614464FF07F4170
:10534000B1EB440F9EBF4FF0FF312960BDE8F08DF7
:105350004FF0004040EA0421C4F3C750783810F001
:105360001F024A4B4FEA601CC2F120067B44C4F383
:10537000C750A0F178004FEA601003EB800053F8AB
:105380002C3008BFD0E901C612D0D0F804C0934039
:105390002CFA06F73B4387680CFA02FC27FA06F85A
:1053A000C06807FA02F2F0404CEA080C42EA000634
:1053B000A3FB0132ACFB01C0A6FB016101EB0C06B3
:1053C0008E4234BF4FF0010C4FF0000CC118614405
:1053D000BCF1000F02D0814202D903E0814201D228
:1053E000012000E00020104400F120024FEA921852
:1053F0008006CA0C40EA42304F03C5F80080FAF735
:10540000EFFF82463846FAF7F4FF6FF01201FBF720
:10541000D5F807463046FAF7ECFF6FF02501FBF7A9
:10542000CDF8834639465046FAF7A0FE5946FAF7BA
:105430009DFE00F500666FF30B0651463046FAF705
:10544000E7FE3946FAF7E4FE5946FAF7E4FE10495A
:10545000FAF7E4FE07460F493046FAF7DFFE394611
:10546000FAF784FE07460C493046FAF7D7FE39466C
:10547000FAF77CFE14F0004F08BFBDE8F08DC8F1CC
:10548000805180F000402960BDE8F08DFC080000EC
:10549000DB0FC92F22AAFD290000C92F02E008C88E
:1054A000121F08C1002AFAD170477047002001E09E
:1054B00001C1121F002AFBD170470000014908609A
:1054C00070470000C40200202DE9F04116460F4647
:1054D0000446002503E03946B047641C6D1C207863
:1054E0000028F8D12846BDE8F08100002DE9F04100
:1054F00004464FF00E4000EB4400B0F1506F2046E0
:1055000055D84FF0FC41B1EB440F1CD224F00040C1
:105510004FF07E51FAF77FFE4FF0FF31FBF74EF868
:10552000054600F063FB14F0004F1DBF2F4F304EB7
:1055300080F000402F4F08BF2F4E4FF04041FAF748
:105540006DFE044605E000273E460146FAF766FE7A
:1055500005462A492846FAF761FE2949FAF706FE68
:105560002946FAF75BFE2749FAF700FE2946FAF7C3
:1055700055FE2549FAF7FAFD2946FAF74FFE234969
:10558000FAF7F4FD804629462046FAF747FE4146E1
:10559000FAF744FE054631462046FAF7E7FD29466C
:1055A000FAF7E4FD3946BDE8F041FAF7DFBD4FF008
:1055B000E441B1EB440F08D9FFF79AFE042808BF75
:1055C000FFF7B2FE2046BDE8F0814FF07F41B1EB1E
:1055D000440F03D2BDE8F041FFF79DBE0120FFF765
:1055E0006DFFBDE8F041FFF79BBE00000000C9BFA2
:1055F00022AAFDB90000C93F22AAFD3924FE1C3DA4
:10560000C78AD83C1E67383D1B93993DAFAA2A3EF6
:105610002DE9F0474FF0684202EB40030C46054687
:10562000B3F1654F3CBF02EB4102B2F1654F7CD252
:10563000C0F3C753C1F3C7529A1A1B2A06DD10F0F4
:10564000004F14BF76487748BDE8F08712F11A0F73
:1056500017DA11F0004F06D010F0004F0CBF72485F
:105660007248BDE8F08721462846FAF709FE04464D
:10567000FFF73EFE042808BFFFF756FE2046BDE8B0
:10568000F0874200B2EB410F25D910F0004F19BF4F
:10569000674F684E684F694E224685F000441546B4
:1056A0000A4680F0004110460A1A5200B2F1807F8B
:1056B00040D248406249DFF88CA110F0004F18D06A
:1056C0004FF03F483846FAF7A3FD074651463046AB
:1056D000FAF79EFD17E011F0004F04BF0026374691
:1056E000E2D010F0004F19BF574F584E584F594E47
:1056F000DAE74FF07C583846FAF738FD074651464E
:105700003046FAF733FD064641462846FAF786FD4D
:105710002146FAF72BFD824621464046FAF77EFDE8
:105720002946FAF778FD514600E037E0FAF7A8FD80
:10573000044604E021462846FAF7A2FD0446014645
:10574000FAF76CFD80464449FAF768FD4349FAF7D9
:105750000DFD4146FAF762FD4149FAF707FD414662
:10576000FAF75CFD3F49FAF701FD4146FAF756FDAD
:105770003D49FAF7FBFC054641462046FAF74EFD47
:105780002946FAF74BFD3146FAF7F0FC2146FAF7C5
:10579000EDFC3946BDE8F047FAF7E8BC4FF07F4230
:1057A000B2EB400F28BFB2EB410F03D2BDE8F04788
:1057B000FFF7B4BD40EA01035B0008BF44F0FF41BE
:1057C0000AD0B2EB400F08BFB2EB410F06D125F073
:1057D000804024F0804105460C4629E7B2EB400F9B
:1057E00012BF5FEA410245F0FF4004F000413FF480
:1057F0001FAF4A0092EA40033FF51AAF002AACBF40
:105800004FF09F464FF03E563146FAF707FD0546EA
:1058100031462046FAF702FD04462846214607E7AE
:10582000DB0FC9BFDB0FC93FDB0F4940DB0F49C0AE
:105830000000C9BF22AAFDB90000C93F22AAFD3954
:105840000060ED3EC30ACE37000049C022AA7DBAEF
:105850000000494022AA7D3A2DAD65BD8FB8D53DE7
:105860000FB511BE61C84C3EA8AAAABE2DE9F843E7
:10587000044602464F486946B0EB420F09D94FF043
:10588000E640B0EB420F94BF00204FF0FF30009095
:1058900030E0494B22F00040834271D9474920460D
:1058A000FAF7BCFCFAF796FE8046FAF7B8FD00F06E
:1058B0000300009042494046FAF7B0FC05464149D2
:1058C0004046FAF7ABFC06463F494046FAF7A6FCCD
:1058D00007463E494046FAF7A1FC2146FAF79BFCF1
:1058E0003946FAF795FC3146FAF792FC2946FAF761
:1058F0008FFC04462546009C002C45DB294614F00D
:10590000010F08461CD0FAF789FC06463049FAF721
:1059100085FC3049FAF77FFC3146FAF77FFC2E49C7
:10592000FAF724FC3146FAF779FC2946FAF776FCB7
:105930002946FAF71BFC14F0020F1CD0BDE8F883CF
:10594000FAF76CFC05462549FAF768FC2449FAF792
:105950000DFC2946FAF762FC2249FAF707FC2946B2
:10596000FAF75CFC4FF07E51FAF700FC14F0020FDE
:1059700008BFBDE8F88380F00040BDE8F883FFE78A
:105980001046FFF7D7FCB4E76800B0F17F4F3CBF8B
:105990004FF07E50BDE8F88307D14FF00100FFF7CC
:1059A0008DFDBDE8F843FFF7BBBC2846BDE8F843D2
:1059B000FFF7B1BCB61F927E490E494683F9223FDC
:1059C0001A61342C0020A23300A0FD390000C93F29
:1059D000336D4C39DA82083CA0AA2ABEB93AB2BA71
:1059E000CA9F2A3DDDFFFFBE70B504460D46E1B2F9
:1059F0000548FFF753FB00BF80210348FFF785FAF6
:105A00000028F9D0204670BD003801402DE9F0474C
:105A100004464FF07C512046FAF700FC81462546AB
:105A20002E460C48A0EB6606354629464846FAF74E
:105A3000F5FB82462946FAF7F1FB80464FF07F518D
:105A4000FAF7E9FB07462946FAF7E8FB0546284638
:105A5000BDE8F087865A375FFEF7E6FD01E0FFF705
:105A6000BBF9FCE72DE9F843044602465248694673
:105A7000B0EB420F09D94FF0E640B0EB420F94BFB4
:105A800000204FF0FF30009030E04C4B22F00040FF
:105A9000834271D94A492046FAF7C0FBFAF79AFDCA
:105AA0008046FAF7BCFC00F00300009045494046F0
:105AB000FAF7B4FB054644494046FAF7AFFB064601
:105AC00042494046FAF7AAFB074641494046FAF7E1
:105AD000A5FB2146FAF79FFB3946FAF799FB3146B9
