:020000040800F2
:10000000C808002001010008090100080B010008D0
:100010000D0100080F010008110100080000000098
:1000200000000000000000000000000013010008B4
:100030001501000800000000170100083D25000818
:100040001B0100081B0100081B0100081B01000820
:100050001B0100081B0100081B010008450F0008D8
:100060001B0100081B0100081B010008650A0008AD
:100070001B0100081B0100081B0100081B010008F0
:100080001B0100081B0100081B0100081B010008E0
:100090001B0100081B0100081B0100081B010008D0
:1000A0001B0100081B0100081B0100081B010008C0
:1000B0001B0100081B0100081B0100081B010008B0
:1000C0001B0100081B0100081B0100081B010008A0
:1000D0001B0100081B0100081B0100081B01000890
:1000E000C10D00081B0100081B010008DFF80CD03F
:1000F00000F044F900480047B52C0008C80800206B
:100100000648804706480047FEE7FEE7FEE7FEE7B1
:10011000FEE7FEE7FEE7FEE7FEE7FEE785250008CF
:10012000ED000008F0B480EA0102D40F4200B2EB07
:10013000410F02D20246084611464A0042D0C30D82
:10014000DDB2C1F3C752AD1A202D35DAC1F3160165
:1001500041F4000204B15242C5F1200602FA06F150
:100160002A411044B3EBD05F23D0C4B1012DA0EBE2
:10017000C35009DCF0BC4FF0004202EAC352DBB2CC
:1001800000F5000000F0CBB8400000F1807000EBFB
:10019000C350A0F1807040EAD170490009E04908DD
:1001A00041EAC071A0EBC35000F50000400800EB2D
:1001B000C350F0BC00F0AAB86142012202EB410139
:1001C000001BF6E7F0BC704781F00041AAE780F021
:1001D0000040A7E780EA010210B502F000434000AA
:1001E00022D04A001FD0010E01EB1261C0F356006D
:1001F000C2F3560240F4000042F40002A0FB0220C9
:1002000000047F39140400D0401C50EA124001D48D
:100210004000491EC2B20C0604EBD010401C40083E
:10022000802A02D003E0002010BD20F00100002948
:1002300000DA0020184310BD30B480EA010202F059
:10024000004530F0004221F0004013D090B1C30DC2
:10025000D40DC2F31601C0F31600E41A41F40001F4
:1002600040F400027D34914201D3641C00E0490057
:10027000002C02DA30BC002070474FF4000000234D
:10028000914201D3891A034340084FEA4101F7D153
:1002900051B1914202D14FF0004105E002D24FF03E
:1002A000010101E06FF0010103EBC450284430BCB0
:1002B00000F02CB8C10F80EAE0700844CA0796230A
:1002C000002100F02CB896230022114600F027B838
:1002D00020F00040C10DC0F3160040F400007F295B
:1002E00001DA00207047962903DCC1F19601C8406D
:1002F0007047963988407047002801DBC0F1004004
:10030000002901DBC1F10041814270470029A8BFEB
:100310007047401C490008BF20F00100704710B42E
:10032000B0FA80FC00FA0CF050EA010404BF10BCE3
:10033000704749B1CCF1200421FA04F411FA0CF110
:1003400018BF012121430843A3EB0C01CB1D4FEA49
:1003500000614FEA102042BF002010BC704700EB44
:10036000C35010440029A4BF10BC7047401C490072
:1003700008BF20F0010010BC70470000064C074D7C
:1003800006E0E06840F0010394E807009847103465
:10039000AC42F6D3FFF7AEFEE0390008003A0008A1
:1003A00010B54E48808840F26C7188427EDD4B4823
:1003B000808840F69401884278DA4848C08840F244
:1003C0006C718842F2DD4548C08840F6940188424D
:1003D000F2DA4348007850B90020424908604249A7
:1003E000086042490860424908603D4908703B493D
:1003F00009884FF47A7201FB02F0C11700EB11512A
:10040000091301F57A71374A12681144354A1160AF
:10041000324949884FF4FA7201FB02F0C11700EB30
:100420001151091301F57A712F4A126811442E4AAD
:1004300011602A4989884FF47A7201FB02F0C117D2
:1004400000EB1151091301F57A71284A1268114421
:10045000264A11602149C9884FF47A7201FB02F0E3
:10046000C11700EB1151091301F57A71204A126886
:1004700011441F4A11601A480078401C184908703E
:10048000084600783C2827DB16480068097890FB6E
:10049000F1F018490880144800681149097890FB68
:1004A000F1F0144948801148006800E014E00C495C
:1004B000097890FBF1F00F498880104600680849E0
:1004C000097890FBF1F00B49C88000200A490870B8
:1004D0000349087001F07EFA10BD00000A000020F8
:1004E0001A0000201C000020200000202400002012
:1004F00028000020120000200800002021B182689E
:1005000042F00102826003E0826822F00102826010
:10051000704721B1826842F48072826003E0826891
:1005200022F480728260704700B591B001210846C4
:1005300001F026FB04200890002007900F904D4802
:1005400006904FF480600C9080200A9020200D903F
:100550004948059080150B90002009904FF4805079
:100560000E9005A9454800F0D4FA01220221434823
:1005700000F0C6FA0B2000280DDB00BF00BF00F022
:100580001F02012191404209920002F1E022C2F8CB
:10059000001100BF00BF00BF0121384800F08EFAF3
:1005A00001214FF4017001F00BFB0F20ADF840006A
:1005B00000208DF8430010A9314800F043FE0020D0
:1005C0008DF8050003904FF4202002900020009049
:1005D00004208DF8100001208DF80400694626489B
:1005E0004C3800F065F8012123484C38FFF786FFAE
:1005F000012121484C38FFF78CFF4FF4404001F0B7
:10060000B3FA0723012200211B484C3800F078F888
:1006100007230222012118484C3800F071F8072303
:100620000322022114484C3800F06AF80723042200
:10063000032111484C3800F063F80F484C3800F0A3
:10064000BBF800BF0C484C3800F027F80028F9D15F
:1006500009484C3800F0B5F800BF07484C3800F0A6
:100660001CF80028F9D1012103484C3800F00AF8A1
:1006700011B000BD0A0000204C24014008000240D7
:100680000008014021B1826842F48012826003E0D8
:10069000826822F4801282607047014600208A68D6
:1006A00002F004020AB1012000E0002070470000BF
:1006B00030B502460020002350680F4C20400D79D1
:1006C0000C6844EA05242043506090680B4C20409D
:1006D000D1E902542C434D7944EA4504204390600B
:1006E000D06A20F470000C7C641EE4B2234340EA1C
:1006F0000350D06230BD0000FFFEF0FFFDF7F1FFB8
:10070000F0B504460D4600200021092D11DDE068FA
:10071000A5F10A0606EB4607072606FA07F1884305
:10072000A5F10A0606EB460603FA06F10843E06067
:100730000CE0206905EB4507072606FA07F1884318
:1007400005EB450603FA06F108432061072A0FDA94
:10075000606B561E06EB86071F2606FA07F18843D4
:10076000561E06EB860605FA06F10843606322E092
:100770000D2A0FDA206BD61F06EB86071F2606FA16
:1007800007F18843D61F06EB860605FA06F10843F3
:10079000206310E0E06AA2F10D0606EB86071F2633
:1007A00006FA07F18843A2F10D0606EB860605FA64
:1007B00006F10843E062F0BD816841F00801816004
:1007C0007047816841F00401816070470FB581B0C6
:1007D00000200090BDF80400BDF80810884208DD34
:1007E000BDF80400BDF80C10884202DA40F2DC507B
:1007F0000190BDF80400BDF80810884209DABDF880
:10080000080040F2DC51081ABDF80410084480B218
:100810000190BDF80400BDF80C10884209DDBDF858
:10082000080040F2DC51081ABDF80410081A80B222
:100830000190BDF80400BDF81010884202DCBDF83C
:10084000100001E0BDF804000190BDF80400BDF8FF
:100850001810884202DBBDF8180001E0BDF8040062
:100860000190BDF804000090BDF8000005B000BD87
:100870000EB50121092001F0A3F94FF47040ADF845
:10088000080004208DF80B0003208DF80A0002A94F
:10089000384800F0D7FC4FF40050009000208DF84D
:1008A00004000C208DF8050001208DF80600684634
:1008B00000F0D4FB4FF48050009000208DF804002D
:1008C0000C208DF8050001208DF80600684600F028
:1008D000C5FB4FF48040009000208DF804000C20F0
:1008E0008DF8050001208DF80600684600F0B6FB83
:1008F0004FF40040009000208DF804000C208DF88B
:10090000050001208DF80600684600F0A7FB0C21C9
:10091000012000F077FC0D21012000F073FC0E2176
:10092000012000F06FFC0F21012000F06BFC4FF460
:10093000805000F079FB4FF4005000F075FB4FF44D
:10094000804000F071FB4FF4004000F06DFB282068
:1009500000280DDB00BF00BF00F01F020121914005
:100960004209920002F1E022C2F8001100BF00BF6C
:1009700000BF0EBD000C014010B50C480078C0F35C
:10098000001030B106230AA20321582000F0EBFF2B
:1009900005E0062308A20321582000F0E4FF01F03F
:1009A0009DFC02F06DF800F079FD10BD48000020BC
:1009B000556E6C6F636B00004C6F636B2020000002
:1009C0000748808806280ADA0548C088062806DA1B
:1009D00003484088062802DA01200249087070475F
:1009E0000A0000200800002008B500F0E6FD002302
:1009F000124A1946012000F0BBFE082310A2002174
:100A00001C2000F0B0FF0023104A1946792000F0A6
:100A1000DAFE06230EA200216F2000F0A4FF0620BC
:100A200002230022012100906C2000F05FFF0823C8
:100A300008A20321102000F096FF08BD1E3900080F
:100A400020526F626F466C7900000000FE3800088B
:100A500025000000436F6E6E656374696E672E2E0D
:100A60002E00000010B5022000F034F8012811D14A
:100A7000FFF7A6FF0848007808B1FFF791FC0120B6
:100A800000F0B6FF054801F03DFA00F06BFC0220D3
:100A900000F006F810BD000008000020B804002097
:100AA00000F0805111B10349086001E0024948603B
:100AB00070470000040402400000024021B10268B7
:100AC00042F00102026004E002684FF6FE731A4031
:100AD0000260704701460020002201F0805313B1EC
:100AE000054B1A6801E0054B1A6802EA01030BB1D5
:100AF000012000E000207047000402400000024096
:100B00001AB103680B43036002E003688B43036080
:100B1000704710B50022026847F6F0739A430C6ADA
:100B20008B6823430C6923434C6923438C6923431B
:100B3000CC6923434C6A23438C6A23431A430260E3
:100B4000CB6843600B6883604B68C36010BD0000D6
:100B5000F8B500245348007800287DD001F0C4F88F
:100B60000020504908705048B0F9020000280CDA03
:100B700006234EA20721402000F0F5FE4A48408897
:100B8000404200B24849488005E0062349A20721B7
:100B9000402000F0E8FE4448B0F9040000280CDAD8
:100BA000062346A20521002000F0DDFE3E48808895
:100BB000404200B23C49888005E0062341A205215D
:100BC000002000F0D0FE3848B0F9060000280CDA0A
:100BD00006233EA20521402000F0C5FE3248C08811
:100BE000404200B23049C88005E0062339A2052101
:100BF000402000F0B8FE01F04BFCFFF7BDFE2A4993
:100C0000B1F90A00FFF756FB07463449FFF7DCFA53
:100C100006463349FFF710FB05463249FFF7DAFA7B
:100C2000044606200090204802880423032118204F
:100C300000F05CFE062000901B48B0F9042002235F
:100C40000521202000F052FE062000901648B0F941
:100C500006200223052100E022E0602000F046FE8D
:100C6000062000901048B0F90220022307216020DE
:100C700000F03CFE062000900B48B0F9082002234B
:100C80000721202000F032FE2046FFF721FB054619
:100C9000062002232A46012100906C2000F026FE47
:100CA000F8BD00003A000020AC0400205941573A3A
:100CB0002D0000005941573A20000000524F4C3A95
:100CC0002D000000524F4C3A200000005049543A89
:100CD0002D0000005049543A2000000000009643C7
:100CE0000000F0420000C84208B500F066FC002396
:100CF000214A1946012000F03BFD08231FA20021D4
:100D00001C2000F030FE00231F4A1946792000F015
:100D10005AFD06231DA200216F2000F024FE0620AC
:100D200002236322012100906C2000F0DFFD0623E6
:100D300017A20321002000F016FE062316A20321AD
:100D4000402000F010FE062315A20521002000F02F
:100D50000AFE062314A20521402000F004FE06230B
:100D600013A20721002000F0FEFD062312A2072196
:100D7000402000F0F8FD08BD1E39000820526F62C7
:100D80006F466C7900000000FE3800082500000066
:100D90005448523A000000004D4F443A0000000011
:100DA000524F4C3A000000005049543A00000000F5
:100DB000414C543A000000005941573A00000000ED
:100DC00010B54FF4804000F035F948B35948006839
:100DD00000F48040F8B90A2001F038FF5548006857
:100DE00000F48040B8B900BF5248006800F4804069
:100DF0000028F9D050484088642800DB10BD4F48D7
:100E0000007880F002004D490870082000F0F0FDE5
:100E10004B4801F077F84FF4804000F005F987E087
:100E20004FF4004000F006F948B34248006800F46F
:100E30000040F8B90A2001F009FF3E48006800F4BC
:100E40000040B8B900BF3B48006800F400400028EB
:100E5000F9D039484088642800DBCFE7374800786C
:100E600080F0010035490870082000F0C1FD3448C9
:100E700001F048F84FF4004000F0D6F858E04FF485
:100E8000005000F0D7F850B32A48006800F4005032
:100E900000BB0A2001F0DAFE2648006800F400508A
:100EA00090B900BF2348006800F400500028F9D032
:100EB0002248007840F0040020490870082000F023
:100EC00097FD1F4801F01EF81C48007820F0040030
:100ED0001A4908704FF4005000F0A6F828E04FF4CB
:100EE000805000F0A7F818B31248006800F4805052
:100EF000D0B90A2001F0AAFE0E48006800F4805024
:100F000090B900BF0B48006800F480500028F9D069
:100F10000A48007880F0080008490870082000F0AE
:100F200067FD074800F0EEFF4FF4805000F07CF8BA
:100F300000BF63E7080C01400A0000200000002009
:100F4000B804002010B53048006840F001002E4978
:100F50000860072001F0C2F82C49087008460078A4
:100F600000F02000C0B100F0A5FE2948007800F094
:100F7000010020B14FF4005000F07EFA03E04FF47E
:100F8000005000F083FA2021272001F0EBF8FF2128
:100F9000E12001F0E7F833E01C48007800F0400061
:100FA00068B101201B4908701B4800F08FFF012029
:100FB0001A4908704021272001F0D4F820E0134896
:100FC000007800F01000D8B1154801880088401C56
:100FD000134A1080642905DD0120124908700020A1
:100FE0000C4908704FF4005000F03CFA00F062FE2B
:100FF0001021272001F0B6F8FF21E12001F0B2F81E
:10100000022000F011F810BD140C0140390000203E
:10101000000000203B0000208C0400203A0000204B
:10102000420000203C000020014908607047000099
:1010300014040140014600200022074B1B6803EA0C
:101040000102054B14331B680B4013B10AB1012098
:1010500000E0002070470000000401400021234907
:101060008279002A3AD00A46126803689A430B46EE
:101070001A600A1D126803689A430B1D1A600279F0
:1010800011440A6803681A430A60184A0832126851
:1010900003689A43154B08331A601A1D12680368D7
:1010A0009A43124B0C331A604279102A0ED11A1F40
:1010B000126803681A430D4B08331A601A1D126830
:1010C00003681A43094B0C331A600DE00749427953
:1010D00011440A6803681A430A6005E00279114462
:1010E0000A6803689A430A607047000000040140E0
:1010F00030B5044604254FF4302000F06FF8054663
:10110000042D17D10C48006940F002000A4908611B
:1011100008464461006940F0400008614FF4302007
:1011200000F05CF805460448006941F6FD7108408E
:1011300001490861284630BD0020024004200B49C7
:10114000C96801F0010109B101200EE00749C96831
:1011500001F0040109B1022007E00449C96801F067
:10116000100109B1032000E0042070470020024074
:101170000348006940F080000149086170470000A1
:101180000020024070B504460D460426F00200F02F
:1011900025F80646042E11D10948006940F00100E7
:1011A000074908612580F00200F018F80646044857
:1011B000006941F6FE71084001490861304670BD82
:1011C00000200240024803494860034848607047D5
:1011D0002301674500200240AB89EFCD00B50246F0
:1011E0000423FFF7ABFF034603E0FFF7A7FF034627
:1011F000521E012B01D1002AF7D102B9052318464E
:1012000000BD000030B500228B071C0F0F2303FA2E
:1012100004F20B4B8C1053F824309343084C8D1080
:1012200044F8253023468C1053F824308C07240FC3
:1012300000FA04F42343024C8D1044F8253030BDED
:10124000080001402DE9F04102460025002600205B
:1012500000230024002791F803C00CF00F0591F83B
:1012600003C00CF0100CBCF1000F03D091F802C0C9
:101270004CEA050591F800C0BCF1000F31D01468AC
:1012800000202BE04FF0010C0CFA00F3B1F800C085
:101290000CEA03069E4220D183004FF00F0C0CFA9B
:1012A00003F7BC4305FA03FC4CEA040491F803C0BD
:1012B000BCF1280F06D14FF0010C0CFA00FCC2F86B
:1012C00014C00AE091F803C0BCF1480F05D14FF0FB
:1012D000010C0CFA00FCC2F810C0401C0828D1D345
:1012E0001460B1F800C0BCF1FF0F34DD5468002079
:1012F0002EE000F1080C4FF0010808FA0CF3B1F8E9
:1013000000C00CEA03069E4221D183004FF00F0C6F
:101310000CFA03F7BC4305FA03FC4CEA040491F809
:1013200003C0BCF1280F05D100F1080C08FA0CF835
:10133000C2F8148091F803C0BCF1480F07D100F146
:10134000080C4FF0010808FA0CF8C2F81080401C95
:101350000828CED35460BDE8F08141617047016137
:101360007047000070B5154801880088401C134A7A
:101370001080642904D1002011460880104908809B
:101380000E480088FEF79FFF04460D480088FEF7D0
:101390009AFF05462146FEF74FFF0A4908604FF0C5
:1013A0007E5108480068FEF7A7FF05D101200649D5
:1013B000087000200549087070BD00004000002042
:1013C00042000020440000203C0000203B000020A0
:1013D00010B540210748FFF7C2FF80210548FFF7FD
:1013E000BEFF80210348FFF7B8FF40210148FFF707
:1013F000B4FF10BD000C014010B540210548FFF7B7
:10140000AEFF80210348FFF7A8FF80210148FFF7C6
:10141000A6FF10BD000C014010B540210348FFF7A6
:101420009EFF40210148FFF798FF10BD000C0140CE
:1014300008B50121102000F0C3FB4FF40050ADF8B7
:10144000000010208DF8030003208DF8020069468B
:101450000348FFF7F7FE4FF4005000F003F808BD13
:101460000010014010B5044621460248FFF777FFFF
:1014700010BD00000010014010B50446214602488E
:10148000FFF76BFF10BD0000001001400249C96862
:101490004140014AD16070470010014010B500245E
:1014A0001C480078C0F38010C8B11B48007878B39E
:1014B00000F0A2F808E00423184A1946202000F0A2
:1014C000ADF93C2001F0C2FB2046611C8CB214280F
:1014D000F1DB002010490870FFF706FC18E00E4809
:1014E0000078A8B900F088F808E004230C4A1946EF
:1014F000202000F093F93C2001F0A8FB2046611C5D
:101500008CB21428F1DB012003490870FFF7ECFBD3
:1015100010BD0000480000202D0000207E3800088B
:10152000FE37000810B500221146052000F025F80E
:10153000044621464FF0FF3001F054FB0022012108
:10154000052000F01AF804462146072001F04AFB66
:1015500001221146052000F010F8044621460B2018
:1015600001F040FB02221146052000F006F8044677
:101570002146282001F036FB10BDF0B503460C468D
:1015800003F00701C1F10700042801D9042001E09C
:10159000C1F107000646081D072801D2002000E01F
:1015A000C81E05460120B040401E2040A84001272B
:1015B000AF407F1E17403843F0BD70B5002418E0DF
:1015C00004F1B000002100F0EBF90021084600F022
:1015D000E7F90021102000F0E3F9002505E00121E2
:1015E000002000F0DDF9681CC5B2802DF7DB601C1F
:1015F000C4B2082CE4DB70BD70B5022418E004F11D
:10160000B000002100F0CCF90021084600F0C8F934
:101610000021102000F0C4F9002505E00121002080
:1016200000F0BEF9681CC5B2802DF7DB601CC4B2A7
:10163000082CE4DB70BD000008B50121082000F093
:10164000BFFAC020ADF8000010208DF80300032081
:101650008DF8020069463B48FFF7F4FDC021394888
:10166000FFF77DFE642001F0F1FA0021AE2000F0CA
:1016700097F90021084600F093F90021102000F0AE
:101680008FF90021402000F08BF90021B02000F0FC
:1016900087F90021812000F083F90021FF2000F06C
:1016A0007FF90021A12000F07BF90021A62000F0A5
:1016B00077F90021A82000F073F900213F2000F005
:1016C0006FF90021C82000F06BF90021D32000F051
:1016D00067F90021084600F063F90021D52000F0E9
:1016E0005FF90021802000F05BF90021D82000F094
:1016F00057F90021052000F053F90021D92000F00E
:101700004FF90021F12000F04BF90021DA2000F020
:1017100047F90021122000F043F90021DB2000F0FE
:101720003FF90021302000F03BF900218D2000F02E
:1017300037F90021142000F033F90021AF2000F028
:101740002FF908BD000C014070B504460D4605F1A7
:10175000B000002100F024F9102141EA141000210A
:1017600000F01EF904F00F00002100F019F970BD1F
:101770002DE9F04180460F4615461E463946404643
:10178000FFF7E2FF002407E005EB4611085D0121A9
:1017900000F006F9601CC4B2102CF5DB781CC1B255
:1017A0004046FFF7D1FF002409E07100491C05EB1A
:1017B0000111085D012100F0F3F8601CC4B2102C87
:1017C000F3DBBDE8F0812DE9F04180460F46154678
:1017D0001E4639464046FFF7B7FF002407E005EBF9
:1017E0004611085D012100F0DBF8601CC4B2072C33
:1017F000F5DB781CC1B24046FFF7A6FF002409E0E4
:101800007100491C05EB0111085D012100F0C8F8C9
:10181000601CC4B2072CF3DBBDE8F0812DE9F04178
:1018200005460F4690461E46002409E005EB0411CC
:10183000C8B2234642463946FFF79AFF601CC4B23D
:10184000B442F3DBBDE8F0812DE9F04707460E46D0
:101850009046994600250024A8F12000C5B27F2FAC
:1018600002DD0027B01CC6B2B9F1080F24D1314601
:101870003846FFF769FF002408E004EB0511194A18
:10188000505C012100F08CF8601CC4B2082CF4DB21
:10189000701CC1B23846FFF757FF002409E004EB83
:1018A000051108310F4A505C012100F079F8601CE5
:1018B000C4B2082CF3DB12E031463846FFF744FF90
:1018C00000240AE005EB4501074A02EB4101085DEF
:1018D000012100F065F8601CC4B2062CF2DBBDE803
:1018E000F08700004E2F0008262D00082DE9F05F3C
:1018F00006468A4691461D460A9F4FF0000B00247B
:101900002DE0281B401EC1B20A2001F001FAB9FBEC
:10191000F0F00A21B0FBF1F201FB1208BBF1000F5D
:1019200010D1681EA0420DDDB8F1000F08D107FBF1
:101930000461C8B23B4620225146FFF785FF0CE008
:101940004FF0010B08F13001CAB207FB0461C8B2C5
:101950003B465146FFF778FF00BF601CC4B2AC4263
:10196000CFDBBDE8F09F2DE9F04104460F46154658
:10197000984600260FE0AA5D434639462046FFF709
:1019800063FF04EB0800C4B2782C02DD0024B81C0D
:10199000C7B2701CC6B2A85D0028ECD1BDE8F081CA
:1019A00070B504460D461DB1E0B201F0FDF802E04D
:1019B000E0B201F0E3F870BD10B5062422460349F9
:1019C000034800F0EFFB00F0FBFE10BD8004002098
:1019D00000FE000810B500F0ABF8062422460249CC
:1019E000024800F0F3FB10BD8004002000FE000858
:1019F00018B50446494909884FF4487201FB02F0C2
:101A0000C11700EB1151091301F24C41444A1180F6
:101A100040F26C7011460090088840F24C4340F24E
:101A2000FA5240F2BE51FEF7D1FE3D4908803B49D3
:101A300049884FF47A7201FB02F0C11700EB115193
:101A40000913374A5180354989884FF4487201FBA0
:101A500002F0C11700EB1151091301F24C41304A59
:101A6000918040F26C7011460090888840F24C439F
:101A700040F2FA5240F2BE51FEF7A8FE2849888093
:101A80002649C9884FF4487201FB02F0C11700EBE8
:101A90001151091301F24C41214AD18040F26C707E
:101AA00011460090C88840F24C4340F2FA5240F28E
:101AB000BE51FEF78BFE1A49C8801A480078C82824
:101AC00003DB00201749087004E016480078401C2A
:101AD000144908701448047014480078124948707A
:101AE0000F48007888700E484078C8700C4880789D
:101AF00008710B48C0784871094800798871084816
:101B00004079C8710648807908720548C0794872E2
:101B1000044800788872A520C87218BD0A00002009
:101B20004C00002049000020B804002000000020E4
:101B3000094800790949088009480079488009481E
:101B40000088888007484088C880064880880881C7
:101B50000448C088488170472F000020800400207E
:101B6000340000201200002001460020034A506883
:101B700020F44040084350607047000000100240CD
:101B800029B1064A52690243044B5A6104E0034AF0
:101B900052698243014B5A617047000000100240B5
:101BA00029B1064AD2690243044BDA6104E0034AD0
:101BB000D2698243014BDA61704700000010024095
:101BC00029B1064A92690243044B9A6104E0034A30
:101BD00092698243014B9A617047000000100240F5
:101BE00030B500210022002400232D4D6D6805F042
:101BF0000C0121B1042905D0082923D105E0294D84
:101C0000056022E0274D05601FE0254D6D6805F455
:101C10007012234D6D6805F48034022505EB924265
:101C20001CB9214D554305600BE01D4D6D6805F451
:101C300000351DB11C4D5543056002E0194D55435B
:101C4000056002E0174D056000BF00BF144D6D68D0
:101C500005F0F0010909154D6B5C0568DD40456034
:101C60000F4D6D6805F4E061090A104D6B5C456825
:101C7000DD4085600A4D6D6805F46051C90A0B4D61
:101C80006B5C4568DD40C560054D6D6805F44041FD
:101C9000890B074D6B5CC568B5FBF3F5056130BD7D
:101CA0000010024000127A0000093D00540000209C
:101CB0006400002010B50B48006840F0010009499D
:101CC00008600F21202000F04DFA7E21272000F02F
:101CD00049FA0448001F006840F001000149091F4B
:101CE000086010BD140C014026480078FF2848D138
:101CF00024484078244908702248C07821498978CE
:101D000040EA0120214908801E480079000200B203
:101D10001C4949790843642190FBF1F000B21B494A
:101D2000488018488079000200B21649C9790843F2
:101D3000642190FBF1F000B21449C8801148007A88
:101D4000000200B20F49497A0843642190FBF1F088
:101D500000B20E4988800B48807A000200B209491F
:101D6000C97A0843642190FBF1F000B20749088169
:101D70000448007B000200B20249497B0843034942
:101D8000488170478C04002048000020AC040020EB
:101D900010B50948007860B1FEF726FE07480078C4
:101DA00028B1FEF7A1FF00200349087010BD00F024
:101DB00007F800BFFAE700003C0000203B000020CD
:101DC0000EB500F0CFF801210920FFF7F9FE012040
:101DD000ADF8080010208DF80B0003208DF80A00E4
:101DE00002A93748FFF72EFA0220ADF80800482074
:101DF0008DF80B0003208DF80A0002A93048FFF788
:101E000021FA0220009001208DF8060000208DF8B4
:101E100004000C208DF805006846FFF71FF901212A
:101E20000846FFF7EFF9072000280DDB00BF00BFD1
:101E300000F01F02012191404209920002F1E022CC
:101E4000C2F8001100BF00BF00BF1D481430006879
:101E500040F001001A49143108600321232000F0EA
:101E600081F905221749302000F054F9052216495E
:101E70002A2000F04FF91A21242000F073F90121E3
:101E8000212000F06FF90121222000F06BF92721B9
:101E9000262000F067F91E21252000F063F920219B
:101EA000312000F05FF90F21202000F05BF9044899
:101EB0001030006840F001000149103108600EBD8B
:101EC000000C01402F0000203400002010B5044613
:101ED0000B48006840F001000949086020222146B3
:101EE000612000F0D3F8FF21E22000F03BF9044824
:101EF000001F006840F001000149091F086010BD83
:101F0000140C014010B504460F48006840F0010071
:101F10000D49086020222146A02000F0FBF80E2188
:101F2000202000F01FF97E21272000F01BF9064831
:101F3000001F006840F001000349091F08600120EC
:101F400000F084FE10BD0000140C014021B1028895
:101F500042F04002028004E002884FF6BF731A404C
:101F60000280704700B587B001210420FFF728FEEA
:101F7000E020ADF8040018208DF8070003208DF84C
:101F8000060001A91B48FFF75DF91020ADF8040019
:101F90008DF8070003208DF8060001A91548FFF70A
:101FA00051F901210803FFF70BFE0020ADF80800EE
:101FB0004FF48270ADF80A000020ADF80C00ADF8C7
:101FC0000E00ADF810004FF40070ADF812001820AC
:101FD000ADF814000020ADF816000720ADF8180089
:101FE00002A9054800F018F801210348FFF7AEFFE9
:101FF00007B000BD0008014000300140024600204B
:1020000013890B400BB1012000E00020704701460E
:10201000888970478181704710B50022028802F4D8
:1020200041520B884C8823438C882343CC8823431C
:102030000C8923434C8923438C892343CC89234334
:102040001A430280838B4FF2FF74234083830B8AF1
:10205000038210BD10B5044600BF02210A48FFF7F5
:10206000CDFF0028F9D021460748FFF7D3FF00BF76
:1020700001210548FFF7C2FF0028F9D00248FFF709
:10208000C6FFC0B210BD00000030014070B506466A
:102090000C4615460F48006840F010000D490860D6
:1020A0003046FFF7D7FF0C49087006E00020FFF725
:1020B000D1FF2070641C681EC5B2002DF6D1054802
:1020C000001F006840F010000249091F0860024824
:1020D000007870BD140801402E00002070B5044641
:1020E0000B48006840F01000094908602046FFF7DF
:1020F000B1FF0020FFF7AEFF05460548001F00684E
:1021000040F010000249091F0860284670BD000019
:102110001408014070B506460C4615460F48006885
:1021200040F010000D4908603046FFF793FF0C495E
:10213000087005E02078FFF78DFF641C681EC5B2AB
:10214000002DF7D10548001F006840F0100003493A
:10215000091F08600248007870BD000014080140A3
:102160002E00002070B505460C460C48006840F073
:1021700010000A4908602846FFF76CFF08490870FC
:102180002046FFF767FF0548001F006840F0100079
:102190000249091F08600248007870BD1408014018
:1021A0002E00002030B503460C461546002207E0FD
:1021B000184600F008F824F812009B1C501C82B24C
:1021C000AA42F5DB30BD0146088870472DE9F05F73
:1021D00080468A461746B8F1006F02D333488045DF
:1021E00001D3BDE8F09FFEF7EDFFA8F1006B4FEAC9
:1021F0009B25CBF34809C9F50074A74200DC3C4697
:102200004DE04FF0006101EB85208A142849FFF76B
:10221000C9FF00260BE009EB0600254931F8100044
:102220004FF6FF71884200D003E0701C86B2A642D0
:10223000F1DB00BFA6421BDA4FF0006101EB852005
:10224000FEF756FF002608E03AF8160006EB0901F3
:10225000174A22F81100701C86B2A642F4DB4FF038
:10226000006101EB85208A14114900F023F804E095
:1022700022465146404600F01DF8A74200D10FE02B
:102280006D1C4FF000090AEB440AA044381B87B2CA
:10229000B7F5007F02DD4FF4007400E03C46B0E784
:1022A00000BFFEF765FF00BF9BE7000000000108CC
:1022B000800000202DE9F04105460E461746002417
:1022C00007E036F814102846FEF75CFFAD1C601CD2
:1022D00084B2BC42F5DBBDE8F081000010B52D48AA
:1022E000007800F00100C0B1FFF786F90DE0FFF7BC
:1022F000FBFC0323284A19462820FFF78FFA042302
:10230000264A05212020FFF789FA2248007800F0AC
:1023100001000028EBD1FEF7E7FC1E480078C0F36F
:102320004000C0B1FFF768F90DE0FFF7DDFC0323C3
:102330001B4A19462820FFF771FA0423174A052182
:102340002020FFF76BFA13480078C0F34000002804
:10235000EBD1FEF7C9FC0F480078C0F38000C0B194
:10236000FFF74AF90DE0FFF7BFFC03230D4A1946BA
:102370002820FFF753FA0423084A05212020FFF7FD
:102380004DFA04480078C0F380000028EBD1FEF736
:10239000ABFC10BD480000201E3600083E3500088A
:1023A000BE3500087E36000810B500F001F810BDFB
:1023B0000CB50020019000903348006840F4803054
:1023C0003149086000BF3048006800F400300090D8
:1023D0000198401C0190009818B90198B0F5A06FC1
:1023E000F1D12948006800F4003010B101200090BC
:1023F00001E0002000900098012843D123480068A4
:1024000040F01000214908600846006820F00300F1
:1024100008600846006840F0020008601A484068FA
:10242000194948600846406848600846406840F4DA
:10243000806048600846406820F47C104860084688
:10244000406840F4E81048600846006840F080703A
:10245000086000BF0C48006800F000700028F9D048
:102460000948406820F00300074948600846406872
:1024700040F00200486000BF0348406800F00C00D4
:102480000828F9D10CBD00000010024000200240D5
:1024900010B5244924480068FDF72EFF06D200231A
:1024A000224A19460120FFF763F93AE020491E4805
:1024B0000068FDF721FF06D201231C4A00211846BF
:1024C000FFF756F92DE01B4917480068FDF714FF88
:1024D00006D20223154A00210120FFF749F920E026
:1024E000154911480068FDF707FF06D203230F4A7C
:1024F00000210120FFF73CF913E04FF07E510A481C
:102500000068FDF7F9FE06D20423084A00210120E5
:10251000FFF72EF905E00523044A00210120FFF70B
:1025200027F910BDCDCC4C3E440000201E390008D8
:10253000CDCCCC3E9A99193FCDCC4C3F0448006895
:1025400020B103480068401E014908607047000040
:1025500004000020094800680949B0FBF1F0401E62
:102560004FF0E0214861002088610620086108469C
:10257000006920F001000861704700006800002039
:1025800040420F0010B51348006840F001001149A7
:10259000086008464068104908400E4948600846EF
:1025A00000680E4908400B4908600846006820F49E
:1025B000802008600846406820F4FE0048604FF420
:1025C0001F008860FFF7F0FE4FF0006004490860CC
:1025D00010BD0000001002400000FFF8FFFFF6FEF3
:1025E00008ED00E021B1028842F08002028004E0A0
:1025F00002884FF67F731A400280704721B102882B
:1026000042F00102028004E002884FF6FE731A4095
:102610000280704770B5002200230024058C4EF61E
:10262000FF7635400584038C8488828B48F6FF75DD
:102630002A404FF6FF452A400D884FF6FF7606EAFE
:1026400005252A434DF6FF752B400D8906EA053511
:102650002B434D8806EA05352B430B4DA84202D08B
:102660000A4DA84208D14BF6FF752C408D894FF6D4
:10267000FF7606EA85152C4384808283CD88A0F8F6
:102680004050038470BD0000002C01400034014024
:102690000A460021818B4FF2FF7319404FF6FF73FA
:1026A00003EA0223194381837047000030B587B0E5
:1026B00042F210756C1001210420FFF771FA00201E
:1026C000ADF8160040F2CF20ADF810000020ADF8B4
:1026D0001200ADF8145004A90F4800F01FF8602054
:1026E000ADF800000020ADF808000120ADF80200B0
:1026F000ADF8064069460848FFF78CFF01210648FF
:10270000FFF770FF08210448FFF7C2FF01210248CC
:10271000FFF774FF07B030BD0008004000220288B8
:102720001D4B98420ED01D4B98420BD0B0F1804FFC
:1027300008D01B4B984205D01A4B984202D01A4B36
:10274000984204D14FF68F731A404B881A43174BA7
:10275000984207D0164B984204D04FF6FF431A40D8
:10276000CB881A4302808B8883850B8803850A4BAC
:1027700098420BD0094B984208D00E4B984205D096
:102780000D4B984202D00D4B984201D10B7A038633
:102790000123838270470000002C01400034014077
:1027A0000004004000080040000C00400010004001
:1027B0000014004000400140004401400048014036
:1027C0000A4800780A490871084880780949087160
:1027D00006488088084908800448C0884880034823
:1027E0000089888001484089C880704780040020A3
:1027F0002F000020340000201200002021B1828927
:1028000042F40052828104E082894DF6FF731A403F
:102810008281704700B585B001210420FFF7D0F90F
:1028200001218803FFF7CCF94FF40070ADF81000D8
:1028300018208DF8130003208DF8120004A9144805
:10284000FEF700FD4FF48060ADF8100004208DF815
:10285000130004A90E48FEF7F5FC4FF4E130009098
:102860000020ADF80C000C20ADF80A000020ADF8F7
:102870000800ADF80600ADF804006946054800F010
:1028800019F801210348FFF7B9FF05B000BD0000AA
:10289000000801400038014002460020B1F5007FE9
:1028A00000D100BF13880B400BB1012000E00020D5
:1028B000704700002DE9F04786B005460E4600241B
:1028C000A24600BFA1460027B08900B100BF2F4635
:1028D0002C8A4CF6FF700440F08804432C82AC89AB
:1028E0004EF6F3100440B0883189084371890843DB
:1028F0000443AC81AC8A4FF6FF400440B0890443E6
:10290000AC8201A8FFF76CF91F48874202D1DDF8BD
:1029100010A001E0DDF80CA0A88900F4004040B14F
:102920000AEBCA0000EB0A1031684900B0FBF1F86D
:1029300007E00AEBCA0000EB0A1031688900B0FB1F
:10294000F1F86420B8FBF0F004012009642101FBD8
:102950001089A88900F4004040B1322000EBC90082
:10296000B0FBF1F000F00700044308E0322000EB78
:1029700009106421B0FBF1F000F00F0004432C813A
:1029800006B0BDE8F087000000380140C1F308023E
:102990008280704710B5FEF727F856E02B48007884
:1029A00058B100202A4908702A4800792A49097834
:1029B000884201D0FFF70EF810BD25480178007855
:1029C000401C234A10700A290BDAFEF7F5FF214854
:1029D000007921490870FFF7F3F9322000F036F949
:1029E00023E01C480079401C1A4908711B480079F3
:1029F000401C1A49087117480079322808DD08463A
:102A00000079322804DD0020124908711349087149
:102A1000052210493020FFF77DFB05220F492A20AF
:102A2000FFF778FB642000F011F90D48007830B111
:102A300008230CA203211020FEF795FF05E00823D0
:102A40000BA203211020FEF78EFFA7E73B0000201A
:102A50003D0000202F0000203E0000203400002018
:102A60000800002043616C6962726174696F6E00D6
:102A7000436F6E6E656374696E672E2E2E000000C4
:102A800010B5002422480078C0F3401000B321485C
:102A9000007800283BD1FEF7AFFD0EE008231EA210
:102AA00003213020FEF75FFF03231D4A0521282064
:102AB000FEF7B4FE3C2000F0C9F82046611C8CB241
:102AC0001428EBDB012013490870FEF70DF91EE016
:102AD00010480078D8B1FEF78FFD0EE008230EA253
:102AE00003213020FEF73FFF03230E4A0521282053
:102AF000FEF794FE3C2000F0A9F82046611C8CB241
:102B00001428EBDB002003490870FEF7EDF810BD38
:102B1000480000202C000020576946690000000092
:102B20003E3700089E3700082DE9F04105462C4647
:102B300040211148FEF711FC002619E0274607F056
:102B40008007802F04D180210B48FEF708FC03E0AA
:102B500080210948FEF701FC6006040E402106486A
:102B6000FEF7FDFB40210448FEF7F7FB701CC6B2E0
:102B7000082EE3DBBDE8F081000C014010B50446EF
:102B8000FEF726FC7820FFF7CFFFFEF745FC00207C
:102B9000FFF7CAFFFEF740FC2046FFF7C5FFFEF730
:102BA0003BFCFEF729FC10BD10B50446FEF710FCF7
:102BB0007820FFF7B9FFFEF72FFC4020FFF7B4FFA6
:102BC000FEF72AFC2046FFF7AFFFFEF725FCFEF7D5
:102BD00013FC10BD014A024900F027B8912C0008EF
:102BE0007C00002010B5002804DB0A07130E054AFC
:102BF000135406E00A07140E034A00F00F031B1FCC
:102C0000D45410BD00E400E018ED00E002E008C874
:102C1000121F08C1002AFAD170477047002001E056
:102C200001C1121F002AFBD170472DE9F041164661
:102C30000F460446002503E03946B047641C6D1C6E
:102C400020780028F8D12846BDE8F08100B9704707
:102C50004FF47A7141430D4A116000214FF0E02298
:102C600091611146096941F00101116100BF0749F5
:102C700009680029FBD14FF0E021096921F0010129
:102C80004FF0E022116100BFE1E7000004000020E6
:102C900070B504460D46E1B20548FFF777FE00BF68
:102CA00080210348FFF7F8FD0028F9D0204670BDC9
:102CB00000380140FFF7AEFD10A0FFF78BFFFFF7D4
:102CC00049FCFEF7B9FCFEF72DFCFDF7D1FDFEF740
:102CD000AFFB4FF40050FEF7CFFBFFF771F8FFF7A3
:102CE000E5FCFDF721FCFFF755FEFDF7FDFF03E0D6
:102CF000FDF72EFFFFF74CF8FAE7000075736172DD
:102D0000742069732072656164790D0A0000000007
:102D100010B50246012000E050430B1EA1F1010452
:102D2000E1B2F9D110BD0000000000000000002F4A
:102D3000000000000700070000147F147F14002427
:102D40002A7F2A1200626408132300364955225054
:102D500000000503000000001C2241000000412289
:102D60001C000014083E08140008083E0808000073
:102D700000A060000008080808080000606000006B
:102D8000002010080402003E5149453E0000427FE9
:102D90004000004261514946002141454B31001835
:102DA00014127F10002745454539003C4A494930F7
:102DB00000017109050300364949493600064949B1
:102DC000291E0000363600000000563600000008BC
:102DD0001422410000141414141400004122140899
:102DE00000020151090600324959513E007C12117E
:102DF000127C007F49494936003E41414122007F13
:102E00004141221C007F49494941007F09090901CC
:102E1000003E4149497A007F0808087F0000417F51
:102E20004100002040413F01007F08142241007F03
:102E300040404040007F020C027F007F0408107F6A
:102E4000003E4141413E007F09090906003E4151D3
:102E5000215E007F09192946004649494931000190
:102E6000017F0101003F4040403F001F2040201FE4
:102E7000003F4038403F00631408146300070870A7
:102E8000080700615149454300007F41410000555A
:102E90002A552A55000041417F0000040201020426
:102EA0000040404040400000010204000020545413
:102EB0005478007F48444438003844444420003863
:102EC0004444487F00385454541800087E090102D5
:102ED0000018A4A4A47C007F080404780000447DAA
:102EE0004000004080847D00007F102844000000E6
:102EF000417F4000007C04180478007C08040478BA
:102F000000384444443800FC2424241800182424A5
:102F100018FC007C080404080048545454200004A1
:102F20003F444020003C4040207C001C2040201CAE
:102F3000003C4030403C004428102844001CA0A025
:102F4000A07C004464544C44141414141414000061
:102F50000000000000000000000000000000000071
:102F600000F80000000000000033300000000010F6
:102F70000C06100C0600000000000000000040C01D
:102F80007840C0784000043F04043F04040000700F
:102F900088FC08300000001820FF211E0000F00807
:102FA000F000E018000000211C031E211E0000F0AC
:102FB0000888700000001E212324192721101016F4
:102FC0000E000000000000000000000000000000F3
:102FD00000E0180402000000000718204000000272
:102FE0000418E000000000402018070000004040E6
:102FF00080F0804040000202010F01020200000048
:1030000000F0000000000101011F010101000000AB
:1030100000000000000080B0700000000000000010
:103020000000000000000001010101010101000099
:103030000000000000000030300000000000000030
:10304000000080601804006018060100000000E025
:1030500010080810E000000F102020100F000010D2
:1030600010F8000000000020203F20200000007029
:103070000808088870000030282422213000003021
:103080000888884830000018202020110E00000019
:10309000C02010F8000000070424243F240000F89A
:1030A0000888880808000019212020110E0000E07F
:1030B000108888180000000F112020110E00003821
:1030C0000808C83808000000003F00000000007039
:1030D000880808887000001C222121221C0000E0C2
:1030E00010080810E0000000312222110F0000003B
:1030F00000C0C000000000000030300000000000F0
:10310000008000000000000080600000000000005F
:1031100080402010080000010204081020004040F8
:10312000404040404000040404040404040000083B
:1031300010204080000000201008040201000070F0
:1031400048080808F0000000003036010000C030D8
:10315000C828E810E0000718272423140B000000FB
:10316000C038E0000000203C23020227382008F885
:10317000888888700000203F202020110E00C03079
:10318000080808083800071820202010080008F850
:1031900008080810E000203F202020100F0008F849
:1031A0008888E8081000203F20202320180008F815
:1031B0008888E8081000203F200003000000C0308D
:1031C00008080838000007182020221E020008F80E
:1031D00008000008F808203F210101213F200008D5
:1031E00008F8080800000020203F20200000000010
:1031F0000808F8080800C08080807F00000008F8F8
:1032000088C028180800203F20012638200008F830
:10321000080000000000203F20202020300008F897
:10322000F800F8F80800203F003F003F200008F8B1
:1032300030C00008F808203F200007183F00E010C9
:1032400008080810E0000F10202020100F0008F8D8
:1032500008080808F000203F210101010000E010EB
:1032600008080810E0000F18242438504F0008F810
:10327000888888887000203F2000030C3020007070
:103280008808080838000038202121221C0018086E
:1032900008F8080818000000203F2000000008F887
:1032A00008000008F808001F202020201F000878D0
:1032B000880000C83808000007380E010000F80830
:1032C00000F80008F800033C0700073C030008185A
:1032D00068808068180820302C03032C30200838C0
:1032E000C800C83808000000203F20000000100877
:1032F0000808C838080020382621202018000000BF
:1033000000FE020202000000007F40404000000C6E
:1033100030C000000000000000010638C0000002BC
:103320000202FE000000004040407F00000000005C
:10333000040202020400000000000000000000007F
:10334000000000000000808080808080808000027B
:103350000204000000000000000000000000000067
:103360008080808000000019242222223F2008F85B
:10337000008080000000003F112020110E0000009E
:10338000008080800000000E11202020110000002D
:1033900000808088F800000E112020103F200000DF
:1033A000808080800000001F2222222213000080E3
:1033B00080F0888888180020203F2020000000002E
:1033C000808080808000006B94949493600008F863
:1033D000008080800000203F210000203F200080EE
:1033E0009898000000000020203F202000000000EE
:1033F00000809898000000C08080807F000008F85E
:10340000000080808000203F24022D302000000832
:1034100008F8000000000020203F202000008080ED
:10342000808080808000203F20003F20003F8080FF
:10343000008080800000203F210000203F2000000D
:10344000808080800000001F202020201F008080BE
:1034500000808000000080FFA12020110E000000ED
:10346000008080808000000E112020A0FF808080DE
:1034700080008080800020203F212000010000008B
:103480008080808080000033242424241900008060
:1034900080E0808000000000001F2020000080806D
:1034A000000000808000001F202020103F2080802E
:1034B00080000080808000010E30080601008080BE
:1034C0000080008080800F300C030C300F000080E3
:1034D0008000808080000020312E0E31200080800E
:1034E00080000080808080818E701806010000803E
:1034F0008080808080000021302C2221300000005C
:103500000000807C020200000000003F40400000FC
:103510000000FF00000000000000FF0000000002AB
:10352000027C800000000040403F000000000006D8
:10353000010102020404000000000000000010D09D
:10354000FF9010804828090E0828488800000300D2
:10355000FF00018080432C102C4380800000020C6F
:10356000E04020F84F4849FE484848080000047FE2
:10357000000000FF2222223F22222220000000F829
:10358000888888880808FF08090AC8080000601FA2
:103590000010201F80402116182641F8000008085E
:1035A000F80808081010FF101010F000000030108C
:1035B0001F088848300E014080403F000000101076
:1035C000FF1010F00000F8080808F8000000403074
:1035D0000F40807F00007F2020207F0000004042BD
:1035E000CC0004F49494FF9494F404000000402070
:1035F0001F20484442415F4142444840000000FCD3
:10360000242424FC252624FC242424040000308FB8
:1036100080844C55252525554C8080800000FE0275
:1036200022DA0620D808090E088828180000FF08AA
:10363000100807003F444442414078000000F80869
:10364000FF08F8003EAA6A3E2AAA3E000000632155
:103650001F11394829098DFB09082C58000080608A
:10366000F807001CE0010600E01E0000000000005A
:10367000FF00804020130C13204080800000104C7D
:103680004754545454545454D404040000000000CB
:1036900000000000000000000F3040F0000000FEBD
:1036A0000282828282FA8282828282020000601F0B
:1036B00040404040407F404044584040000040422D
:1036C000CC0040404040FF404040404000000000EF
:1036D0007F2010000000FF00000000000000E45CFC
:1036E000C40008C8398E0808CC3B880800003F1089
:1036F0003F00635A46E100635A46E10000001010A3
:10370000101010FF1010101010F00000000080408A
:103710002018060100204080403F00000000404289
:10372000CC0040404040FF4040404040000000008E
:103730007F2010000000FF000000000000000000DB
:10374000E28282828282828282FE00000000000089
:103750003F40404040404040404040780000808230
:103760008282FE8282828282FE8282828000008049
:1037700040300F0000000000FF00000000000000CB
:1037800000FC4444444546444444447C00004020FA
:10379000180700FC44444444444444FC0000000036
:1037A000E28282828282828282FE00000000000029
:1037B0003F404040404040404040407800000010C2
:1037C00011161010F01010141310000000008141A9
:1037D0004121110D030D1121414181810000F801AA
:1037E00022202222A2FA22222202FE000000FF0052
:1037F00008040211201F000040807F000000040424
:103800000484E43C2724242424E404040400040263
:103810000100FF0909090949897F00000000000033
:10382000106004180000FF0000000000000081810B
:103830004141211109070105091121C101001010A1
:10384000D0FF9014E4AFA4A4A4AFE40400000403E8
:1038500000FF00894B2A1A0E1A2A4B88800010108C
:1038600090909090901010FF1010111610000020F2
:1038700060203F10101000030C102040F8000040A2
:10388000424242C27E42C242424240400000804028
:1038900020100C0300003F4040404070000000003A
:1038A000106004180000FF0000000000000081818B
:1038B0004141211109070105091121C10100101021
:1038C000D0FF9014E4AFA4A4A4AFE4040000040368
:1038D00000FF00894B2A1A0E1A2A4B88800010100C
:1038E00090909090901010FF101011161000002072
:1038F00060203F10101000030C102040F800C04062
:1039000070507040C00000000000000000007F55B3
:10391000405540557F000000000000000000040CEE
:1039200014FC140C04000000008000E00000000003
:10393000007F00600078007E007F007F0000040CA4
:1039400014FC140C040000000080000000000000C3
:10395000007F00600078007E007F00000000040C03
:1039600014FC140C04000000000000000000000023
:10397000007F00600078007E000000000000040C62
:1039800014FC140C04000000000000000000000003
:10399000007F006000780000000000000000040CC0
:1039A00014FC140C040000000000000000000000E3
:1039B000007F006000000000000000000000040C18
:1039C00014FC140C44800000000000804000000043
:1039D000007F00004020110A040A1120400000006E
:1039E000003A000800000020800000000C2C0008B5
:1039F000803A000880000020480800001C2C0008C5
:103A000000000000000000000000000000000000B6
:103A100000000000000000000000000000000000A6
:103A20000000000000000000000000000000003462
:103A3000431010F134431010F100000000000000AA
:103A40000000000000000000000000000000000076
:103A50000000000000000000010203040102030452
:103A6000060708090204060800A24A040000000034
:103A7000000000000102030406070809000000001E
:04000005080000ED02
:00000001FF
